:020000040000FA
:060000003DEF14F01200B8
:0A0006000200F52800006C00000065
:1000100001000000FA2800006A0000000200000051
:10002000D9CFE6FFE1CFD9FF2D0EE126470EE66ED0
:10003000E66A3C0EE66E6FEC12F0E552E552E552D0
:10004000970E146E230E156E166A14C0E6FF15C0C7
:10005000E6FF16C0E6FF23EC12F0E552E552E5524A
:10006000800EE66EE66A010EE66E2EEC13F0E552A7
:10007000E552E552070EE66E5FDBE552F3CFDEFF99
:10008000F4CFDDFFD9CFE9FFDACFEAFFEE50ED1074
:1000900019E0720E146E230E156E166A14C0E6FF78
:1000A00015C0E6FF16C0E6FF23EC12F0E552E5525C
:1000B000E5526CC0E6FF40DBE552F3CFDEFFF4CF44
:1000C000DDFFE0D7550E146E230E156E166A14C0B0
:1000D000E6FF15C0E6FF16C0E6FF23EC12F0E5527E
:1000E000E552E552060EE66EBF0EE66EC0D8E5524A
:1000F000E552000911E0330E146E230E156E166AD8
:1001000014C0E6FF15C0E6FF16C0E6FF23EC12F0B0
:10011000E552E552E55210D00E0E146E230E156E08
:10012000166A14C0E6FF15C0E6FF16C0E6FF23EC12
:1001300012F0E552E552E55224D92B0EDB6A110E7E
:10014000F36E100EF3CFDBFF070EF36E110EF3CF3D
:10015000DBFF130EDB6A400EF36E150EF3CFDBFFF1
:10016000AA0EF36E160EF3CFDBFF600EF36E170EC2
:10017000F3CFDBFF700EF36E180EF3CFDBFF140E20
:10018000DB6A020EE66ED950100FE66E000EDA2022
:10019000E66EA3EC05F0E552E552E552300EE66E50
:1001A00067EC14F0E552D9501D0FE66E000EDA2010
:1001B000E66E98DBE552E55200094DE01D0EDBCFFF
:1001C000E6FF1E0EDBCFE6FFF90E146E220E156E53
:1001D000166A14C0E6FF15C0E6FF16C0E6FF23EC62
:1001E00012F0176E050EE15E1750200EDB50F36E15
:1001F0002B0EDBCFF4FFF350F45C2BE2D950220F2F
:10020000146EDACF15F02B0EDB500F011424E96EBB
:10021000000E1520EA6E2C0EEFCFDBFFDBCFE6FFE2
:10022000E66A2B0EDBCFE6FFE66ADC0E146E220ECA
:10023000156E166A14C0E6FF15C0E6FF16C0E6FF8D
:1002400023EC12F0176E070EE15E17502B0EDB2A1F
:10025000CCD76CEC09F071D70DD72D0EE15C02E222
:10026000E16AE552E16EE552E7CFD9FF1200D9CF3E
:10027000E6FFE1CFD9FFFD0EDB50070802E2FF0EDB
:1002800014D0FE0EDBCFE6FF010EF36EFD0EDB5049
:1002900004E0D890F336E806FCE1F350E552E714A9
:1002A00002E1000E01D0010E00D0E552E7CFD9FFE8
:1002B00012008098010EE66E67EC14F0E552120011
:1002C0008088010EE66E67EC14F0E5521200D9CF7B
:1002D000E6FFE1CFD9FFE652ECDF030EE66EE6EC77
:1002E00013F0E552FE0EDBCFE6FFE6EC13F0E5522D
:1002F00004EC14F0DF6EE4DFDF5000D0E552E5528D
:10030000E7CFD9FF1200D9CFE6FFE1CFD9FFD1DF88
:10031000020EE66EE6EC13F0E552FE0EDBCFE6FFD2
:10032000E6EC13F0E552FD0EDBCFE6FFE6EC13F052
:10033000E552C6DF00D0E552E7CFD9FF1200D9CF92
:10034000E6FFE1CFD9FFB5DF050EE66EE6EC13F070
:10035000E552FE0EDBCFE6FFE6EC13F0E552FD0EB4
:10036000DBCFE6FFE6EC13F0E552FC0EDBCFE6FF59
:10037000E6EC13F0E552A4DF00D0E552E7CFD9FF59
:100380001200D9CFE6FFE1CFD9FFE652E66AE00ED0
:10039000E66E0F0EE66ED3DFE552E552E5520F0E24
:1003A000E66E95DFE552DF6EE00EDF141CE0DFCF76
:1003B00014F0156A14BE156814C0E6FF15C0E6FFF8
:1003C000A90E166E220E176E186A16C0E6FF17C029
:1003D000E6FF18C0E6FF23EC12F0196E050EE15E91
:1003E000195012D011D0890E146E220E156E166A95
:1003F00014C0E6FF15C0E6FF16C0E6FF23EC12F0BE
:10040000E552E552E55200D0E552E552E7CFD9FF7B
:100410001200D9CFE6FFE1CFD9FFE652200EE66EFB
:10042000E00EE66E0F0EE66E8ADFE552E552E5520B
:100430000F0EE66E4CDFE552DF6EE00EDF14200893
:100440001CE0DFCF14F0156A14BE156814C0E6FF77
:1004500015C0E6FF550E166E220E176E186A16C0EE
:10046000E6FF17C0E6FF18C0E6FF23EC12F0196E96
:10047000050EE15E195012D011D0340E146E220E0A
:10048000156E166A14C0E6FF15C0E6FF16C0E6FF3B
:1004900023EC12F0E552E552E55200D0E552E55268
:1004A000E7CFD9FF1200D9CFE6FFE1CFD9FFE6525F
:1004B000400EE66EE66E2B0EE66E41DFE552E5522B
:1004C000E552300EE66E67EC14F0E5522B0EE66E48
:1004D000FEDEE552DF6EDFAC11D0130E146E220E7D
:1004E000156E166A14C0E6FF15C0E6FF16C0E6FFDB
:1004F00023EC12F0E552E552E55210D0000E146ED6
:10050000220E156E166A14C0E6FF15C0E6FF16C06F
:10051000E6FF23EC12F0E552E552E55200D0E55239
:10052000E552E7CFD9FF1200D9CFE6FFE1CFD9FFDF
:10053000E652600EE66EE00EE66E0F0EE66EFFDE31
:10054000E552E552E5520F0EE66EC1DEE552DF6E72
:10055000E00EDF1460081CE0DFCF14F0156A14BE53
:10056000156814C0E6FF15C0E6FFCD0E166E210E0D
:10057000176E186A16C0E6FF17C0E6FF18C0E6FF40
:1005800023EC12F0196E050EE15E195012D011D055
:10059000AB0E146E210E156E166A14C0E6FF15C060
:1005A000E6FF16C0E6FF23EC12F0E552E552E552F5
:1005B00000D0E552E552E7CFD9FF1200D9CFE6FFD0
:1005C000E1CFD9FFE652400EE66EE00EE66E0F0E6A
:1005D000E66EB5DEE552E552E5520F0EE66E77DEC9
:1005E000E552DF6EE00EDF1440081CE0DFCF14F0B0
:1005F000156A14BE156814C0E6FF15C0E6FF770E35
:10060000166E210E176E186A16C0E6FF17C0E6FFB9
:1006100018C0E6FF23EC12F0196E050EE15E1950CA
:1006200012D011D0530E146E210E156E166A14C01E
:10063000E6FF15C0E6FF16C0E6FF23EC12F0E55218
:10064000E552E55200D0E552E552E7CFD9FF12005E
:10065000D9CFE6FFE1CFD9FF020EE126800EE66E8C
:10066000E00EE66E0F0EE66E6ADEE552E552E552EA
:100670000F0EE66E2CDEE552DF6EE00EDF14800812
:100680001BE0DFCF14F0156A14BE156814C0E6FF36
:1006900015C0E6FF220E166E210E176E186A16C0E0
:1006A000E6FF17C0E6FF18C0E6FF23EC12F0196E54
:1006B000050EE15E195010D0000E146E210E156E5D
:1006C000166A14C0E6FF15C0E6FF16C0E6FF23EC6D
:1006D00012F0E552E552E5520E0EE66EF8DDE552F7
:1006E000E76E010EE7CFDBFF010EDBA011D0F40EA9
:1006F000146E200E156E166A14C0E6FF15C0E6FFD4
:1007000016C0E6FF23EC12F0E552E552E552ECD7B5
:10071000020EE15C02E2E16AE552E16EE552E7CFEA
:10072000D9FF1200C6DD080EE66E0F0EE66EEBDD99
:10073000E552E55260EF01F0D9CFE6FFE1CFD9FFF6
:10074000050EE1260F0E926EDE52030EDD6E440E94
:10075000F36E020EF3CFDBFFF10EF36E030EF3CF59
:10076000DBFF050EF36E040EF3CFDBFFA2DD010EFF
:10077000E66E67EC14F0E552C00EE66EE6EC13F0A0
:10078000E5529EDD300EE66E67EC14F0E55291DD29
:10079000020EE66EE6EC13F0E552280EE66EE6EC8D
:1007A00013F0E552040EDBCFE6FFE6EC13F0E55262
:1007B000030EDBCFE6FFE6EC13F0E552020EDBCFD3
:1007C000E6FFE6EC13F0E552010EDBCFE6FFE6ECC8
:1007D00013F0E55275DDE66A0C0EE66E94DDE55227
:1007E000E552E66A0D0EE66E8EDDE552E552600ECC
:1007F000E66EE66E88DDE552E552600EE66E700E3E
:10080000E66E81DDE552E552E66A0F0EE66E7BDDAF
:10081000E552E5522A0EE66E5ADDE552DF6E010E14
:10082000E66E59EC14F0E552020EDB50DF5C14E08A
:10083000DD0E146E200E156E166A14C0E6FF15C08C
:10084000E6FF16C0E6FF23EC12F0E552E552E55252
:10085000F368F46814D010D0C70E146E200E156E15
:10086000166A14C0E6FF15C0E6FF16C0E6FF23ECCB
:1008700012F0E552E552E552F36AF46A00D0050E33
:10088000E15C02E2E16AE552E16EE552E7CFD9FFB1
:100890001200D9CFE6FFE1CFD9FFE6520ADDFE0E06
:1008A000DBCFE6FFE6EC13F0E55204EC14F0DF6E6C
:1008B00007DDDF5000D0E552E552E7CFD9FF120047
:1008C000C7DE680EE66E600EE66E1DDDE552E5528F
:1008D000680EE66E700EE66E16DDE552E55251DDED
:1008E00000D01200D9CFE6FFE1CFD9FF1B0EE126E1
:1008F000B00EE66ECEDFE552DF6E16EC09F0DFCF0C
:10090000E6FFE66AB30E146E200E156E166A14C06A
:10091000E6FF15C0E6FF16C0E6FF23EC12F0176EE7
:10092000050EE15E1750060EE66EDFCFE6FF9FDC98
:10093000E552E552000904E0DE52900EDD6E1FD054
:10094000070EE66EDFCFE6FF92DCE552E5520009C6
:1009500004E0DE52940EDD6E12D08E0E146E200E68
:10096000156E166A14C0E6FF15C0E6FF16C0E6FF56
:1009700023EC12F0E552E552E552000ED8D099DC96
:10098000010EDBCFE6FFE6EC13F0E552050EDB6A65
:10099000060EDB6A04EC14F0146E156A030ED89090
:1009A00014361536E804FBE1050E14C0DBFF060E15
:1009B00015C0DBFF04EC14F0146E156A050ED89018
:1009C00015321432E804FBE1D950050FE96EDACF95
:1009D000EAFF1450EE121550ED12FD0EDBCFE9FFC9
:1009E000FE0EDBCFEAFF050EDBCFEEFF060EDBCF00
:1009F000EDFF04EC14F0E76E020EE7CFDBFF04EC32
:100A000014F0E76E020EE7CFDBFF04EC14F0E76EA4
:100A1000030EE7CFDBFFFD0EDBCFE9FFFE0EDBCFE2
:100A2000EAFF030EE926000EEA22030EDBCFEFFFFA
:100A3000040EDB6A030EDB50F36E040EDBCFF4FF13
:100A4000F350F45C33E204EC14F0E66ED950070F77
:100A5000166EDACF17F0040EDB500F011624E96E84
:100A6000000E1720EA6EE552E750EF6EE66EFD0EBF
:100A7000DBCFE9FFFE0EDBCFEAFF050EE926000E15
:100A8000EA22E9CF14F0EACF15F0040EDB5014246B
:100A9000E96E000E1520EA6EE552E750EF6E040E87
:100AA000DB28E76E040EE7CFDBFFC4D709DC060EB8
:100AB000E66EDFCFE6FF37EC01F0E552E5520009C4
:100AC0001AE0E66A010EE66E2C0EE66E38DCE552A0
:100AD000E552E552850E146E200E156E166A14C08E
:100AE000E6FF15C0E6FF16C0E6FF23EC12F0E55264
:100AF000E552E55219D0E66A020EE66E2C0EE66E5D
:100B00001EDCE552E552E5527C0E146E200E156E89
:100B1000166A14C0E6FF15C0E6FF16C0E6FF23EC18
:100B200012F0E552E552E552010EDB5000D0146E92
:100B30001B0EE15C02E2E16AE552E16E1450E552FF
:100B4000E7CFD9FF1200D9CFE6FFE1CFD9FF060EDC
:100B5000E126010EDB6AFC0EDB501AE0FC0EDB0422
:100B600017E0FC0EDB50020813E0470E146E200E57
:100B7000156E166A14C0E6FF15C0E6FF16C0E6FF44
:100B800023EC12F0E552E552E552FF0E89D129D04F
:100B9000FC0EDB50020806E1040EF36EFC0EF3CFF0
:100BA000DBFF1FD0FC0EDB0406E1020EF36EFC0E31
:100BB000F3CFDBFF16D0FC0EDB5003E1FC0EDB6A4B
:100BC00010D0FE0E146E1F0E156E166A14C0E6FFCE
:100BD00015C0E6FF16C0E6FF23EC12F0E552E55221
:100BE000E552FD0EDBCFE9FFFE0EDBCFEAFFE9CFDA
:100BF00014F0EACF15F0040E14C0DBFF050E15C08B
:100C0000DBFF040EDBCFE9FF050EDBCFEAFFEF5081
:100C1000200D020EF3CFDBFF010EE76E040EDBCFDB
:100C2000E9FF050EDBCFEAFFE750E926000EEA22D6
:100C3000EF50200DF3CF14F0040EDBCFE9FF050ECB
:100C4000DBCFEAFFEF50E840E840E8401F0B14100C
:100C5000E76E030EE7CFDBFFFD0EDBCFE9FFFE0EF5
:100C6000DBCFEAFF030EE926000EEA22EF50E66E24
:100C7000E66AFD0EDBCFE9FFFE0EDBCFEAFFEECF2B
:100C8000E6FFEFCFE6FFFD0EDBCFE9FFFE0EDBCF89
:100C9000EAFFEECFE6FFEFCFE6FFD40E146E1F0E95
:100CA000156E166A14C0E6FF15C0E6FF16C0E6FF13
:100CB00023EC12F0176E090EE15E175059EC01F0AB
:100CC000FC0EDB504009E66EE6EC13F0E552030E35
:100CD000DBCFE6FFE6EC13F0E552020EDBCFE6FFDA
:100CE000E6EC13F0E552E66AE6EC13F0E552E66A4C
:100CF000E6EC13F0E552FD0EDBCFE9FFFE0EDBCF95
:100D0000EAFF030EE926000EEA22EF500F0BDF6E1A
:100D1000FD0EDBCFE9FFFE0EDBCFEAFF040EE92676
:100D2000000EEA22EF5017E0400EDF10E66EE6EC10
:100D300013F0E552C90E146E1F0E156E166A14C01C
:100D4000E6FF15C0E6FF16C0E6FF23EC12F0E55201
:100D5000E552E55287D0DFCFE6FFE6EC13F0E5522F
:100D6000BE0E146E1F0E156E166A14C0E6FF15C077
:100D7000E6FF16C0E6FF23EC12F0E552E552E5521D
:100D8000AC0E146E1F0E156E166A14C0E6FF15C069
:100D9000E6FF16C0E6FF23EC12F0E552E552E552FD
:100DA000010EDB6ADF50F36E010EDBCFF4FFF35070
:100DB000F45C48E2FD0EDBCFE9FFFE0EDBCFEAFF7D
:100DC000050EE926000EEA22E9CF14F0EACF15F06D
:100DD000010EDB500F011424E96E000E1520EA6E9F
:100DE000EF50E66EE66AA70E166E1F0E176E186AB3
:100DF00016C0E6FF17C0E6FF18C0E6FF23EC12F0AE
:100E0000196E050EE15E1950FD0EDBCFE9FFFE0EF7
:100E1000DBCFEAFF050EE926000EEA22E9CF14F047
:100E2000EACF15F0010EDB500F011424E96E000E1D
:100E30001520EA6EEF50E66EE6EC13F0E552010E77
:100E4000DB2AB0D7A50E146E1F0E156E166A14C0DD
:100E5000E6FF15C0E6FF16C0E6FF23EC12F0E552F0
:100E6000E552E55260EC01F0300EE66E67EC14F0EE
:100E7000E55259EC01F0FC0EDB5002E1010E02D00C
:100E8000FC0EDB50E76EFC0EE7CFDBFFDB5080098A
:100E9000E66EE6EC13F0E55260EC01F0010E00D0D6
:100EA000146E060EE15C02E2E16AE552E16E145056
:100EB000E552E7CFD9FF1200D9CFE6FFE1CFD9FF46
:100EC000060EE126010EDB6AFC0EDB501AE0FC0E7A
:100ED000DB0417E0FC0EDB50020813E0470E146E33
:100EE000200E156E166A14C0E6FF15C0E6FF16C088
:100EF000E6FF23EC12F0E552E552E552FF0E8AD1EF
:100F000029D0FC0EDB50020806E1040EF36EFC0E45
:100F1000F3CFDBFF1FD0FC0EDB0406E1020EF36E05
:100F2000FC0EF3CFDBFF16D0FC0EDB5003E1FC0E12
:100F3000DB6A10D0FE0E146E1F0E156E166A14C0FA
:100F4000E6FF15C0E6FF16C0E6FF23EC12F0E552FF
:100F5000E552E552FD0EDBCFE9FFFE0EDBCFEAFFE7
:100F6000E9CF14F0EACF15F0040E14C0DBFF050E34
:100F700015C0DBFF040EDBCFE9FF050EDBCFEAFF78
:100F8000EF50200D020EF3CFDBFF010EE76E040ED3
:100F9000DBCFE9FF050EDBCFEAFFE750E926000EC5
:100FA000EA22EF50200DF3CF14F0040EDBCFE9FF5F
:100FB000050EDBCFEAFFEF50E840E840E8401F0BAA
:100FC0001410E76E030EE7CFDBFFFD0EDBCFE9FF6A
:100FD000FE0EDBCFEAFF030EE926000EEA22EF50F9
:100FE000E66EE66AFD0EDBCFE9FFFE0EDBCFEAFF21
:100FF000EECFE6FFEFCFE6FFFD0EDBCFE9FFFE0E03
:10100000DBCFEAFFEECFE6FFEFCFE6FFD40E146EA4
:101010001F0E156E166A14C0E6FF15C0E6FF16C057
:10102000E6FF23EC12F0176E090EE15E175059EC43
:1010300001F0FC0EDB504009E66EE6EC13F0E552E1
:10104000030EDBCFE6FFE6EC13F0E552020EDB50B9
:101050000809E66EE6EC13F0E552E66AE6EC13F0FA
:10106000E552E66AE6EC13F0E552FD0EDBCFE9FF50
:10107000FE0EDBCFEAFF030EE926000EEA22EF5058
:101080000F0BDF6EFD0EDBCFE9FFFE0EDBCFEAFFBD
:10109000040EE926000EEA22EF5017E0400EDF10A2
:1010A000E66EE6EC13F0E552C90E146E1F0E156ED7
:1010B000166A14C0E6FF15C0E6FF16C0E6FF23EC73
:1010C00012F0E552E552E55287D0DFCFE6FFE6ECBD
:1010D00013F0E552BE0E146E1F0E156E166A14C084
:1010E000E6FF15C0E6FF16C0E6FF23EC12F0E5525E
:1010F000E552E552AC0E146E1F0E156E166A14C042
:10110000E6FF15C0E6FF16C0E6FF23EC12F0E5523D
:10111000E552E552010EDB6ADF50F36E010EDBCFC4
:10112000F4FFF350F45C48E2FD0EDBCFE9FFFE0E66
:10113000DBCFEAFF050EE926000EEA22E9CF14F024
:10114000EACF15F0010EDB500F011424E96E000EFA
:101150001520EA6EEF50E66EE66AA70E166E1F0EB9
:10116000176E186A16C0E6FF17C0E6FF18C0E6FF44
:1011700023EC12F0196E050EE15E1950FD0EDBCF67
:10118000E9FFFE0EDBCFEAFF050EE926000EEA229C
:10119000E9CF14F0EACF15F0010EDB500F01142453
:1011A000E96E000E1520EA6EEF50E66EE6EC13F0E5
:1011B000E552010EDB2AB0D7A50E146E1F0E156E78
:1011C000166A14C0E6FF15C0E6FF16C0E6FF23EC62
:1011D00012F0E552E552E55260EC01F0300EE66E99
:1011E00067EC14F0E55259EC01F0FC0EDB5002E123
:1011F000010E02D0FC0EDB50E76EFC0EE7CFDBFFEA
:10120000DB508009E66EE6EC13F0E55260EC01F08D
:10121000010E00D0146E060EE15C02E2E16AE552B6
:10122000E16E1450E552E7CFD9FF1200D9CFE6FFA7
:10123000E1CFD9FF030EE1261D0EE66E67EC01F04B
:10124000E552DF6E1C0EE66E67EC01F0E552E76ECC
:10125000010EE7CFDBFF2D0EE66E67EC01F0E552E5
:10126000E76E020EE7CFDBFF010EDBCFE6FFE66A9B
:10127000DFCFE6FFE66A740E146E1F0E156E166A57
:1012800014C0E6FF15C0E6FF16C0E6FF23EC12F01F
:10129000176E070EE15E1750020EDBCFE6FFE66A1F
:1012A0005C0E146E1F0E156E166A14C0E6FF15C094
:1012B000E6FF16C0E6FF23EC12F0176E050EE15EA6
:1012C0001750030EE15C03E200D0E16AE552E16EE3
:1012D000E552E7CFD9FF1200D9CFE6FFE1CFD9FF22
:1012E000020EE126DF6A010EDB6ADF50146E156A1A
:1012F000D890155004E6FE0E145C000E155813E24B
:10130000010EDB50146E156AD890155004E6FE0EDF
:10131000145C000E155803E2010EDB2AF1D7010E12
:10132000DB6ADF2AE2D7020EE15C02E2E16AE55203
:0A133000E16EE552E7CFD9FF12008D
:06133A00D9EC0EF0FB0EE1
:10134000DBCFF3FFDB06F35000090AE027EC0FF0D8
:10135000FA0E92EC0FF0F3E1151CF1E1010E01D051
:10136000000E08EF0FF0D9EC0EF03B0EE12402E383
:10137000E168E652E16E010EDB6A020EDB6AF90EED
:10138000DBCFF6FFFA0EDBCFF7FFFB0EDBCFF8FF6C
:101390000800F550DF6EDF5002E12CEF0EF0250E55
:1013A000DF5C02E01FEF0EF0030EDB6A040EDB6A67
:1013B000050EDB6A060EDB6A070EDB6A41EC0EF0F7
:1013C0002D0EDF5C0CE02B0EDF5C09E0200EDF5CF5
:1013D00006E0230EDF5C03E0300EDF5C1AE1DF5035
:1013E000300A14E0130A0FE0030A0AE00B0A05E0D2
:1013F000060AE4E1030EDB80E1D7030EDB82DED7D1
:10140000030EDB84DBD7030EDB86D8D7030EDB8825
:10141000D5D72A0EDF5C1BE13DEC0EF08BEC0EF015
:1014200010E0030EDB8008680968130EDBCF0DF0B7
:10143000140EDBCF0EF095EC13F0040E06C0DBFFAC
:1014400003D0130E74EC0EF041EC0EF00BD0090E2D
:10145000DB6AE2EC0EF003E056EC0FF0FAD7090E6F
:1014600074EC0EF0030EDBB0DB982E0EDF5C1BE19C
:1014700041EC0EF02A0EDF5C0BE13DEC0EF08BEC44
:101480000EF003E1130EC6EC0EF041EC0EF00BD0A3
:10149000090EDB6AE2EC0EF003E056EC0FF0FAD72F
:1014A000090EC6EC0EF0680EDF5C07E141EC0EF0B1
:1014B000680EDF5C1DE1030E18D0740EDF5C17E0D0
:1014C0007A0EDF5C14E0480EDF5C06E0540EDF5C51
:1014D00003E05A0EDF5C02E1020E07D06C0EDF5C07
:1014E00003E06A0EDF5C04E1010E19EC0FF0C9DBCA
:1014F000DF506E0A01E17FD31E0A01E192D1200A7A
:1015000001E18FD13F0A01E149D11A0A01E146D137
:101510000D0A01E143D1200A01E140D13A0A01E17B
:101520003DD1200A01E13AD1260A01E135D10D0A67
:1015300001E132D11A0A01E1D9D0200A4AE0300A89
:101540001FE0460A0EE0250A01E083D3D950F90FC7
:10155000E96EFF0EDA20EA6E010EEE5E000EEE5A24
:10156000EE5A27EC0FF0250EE66E95DB03E1151C15
:1015700001E169D323EC0FF001E26BD3DB2A69D3DD
:10158000080EDB6A040EDB50010806E2040EDB04E1
:10159000EBEC0EF0DB508BDB080EDB5009E0030EAA
:1015A000DB50010B05E172DB01E04DD3080EDB6A75
:1015B00064DBEFCFDFFF9BEC0FF003E1151C01E1D3
:1015C00042D323EC0FF001E3DB2A60DB01E141D3DE
:1015D0003AD3070EDB5002080FE167EC0FF0030E61
:1015E0002EEC0FF00E0EEECFDBFF0F0EEECFDBFF7B
:1015F000100EEECFDBFF20D0F70EDBCF17F0F80E8A
:10160000DBCF18F0020E175E000E185AF70E17C047
:10161000DBFFF80E18C0DBFF17C0E9FF18C0EAFFB8
:101620001EEC0FF0166A0E0E14C0DBFF0F0E15C075
:10163000DBFF100E16C0DBFF0E0EDBCFE6FF0F0E3A
:10164000DBCFE6FF100EDBCFE6FF70EC13F0E552C8
:10165000E552E552130E07C0DBFF140E08C0DBFF96
:10166000060EDB5005E0130E62EC0FF001E26ADBC0
:1016700086EC0FF002E2130E37DB49EC0FF006E0C8
:10168000040E62EC0FF002E2050E2EDB030EDBB05F
:1016900005D0FCDA01E0D7D2080EDB6A090EDB6A5E
:1016A0000E0EDBCFF6FF0F0EDBCFF7FF100EDBCFFA
:1016B000F8FF0800F550DF6EDF5014E08CEC0FF0FF
:1016C00011E29BEC0FF003E1151C01E1BCD2BBDB86
:1016D00001E3DB2A090EDB2AD9500E0FE96E000E5A
:1016E000CBDBE7D7D3DA01E1B4D2ADD2C6DA110E43
:1016F000EECFDBFF120EEDCFDBFF110EDBCFE6FFEF
:10170000120EDBCFE6FF62EC13F0E552E552130E4A
:10171000F3CFDBFF140EF4CFDBFF060EDB5004E04B
:10172000130ED0DB01E20EDB86EC0FF002E2130EAB
:10173000DBDAAFDB05E0040EC5DB02E2050ED4DA2E
:10174000030EDBB005D0A2DA01E07DD2080EDB6A21
:10175000090EDB6A110EDBCFE9FF120EDBCFEAFFC9
:10176000EFCFDFFFDF5014E0D7DB12E2E4DB03E171
:10177000151C01E168D267DB01E3DB2A090EDB2AD5
:10178000110EDB2ADBCFE9FF120EE8E3DB2AE6D7F6
:101790007DDA01E15ED257D2030EDB8E070EDB0449
:1017A00010E195DB040E5ADB0A0EEECFDBFF0B0EC9
:1017B000EECFDBFF0C0EEECFDBFF0D0EEECFDBFF2F
:1017C0006CD0070EDB5003082CE1030EDBAE0DD00E
:1017D000B2DA020E76DAEFCF14F0156A166A176ADB
:1017E00014AE39D01568166835D0F70EDBCF15F07A
:1017F000F80EDBCF16F0020E155E000E165AF70E2D
:1018000015C0DBFFF80E16C0DBFF15C0E9FF16C0E0
:10181000EAFFEFCF14F00A0E14C0DBFF0B0EDB6AF9
:1018200038D0070EDB50020809E1030EDBAE04D00E
:1018300059DB16AE10D00ED055DB0DD0030EDBAE4B
:1018400012D079DA020E3DDAF9DA166A176A15AEA5
:1018500002D016681768E2DA0C0E16C0DBFF0D0E18
:1018600017C0DBFF1AD0F70EDBCF16F0F80EDBCF78
:1018700017F0020E165E000E175AF70E16C0DBFFA9
:10188000F80E17C0DBFF16C0E9FF17C0EAFFD6DA73
:10189000C5DA0C0EDB6A0D0EDB6A060EDB5005E1C5
:1018A000010EF36E050EF3CFDBFF150EDB6A160E8D
:1018B000DB6AD950370F146E000EDA20156E390E20
:1018C00014C0DBFF3A0E15C0DBFF380EDB6A080ED2
:1018D000DB6A0A0EAEDADF50780A12E0200A10E066
:1018E000280A0CE0200A0AE03F0A06E00D0A02E09E
:1018F000200A08E1020E05D0080E03D0080EDF26EC
:10190000100E97DA030EDBBE02D0DB92DB94DB50C5
:10191000800B24E08ADAD890030EEB50000A08E628
:10192000000EEE5C000EEE58000EEE58000EEE5863
:1019300015E213DA0B680C680D680E68F6EC12F00D
:101940000A0E02C0DBFF0B0E03C0DBFF0C0E04C04F
:10195000DBFF0D0E05C0DBFF2D0E08D0030EDBA252
:1019600002D02B0E03D0DBA408D0200EF36E170E8E
:10197000F3CFDBFF150EDB2A02D0170EDB6A050E54
:10198000DB5003E1B7D901E189D0E40E146E280ED3
:10199000156E000E166E070EDBCF17F0186A196A67
:1019A0001A6A17C00BF018C00CF019C00DF01AC05D
:1019B0000EF0D3D9C2EC13F014500224F36E15507C
:1019C0000320F46E16500420F86EF4CFF7FFF3CF27
:1019D000F6FF0800090EF5CFDBFF580EDF5C0FE1C4
:1019E000610EF36E090E7BD90AE3200E146E090E08
:1019F000DBCFE7FF1450E75E090EE7CFDBFF070EF2
:101A0000DBCF14F0156A166A176A0FDA14C00BF0F0
:101A100015C00CF016C00DF017C00EF0EECF06F09A
:101A2000EECF07F0EECF08F0EFCF09F0C2EC13F0E5
:101A300009C0EDFF08C0EDFF07C0EDFF06C0EFFFD6
:101A4000390EDBCFE9FFDB063A0EDBCFEAFF01E21E
:101A5000DB06090EDBCFEFFF150EDB2A4BD995E134
:101A6000030EDBA61DD06F0EDF5C06E1C1D918E3C3
:101A7000150EDB285BDA14D0780EDF5C09E0580E17
:101A8000DF5C06E0620EDF5C03E0420EDF5C08E133
:101A9000020EF36E160EF3CFDBFF02D0150EDB6ADB
:101AA000030EDB50100B0EE0040EDBCF14F0050E1E
:101AB000DB50D880145406E2060EDB5003E1040E1E
:101AC000DB5034DA95D90AE2050EDBCFE7FF150EBD
:101AD000DB50E75E050EE7CFDBFF02D0050EDB6AC9
:101AE000040EDBCF14F0160E45D9D880145414E23E
:101AF000160EDBCFE6FF150EDBCFE6FF040EDBCFC5
:101B0000E6FF050EDB50E552E75CE552D880E7546E
:101B1000E552D880E7545FD9030EDB50010B0BE18F
:101B2000080EDB5008E0B2D801E08DD0080EDB5083
:101B3000BED8080EDB6A170EDB5007E088D9170EF7
:101B4000F1D903E1151C01E17ED0160EDB5016E041
:101B50007ED9300EE66E9FD802E1151C74E077D96D
:101B6000DFCFE6FFB4EC12F0E552E552E552F4CFD8
:101B700015F00001F31C02E1151C65E0050EDBCF3A
:101B800014F0160EDB50D880145409E2050EDBCF9A
:101B9000E7FF160EDB50E75E050EE7CFDBFF300EEA
:101BA000E66E050ECBD94FE1390EDB2ADBCFE9FF1C
:101BB0003A0E01E3DB2ADBCFEAFF090EEFCFDBFFB2
:101BC000DB500EE044D9090EADD902E1151C3BE013
:101BD000390EDB2ADBCFE9FF3A0EEDE3DB2AEBD748
:101BE00055D831E1160EDBCFE6FF080EC3D8E5521B
:101BF000E7245DD82ED0070EDB50030A1CE0010A53
:101C000014E0030A07E07BD9DBCFEEFF020EDBCF47
:101C1000EDFF1FD0F5D8196A17AE02D01868196801
:101C20002CD8BCD819C0EEFF14D0EAD817BE18685B
:101C300024D8B4D80ED063D9DBCFEFFF0AD07BD93C
:101C400005E1151C03E1F368F46810D0FCD801E34A
:101C5000DB2A79D9C8EF09F0010EDBCF14F0020EB0
:101C6000DBCF15F014C0F3FF15C0F4FF3B0EE15CB1
:101C700002E2E16AE552E16ECBD029D9020E2EEFE5
:101C80000FF061D90800F550DF6E1200200EE66EED
:101C9000080E9EEF0FF0B4EC12F0E552E552E5525B
:101CA000F3CF14F0F4CF15F00001F31C1200146E02
:101CB000156AD950010F4DD91450EE261550ED225A
:101CC0001200185E000E195AF70E18C0DBFFF80E4E
:101CD00019C0DBFF18C0E9FF19C0EAFF1200DBCF13
:101CE000F4FFF350F45C1200DB50E76E040EE7CF14
:101CF000DBFF12000A0EDBCF14F00B0EDBCF15F06A
:101D00000C0EDBCF16F00D0EDBCF17F014501510B4
:101D1000161017101200130EEECFDBFF140EEDCFCE
:101D2000DBFF130EDBCF14F0140EDBCF15F0000138
:101D3000800E15141200F70EDBCF18F0F80EDBCF73
:101D400019F01200050EDB50E66ED950130F01D9C1
:101D5000E552E750EE6EED6A12000A0EDBCF06F098
:101D60000B0EDBCF07F00C0EDBCF08F00D0EDBCF38
:101D700009F01200DBCFE6FF150EDBCFE6FF050E04
:101D8000DB50E552E724E552E7241200DB50CED8C1
:101D9000010EF36E060EF3CFDBFF1200EE50EFCF15
:101DA000EAFFE96E16C0EEFF17C0EEFF18C0EEFFA7
:101DB0001200D9CFE6FFDACFE6FFE1CFD9FFE2CFBD
:101DC000DAFF1200DFCFE6FFE66A1BEC14F0E55203
:101DD000E552F3501200E76E080EE7CFDBFF12006A
:101DE000EECF14F0EECF15F0EFCF16F0176A120019
:101DF000050EDBCF14F0150EDB50D8801454120002
:101E0000010EDBCF16F0020EDBCF17F0186A1200BE
:101E1000E552E5CFDAFFE7CFD9FF12000A0E14C072
:101E2000DBFF0B0E15C0DBFF1200D9500A0FA9EF24
:101E30000FF0F36E070EF3CFDBFF1200EECF14F0BE
:101E4000EFCF15F01200010EDB2A020E1200FC0E7D
:101E5000DBCFE6FFFD0EDBCFE6FF1200145E000EC7
:101E6000155AF70E14C0DBFFF80E15C0DBFF14C0C7
:101E7000E9FF15C0EAFF1200DA20EA6EEF2AEECF82
:101E8000F6FF000EEF22EECFF7FFEF22EECFF8FFC6
:101E90001200040EDBCFE6FF130EDB50E552E75CC9
:101EA0009ADFDB5004DF060EDB501200090EDB5018
:101EB0000A0DF350DF24D00FE76E090EE7CFDBFFEA
:101EC00041EF0EF0DB50F36E050E6FEF0EF0F70EE4
:101ED000DBCF14F0F80EDBCF15F01200DFCFE6FFFA
:101EE0004BEF0EF028DF030EECDEF0EF0EF09DEC72
:101EF00009F0E552E552E552E55200091200BDDE57
:101F0000EE50EFCFEAFFE96E010E1200130EDB5028
:101F1000F36E040E6FEF0EF0040EDB50F36E090E3D
:101F20006FEF0EF0DBCFE6FF4BEF0EF0E76E050E26
:101F3000E7CFDBFF12008BDF6EEF0FF0DBCFE6FFAA
:101F400086DF77EF0FF0D950F90FE96EFF0E3CEF07
:0C1F50000FF0E96E000EDA20EA6E1200BD
:041F5C000D54686553
:101F6000206572726F722062797465202D3E202583
:101F700062200A000D20746865207265635F6572D7
:101F8000726F7220697320256920616E6420746805
:101F90006520746563206572726F722069732025F5
:101FA0006920200A000A005B25785D000D20777209
:101FB000697474696E672064617461200A000D722F
:101FC0007472203D3D20300A000D72747220213D54
:101FD00020300A000D74657374696E67206964208F
:101FE00025782C20616E64202562206D65737361F5
:101FF0006765206C656E6774682025690A000D733B
:102000006F6D657468696E672068617320676F6EB5
:10201000652077726F6E6720696E20746865207224
:10202000656769737465722073656C656374696F45
:102030006E207061727420616370656374206F66D6
:10204000205258202F6E000D205265676973746509
:102050007220736C656374696F6E206E6F742056A6
:10206000616C6964202D4C6F6164206D65737361D0
:102070006765206661696C6564200A000D206D6FDC
:102080006420320A000D206D6F6431200A000D5467
:1020900068657265206973206E6F206D657373616A
:1020A000676520696E207468652062756666657272
:1020B000200A000D2052585F737461747573202DCF
:1020C0003E202562200A000D496E69742054696D16
:1020D000696E6720697320736574200A000D2053B0
:1020E0006F6D655468696E672066756B65642075F1
:1020F00070200A000D2077616974696E67200A00FC
:102100000D20737461747573207761732073657427
:1021100020746F20636F6E666967206D6F64652041
:102120000A000D204572726F7220696E207365740B
:1021300074696E6720746F20636F6E666967206DC7
:102140006F64652043414E53544154203D20256225
:10215000200A000D207374617475732077617320F9
:1021600073657420746F206C6F6F704261636B20B5
:102170006D6F6465200A000D204572726F722069D0
:102180006E2073657474696E6720746F206C6F6F56
:10219000704261636B206D6F6465202043414E5334
:1021A000544154203D202562200A000D20737461A3
:1021B000747573207761732073657420746F206C5D
:1021C000697374656E206D6F6465200A000D20458B
:1021D00072726F7220696E2073657474696E672005
:1021E000746F206C697374656E206D6F6465202058
:1021F0002043414E53544154203D202562200A0083
:102200000D2057616B65207570206661696C65648F
:10221000200A000D20737461747573207761732038
:1022200073657420746F204177616B65206D6F64F6
:1022300065200A000D2073746174757320776173D3
:102240002073657420746F20736C656570206D6FEA
:102250006465200A000D204572726F7220696E203D
:1022600073657474696E6720746F20536C65657054
:10227000206D6F64652020202043414E535441540B
:10228000203D20202562200A000D7374617475734F
:10229000207761732073657420746F206E6F726D88
:1022A000616C206D6F64650A000D204572726F725B
:1022B00020696E2073657474696E6720746F206E78
:1022C0006F726D616C206D6F646520202043414EFC
:1022D00053544154203D202562200A000D202054F3
:1022E000686520646174612061742025692020691B
:1022F000732020257820200A000D54686520616431
:102300006472657373206973202578200A000D209C
:1023100073696D706C6520626974206F706572619D
:1023200074696F6E7320776F726B2072696768745F
:10233000200A000D204572726F72202D73696D7036
:102340006C652062697420736869667420666169CF
:102350006C73200A000D2053504920666F72204D87
:1023600043505F32353135206973206F70656E20C0
:102370000A000D4661696C657220746F20696E6990
:1023800074204D435020323531352C2072657365F1
:1023900074696E67200A000A0D2053657269616CCA
:0823A000204F70656E200A0059
:0823A800060EF66E000EF76E42
:1023B000000EF86E00010900F550656F0900F55038
:1023C000666F03E1656701D03DD00900F550606F8D
:1023D0000900F550616F0900F550626F09000900AE
:1023E000F550E96E0900F550EA6E09000900090090
:1023F000F550636F0900F550646F09000900F6CFCE
:1024000067F0F7CF68F0F8CF69F060C0F6FF61C001
:10241000F7FF62C0F8FF0001635302E1645307E075
:102420000900F550EE6E6307F8E26407F9D767C05C
:10243000F6FF68C0F7FF69C0F8FF00016507000EEE
:06244000665BBFD712002D
:0A244600D9CFE6FFDACFE6FFE1CFC1
:10245000D9FFE2CFDAFFE652E652E652E652D95011
:10246000FB0F146EFF0EDA20156E14C0DEFFDD6E5A
:10247000DECFE6FFDDCFE6FFFB0EDBCFE6FFFC0E97
:10248000DBCFE6FFFD0EDBCFE6FF6AC0E6FF6BC0E9
:10249000E6FFB3EC09F0146E070EE15C02E2E16ABC
:1024A000E552E16E1450020EF3CFDBFF030EF4CFC2
:1024B000DBFF020EDBCF14F0030EDBCF15F014C0F0
:1024C000F3FF15C0F4FF040EE15C02E2E16AE5529D
:0E24D000E16EE552E5CFDAFFE7CFD9FF12004B
:0224DE00D9CF54
:1024E000E6FFDACFE6FFE1CFD9FFE2CFDAFFAC6A51
:1024F000AB6AFD0EDBB0AC88DBA202D0AC8CAB8C3F
:10250000DBB4AC8EDBA602D0AB8801D0AB8ADBB8E3
:10251000AC849E98DBBAAB86DBAC02D09D8A01D03E
:102520009D9A9E9ADBAE02D09D8801D09D98FB0EAD
:10253000DB50AF6EFB0EFC0EDBCF15F015C014F0B8
:10254000156A1450B06EAC8AAB8E949C948EAC50CD
:10255000100B04E0AC50800B01E1948CE552E5CF08
:08256000DAFFE7CFD9FF1200FA
:08256800D9CFE6FFDACFE6FF50
:10257000E1CFD9FFE2CFDAFFFB0EDBCF14F0FC0E88
:10258000DBCF15F00001800E15141AE1FB0EDBCF36
:10259000E9FFFC0EDBCFEAFFEECFF3FFEDCFF4FF58
:1025A000EE2A000EEF22F3CFE9FFF4CFEAFFFD0E93
:1025B000DBCFEFFFEF50156AF36E15C0F4FF10D0BC
:1025C000FB0EDB50FE0806E1FD0EDBCFE6FF4BEC19
:1025D00014F005D0FD0EDBCFE6FF7BEC14F0E552E6
:0C25E000E552E5CFDAFFE7CFD9FF12008B
:0425EC0006500B0288
:1025F000F3CF02F0F4CF03F00C02F3500326000EE9
:10260000F420046E06500D02F3500426000EF42050
:10261000056E06500E02F350052607500B02F350CC
:102620000326F4500422000E052207500C02F3503A
:102630000426F450052207500D02F35005260850D9
:102640000B02F3500426F450052208500C02F350FC
:0C265000052609500B02F350052612006D
:04265C00D9CFE6FFED
:10266000DACFE6FFE1CFD9FFE2CFDAFF3F0EC716A0
:10267000C66AFD0EDB50C612FB0EDB50C712FC0E05
:10268000DB50030A09E0010A04E0020A06E1C78CF4
:1026900004D0C78CC68801D0C688FD0EDB50050A61
:1026A00005E0010A05E19486928A03D0948601D060
:1026B00094969488949AC68AE552E5CFDAFFE7CFDC
:0426C000D9FF12002C
:0C26C400FE0EE3CFE9FFFF0EE3CFEAFFBC
:1026D000F36AF46AEE5203E0F34AF42AFBD71200DD
:1026E000FF0EE3CFF8FFE552FF0EE3CFF7FFE55211
:1026F000FF0EE3CFF6FFE552E66AE66AE66A0900F6
:10270000F55209E0FD0EE32A05E1FE0EE32A02E19F
:10271000FF0EE32AF4D7FD0EE3CF07F0FE0EE3CF62
:0A27200008F0FF0EE3CF09F01200ED
:06272A0009C013F008C015
:1027300012F008500D02F4CF07F0F3CF06F0095065
:102740000E02F4CF09F0F3CF08F00D02F350072684
:10275000F4500822E86A092212500E02F3500726AC
:10276000F4500822E86A09220EAEBBEF13F01250B3
:10277000085E1350095A13AE000C0D50085E0E503F
:04278000095A000CE6
:0C278400056A046A036A026A200EE76E10
:10279000D890063607360836093602360336043630
:1027A00005360B50025C0C5003580D5004580E5067
:1027B000055809E30B50025E0C50035A0D50045AA1
:0C27C0000E50055A062AE72EE4D712003E
:0427CC00D9CFE6FF7C
:1027D000DACFE6FFE1CFD9FFE2CFDAFFE652C95008
:1027E000DF6E9E96C69EFD0EDB50C96EC6AE02D051
:1027F000FF0E03D09EA6FED7000EE552E552E5CFB0
:08280000DAFFE7CFD9FF120057
:08280800D9CFE6FFDACFE6FFAD
:10281000E1CFD9FFE2CFDAFFE652C950DF6E9E96D4
:10282000C96A9EA6FED7C950E552E552E5CFDAFF48
:06283000E7CFD9FF120002
:0A283600F36AF46AFF0EE124E96E74
:10284000FF0EE220EA6EED6607D02F0EEF6404D093
:0A2850003A0EEF6001D0F32A1200E7
:06285A00000EF36E00EE1B
:1028600000F0030E01D81200EA6002D0EE6AFCD735
:0A287000F350E9601200EE6AFCD795
:06287A0012EE00F022EE58
:1028800000F0F86A019CD4EC11F07CEC14F010EC30
:0628900000F0FBD712006E
:0A289600FF0EE350ACBA04D0AF6AA5
:1028A000AB8EAC8A949CACA2FED7AD6EF36EF46A8C
:0228B000120014
:0E28B200FF0EE3501B6E1B0E00D001D0200E57
:0E28C000E76EE72EFED71B2EFAD700D01200CF
:0228CE00FF0EFB
:1028D000E350E84E1200000000D000D000D0E82EF7
:0428E000FAD7120011
:0C28E40030313233343536373839616218
:0528F000636465660051
:0128F50007DB
:0228F6001200CE
:0228F8001200CC
:0228FA00FEFFDF
:020000040030CA
:0100010032CC
:01000200FFFE
:01000300FEFE
:01000600AB4E
:00000001FF
