:020000040000FA
:060000008BEF1CF0120062
:0A0006000100963900006A000000B6
:0400100002000000EA
:0C001400D9CFE6FFE1CFD9FFFD0EDB5095
:10002000070802E2FF0E14D0FE0EDBCFE6FF010E42
:10003000F36EFD0EDB5004E0D890F336E806FCE1E9
:10004000F350E552E71402E1000E01D0010E00D09A
:10005000E552E7CFD9FF1200D9CFE6FFE1CFD9FFB4
:10006000FE0EDB5002E18C901BD0FE0EDB0402E1A1
:100070008C9216D0FE0EDB50020802E18C9410D058
:10008000EF0E146E260E156E166A14C0E6FF15C02C
:10009000E6FF16C0E6FF9EEC1AF0E552E552E55287
:1000A000010EE66EB5EC1CF0E552E552E7CFD9FF44
:1000B0001200D9CFE6FFE1CFD9FFFE0EDB5002E1FF
:1000C0008C801BD0FE0EDB0402E18C8216D0FE0E6B
:1000D000DB50020802E18C8410D0EF0E146E260E65
:1000E000156E166A14C0E6FF15C0E6FF16C0E6FFDF
:1000F0009EEC1AF0E552E552E552010EE66EB5ECC3
:100100001CF0E552E552E7CFD9FF1200D9CFE6FF48
:10011000E1CFD9FFE652FD0EDBCFE6FF9DDFE552D2
:10012000030EE66E34EC1CF0E552FE0EDBCFE6FF6C
:1001300034EC1CF0E55252EC1CF0DF6E010EE66E62
:10014000B5EC1CF0E552FD0EDBCFE6FFB2DFE55269
:10015000DF5000D0E552E552E7CFD9FF1200D9CFEA
:10016000E6FFE1CFD9FFFC0EDBCFE6FF75DFE552FE
:10017000020EE66E34EC1CF0E552FE0EDBCFE6FF1D
:1001800034EC1CF0E552FD0EDBCFE6FF34EC1CF046
:10019000E552FC0EDBCFE6FF8CDFE55200D0E552E6
:1001A000E7CFD9FF1200D9CFE6FFE1CFD9FFFB0E91
:1001B000DBCFE6FF51DFE552050EE66E34EC1CF0B6
:1001C000E552FE0EDBCFE6FF34EC1CF0E552FD0EEF
:1001D000DBCFE6FF34EC1CF0E552FC0EDBCFE6FF94
:1001E00034EC1CF0E552FB0EDBCFE6FF62DFE5529C
:1001F00000D0E552E7CFD9FF1200D9CFE6FFE1CF1B
:10020000D9FFE652FE0EDBCFE6FFE66AE00EE66EB1
:100210000F0EE66EC8DFE552E552E552E552FE0EDE
:10022000DBCFE6FF0F0EE66E71DFE552E552DF6EC3
:10023000E00EDF141CE0DFCF14F0156A14BE156861
:1002400014C0E6FF15C0E6FFBC0E166E260E176E34
:10025000186A16C0E6FF17C0E6FF18C0E6FF9EEC5E
:100260001AF0196E050EE15E195012D011D09C0ED5
:10027000146E260E156E166A14C0E6FF15C0E6FF52
:1002800016C0E6FF9EEC1AF0E552E552E55200D0AA
:10029000E552E552E7CFD9FF1200D9CFE6FFE1CF13
:1002A000D9FFE652FE0EDBCFE6FF200EE66EE00E33
:1002B000E66E0F0EE66E77DFE552E552E552E55247
:1002C000FE0EDBCFE6FF0F0EE66E20DFE552E552B5
:1002D000DF6EE00EDF1420081CE0DFCF14F0156A9B
:1002E00014BE156814C0E6FF15C0E6FF680E166E52
:1002F000260E176E186A16C0E6FF17C0E6FF18C074
:10030000E6FF9EEC1AF0196E050EE15E195012D050
:1003100011D0470E146E260E156E166A14C0E6FF35
:1003200015C0E6FF16C0E6FF9EEC1AF0E552E55256
:10033000E55200D0E552E552E7CFD9FF1200D9CF00
:10034000E6FFE1CFD9FFE652FE0EDBCFE6FF400E1F
:10035000E66EE66E2B0EE66E26DFE552E552E552BE
:10036000E552300EE66EB5EC1CF0E552FE0EDBCF2A
:10037000E6FF2B0EE66ECADEE552E552DF6EDFAC1D
:1003800011D0260E146E260E156E166A14C0E6FFE6
:1003900015C0E6FF16C0E6FF9EEC1AF0E552E552E6
:1003A000E55210D0130E146E260E156E166A14C088
:1003B000E6FF15C0E6FF16C0E6FF9EEC1AF0E55218
:1003C000E552E55200D0E552E552E7CFD9FF1200E1
:1003D000D9CFE6FFE1CFD9FFE652FE0EDBCFE6FF35
:1003E000600EE66EE00EE66E0F0EE66EDCDEE552A7
:1003F000E552E552E552FE0EDBCFE6FF0F0EE66E4C
:1004000085DEE552E552DF6EE00EDF14600802E1A2
:10041000000E01D0010EFE0EDB501CE0DFCF14F009
:10042000156A14BE156814C0E6FF15C0E6FFE00E9D
:10043000166E250E176E186A16C0E6FF17C0E6FF87
:1004400018C0E6FF9EEC1AF0196E050EE15E195019
:1004500012D011D0BE0E146E250E156E166A14C081
:10046000E6FF15C0E6FF16C0E6FF9EEC1AF0E55267
:10047000E552E55200D0E552E552E7CFD9FF120030
:10048000D9CFE6FFE1CFD9FF020EE126FE0EDBCF8A
:10049000E6FF800EE66EE00EE66E0F0EE66E83DE81
:1004A000E552E552E552E552FE0EDBCFE6FF0F0EB8
:1004B000E66E2CDEE552E552DF6EE00EDF148008BA
:1004C0001BE0DFCF14F0156A14BE156814C0E6FFF8
:1004D00015C0E6FF8D0E166E250E176E186A16C033
:1004E000E6FF17C0E6FF18C0E6FF9EEC1AF0196E93
:1004F000050EE15E195010D06B0E146E250E156EB0
:10050000166A14C0E6FF15C0E6FF16C0E6FF9EECB3
:100510001AF0E552E552E552FE0EDBCFE6FF0E0E75
:10052000E66EF4DDE552E552E76E010EE7CFDBFF44
:10053000010EDBA011D05F0E146E250E156E166A2B
:1005400014C0E6FF15C0E6FF16C0E6FF9EEC1AF0E9
:10055000E552E552E552ECD7020EE15C02E2E16AB7
:10056000E552E16EE552E7CFD9FF1200D9CFE6FFA1
:10057000E1CFD9FFFE0EDBCFE6FF6EDDE552FE0ECA
:10058000DBCFE6FF080EE66E0F0EE66EE8DDE55205
:10059000E552E552FE0EDBCFE6FF8BDDE552E5527C
:1005A000E7CFD9FF1200D9CFE6FFE1CFD9FF050E83
:1005B000E126FC0EDBCFE9FFFD0EDBCFEAFF010EEB
:1005C000EFCFDBFFE76EFC0EDBCFE9FFFD0EDBCFED
:1005D000EAFFE750E926000EEA22020EEFCFDBFF2A
:1005E000E76EFC0EDBCFE9FFFD0EDBCFEAFFE75045
:1005F000E926000EEA22030EEFCFDBFFE76EFC0ECA
:10060000DBCFE9FFFD0EDBCFEAFFE750E926000E66
:10061000EA22040EEFCFDBFFFE0EDBCFE6FF1CDD90
:10062000E552010EE66EB5EC1CF0E552C00EE66E2A
:1006300034EC1CF0E552FE0EDBCFE6FF3ADDE5526E
:10064000300EE66EB5EC1CF0E552FE0EDBCFE6FF99
:1006500003DDE552020EE66E34EC1CF0E552280E86
:10066000E66E34EC1CF0E552040EDBCFE6FF34EC12
:100670001CF0E552030EDBCFE6FF34EC1CF0E55234
:10068000020EDBCFE6FF34EC1CF0E552010EDBCFAF
:10069000E6FF34EC1CF0E552FE0EDBCFE6FF09DD91
:1006A000E552FE0EDBCFE6FFE66A0C0EE66E57DD86
:1006B000E552E552E552FE0EDBCFE6FFE66A0D0E8F
:1006C000E66E4DDDE552E552E552FE0EDBCFE6FF6C
:1006D000600EE66EE66E43DDE552E552E552FE0E33
:1006E000DBCFE6FF600EE66E700EE66E38DDE5529B
:1006F000E552E552FE0EDBCFE6FFE66A0F0EE66E30
:100700002EDDE552E552E552FE0EDBCFE6FF2A0E66
:10071000E66EFCDCE552E552DF6E010EE66EA7ECFC
:100720001CF0E552020EDB50DF5C14E0480E146E44
:10073000250E156E166A14C0E6FF15C0E6FF16C03A
:10074000E6FF9EEC1AF0E552E552E552F368F468D4
:1007500014D010D0320E146E250E156E166A14C009
:10076000E6FF15C0E6FF16C0E6FF9EEC1AF0E55264
:10077000E552E552F36AF46A00D0050EE15C02E24C
:10078000E16AE552E16EE552E7CFD9FF1200D9CF19
:10079000E6FFE1CFD9FFE652FD0EDBCFE6FF5CDCE2
:1007A000E552FE0EDBCFE6FF34EC1CF0E55252ECD6
:1007B0001CF0DF6E010EE66EB5EC1CF0E552FD0E8E
:1007C000DBCFE6FF76DCE552DF5000D0E552E552A4
:1007D000E7CFD9FF1200D9CFE6FFE1CFD9FFFE0E58
:1007E000DBCFE6FF4DDEE552FE0EDBCFE6FF680E07
:1007F000E66E600EE66EB3DCE552E552E552FE0EA3
:10080000DBCFE6FF680EE66E700EE66EA8DCE55202
:10081000E552E552FE0EDBCFE6FFEFDCE55200D0FD
:10082000E552E7CFD9FF1200D9CFE6FFE1CFD9FFDC
:10083000FE0EDBCFE6FF24DEE552FE0EDBCFE6FF49
:10084000480EE66E600EE66E8ADCE552E552E55231
:10085000FE0EDBCFE6FFD1DCE552E552E7CFD9FF54
:100860001200D9CFE6FFE1CFD9FFE652FC0EDBCF75
:10087000E6FFDADFE552FC0EDBCFE6FF01DEE552F4
:10088000FC0EDBCFE6FFE668200EE66E68DCE55284
:10089000E552E552FC0EDBCFE6FFE668210EE66E80
:1008A0005EDCE552E552E552FD0EDBCFE9FFFE0EC0
:1008B000DBCFEAFFEECF14F0EFCF15F0030ED890A8
:1008C00015321432E804FBE11450DF6EFC0EDBCF6E
:1008D000E6FFDFCFE6FFE66A42DCE552E552E5528D
:1008E000FD0EDBCFE9FFFE0EDBCFEAFFEECF14F00B
:1008F000EFCF15F0050ED89014361536E804FBE15D
:100900001450DF6EFC0EDBCFE6FFFD0EDBCFE9FF00
:10091000FE0EDBCFEAFFEECF14F0EFCF15F0050EA1
:10092000D89014361536E804FBE11450E66E010E3B
:10093000E66E15DCE552E552E552FC0EDBCFE6FF34
:100940005CDCE552FD0EDBCFE9FFFE0EDBCFEAFFFC
:10095000EECFE6FFEFCFE6FF2D0E146E250E156EDF
:10096000166A14C0E6FF15C0E6FF16C0E6FF9EEC4F
:100970001AF0176E050EE15E1750020EE76EFD0EBF
:10098000DBCFE9FFFE0EDBCFEAFFE750E926000EE2
:10099000EA22EECFE6FFEFCFE6FF2D0E146E250E16
:1009A000156E166A14C0E6FF15C0E6FF16C0E6FF16
:1009B0009EEC1AF0176E050EE15E1750E552E552F7
:1009C000E7CFD9FF1200D9CFE6FFE1CFD9FF1B0E49
:1009D000E126FC0EDBCFE6FFB00EE66ED8DEE55278
:1009E000E552DF6EFC0EDBCFE6FFE5EC09F0E552E9
:1009F000DFCFE6FFE66A190E146E250E156E166A35
:100A000014C0E6FF15C0E6FF16C0E6FF9EEC1AF024
:100A1000176E050EE15E1750060EE66EDFCFE6FF9D
:100A20000AEC00F0E552E552000914E0040E146EE1
:100A3000250E156E166A14C0E6FF15C0E6FF16C037
:100A4000E6FF9EEC1AF0E552E552E552DE52900EBA
:100A5000DD6E30D0070EE66EDFCFE6FF0AEC00F069
:100A6000E552E552000914E0EF0E146E240E156EE7
:100A7000166A14C0E6FF15C0E6FF16C0E6FF9EEC3E
:100A80001AF0E552E552E552DE52940EDD6E12D0B8
:100A9000CA0E146E240E156E166A14C0E6FF15C039
:100AA000E6FF16C0E6FF9EEC1AF0E552E552E5526D
:100AB000000EECD0FC0EDBCFE6FF2CEC00F0E55294
:100AC000010EDBCFE6FF34EC1CF0E552050EDB6ACD
:100AD000060EDB6A52EC1CF0146E156A030ED890F9
:100AE00014361536E804FBE1050E14C0DBFF060ED4
:100AF00015C0DBFF52EC1CF0146E156A050ED89081
:100B000015321432E804FBE1D950050FE96EDACF53
:100B1000EAFF1450EE121550ED12FD0EDBCFE9FF87
:100B2000FE0EDBCFEAFF050EDBCFEEFF060EDBCFBE
:100B3000EDFF52EC1CF0E76E020EE7CFDBFF52EC4C
:100B40001CF0E76E020EE7CFDBFF52EC1CF0E76E05
:100B5000030EE7CFDBFFFD0EDBCFE9FFFE0EDBCFA1
:100B6000EAFF030EE926000EEA22030EDBCFEFFFB9
:100B7000040EDB6A030EDB50F36E040EDBCFF4FFD2
:100B8000F350F45C33E252EC1CF0E66ED950070FE0
:100B9000166EDACF17F0040EDB500F011624E96E43
:100BA000000E1720EA6EE552E750EF6EE66EFD0E7E
:100BB000DBCFE9FFFE0EDBCFEAFF050EE926000ED4
:100BC000EA22E9CF14F0EACF15F0040EDB5014242A
:100BD000E96E000E1520EA6EE552E750EF6E040E46
:100BE000DB28E76E040EE7CFDBFFC4D7FC0EDBCFBC
:100BF000E6FF59EC00F0E552060EE66EDFCFE6FFA9
:100C00000AEC00F0E552E55200091FE0FC0EDBCFD4
:100C1000E6FFE66A010EE66E2C0EE66ED3EC00F0FF
:100C2000E552E552E552E552C10E146E240E156EE2
:100C3000166A14C0E6FF15C0E6FF16C0E6FF9EEC7C
:100C40001AF0E552E552E5521ED0FC0EDBCFE6FF6E
:100C5000E66A020EE66E2C0EE66ED3EC00F0E5526C
:100C6000E552E552E552B80E146E240E156E166A62
:100C700014C0E6FF15C0E6FF16C0E6FF9EEC1AF0B2
:100C8000E552E552E552010EDB5000D0146E1B0E0A
:100C9000E15C02E2E16AE552E16E1450E552E7CF11
:100CA000D9FF1200D9CFE6FFE1CFD9FF060EE1262A
:100CB000010EDB6AFC0EDB501AE0FC0EDB0417E0D1
:100CC000FC0EDB50020813E0830E146E240E156E2A
:100CD000166A14C0E6FF15C0E6FF16C0E6FF9EECDC
:100CE0001AF0E552E552E552FF0E99D129D0FC0EDB
:100CF000DB50020806E1040EF36EFC0EF3CFDBFFBF
:100D00001FD0FC0EDB0406E1020EF36EFC0EF3CFE7
:100D1000DBFF16D0FC0EDB5003E1FC0EDB6A10D0CB
:100D20003A0E146E240E156E166A14C0E6FF15C036
:100D3000E6FF16C0E6FF9EEC1AF0E552E552E552DA
:100D4000FD0EDBCFE9FFFE0EDBCFEAFFE9CF14F0AB
:100D5000EACF15F0040E14C0DBFF050E15C0DBFF53
:100D6000040EDBCFE9FF050EDBCFEAFFEF50200DCD
:100D7000020EF3CFDBFF010EE76E040EDBCFE9FFBF
:100D8000050EDBCFEAFFE750E926000EEA22EF501E
:100D9000200DF3CF14F0040EDBCFE9FF050EDBCFFF
:100DA000EAFFEF50E840E840E8401F0B1410E76E00
:100DB000030EE7CFDBFFFD0EDBCFE9FFFE0EDBCF3F
:100DC000EAFF030EE926000EEA22EF50E66EE66A1D
:100DD000FD0EDBCFE9FFFE0EDBCFEAFFEECFE6FF35
:100DE000EFCFE6FFFD0EDBCFE9FFFE0EDBCFEAFF24
:100DF000EECFE6FFEFCFE6FF100E146E240E156E59
:100E0000166A14C0E6FF15C0E6FF16C0E6FF9EECAA
:100E10001AF0176E090EE15E1750FB0EDBCFE6FFEE
:100E20002CEC00F0E552FC0EDB504009E66E34EC91
:100E30001CF0E552030EDBCFE6FF34EC1CF0E5526C
:100E4000020EDBCFE6FF34EC1CF0E552E66A34EC30
:100E50001CF0E552E66A34EC1CF0E552FD0EDBCFE7
:100E6000E9FFFE0EDBCFEAFF030EE926000EEA22C1
:100E7000EF500F0BDF6EFD0EDBCFE9FFFE0EDBCF79
:100E8000EAFF040EE926000EEA22EF5017E0400EBA
:100E9000DF10E66E34EC1CF0E552050E146E240EE5
:100EA000156E166A14C0E6FF15C0E6FF16C0E6FF11
:100EB0009EEC1AF0E552E552E55287D0DFCFE6FF0F
:100EC00034EC1CF0E552FA0E146E230E156E166A01
:100ED00014C0E6FF15C0E6FF16C0E6FF9EEC1AF050
:100EE000E552E552E552E80E146E230E156E166AB1
:100EF00014C0E6FF15C0E6FF16C0E6FF9EEC1AF030
:100F0000E552E552E552010EDB6ADF50F36E010E49
:100F1000DBCFF4FFF350F45C48E2FD0EDBCFE9FFDA
:100F2000FE0EDBCFEAFF050EE926000EEA22E9CF2E
:100F300014F0EACF15F0010EDB500F011424E96E16
:100F4000000E1520EA6EEF50E66EE66AE30E166EAE
:100F5000230E176E186A16C0E6FF17C0E6FF18C00A
:100F6000E6FF9EEC1AF0196E050EE15E1950FD0EBB
:100F7000DBCFE9FFFE0EDBCFEAFF050EE926000E10
:100F8000EA22E9CF14F0EACF15F0010EDB500F0191
:100F90001424E96E000E1520EA6EEF50E66E34EC74
:100FA0001CF0E552010EDB2AB0D7E10E146E230EC1
:100FB000156E166A14C0E6FF15C0E6FF16C0E6FF00
:100FC0009EEC1AF0E552E552E552FB0EDBCFE6FF50
:100FD00059EC00F0E552300EE66EB5EC1CF0E5522F
:100FE000FB0EDBCFE6FF2CEC00F0E552FC0EDB50F5
:100FF00002E1010E02D0FC0EDB50E76EFC0EE7CFE3
:10100000DBFFDB508009E66E34EC1CF0E552FB0E92
:10101000DBCFE6FF59EC00F0E552010E00D0146E74
:10102000060EE15C02E2E16AE552E16E1450E5521F
:10103000E7CFD9FF1200D9CFE6FFE1CFD9FF060EE7
:10104000E126010EDB6AFC0EDB501AE0FC0EDB042D
:1010500017E0FC0EDB50020813E0830E146E240E22
:10106000156E166A14C0E6FF15C0E6FF16C0E6FF4F
:101070009EEC1AF0E552E552E552FF0E9AD129D0C6
:10108000FC0EDB50020806E1040EF36EFC0EF3CFFB
:10109000DBFF1FD0FC0EDB0406E1020EF36EFC0E3C
:1010A000F3CFDBFF16D0FC0EDB5003E1FC0EDB6A56
:1010B00010D03A0E146E240E156E166A14C0E6FF98
:1010C00015C0E6FF16C0E6FF9EEC1AF0E552E552A9
:1010D000E552FD0EDBCFE9FFFE0EDBCFEAFFE9CFE5
:1010E00014F0EACF15F0040E14C0DBFF050E15C096
:1010F000DBFF040EDBCFE9FF050EDBCFEAFFEF508D
:10110000200D020EF3CFDBFF010EE76E040EDBCFE6
:10111000E9FF050EDBCFEAFFE750E926000EEA22E1
:10112000EF50200DF3CF14F0040EDBCFE9FF050ED6
:10113000DBCFEAFFEF50E840E840E8401F0B141017
:10114000E76E030EE7CFDBFFFD0EDBCFE9FFFE0E00
:10115000DBCFEAFF030EE926000EEA22EF50E66E2F
:10116000E66AFD0EDBCFE9FFFE0EDBCFEAFFEECF36
:10117000E6FFEFCFE6FFFD0EDBCFE9FFFE0EDBCF94
:10118000EAFFEECFE6FFEFCFE6FF100E146E240E5F
:10119000156E166A14C0E6FF15C0E6FF16C0E6FF1E
:1011A0009EEC1AF0176E090EE15E1750FB0EDBCFB6
:1011B000E6FF2CEC00F0E552FC0EDB504009E66E39
:1011C00034EC1CF0E552030EDBCFE6FF34EC1CF0F0
:1011D000E552020EDB500809E66E34EC1CF0E552D5
:1011E000E66A34EC1CF0E552E66A34EC1CF0E55299
:1011F000FD0EDBCFE9FFFE0EDBCFEAFF030EE92693
:10120000000EEA22EF500F0BDF6EFD0EDBCFE9FF81
:10121000FE0EDBCFEAFF040EE926000EEA22EF50B5
:1012200017E0400EDF10E66E34EC1CF0E552050EC0
:10123000146E240E156E166A14C0E6FF15C0E6FF84
:1012400016C0E6FF9EEC1AF0E552E552E55287D053
:10125000DFCFE6FF34EC1CF0E552FA0E146E230EDD
:10126000156E166A14C0E6FF15C0E6FF16C0E6FF4D
:101270009EEC1AF0E552E552E552E80E146E230E8C
:10128000156E166A14C0E6FF15C0E6FF16C0E6FF2D
:101290009EEC1AF0E552E552E552010EDB6ADF5092
:1012A000F36E010EDBCFF4FFF350F45C48E2FD0E69
:1012B000DBCFE9FFFE0EDBCFEAFF050EE926000ECD
:1012C000EA22E9CF14F0EACF15F0010EDB500F014E
:1012D0001424E96E000E1520EA6EEF50E66EE66A01
:1012E000E30E166E230E176E186A16C0E6FF17C0BF
:1012F000E6FF18C0E6FF9EEC1AF0196E050EE15EDF
:101300001950FD0EDBCFE9FFFE0EDBCFEAFF050E25
:10131000E926000EEA22E9CF14F0EACF15F0010E1B
:10132000DB500F011424E96E000E1520EA6EEF5019
:10133000E66E34EC1CF0E552010EDB2AB0D7E10E6C
:10134000146E230E156E166A14C0E6FF15C0E6FF74
:1013500016C0E6FF9EEC1AF0E552E552E552FB0E90
:10136000DBCFE6FF59EC00F0E552300EE66EB5EC4F
:101370001CF0E552FB0EDBCFE6FF2CEC00F0E55253
:10138000FC0EDB5002E1010E02D0FC0EDB50E76EDA
:10139000FC0EE7CFDBFFDB508009E66E34EC1CF07F
:1013A000E552FB0EDBCFE6FF59EC00F0E552010EF3
:1013B00000D0146E060EE15C02E2E16AE552E16ED5
:1013C0001450E552E7CFD9FF1200D9CFE6FFE1CFA5
:1013D000D9FF030EE126FE0EDBCFE6FF1D0EE66E03
:1013E00086EC00F0E552E552DF6EFE0EDBCFE6FF45
:1013F0001C0EE66E86EC00F0E552E552E76E010E3B
:10140000E7CFDBFFFE0EDBCFE6FF2D0EE66E86ECB0
:1014100000F0E552E552E76E020EE7CFDBFF010E6A
:10142000DBCFE6FFE66ADFCFE6FFE66AB00E146EBA
:10143000230E156E166A14C0E6FF15C0E6FF16C02F
:10144000E6FF9EEC1AF0176E070EE15E1750020ED3
:10145000DBCFE6FFE66A980E146E230E156E166A51
:1014600014C0E6FF15C0E6FF16C0E6FF9EEC1AF0BA
:10147000176E050EE15E1750030EE15C03E200D02B
:10148000E16AE552E16EE552E7CFD9FF1200D9CF0C
:10149000E6FFE1CFD9FF020EE126DF6A010EDB6A2B
:1014A000DF50146E156AD890155004E6FE0E145CD9
:1014B000000E155813E2010EDB50146E156AD89019
:1014C000155004E6FE0E145C000E155803E2010EE2
:1014D000DB2AF1D7010EDB6ADF2AE2D7020EE15CDC
:1014E00002E2E16AE552E16EE552E7CFD9FF120070
:1014F000D9CFE6FFE1CFD9FFFD0EDBCFE9FFFE0E2E
:10150000DBCFEAFF030EEF6E010EE76EFD0EDBCFC1
:10151000E9FFFE0EDBCFEAFFE750E926000EEA22E4
:10152000440EEF6E020EE76EFD0EDBCFE9FFFE0EFE
:10153000DBCFEAFFE750E926000EEA22F10EEF6E5C
:10154000030EE76EFD0EDBCFE9FFFE0EDBCFEAFFF9
:10155000E750E926000EEA22050EEF6EE552E7CFCE
:10156000D9FF1200D9CFE6FFE1CFD9FFFD0EDBCFC7
:10157000E9FFFE0EDBCFEAFF030EEF6E010EE76E12
:10158000FD0EDBCFE9FFFE0EDBCFEAFFE750E926D9
:10159000000EEA22800EEF6E020EE76EFD0EDBCF2C
:1015A000E9FFFE0EDBCFEAFFE750E926000EEA2254
:1015B0009A0EEF6E030EE76EFD0EDBCFE9FFFE0E17
:1015C000DBCFEAFFE750E926000EEA22010EEF6EBC
:1015D000E552E7CFD9FF1200956A020EB66E966A01
:1015E000E66A59EC00F0E552010EE66E59EC00F0A7
:1015F000E552020EE66E59EC00F0E55200D0120002
:101600003CEC10F0FB0EDBCFF3FFDB06F3500009E0
:101610000AE08AEC10F0FA0EF5EC10F0F3E1151C7C
:10162000F1E1010E01D0000E6BEF10F03CEC10F078
:101630003B0EE12402E3E168E652E16E010EDB6A53
:10164000020EDB6AF90EDBCFF6FFFA0EDBCFF7FFF7
:10165000FB0EDBCFF8FF0800F550DF6EDF5002E134
:101660008FEF0FF0250EDF5C02E082EF0FF0030E2C
:10167000DB6A040EDB6A050EDB6A060EDB6A070E08
:10168000DB6AA4EC0FF02D0EDF5C0CE02B0EDF5CB0
:1016900009E0200EDF5C06E0230EDF5C03E0300E85
:1016A000DF5C1AE1DF50300A14E0130A0FE0030A8E
:1016B0000AE00B0A05E0060AE4E1030EDB80E1D74D
:1016C000030EDB82DED7030EDB84DBD7030EDB8663
:1016D000D8D7030EDB88D5D72A0EDF5C1BE1A0EC40
:1016E0000FF0EEEC0FF010E0030EDB8006680768E9
:1016F000130EDBCF0BF0140EDBCF0CF0DEEC17F08B
:10170000040E04C0DBFF03D0130ED7EC0FF0A4ECE3
:101710000FF00BD0090EDB6A45EC10F003E0B9ECDA
:1017200010F0FAD7090ED7EC0FF0030EDBB0DB9800
:101730002E0EDF5C1BE1A4EC0FF02A0EDF5C0BE148
:10174000A0EC0FF0EEEC0FF003E1130E29EC10F01B
:10175000A4EC0FF00BD0090EDB6A45EC10F003E0AF
:10176000B9EC10F0FAD7090E29EC10F0680EDF5C26
:1017700007E1A4EC0FF0680EDF5C1DE1030E18D04A
:10178000740EDF5C17E07A0EDF5C14E0480EDF5C5D
:1017900006E0540EDF5C03E05A0EDF5C02E1020E4D
:1017A00007D06C0EDF5C03E06A0EDF5C04E1010E23
:1017B0007CEC10F0C9DBDF506E0A01E17FD31E0A1A
:1017C00001E192D1200A01E18FD13F0A01E149D123
:1017D0001A0A01E146D10D0A01E143D1200A01E1D3
:1017E00040D13A0A01E13DD1200A01E13AD1260A6D
:1017F00001E135D10D0A01E132D11A0A01E1D9D056
:10180000200A4AE0300A1FE0460A0EE0250A01E0FD
:1018100083D3D950F90FE96EFF0EDA20EA6E010E7C
:10182000EE5E000EEE5AEE5A8AEC10F0250EE66ED1
:1018300095DB03E1151C01E169D386EC10F001E2B0
:101840006BD3DB2A69D3080EDB6A040EDB50010878
:1018500006E2040EDB044EEC10F0DB508BDB080ECE
:10186000DB5009E0030EDB50010B05E172DB01E008
:101870004DD3080EDB6A64DBEFCFDFFFFEEC10F028
:1018800003E1151C01E142D386EC10F001E3DB2AF1
:1018900060DB01E141D33AD3070EDB5002080FE1D0
:1018A000CAEC10F0030E91EC10F00E0EEECFDBFF41
:1018B0000F0EEECFDBFF100EEECFDBFF20D0F70ECA
:1018C000DBCF17F0F80EDBCF18F0020E175E000E1C
:1018D000185AF70E17C0DBFFF80E18C0DBFF17C051
:1018E000E9FF18C0EAFF81EC10F0166A0E0E14C072
:1018F000DBFF0F0E15C0DBFF100E16C0DBFF0E0E58
:10190000DBCFE6FF0F0EDBCFE6FF100EDBCFE6FFEF
:10191000EBEC1BF0E552E552E552130E05C0DBFF80
:10192000140E06C0DBFF060EDB5005E0130EC5ECFF
:1019300010F001E26ADBE9EC10F002E2130E37DB93
:10194000ACEC10F006E0040EC5EC10F002E2050E5F
:101950002EDB030EDBB005D0FCDA01E0D7D2080E97
:10196000DB6A090EDB6A0E0EDBCFF6FF0F0EDBCF54
:10197000F7FF100EDBCFF8FF0800F550DF6EDF50E9
:1019800014E0EFEC10F011E2FEEC10F003E1151C96
:1019900001E1BCD2BBDB01E3DB2A090EDB2AD95013
:1019A0000E0FE96E000ECBDBE7D7D3DA01E1B4D23C
:1019B000ADD2C6DA110EEECFDBFF120EEDCFDBFF9C
:1019C000110EDBCFE6FF120EDBCFE6FFDDEC1BF0E6
:1019D000E552E552130EF3CFDBFF140EF4CFDBFF1D
:1019E000060EDB5004E0130ED0DB01E20EDBE9EC67
:1019F00010F002E2130EDBDAAFDB05E0040EC5DB0C
:101A000002E2050ED4DA030EDBB005D0A2DA01E063
:101A10007DD2080EDB6A090EDB6A110EDBCFE9FF0F
:101A2000120EDBCFEAFFEFCFDFFFDF5014E0D7DB92
:101A300012E2E4DB03E1151C01E168D267DB01E39C
:101A4000DB2A090EDB2A110EDB2ADBCFE9FF120E9F
:101A5000E8E3DB2AE6D77DDA01E15ED257D2030E56
:101A6000DB8E070EDB0410E195DB040E5ADB0A0E59
:101A7000EECFDBFF0B0EEECFDBFF0C0EEECFDBFF6E
:101A80000D0EEECFDBFF6CD0070EDB5003082CE110
:101A9000030EDBAE0DD0B2DA020E76DAEFCF14F021
:101AA000156A166A176A14AE39D01568166835D0EB
:101AB000F70EDBCF15F0F80EDBCF16F0020E155E39
:101AC000000E165AF70E15C0DBFFF80E16C0DBFF2E
:101AD00015C0E9FF16C0EAFFEFCF14F00A0E14C0DC
:101AE000DBFF0B0EDB6A38D0070EDB50020809E182
:101AF000030EDBAE04D059DB16AE10D00ED055DB92
:101B00000DD0030EDBAE12D079DA020E3DDAF9DA2F
:101B1000166A176A15AE02D016681768E2DA0C0E5C
:101B200016C0DBFF0D0E17C0DBFF1AD0F70EDBCFA0
:101B300016F0F80EDBCF17F0020E165E000E175AE5
:101B4000F70E16C0DBFFF80E17C0DBFF16C0E9FF6B
:101B500017C0EAFFD6DAC5DA0C0EDB6A0D0EDB6AB7
:101B6000060EDB5005E1010EF36E050EF3CFDBFF31
:101B7000150EDB6A160EDB6AD950370F146E000E95
:101B8000DA20156E390E14C0DBFF3A0E15C0DBFFEC
:101B9000380EDB6A080EDB6A0A0EAEDADF50780A0E
:101BA00012E0200A10E0280A0CE0200A0AE03F0AAE
:101BB00006E00D0A02E0200A08E1020E05D0080E38
:101BC00003D0080EDF26100E97DA030EDBBE02D01C
:101BD000DB92DB94DB50800B24E08ADAD890030E92
:101BE000EB50000A08E6000EEE5C000EEE58000E08
:101BF000EE58000EEE5815E213DA09680A680B6811
:101C00000C6871EC1BF00A0E00C0DBFF0B0E01C06C
:101C1000DBFF0C0E02C0DBFF0D0E03C0DBFF2D0E41
:101C200008D0030EDBA202D02B0E03D0DBA408D019
:101C3000200EF36E170EF3CFDBFF150EDB2A02D05A
:101C4000170EDB6A050EDB5003E1B7D901E189D03D
:101C5000800E146E390E156E000E166E070EDBCF59
:101C600017F0186A196A1A6A17C009F018C00AF042
:101C700019C00BF01AC00CF0D3D910EC1CF01450A2
:101C80000024F36E15500120F46E16500220F86EF9
:101C9000F4CFF7FFF3CFF6FF0800090EF5CFDBFF17
:101CA000580EDF5C0FE1610EF36E090E7BD90AE37B
:101CB000200E146E090EDBCFE7FF1450E75E090E0D
:101CC000E7CFDBFF070EDBCF14F0156A166A176A41
:101CD0000FDA14C009F015C00AF016C00BF017C0D7
:101CE0000CF0EECF04F0EECF05F0EECF06F0EFCF24
:101CF00007F010EC1CF007C0EDFF06C0EDFF05C0BB
:101D0000EDFF04C0EFFF390EDBCFE9FFDB063A0E33
:101D1000DBCFEAFF01E2DB06090EDBCFEFFF150E9A
:101D2000DB2A4BD995E1030EDBA61DD06F0EDF5CDD
:101D300006E1C1D918E3150EDB285BDA14D0780E62
:101D4000DF5C09E0580EDF5C06E0620EDF5C03E05A
:101D5000420EDF5C08E1020EF36E160EF3CFDBFFDE
:101D600002D0150EDB6A030EDB50100B0EE0040EE2
:101D7000DBCF14F0050EDB50D880145406E2060EBB
:101D8000DB5003E1040EDB5034DA95D90AE2050E8C
:101D9000DBCFE7FF150EDB50E75E050EE7CFDBFF7D
:101DA00002D0050EDB6A040EDBCF14F0160E45D907
:101DB000D880145414E2160EDBCFE6FF150EDBCFED
:101DC000E6FF040EDBCFE6FF050EDB50E552E75CD5
:101DD000E552D880E754E552D880E7545FD9030E26
:101DE000DB50010B0BE1080EDB5008E0B2D801E03C
:101DF0008DD0080EDB50BED8080EDB6A170EDB5004
:101E000007E088D9170EF1D903E1151C01E17ED056
:101E1000160EDB5016E07ED9300EE66E9FD802E13A
:101E2000151C74E077D9DFCFE6FF2FEC1BF0E552ED
:101E3000E552E552F4CF15F00001F31C02E1151C48
:101E400065E0050EDBCF14F0160EDB50D88014547D
:101E500009E2050EDBCFE7FF160EDB50E75E050E4D
:101E6000E7CFDBFF300EE66E050ECBD94FE1390E22
:101E7000DB2ADBCFE9FF3A0E01E3DB2ADBCFEAFF07
:101E8000090EEFCFDBFFDB500EE044D9090EADD9D0
:101E900002E1151C3BE0390EDB2ADBCFE9FF3A0EED
:101EA000EDE3DB2AEBD755D831E1160EDBCFE6FFA9
:101EB000080EC3D8E552E7245DD82ED0070EDB50BC
:101EC000030A1CE0010A14E0030A07E07BD9DBCF18
:101ED000EEFF020EDBCFEDFF1FD0F5D8196A17AE6B
:101EE00002D0186819682CD8BCD819C0EEFF14D0DD
:101EF000EAD817BE186824D8B4D80ED063D9DBCF7F
:101F0000EFFF0AD07BD905E1151C03E1F368F46803
:101F100010D0FCD801E3DB2A79D92BEF0BF0010EAE
:101F2000DBCF14F0020EDBCF15F014C0F3FF15C0A9
:101F3000F4FF3B0EE15C02E2E16AE552E16ECBD0D8
:101F400029D9020E91EF10F061D90800F550DF6E2B
:101F50001200200EE66E080E01EF11F02FEC1BF0C0
:101F6000E552E552E552F3CF14F0F4CF15F000013D
:101F7000F31C1200146E156AD950010F4DD914507C
:101F8000EE261550ED221200185E000E195AF70EBB
:101F900018C0DBFFF80E19C0DBFF18C0E9FF19C03D
:101FA000EAFF1200DBCFF4FFF350F45C1200DB50C9
:101FB000E76E040EE7CFDBFF12000A0EDBCF14F052
:101FC0000B0EDBCF15F00C0EDBCF16F00D0EDBCFBA
:101FD00017F014501510161017101200130EEECF34
:101FE000DBFF140EEDCFDBFF130EDBCF14F0140E6E
:101FF000DBCF15F00001800E15141200F70EDBCFB9
:1020000018F0F80EDBCF19F01200050EDB50E66E6B
:10201000D950130F01D9E552E750EE6EED6A120068
:102020000A0EDBCF04F00B0EDBCF05F00C0EDBCF7E
:1020300006F00D0EDBCF07F01200DBCFE6FF150E2A
:10204000DBCFE6FF050EDB50E552E724E552E7243F
:102050001200DB50CED8010EF36E060EF3CFDBFF7D
:102060001200EE50EFCFEAFFE96E16C0EEFF17C088
:10207000EEFF18C0EEFF1200D9CFE6FFDACFE6FF81
:10208000E1CFD9FFE2CFDAFF1200DFCFE6FFE66A49
:1020900069EC1CF0E552E552F3501200E76E080EB1
:1020A000E7CFDBFF1200EECF14F0EECF15F0EFCF4D
:1020B00016F0176A1200050EDBCF14F0150EDB5078
:1020C000D88014541200010EDBCF16F0020EDBCFC5
:1020D00017F0186A1200E552E5CFDAFFE7CFD9FF13
:1020E00012000A0E14C0DBFF0B0E15C0DBFF12003E
:1020F000D9500A0F0CEF11F0F36E070EF3CFDBFF90
:102100001200EECF14F0EFCF15F01200010EDB2A13
:10211000020E1200FC0EDBCFE6FFFD0EDBCFE6FF6A
:102120001200145E000E155AF70E14C0DBFFF80EF5
:1021300015C0DBFF14C0E9FF15C0EAFF1200DA206A
:10214000EA6EEF2AEECFF6FF000EEF22EECFF7FF9A
:10215000EF22EECFF8FF1200040EDBCFE6FF130EE6
:10216000DB50E552E75C9ADFDB5004DF060EDB5004
:102170001200090EDB500A0DF350DF24D00FE76E7A
:10218000090EE7CFDBFFA4EF0FF0DB50F36E050E77
:10219000D2EF0FF0F70EDBCF14F0F80EDBCF15F017
:1021A0001200DFCFE6FFAEEF0FF028DF030EECDE0C
:1021B00053EF10F000EC0BF0E552E552E552E5521A
:1021C00000091200BDDEEE50EFCFEAFFE96E010E0E
:1021D0001200130EDB50F36E040ED2EF0FF0040E5C
:1021E000DB50F36E090ED2EF0FF0DBCFE6FFAEEF60
:1021F0000FF0E76E050EE7CFDBFF12008BDFD1EFAC
:1022000010F0DBCFE6FF86DFDAEF10F0D950F90FE0
:10221000E96EFF0E9FEF10F0E96E000EDA20EA6E15
:022220001200AA
:0E2222000D2020546865206461746120617491
:1022300074202569202069732020257820200A0039
:102240000D546865206C656E67746820697320257D
:1022500069200A000D204D4F544F5220434F4E52DB
:102260004F4C4C4552200A000D20205468652064D4
:102270006174612061742025692020697320202504
:102280007820200A000D54686520616464726573CB
:1022900073206973202578200A000D2073696D7002
:1022A0006C6520626974206F7065726174696F6E0D
:1022B0007320776F726B207269676874200A000D53
:1022C000204572726F72202D73696D706C6520628B
:1022D0006974207368696674206661696C73200A8A
:1022E000000D4D4F544F5220434F4E54524F4C4CC3
:1022F00045522E205061737320696E6974204D43DE
:102300005020323531350A000D204D4F544F5220A8
:10231000434F4E54524F4C4C45522E20204661693B
:102320006C657220746F20696E6974204D43502073
:10233000323531352C207265736574696E67200AF9
:10234000000D4D5050542E205061737320696E69FA
:1023500074204D435020323531350A000D4D505018
:10236000542E204661696C657220746F20696E6915
:1023700074204D435020323531352C207265736501
:1023800074696E67200A000A0D2053657269616CDA
:10239000204F70656E200A000D54686520657272CA
:1023A0006F722062797465202D3E202562200A001C
:1023B0000D20746865207265635F6572726F7220AC
:1023C000697320256920616E6420746865207465D6
:1023D00063206572726F7220697320256920200A5C
:1023E000000A005B25785D000D20777269747469BE
:1023F0006E672064617461200A000D727472203D62
:102400003D20300A000D72747220213D20300A00F8
:102410000D74657374696E672069642025782C20BB
:10242000616E64202562206D657373616765206C41
:10243000656E6774682025690A000D736F6D657499
:1024400068696E672068617320676F6E65207772B8
:102450006F6E6720696E20746865207265676973A6
:102460007465722073656C656374696F6E2070614A
:10247000727420616370656374206F662052582007
:102480002F6E000D20526567697374657220736C3E
:10249000656374696F6E206E6F742056616C696439
:1024A000202D4C6F6164206D6573736167652066D4
:1024B00061696C6564200A000D206D6F6420320A2A
:1024C000000D206D6F6431200A000D54686572653F
:1024D000206973206E6F206D657373616765206975
:1024E0006E2074686520627566666572200A000D4C
:1024F000596F7520676F74204D61696C20696E207B
:1025000032200A000D596F7520676F74204D616984
:102510006C20696E2031200A000D2052585F7374C0
:1025200061747573202D3E202562200A00257820D5
:102530000A000D496E69742054696D696E672069DF
:102540007320736574200A000D20536F6D65546805
:10255000696E672066756B6564207570200A000DD2
:102560002077616974696E67200A000D20737461B9
:10257000747573207761732073657420746F2063A2
:102580006F6E666967206D6F6465200A000D2045D7
:1025900072726F7220696E2073657474696E672041
:1025A000746F20636F6E666967206D6F646520438A
:1025B000414E53544154203D202562200A000D20F5
:1025C00073746174757320776173207365742074FC
:1025D0006F206C697374656E206D6F6465200A00EE
:1025E0000D204572726F7220696E20736574746974
:1025F0006E6720746F206C697374656E206D6F64F4
:102600006520202043414E53544154203D202562F3
:10261000200A000D2057616B652075702066616986
:102620006C6564200A000D207374617475732077E3
:1026300061732073657420746F204177616B65202E
:102640006D6F6465200A000D2073746174757320CA
:102650007761732073657420746F20736C65657087
:10266000206D6F6465200A000D204572726F722024
:10267000696E2073657474696E6720746F20536C83
:10268000656570206D6F64652020202043414E53A6
:10269000544154203D20202562200A000D737461AE
:1026A000747573207761732073657420746F206E66
:1026B0006F726D616C206D6F64650A000D2045724C
:1026C000726F7220696E2073657474696E6720740E
:1026D0006F206E6F726D616C206D6F6465202020BD
:1026E00043414E53544154203D202562200A000AA4
:1026F0000D696E76616C696465205350492064658C
:102700007669636520746F206163746976617465AE
:1027100020287768617420746865206675636B2073
:1027200061726520796F7520646F696E673F29005B
:102730000A0D7468652053706565642069732069AB
:1027400073202569202C616E642074686520637590
:102750007272656E74206973202569200A000A0D63
:0E276000696E0A000A0D776F772025780A004F
:02276E00D9CFC1
:10277000E6FFE1CFD9FF420EE126470EE66EE66A9C
:102780003C0EE66EEAEC1AF0E552E552E552870E91
:10279000146E230E156E166A14C0E6FF15C0E6FF10
:1027A00016C0E6FF9EEC1AF0E552E552E552800EA7
:1027B000E66EE66A010EE66EA9EC1BF0E552E55204
:1027C000E552010EF36E100EF3CFDBFF020EF36E37
:1027D000110EF3CFDBFF020EF36E1A0EF3CFDBFF09
:1027E000050EF36E1B0EF3CFDBFFECEC0AF0D950B5
:1027F000120FE66E000EDA20E66E78EC0AF0E55273
:10280000E552D950120FE66E000EDA20E66E100E79
:10281000DBCFE6FFD3EC02F0E552E552E552F3CF11
:10282000DEFFF4CFDDFFD9CFE9FFDACFEAFFEE50CC
:10283000ED1023E05C0E146E230E156E166A14C0A4
:10284000E6FF15C0E6FF16C0E6FF9EEC1AF0E55263
:10285000E552E552D950120FE66E000EDA20E66E10
:10286000100EDBCFE6FFD3EC02F0E552E552E55265
:10287000F3CFDEFFF4CFDDFFD6D7100EDBCFE6FFC0
:10288000FDEC00F0E552410E146E230E156E166A33
:1028900014C0E6FF15C0E6FF16C0E6FF9EEC1AF076
:1028A000E552E552E55247EC0AF0D950160FE66EB4
:1028B000000EDA20E66EB2EC0AF0E552E552D9508D
:1028C000160FE66E000EDA20E66E110EDBCFE6FF85
:1028D000D3EC02F0E552E552E552F3CFDEFFF4CF40
:1028E000DDFFD9CFE9FFDACFEAFFEE50ED1023E0AC
:1028F000080E146E230E156E166A14C0E6FF15C07E
:10290000E6FF16C0E6FF9EEC1AF0E552E552E552EE
:10291000D950160FE66E000EDA20E66E110EDBCFF0
:10292000E6FFD3EC02F0E552E552E552F3CFDEFFCD
:10293000F4CFDDFFD6D7110EDBCFE6FFFDEC00F0C4
:10294000E552E10E146E220E156E166A14C0E6FFF3
:1029500015C0E6FF16C0E6FF9EEC1AF0E552E55200
:10296000E55247EC0AF0060EE66EBF0EE66E0AEC84
:1029700000F0E552E552000911E0BF0E146E220E80
:10298000156E166A14C0E6FF15C0E6FF16C0E6FF16
:102990009EEC1AF0E552E552E55210D09A0E146EF4
:1029A000220E156E166A14C0E6FF15C0E6FF16C0AB
:1029B000E6FF9EEC1AF0E552E552E552110EDBCF30
:1029C000E6FFD9501A0FE66E000EDA20E66E31EC03
:1029D00004F0E552E552E5523F0EDB6A400EDB6A39
:1029E000110EF36E240EF3CFDBFF070EF36E250EF0
:1029F000F3CFDBFF270EDB6A280EDB6A100EDBCF7E
:102A0000E6FF020EE66ED950240FE66E000EDA20C5
:102A1000E66E52EC06F0E552E552E552E552300E14
:102A2000E66EB5EC1CF0E552100EDBCFE6FFD95098
:102A3000310FE66E000EDA20E66EE3EC04F0E552AC
:102A4000E552E55200096EE0310EDBCFE6FF320EB3
:102A5000DBCFE6FF850E146E220E156E166A14C0CB
:102A6000E6FF15C0E6FF16C0E6FF9EEC1AF0176EF3
:102A7000050EE15E1750340EDB50F36E400EDBCFD7
:102A8000F4FFF350F45C2BE2D950360F146EDACF1A
:102A900015F0400EDB500F011424E96E000E1520D6
:102AA000EA6E410EEFCFDBFFDBCFE6FFE66A400EBA
:102AB000DBCFE6FFE66A680E146E220E156E166A0C
:102AC00014C0E6FF15C0E6FF16C0E6FF9EEC1AF044
:102AD000176E070EE15E1750400EDB2ACCD7D95097
:102AE0001C0FE96EDACFEAFFEECFE6FFEECFE6FF8E
:102AF000EECFE6FFEECFE6FFEECFE6FFEECFE6FF4E
:102B0000EECFE6FFEECFE6FFD950360FE66E000EB1
:102B1000DA20E66E0BEC18F0146E0A0EE15E14502B
:102B200047EC0AF03F0EDB6A300EE66EB5EC1CF0A7
:102B3000E552110EDBCFE6FFD950310FE66E000EE5
:102B4000DA20E66EE3EC04F0E552E552E5520009C6
:102B500001E19ED0540E146E220E156E166A14C03A
:102B6000E6FF15C0E6FF16C0E6FF9EEC1AF0E55240
:102B7000E552E552310EDBCFE6FF320EDBCFE6FF4A
:102B8000850E146E220E156E166A14C0E6FF15C06F
:102B9000E6FF16C0E6FF9EEC1AF0176E050EE15E2A
:102BA0001750340EDBCFE6FFE66A400E146E220E9D
:102BB000156E166A14C0E6FF15C0E6FF16C0E6FFE4
:102BC0009EEC1AF0176E050EE15E1750400EDB6AA0
:102BD000340EDB50F36E400EDBCFF4FFF350F45CA9
:102BE0002BE2D950360F146EDACF15F0400EDB50C1
:102BF0000F011424E96E000E1520EA6E410EEFCF8E
:102C0000DBFFDBCFE6FFE66A400EDBCFE6FFE66ADE
:102C1000220E146E220E156E166A14C0E6FF15C041
:102C2000E6FF16C0E6FF9EEC1AF0176E070EE15E97
:102C30001750400EDB2ACCD7D9501C0FE96EDACFE3
:102C4000EAFFEECFE6FFEECFE6FFEECFE6FFEECFF8
:102C5000E6FFEECFE6FFEECFE6FFEECFE6FFEECFEC
:102C6000E6FF310EDBCFE6FF320EDBCFE6FFD950B9
:102C7000360FE66E000EDA20E66E5FEC19F0146E89
:102C80000C0EE15E14503F0EF3CFDBFF47EC0AF071
:102C9000A3D697D5420EE15C02E2E16AE552E16E0D
:082CA000E552E7CFD9FF120055
:082CA8000F9E08D00F9E07AE3D
:102CB00005D0066C071EE86A07220F8E07C001F0D8
:102CC00006C000F0136A126A8E0E026E036A74EF79
:102CD00017F00F6AB0EC17F0C8EC17F00FB658EF0A
:102CE00017F00FA205D00FBA58EF17F05FEF17F0EB
:102CF0000FBA6BEF17F00FA005D00FB858EF17F011
:102D00006BEF17F00FB85FEF17F0036A7F0E082420
:102D1000026EE86A03220D50025EE86A035A1A0E38
:102D2000106E086A126A136A006A016A0A50055E28
:102D30000B50065A0C50075A000E085A09E70A5061
:102D400005260B5006220C500722000E082201D047
:102D5000128AD8900536063607360836D8901236CD
:102D6000133600360136102EE1D707500610051035
:102D7000D8A4128A74EF17F00F6AB0EC17F0C8EC01
:102D800017F00FB658EF17F00FA205D00FB858EF95
:102D900017F05FEF17F00FAA05D00FB058EF17F03C
:102DA0005FEF17F00FB002D00FA802D06BEF17F053
:102DB000036A0D500824026EE86A03227E0E025E4A
:102DC000E86A035A126A136A006A016A0C50070221
:102DD000F4CF01F0F3CF00F00B500702F3501326AD
:102DE000F4500022000E01220C500602F35013266C
:102DF000F4500022000E01220A500702F35012265E
:102E0000F4501322000E002201220B500602F35050
:102E10001226F4501322000E002201220C5005024B
:102E2000F3501226F4501322000E002201220A5001
:102E30000602F4501226000E1322002201220B502B
:102E40000502F4501226000E13220022012274EF14
:102E500017F00F6AB0EC17F00FB633EF17F00FA2B0
:102E60000ED00FB405D07F0E076EFF0E066E1FD07A
:102E7000800E076E066A1BD0076A066A18D00FB06C
:102E8000FBD78F0E0860EDD77E0E0864F5D78E0E47
:102E9000085C05E0D89007320632082AF8D70FA45C
:102EA00006D0066C071EE86A072207AEE5D71200B7
:102EB0007F0E086EFF0E076E066E056E12007F0E07
:102EC0000FBEFF0E086E02D07F0E086E800E076EDA
:102ED000066A056AF3D70FAE04D0800E086E076A43
:102EE000F7D7086A076AF4D70150001013101210C0
:102EF000F8E003BEF0D701BE0CD002500310EBE0A7
:102F0000D89012361336003601360206D8A00306D2
:102F1000F2D70350D4E10228D2E012AE11D07F0ED6
:102F2000121402E113A00CD0132AE86A0022012235
:102F300007E3D880013200321332022A0228BFE0B0
:102F40000250C9E013C005F000C006F00134076E5E
:102F50000230086E0732089E0FBE088E5EEF17F033
:102F60000736083602E30F840F7E06E10F80086AF9
:102F7000076A066A056A1200082803E0D88007324B
:102F80001200D890073202E10F8212000F86120061
:102F90000C360D3602E30F8C0F7E06E10F880D6AAA
:102FA0000C6A0B6A0A6A12000D2803E0D8800C3202
:102FB0001200D8900C32EAE10F8A120007C013F019
:102FC00006C012F006500B02F4CF05F0F3CF04F068
:102FD00007500C02F4CF07F0F3CF06F00B02F350CA
:102FE0000526F4500622E86A072212500C02F3501C
:102FF0000526F4500622E86A07220CAE04EF18F00A
:103000001250065E1350075A13AE000C0B50065EAA
:063010000C50075A000CF1
:0A301600D9CFE6FFE1CFD9FF020E8B
:10302000E126FD0EDBCFE9FFFE0EDBCFEAFFEF501E
:10303000E66EFB0EDBCFE9FFFC0EDBCFEAFF070EEF
:10304000E926000EEA22E552E750EF6EFD0EDBCFD7
:10305000E9FFFE0EDBCFEAFFEF50030B166E16C042
:1030600017F0166A010EE76EFD0EDBCFE9FFFE0ECC
:10307000DBCFEAFFE750E926000EEA22EF5000011D
:103080001610146E17C015F014C0DEFF15C0DDFF5A
:10309000000EDFCF06F0010EDBCF07F054EC16F088
:1030A00005C01AF006C01BF007C01CF008C01DF0D8
:1030B0000A6A0B6AC80E0C6E420E0D6E1AC005F03D
:1030C0001BC006F01CC007F01DC008F0BCEC16F0D9
:1030D00005C016F006C017F007C018F008C019F0B8
:1030E000DF0E0A6EE00E0B6ED10E0C6E400E0D6EF2
:1030F00016C005F017C006F018C007F019C008F098
:1031000069EC16F029EC17F006C014F007C015F0B2
:10311000FB0EDBCFE9FFFC0EDBCFEAFF020EE92658
:10312000000EEA2214C0EEFF15C0EDFF020EE76E9E
:10313000FD0EDBCFE9FFFE0EDBCFEAFFE750E9260D
:10314000000EEA22EF50030B166E16C017F0166A37
:10315000030EE76EFD0EDBCFE9FFFE0EDBCFEAFFCD
:10316000E750E926000EEA22EF5000011610146E17
:1031700017C015F0FB0EDBCFE9FFFC0EDBCFEAFF3B
:1031800014C0EEFF15C0EDFF040EE76EFD0EDBCFA1
:10319000E9FFFE0EDBCFEAFFE750E926000EEA2248
:1031A000EF50030B166E16C017F0166A050EE76E89
:1031B000FD0EDBCFE9FFFE0EDBCFEAFFE750E9268D
:1031C000000EEA22EF501610146E17C015F014C04E
:1031D000DEFF15C0DDFF000EDFCF06F0010EDBCFF6
:1031E00007F054EC16F005C01AF006C01BF007C03B
:1031F0001CF008C01DF00A6A0B6AC80E0C6E420E65
:103200000D6E1AC005F01BC006F01CC007F01DC0F3
:1032100008F0BCEC16F005C016F006C017F007C0A9
:1032200018F008C019F0050E0A6E340E0B6E970EDA
:103230000C6E400E0D6E16C005F017C006F018C0DB
:1032400007F019C008F069EC16F029EC17F006C079
:1032500014F007C015F0FB0EDBCFE9FFFC0EDBCF4F
:10326000EAFF040EE926000EEA2214C0EEFF15C0A4
:10327000EDFF060EE76EFD0EDBCFE9FFFE0EDBCFA6
:10328000EAFFE750E926000EEA22EF50E66EFB0E59
:10329000DBCFE9FFFC0EDBCFEAFF060EE926000ECE
:1032A000EA22E552E750EF6E020EE15C03E200D045
:0E32B000E16AE552E16EE552E7CFD9FF120068
:0232BE00D9CF66
:1032C000E6FFE1CFD9FF030EE126DF6AFB0EDBCF7D
:1032D000E6FFFC0EDBCFE6FF640E146E270E156EC4
:1032E000166A14C0E6FF15C0E6FF16C0E6FF9EECA6
:1032F0001AF0176E050EE15E1750D950FB0FE96EFC
:10330000FF0EDA20EA6E030EEE1802E1040EED184D
:1033100001E0B7D05E0E146E270E156E166A14C04B
:10332000E6FF15C0E6FF16C0E6FF9EEC1AF0E55278
:10333000E552E552FD0EDBCF06F0FE0EDBCF07F0C7
:10334000DE5206C0DEFF07C0DDFFDD52010EDBCF1F
:10335000E9FF020EDBCFEAFFEECF18F0EECF19F057
:10336000EECF1AF0EFCF1BF0060E0A6E2A0E0B6E90
:103370000F0E0C6E400E0D6E18C005F019C006F051
:103380001AC007F01BC008F0BCEC16F005C014F022
:1033900006C015F007C016F008C017F0F90EDBCF15
:1033A000E9FFFA0EDBCFEAFF14C0EEFF15C0EEFF17
:1033B00016C0EEFF17C0EEFF100EE76EFD0EDBCF5E
:1033C00014F0FE0EDBCF15F0E7501426000E152288
:1033D000010E14C0DBFF020E15C0DBFF010EDBCFB8
:1033E000E9FF020EDBCFEAFFEECF14F0EECF15F0CF
:1033F000EECF16F0EFCF17F0F90EDBCFE9FFFA0EA4
:10340000DBCFEAFF040EE926000EEA2214C0EEFF2D
:1034100015C0EEFF16C0EEFF17C0EEFFF90EDBCFB2
:10342000E9FFFA0EDBCFEAFF040EE926000EEA22DE
:10343000EECFE6FFEECFE6FFEECFE6FFEFCFE6FF03
:10344000F90EDBCFE9FFFA0EDBCFEAFFEECFE6FFA6
:10345000EECFE6FFEECFE6FFEFCFE6FF300E146EC5
:10346000270E156E166A14C0E6FF15C0E6FF16C0DB
:10347000E6FF9EEC1AF0176E0B0EE15E1750010E80
:10348000DF6EDF50146E030EE15C03E200D0E16AF0
:0E349000E552E16E1450E552E7CFD9FF12006D
:02349E00060E18
:1034A000F66E000EF76E000EF86E00010900F55082
:1034B000656F0900F550666F03E1656701D03DD087
:1034C0000900F550606F0900F550616F0900F55073
:1034D000626F09000900F550E96E0900F550EA6EC7
:1034E000090009000900F550636F0900F550646F89
:1034F00009000900F6CF67F0F7CF68F0F8CF69F060
:1035000060C0F6FF61C0F7FF62C0F8FF00016353BF
:1035100002E1645307E00900F550EE6E6307F8E23C
:103520006407F9D767C0F6FF68C0F7FF69C0F8FF06
:0C35300000016507000E665BBFD71200AB
:04353C00D9CFE6FFFE
:10354000DACFE6FFE1CFD9FFE2CFDAFFE652E6526B
:10355000E652E652D950FB0F146EFF0EDA20156EBC
:1035600014C0DEFFDD6EDECFE6FFDDCFE6FFFB0E33
:10357000DBCFE6FFFC0EDBCFE6FFFD0EDBCFE6FF89
:103580006AC0E6FF6BC0E6FF16EC0BF0146E070E88
:10359000E15C02E2E16AE552E16E1450020EF3CF03
:1035A000DBFF030EF4CFDBFF020EDBCF14F0030EC4
:1035B000DBCF15F014C0F3FF15C0F4FF040EE15C7F
:1035C00002E2E16AE552E16EE552E5CFDAFFE7CFCC
:0435D000D9FF12000D
:0C35D400D9CFE6FFDACFE6FFE1CFD9FF48
:1035E000E2CFDAFFAC6AAB6AFD0EDBB0AC88DBA2DF
:1035F00002D0AC8CAB8CDBB4AC8EDBA602D0AB883B
:1036000001D0AB8ADBB8AC849E98DBBAAB86DBAC6E
:1036100002D09D8A01D09D9A9E9ADBAE02D09D88F1
:1036200001D09D98FB0EDB50AF6EFB0EFC0EDBCF86
:1036300015F015C014F0156A1450B06EAC8AAB8E3C
:10364000949C948EAC50100B04E0AC50800B01E1C4
:0E365000948CE552E5CFDAFFE7CFD9FF1200E8
:02365E00D9CFC2
:10366000E6FFDACFE6FFE1CFD9FFE2CFDAFFFB0ECC
:10367000DBCF14F0FC0EDBCF15F00001800E15142B
:103680001AE1FB0EDBCFE9FFFC0EDBCFEAFFEECF4A
:10369000F3FFEDCFF4FFEE2A000EEF22F3CFE9FFA8
:1036A000F4CFEAFFFD0EDBCFEFFFEF50156AF36EAC
:1036B00015C0F4FF10D0FB0EDB50FE0806E1FD0E36
:1036C000DBCFE6FF99EC1CF005D0FD0EDBCFE6FF6B
:1036D000C9EC1CF0E552E552E5CFDAFFE7CFD9FFA0
:0236E0001200D6
:0E36E20004500902F3CF00F0F4CF01F00A0209
:1036F000F3500126000EF420026E04500B02F3502A
:103700000226000EF420036E04500C02F350032630
:1037100005500902F3500126F4500222000E032244
:1037200005500A02F3500226F450032205500B0202
:10373000F350032606500902F3500226F4500322E8
:1037400006500A02F350032607500902F3500326DD
:02375000120065
:0E375200D9CFE6FFDACFE6FFE1CFD9FFE2CF15
:10376000DAFF3F0EC716C66AFD0EDB50C612FB0E0F
:10377000DB50C712FC0EDB50030A09E0010A04E02B
:10378000020A06E1C78C04D0C78CC68801D0C6885F
:10379000FD0EDB50050A05E0010A05E19486928AD8
:1037A00003D0948601D094969488949AC68AE55260
:0A37B000E5CFDAFFE7CFD9FF1200E2
:0637BA00FE0EE3CFE9FF63
:1037C000FF0EE3CFEAFFF36AF46AEE5203E0F34A36
:1037D000F42AFBD71200FF0EE3CFF8FFE552FF0EED
:1037E000E3CFF7FFE552FF0EE3CFF6FFE552E66ABF
:1037F000E66AE66A0900F55209E0FD0EE32A05E1F2
:10380000FE0EE32A02E1FF0EE32AF4D7FD0EE3CF1A
:1038100005F0FE0EE3CF06F0FF0EE3CF07F0120037
:10382000036A026A016A006A200EE76ED8900436C5
:10383000053606360736003601360236033609509D
:10384000005C0A5001580B5002580C50035809E311
:103850000950005E0A50015A0B50025A0C50035A8C
:08386000042AE72EE4D7120050
:08386800D9CFE6FFDACFE6FF3D
:10387000E1CFD9FFE2CFDAFFE652C950DF6E9E9664
:10388000C69EFD0EDB50C96EC6AE02D0FF0E03D041
:103890009EA6FED7000EE552E552E5CFDAFFE7CF50
:0438A000D9FF12003A
:0C38A400D9CFE6FFDACFE6FFE1CFD9FF75
:1038B000E2CFDAFFE652C950DF6E9E96C96A9EA635
:1038C000FED7C950E552E552E5CFDAFFE7CFD9FF81
:0238D0001200E4
:0E38D200F36AF46AFF0EE124E96EFF0EE220B5
:1038E000EA6EED6607D02F0EEF6404D03A0EEF605B
:0638F00001D0F32A1200D2
:0A38F600000EF36E00EE00F0030E6A
:1039000001D81200EA6002D0EE6AFCD7F350E960F9
:063910001200EE6AFCD774
:0A39160012EE00F022EE00F0F86A55
:103920000F9C4FEC1AF0CAEC1CF0B7EC13F0FBD76D
:02393000120083
:0E393200FF0EE350ACBA04D0AF6AAB8EAC8A85
:0E394000949CACA2FED7AD6EF36EF46A12003A
:02394E00FF0E6A
:10395000E3501E6E1B0E00D001D0200EE76EE72E46
:0A396000FED71E2EFAD700D0120089
:06396A00FF0EE350E84EE1
:103970001200000000D000D000D0E82EFAD71200CC
:1039800030313233343536373839616263646566D5
:013990000036
:02399200120021
:0239940012001F
:02399600FEFF32
:020000040030CA
:0100010032CC
:01000200FFFE
:01000300FEFE
:01000600AB4E
:00000001FF
