:020000040000FA
:060000007CEF12F012007B
:0A0006000200252000006C0000003D
:1000100001000000782500006A00000002000000D6
:10002000D9CFE6FFE1CFD9FF130EE126470EE66EEA
:10003000E66A3C0EE66EAEEC10F0E552E552E55293
:10004000140E146E200E156E166A14C0E6FF15C04D
:10005000E6FF16C0E6FF62EC10F0E552E552E5520D
:10006000800EE66EE66A010EE66E6DEC11F0E5526A
:10007000E552E552070EE66EEFDAE552F3CFDEFF0A
:10008000F4CFDDFFD9CFE9FFDACFEAFFEE50ED1074
:1000900019E0EF0E146E1F0E156E166A14C0E6FFFF
:1000A00015C0E6FF16C0E6FF62EC10F0E552E5521F
:1000B000E5526CC0E6FFD0DAE552F3CFDEFFF4CFB5
:1000C000DDFFE0D7D20E146E1F0E156E166A14C037
:1000D000E6FF15C0E6FF16C0E6FF62EC10F0E55241
:1000E000E552E552060EE66EBF0EE66E54D8E552B6
:1000F000E552000911E0B00E146E1F0E156E166A5F
:1001000014C0E6FF15C0E6FF16C0E6FF62EC10F073
:10011000E552E552E55210D08B0E146E1F0E156E8F
:10012000166A14C0E6FF15C0E6FF16C0E6FF62ECD3
:1001300010F0E552E552E552B7D8100EDBCFE6FFDE
:10014000110EDBCFE6FF5ADBE552E552E76E120EE9
:10015000E7CFDBFF780E146E1F0E156E166A14C003
:10016000E6FF15C0E6FF16C0E6FF62EC10F0E552B0
:10017000E552E552300EE66EA6EC12F0E552DDD700
:1001800079D7130EE15C02E2E16AE552E16EE552D5
:10019000E7CFD9FF1200D9CFE6FFE1CFD9FFFD0E9F
:1001A000DB50070802E2FF0E14D0FE0EDBCFE6FFA5
:1001B000010EF36EFD0EDB5004E0D890F336E80636
:1001C000FCE1F350E552E71402E1000E01D0010E0C
:1001D00000D0E552E7CFD9FF12008098010EE66EFD
:1001E000A6EC12F0E55212008088010EE66EA6EC35
:1001F00012F0E5521200D9CFE6FFE1CFD9FFE65267
:10020000ECDF030EE66E25EC12F0E552FE0EDBCFBE
:10021000E6FF25EC12F0E55243EC12F0DF6EE4DF6E
:10022000DF5000D0E552E552E7CFD9FF1200D9CF19
:10023000E6FFE1CFD9FFD1DF020EE66E25EC12F02A
:10024000E552FE0EDBCFE6FF25EC12F0E552FD0E87
:10025000DBCFE6FF25EC12F0E552C6DF00D0E55219
:10026000E7CFD9FF1200D9CFE6FFE1CFD9FFB5DF45
:10027000050EE66E25EC12F0E552FE0EDBCFE6FF32
:1002800025EC12F0E552FD0EDBCFE6FF25EC12F077
:10029000E552FC0EDBCFE6FF25EC12F0E552A4DFC1
:1002A000E552E7CFD9FF1200D9CFE6FFE1CFD9FF62
:1002B000E652E66A0F0EE66EBADFE552E5520F0E21
:1002C000E66E99DFE552DF6EE00EDF141CE0DFCF53
:1002D00014F0156A14BE156814C0E6FF15C0E6FFD9
:1002E000450E166E1F0E176E186A16C0E6FF17C071
:1002F000E6FF18C0E6FF62EC10F0196E050EE15E35
:10030000195012D011D0250E146E1F0E156E166ADC
:1003100014C0E6FF15C0E6FF16C0E6FF62EC10F061
:10032000E552E552E55200D0E552E552E7CFD9FF5C
:100330001200D9CFE6FFE1CFD9FFE652200EE66EDC
:10034000E00EE66E0F0EE66E8EDFE552E552E552E8
:100350000F0EE66E50DFE552DF6EE00EDF14200870
:100360001CE0DFCF14F0156A14BE156814C0E6FF58
:1003700015C0E6FFF10E166E1E0E176E186A16C037
:10038000E6FF17C0E6FF18C0E6FF62EC10F0196E3A
:10039000050EE15E195012D011D0D00E146E1E0E53
:1003A000156E166A14C0E6FF15C0E6FF16C0E6FF1C
:1003B00062EC10F0E552E552E55200D0E552E5520C
:1003C000E7CFD9FF1200D9CFE6FFE1CFD9FFE65240
:1003D000400EE66EE66E2B0EE66E45DFE552E55208
:1003E000E552300EE66EA6EC12F0E5522B0EE66EEC
:1003F00002DFE552DF6EDFAC11D0AF0E146E1E0EC1
:10040000156E166A14C0E6FF15C0E6FF16C0E6FFBB
:1004100062EC10F0E552E552E55210D09C0E146EDD
:100420001E0E156E166A14C0E6FF15C0E6FF16C054
:10043000E6FF62EC10F0E552E552E55200D0E552DD
:10044000E552E7CFD9FF1200D9CFE6FFE1CFD9FFC0
:10045000E652600EE66EE00EE66E0F0EE66E03DF0D
:10046000E552E552E5520F0EE66EC5DEE552DF6E4F
:10047000E00EDF1460081CE0DFCF14F0156A14BE34
:10048000156814C0E6FF15C0E6FF690E166E1E0E55
:10049000176E186A16C0E6FF17C0E6FF18C0E6FF21
:1004A00062EC10F0196E050EE15E195012D011D0F9
:1004B000470E146E1E0E156E166A14C0E6FF15C0A8
:1004C000E6FF16C0E6FF62EC10F0E552E552E55299
:1004D00000D0E552E552E7CFD9FF1200D9CFE6FFB1
:1004E000E1CFD9FFE652400EE66EE00EE66E0F0E4B
:1004F000E66EB9DEE552E552E5520F0EE66E7BDEA2
:10050000E552DF6EE00EDF1440081CE0DFCF14F090
:10051000156A14BE156814C0E6FF15C0E6FF130E79
:10052000166E1E0E176E186A16C0E6FF17C0E6FF9D
:1005300018C0E6FF62EC10F0196E050EE15E19506E
:1005400012D011D0EF0E146E1D0E156E166A14C067
:10055000E6FF15C0E6FF16C0E6FF62EC10F0E552BC
:10056000E552E55200D0E552E552E7CFD9FF12003F
:10057000D9CFE6FFE1CFD9FF020EE126800EE66E6D
:10058000E00EE66E0F0EE66E6EDEE552E552E552C7
:100590000F0EE66E30DEE552DF6EE00EDF148008EF
:1005A0001BE0DFCF14F0156A14BE156814C0E6FF17
:1005B00015C0E6FFBE0E166E1D0E176E186A16C029
:1005C000E6FF17C0E6FF18C0E6FF62EC10F0196EF8
:1005D000050EE15E195010D09C0E146E1D0E156EA6
:1005E000166A14C0E6FF15C0E6FF16C0E6FF62EC0F
:1005F00010F0E552E552E5520E0EE66EFCDDE552D6
:10060000E76E010EE7CFDBFF010EDBA011D0900EED
:10061000146E1D0E156E166A14C0E6FF15C0E6FFB7
:1006200016C0E6FF62EC10F0E552E552E552ECD759
:10063000020EE15C02E2E16AE552E16EE552E7CFCB
:10064000D9FF1200CADD080EE66E0F0EE66EEFDD72
:10065000E552E552F4EF00F0D9CFE6FFE1CFD9FF44
:10066000050EE1260F0E926EDE52030EDD6E440E75
:10067000F36E020EF3CFDBFFF10EF36E030EF3CF3A
:10068000DBFF050EF36E040EF3CFDBFFA6DD010EDC
:10069000E66EA6EC12F0E552C00EE66E25EC12F006
:1006A000E552A2DD300EE66EA6EC12F0E55295DDC5
:1006B000020EE66E25EC12F0E552280EE66E25ECF1
:1006C00012F0E552040EDBCFE6FF25EC12F0E55206
:1006D000030EDBCFE6FF25EC12F0E552020EDBCF76
:1006E000E6FF25EC12F0E552010EDBCFE6FF25EC2C
:1006F00012F0E55279DDE66A0C0EE66E98DDE55201
:10070000E552E66A0D0EE66E92DDE552E552600EA8
:10071000E66EE66E8CDDE552E552600EE66E700E1A
:10072000E66E85DDE552E552E66A0F0EE66E7FDD88
:10073000E552E5522A0EE66E5EDDE552DF6E010EF1
:10074000E66E98EC12F0E552020EDB50DF5C13E02F
:10075000790E146E1D0E156E166A14C0E6FF15C0D4
:10076000E6FF16C0E6FF62EC10F0E552E552E552F6
:10077000F368F46803D0F36AF46A00D0050EE15C14
:1007800002E2E16AE552E16EE552E7CFD9FF1200DD
:10079000D9CFE6FFE1CFD9FFE6521FDDFE0EDBCF5A
:1007A000E6FF25EC12F0E55243EC12F0DF6E1CDDA3
:1007B000DF5000D0E552E552E7CFD9FF1200D8DE76
:1007C000680EE66E600EE66E32DDE552E552680EAA
:1007D000E66E700EE66E2BDDE552E55265DD680EC5
:1007E000E66E600EE66E23DDE552E552680EE66EBB
:1007F000700EE66E1CDDE552E5521200D9CFE6FF21
:10080000E1CFD9FF0C0EE126B00EE66EC1DFE55256
:10081000DF6E53DBDFCFE6FFE66A650E146E1D0E5A
:10082000156E166A14C0E6FF15C0E6FF16C0E6FF97
:1008300062EC10F0176E050EE15E1750060EE66EC4
:10084000DFCFE6FFA8DCE552E552000904E0DE5206
:10085000900EDD6E1FD0070EE66EDFCFE6FF9BDC4D
:10086000E552E552000904E0DE52940EDD6E12D02E
:10087000400E146E1D0E156E166A14C0E6FF15C0EC
:10088000E6FF16C0E6FF62EC10F0E552E552E552D5
:10089000000E92D0A2DC010EDBCFE6FF25EC12F0B9
:1008A000E55243EC12F0080D030EF3CFDBFF43ECEF
:1008B00012F0E00BE838E840146E030EDBCFE7FFE0
:1008C0001450E712030EE7CFDBFF43EC12F0E76EA4
:1008D000040EE7CFDBFF43EC12F0E76E040EE7CF28
:1008E000DBFF82DC030EDBCFE6FFE66A2E0E146E22
:1008F0001D0E156E166A14C0E6FF15C0E6FF16C081
:10090000E6FF62EC10F0176E050EE15E175043EC47
:1009100012F0E76E030EE7CFDBFF43EC12F0E66E5A
:10092000FD0EDBCFE9FFFE0EDBCFEAFF040EE9266A
:10093000000EEA22E552E750EF6E060EE66EDFCFBC
:10094000E6FF29DCE552E55200091AE0E66A010EED
:10095000E66E2C0EE66E87DCE552E552E552250E7A
:10096000146E1D0E156E166A14C0E6FF15C0E6FF64
:1009700016C0E6FF62EC10F0E552E552E55219D0E0
:10098000E66A020EE66E2C0EE66E6DDCE552E5526E
:10099000E5521C0E146E1D0E156E166A14C0E6FF8D
:1009A00015C0E6FF16C0E6FF62EC10F0E552E55216
:1009B000E552010EDB5000D0146E0C0EE15C02E239
:1009C000E16AE552E16E1450E552E7CFD9FF12001B
:1009D000D9CFE6FFE1CFD9FF090EE126B00EE66ED2
:1009E000D7DEE552E76E040EE7CFDBFF150E146E7F
:1009F0001D0E156E166A14C0E6FF15C0E6FF16C080
:100A0000E6FF62EC10F0E552E552E5522C0EE66E80
:100A1000BFDEE552DF6E0E0EE66EBADEE552E76E21
:100A2000010EE7CFDBFF600EE66EB2DEE552E76E49
:100A3000020EE7CFDBFF400EF36E030EF3CFDBFFBA
:100A4000DBCFE6FFE66A020EDBCFE6FFE66A010EC9
:100A5000DBCFE6FFE66ADFCFE6FFE66A040EDBCF18
:100A6000E6FFE66AC40E146E1C0E156E166A14C0FC
:100A7000E6FF15C0E6FF16C0E6FF62EC10F0176E49
:100A80000D0EE15E1750A30E146E1C0E156E166A45
:100A900014C0E6FF15C0E6FF16C0E6FF62EC10F0DA
:100AA000E552E552E5529C0E146E1C0E156E166A48
:100AB00014C0E6FF15C0E6FF16C0E6FF62EC10F0BA
:100AC000E552E552E552060EDB6A080EF36E060E9D
:100AD000DBCFF4FFF350F45C1CE2060EDBCFE6FF45
:100AE000E66A940E146E1C0E156E166A14C0E6FFAC
:100AF00015C0E6FF16C0E6FF62EC10F0176E050E9B
:100B0000E15E1750060EDB28E76E060EE7CFDBFF2F
:100B1000DCD7060EDB6A7F0EF36E060EDBCFF4FF2A
:100B2000F350F45C5FE2070EDB6A080EDB6A060E28
:100B3000DB380F0BE66EE66A870E146E1C0E156E20
:100B4000166A14C0E6FF15C0E6FF16C0E6FF62ECA9
:100B500010F0176E050EE15E1750070EDBCF14F094
:100B6000080EDBCF15F0D890155004E6080E145C83
:100B7000000E155836E2060EDBCFE6FF09DEE55221
:100B8000E76E050EE7CFDBFFDBCFE6FFE66A7D0E03
:100B9000146E1C0E156E166A14C0E6FF15C0E6FF33
:100BA00016C0E6FF62EC10F0176E050EE15E1750FE
:100BB000060EDB28E76E060EE7CFDBFF010EE76EC1
:100BC000070EDBCF14F0080EDBCF15F0E75014262C
:100BD000000E1522070E14C0DBFF080E15C0DBFF48
:100BE000BCD799D7090EE15C02E2E16AE552E16EF9
:100BF000E552E7CFD9FF1200D9CFE6FFE1CFD9FF09
:100C0000020EE126010EDB6AFC0EDB501AE0FC0E40
:100C1000DB0417E0FC0EDB50020813E0480E146EF4
:100C20001C0E156E166A14C0E6FF15C0E6FF16C04E
:100C3000E6FF62EC10F0E552E552E552FF0E31D1CD
:100C400029D0FC0EDB50020806E1040EF36EFC0E08
:100C5000F3CFDBFF1FD0FC0EDB0406E1020EF36EC8
:100C6000FC0EF3CFDBFF16D0FC0EDB5003E1FC0ED5
:100C7000DB6A10D0000E146E1C0E156E166A14C0BE
:100C8000E6FF15C0E6FF16C0E6FF62EC10F0E55285
:100C9000E552E55212D9EDEC00F0FC0EDB504009B4
:100CA000E66E25EC12F0E552FD0EDBCFE9FFFE0EFD
:100CB000DBCFEAFFEF50E840E840E8401F0BE66E6C
:100CC00025EC12F0E552FD0EDBCFE9FFFE0EDBCF87
:100CD000EAFF010EE926000EEA22EF50200DF35044
:100CE000E66E25EC12F0E552E66A25EC12F0E552CC
:100CF000E66A25EC12F0E552FD0EDBCFE9FFFE0EB1
:100D0000DBCFEAFF030EE926000EEA22EF500F0BBD
:100D1000DF6EFD0EDBCFE9FFFE0EDBCFEAFF040E38
:100D2000E926000EEA22EF5017E0400EDF10E66ED3
:100D300025EC12F0E552F50E146E1B0E156E166AB8
:100D400014C0E6FF15C0E6FF16C0E6FF62EC10F027
:100D5000E552E552E55287D0DFCFE6FF25EC12F0F1
:100D6000E552EA0E146E1B0E156E166A14C0E6FFED
:100D700015C0E6FF16C0E6FF62EC10F0E552E55242
:100D8000E552D80E146E1B0E156E166A14C0E6FFDF
:100D900015C0E6FF16C0E6FF62EC10F0E552E55222
:100DA000E552010EDB6ADF50F36E010EDBCFF4FF7C
:100DB000F350F45C48E2FD0EDBCFE9FFFE0EDBCF23
:100DC000EAFF050EE926000EEA22E9CF14F0EACF89
:100DD00015F0010EDB500F011424E96E000E1520F2
:100DE000EA6EEF50E66EE66AD30E166E1B0E176EB5
:100DF000186A16C0E6FF17C0E6FF18C0E6FF62ECEF
:100E000010F0196E050EE15E1950FD0EDBCFE9FF03
:100E1000FE0EDBCFEAFF050EE926000EEA22E9CF3F
:100E200014F0EACF15F0010EDB500F011424E96E27
:100E3000000E1520EA6EEF50E66E25EC12F0E5523A
:100E4000010EDB2AB0D7D10E146E1B0E156E166A7A
:100E500014C0E6FF15C0E6FF16C0E6FF62EC10F016
:100E6000E552E552E552F4EC00F0300EE66EA6ECE9
:100E700012F0E552EDEC00F0FC0EDB5002E1010E49
:100E800002D0FC0EDB50E76EFC0EE7CFDBFFDB5041
:100E90008009E66E25EC12F0E552F4EC00F0010E4C
:100EA00000D0146E020EE15C02E2E16AE552E16EEE
:100EB0001450E552E7CFD9FF1200D9CFE6FFE1CFBA
:100EC000D9FF030EE1261D0EE66EFBEC00F0E552A5
:100ED000DF6E1C0EE66EFBEC00F0E552E76E010ED5
:100EE000E7CFDBFF2D0EE66EFBEC00F0E552E76E80
:100EF000020EE7CFDBFF010EDBCFE6FFE66ADFCFB6
:100F0000E6FFE66AA00E146E1B0E156E166A14C07C
:100F1000E6FF15C0E6FF16C0E6FF62EC10F0176EA4
:100F2000070EE15E1750020EDBCFE6FFE66A880E81
:100F3000146E1B0E156E166A14C0E6FF15C0E6FF90
:100F400016C0E6FF62EC10F0176E050EE15E17505A
:100F5000030EE15C03E200D0E16AE552E16EE55286
:060F6000E7CFD9FF1200EB
:0A0F6600EFEC0CF0FB0EDBCFF3FF05
:100F7000DB06F35000090AE03DEC0DF0FA0EA8EC98
:100F80000DF0F3E1151CF1E1010E01D0000E1EEF92
:100F90000DF0EFEC0CF03B0EE12402E3E168E652C9
:100FA000E16E010EDB6A020EDB6AF90EDBCFF6FFA3
:100FB000FA0EDBCFF7FFFB0EDBCFF8FF0800F55092
:100FC000DF6EDF5002E142EF0CF0250EDF5C02E045
:100FD00035EF0CF0030EDB6A040EDB6A050EDB6AEC
:100FE000060EDB6A070EDB6A57EC0CF02D0EDF5C99
:100FF0000CE02B0EDF5C09E0200EDF5C06E0230E28
:10100000DF5C03E0300EDF5C1AE1DF50300A14E0F1
:10101000130A0FE0030A0AE00B0A05E0060AE4E1FE
:10102000030EDB80E1D7030EDB82DED7030EDB8409
:10103000DBD7030EDB86D8D7030EDB88D5D72A0E85
:10104000DF5C1BE153EC0CF0A1EC0CF010E0030EA4
:10105000DB8008680968130EDBCF0DF0140EDBCFC0
:101060000EF0D4EC11F0040E06C0DBFF03D0130E1B
:101070008AEC0CF057EC0CF00BD0090EDB6AF8ECA4
:101080000CF003E06CEC0DF0FAD7090E8AEC0CF0D2
:10109000030EDBB0DB982E0EDF5C1BE157EC0CF08F
:1010A0002A0EDF5C0BE153EC0CF0A1EC0CF003E139
:1010B000130EDCEC0CF057EC0CF00BD0090EDB6AD5
:1010C000F8EC0CF003E06CEC0DF0FAD7090EDCEC58
:1010D0000CF0680EDF5C07E157EC0CF0680EDF5C8B
:1010E0001DE1030E18D0740EDF5C17E07A0EDF5C92
:1010F00014E0480EDF5C06E0540EDF5C03E05A0E9D
:10110000DF5C02E1020E07D06C0EDF5C03E06A0ECA
:10111000DF5C04E1010E2FEC0DF0C9DBDF506E0A3D
:1011200001E17FD31E0A01E192D1200A01E18FD1B2
:101130003F0A01E149D11A0A01E146D10D0A01E154
:1011400043D1200A01E140D13A0A01E13DD1200A10
:1011500001E13AD1260A01E135D10D0A01E132D18E
:101160001A0A01E1D9D0200A4AE0300A1FE0460AF3
:101170000EE0250A01E083D3D950F90FE96EFF0E86
:10118000DA20EA6E010EEE5E000EEE5AEE5A3DECEB
:101190000DF0250EE66E95DB03E1151C01E169D328
:1011A00039EC0DF001E26BD3DB2A69D3080EDB6A60
:1011B000040EDB50010806E2040EDB0401EC0DF026
:1011C000DB508BDB080EDB5009E0030EDB50010B1C
:1011D00005E172DB01E04DD3080EDB6A64DBEFCF83
:1011E000DFFFB1EC0DF003E1151C01E142D339EC56
:1011F0000DF001E3DB2A60DB01E141D33AD3070EB6
:10120000DB5002080FE17DEC0DF0030E44EC0DF015
:101210000E0EEECFDBFF0F0EEECFDBFF100EEECF8C
:10122000DBFF20D0F70EDBCF17F0F80EDBCF18F086
:10123000020E175E000E185AF70E17C0DBFFF80EED
:1012400018C0DBFF17C0E9FF18C0EAFF34EC0DF04F
:10125000166A0E0E14C0DBFF0F0E15C0DBFF100E5A
:1012600016C0DBFF0E0EDBCFE6FF0F0EDBCFE6FF77
:10127000100EDBCFE6FFAFEC11F0E552E552E55280
:10128000130E07C0DBFF140E08C0DBFF060EDB5099
:1012900005E0130E78EC0DF001E26ADB9CEC0DF03A
:1012A00002E2130E37DB5FEC0DF006E0040E78EC83
:1012B0000DF002E2050E2EDB030EDBB005D0FCDAEA
:1012C00001E0D7D2080EDB6A090EDB6A0E0EDBCF17
:1012D000F6FF0F0EDBCFF7FF100EDBCFF8FF080095
:1012E000F550DF6EDF5014E0A2EC0DF011E2B1EC2E
:1012F0000DF003E1151C01E1BCD2BBDB01E3DB2AED
:10130000090EDB2AD9500E0FE96E000ECBDBE7D7B2
:10131000D3DA01E1B4D2ADD2C6DA110EEECFDBFFE3
:10132000120EEDCFDBFF110EDBCFE6FF120EDBCF8F
:10133000E6FFA1EC11F0E552E552130EF3CFDBFF0F
:10134000140EF4CFDBFF060EDB5004E0130ED0DBEF
:1013500001E20EDB9CEC0DF002E2130EDBDAAFDBF8
:1013600005E0040EC5DB02E2050ED4DA030EDBB0A5
:1013700005D0A2DA01E07DD2080EDB6A090EDB6A35
:10138000110EDBCFE9FF120EDBCFEAFFEFCFDFFF5D
:10139000DF5014E0D7DB12E2E4DB03E1151C01E1CE
:1013A00068D267DB01E3DB2A090EDB2A110EDB2A98
:1013B000DBCFE9FF120EE8E3DB2AE6D77DDA01E1B5
:1013C0005ED257D2030EDB8E070EDB0410E195DBF5
:1013D000040E5ADB0A0EEECFDBFF0B0EEECFDBFF67
:1013E0000C0EEECFDBFF0D0EEECFDBFF6CD0070E49
:1013F000DB5003082CE1030EDBAE0DD0B2DA020E97
:1014000076DAEFCF14F0156A166A176A14AE39D07F
:101410001568166835D0F70EDBCF15F0F80EDBCF68
:1014200016F0020E155E000E165AF70E15C0DBFF01
:10143000F80E16C0DBFF15C0E9FF16C0EAFFEFCFBC
:1014400014F00A0E14C0DBFF0B0EDB6A38D0070E57
:10145000DB50020809E1030EDBAE04D059DB16AE07
:1014600010D00ED055DB0DD0030EDBAE12D079DAE2
:10147000020E3DDAF9DA166A176A15AE02D016685E
:101480001768E2DA0C0E16C0DBFF0D0E17C0DBFF8B
:101490001AD0F70EDBCF16F0F80EDBCF17F0020EE6
:1014A000165E000E175AF70E16C0DBFFF80E17C0B7
:1014B000DBFF16C0E9FF17C0EAFFD6DAC5DA0C0E6B
:1014C000DB6A0D0EDB6A060EDB5005E1010EF36EE2
:1014D000050EF3CFDBFF150EDB6A160EDB6AD95063
:1014E000370F146E000EDA20156E390E14C0DBFFB4
:1014F0003A0E15C0DBFF380EDB6A080EDB6A0A0EF7
:10150000AEDADF50780A12E0200A10E0280A0CE078
:10151000200A0AE03F0A06E00D0A02E0200A08E17C
:10152000020E05D0080E03D0080EDF26100E97DA43
:10153000030EDBBE02D0DB92DB94DB50800B24E099
:101540008ADAD890030EEB50000A08E6000EEE5C33
:10155000000EEE58000EEE58000EEE5815E213DAAB
:101560000B680C680D680E6835EC11F00A0E02C0AD
:10157000DBFF0B0E03C0DBFF0C0E04C0DBFF0D0E08
:1015800005C0DBFF2D0E08D0030EDBA202D02B0E10
:1015900003D0DBA408D0200EF36E170EF3CFDBFFD1
:1015A000150EDB2A02D0170EDB6A050EDB5003E1B5
:1015B000B7D901E189D0620E146E250E156E000EAA
:1015C000166E070EDBCF17F0186A196A1A6A17C071
:1015D0000BF018C00CF019C00DF01AC00EF0D3D9E2
:1015E00001EC12F014500224F36E15500320F46E37
:1015F00016500420F86EF4CFF7FFF3CFF6FF080083
:10160000090EF5CFDBFF580EDF5C0FE1610EF36EC4
:10161000090E7BD90AE3200E146E090EDBCFE7FF1B
:101620001450E75E090EE7CFDBFF070EDBCF14F0A7
:10163000156A166A176A0FDA14C00BF015C00CF0A1
:1016400016C00DF017C00EF0EECF06F0EECF07F08B
:10165000EECF08F0EFCF09F001EC12F009C0EDFF7A
:1016600008C0EDFF07C0EDFF06C0EFFF390EDBCF6E
:10167000E9FFDB063A0EDBCFEAFF01E2DB06090EEB
:10168000DBCFEFFF150EDB2A4BD995E1030EDBA66E
:101690001DD06F0EDF5C06E1C1D918E3150EDB2803
:1016A0005BDA14D0780EDF5C09E0580EDF5C06E0F0
:1016B000620EDF5C03E0420EDF5C08E1020EF36EB7
:1016C000160EF3CFDBFF02D0150EDB6A030EDB50E4
:1016D000100B0EE0040EDBCF14F0050EDB50D880AB
:1016E000145406E2060EDB5003E1040EDB5034DA3C
:1016F00095D90AE2050EDBCFE7FF150EDB50E75E5A
:10170000050EE7CFDBFF02D0050EDB6A040EDBCF50
:1017100014F0160E45D9D880145414E2160EDBCFFF
:10172000E6FF150EDBCFE6FF040EDBCFE6FF050E6E
:10173000DB50E552E75CE552D880E754E552D880AB
:10174000E7545FD9030EDB50010B0BE1080EDB50B1
:1017500008E0B2D801E08DD0080EDB50BED8080EEC
:10176000DB6A170EDB5007E088D9170EF1D903E1C9
:10177000151C01E17ED0160EDB5016E07ED9300E2E
:10178000E66E9FD802E1151C74E077D9DFCFE6FF43
:10179000F3EC10F0E552E552E552F4CF15F00001FC
:1017A000F31C02E1151C65E0050EDBCF14F0160EEC
:1017B000DB50D880145409E2050EDBCFE7FF160E8C
:1017C000DB50E75E050EE7CFDBFF300EE66E050E61
:1017D000CBD94FE1390EDB2ADBCFE9FF3A0E01E32B
:1017E000DB2ADBCFEAFF090EEFCFDBFFDB500EE099
:1017F00044D9090EADD902E1151C3BE0390EDB2AB4
:10180000DBCFE9FF3A0EEDE3DB2AEBD755D831E128
:10181000160EDBCFE6FF080EC3D8E552E7245DD8ED
:101820002ED0070EDB50030A1CE0010A14E0030A65
:1018300007E07BD9DBCFEEFF020EDBCFEDFF1FD041
:10184000F5D8196A17AE02D0186819682CD8BCD818
:1018500019C0EEFF14D0EAD817BE186824D8B4D83F
:101860000ED063D9DBCFEFFF0AD07BD905E1151C81
:1018700003E1F368F46810D0FCD801E3DB2A79D9DE
:10188000DEEF07F0010EDBCF14F0020EDBCF15F018
:1018900014C0F3FF15C0F4FF3B0EE15C02E2E16A05
:1018A000E552E16ECBD029D9020E44EF0DF061D99B
:1018B0000800F550DF6E1200200EE66E080EB4EF41
:1018C0000DF0F3EC10F0E552E552E552F3CF14F0D1
:1018D000F4CF15F00001F31C1200146E156AD950F4
:1018E000010F4DD91450EE261550ED221200185E4E
:1018F000000E195AF70E18C0DBFFF80E19C0DBFFF7
:1019000018C0E9FF19C0EAFF1200DBCFF4FFF35063
:10191000F45C1200DB50E76E040EE7CFDBFF120031
:101920000A0EDBCF14F00B0EDBCF15F00C0EDBCF65
:1019300016F00D0EDBCF17F01450151016101710FF
:101940001200130EEECFDBFF140EEDCFDBFF130EF4
:10195000DBCF14F0140EDBCF15F00001800E151450
:101960001200F70EDBCF18F0F80EDBCF19F01200E3
:10197000050EDB50E66ED950130F01D9E552E75042
:10198000EE6EED6A12000A0EDBCF06F00B0EDBCF17
:1019900007F00C0EDBCF08F00D0EDBCF09F01200C4
:1019A000DBCFE6FF150EDBCFE6FF050EDB50E55281
:1019B000E724E552E7241200DB50CED8010EF36E87
:1019C000060EF3CFDBFF1200EE50EFCFEAFFE96E19
:1019D00016C0EEFF17C0EEFF18C0EEFF1200D9CF01
:1019E000E6FFDACFE6FFE1CFD9FFE2CFDAFF120060
:1019F000DFCFE6FFE66A5AEC12F0E552E552F3500B
:101A00001200E76E080EE7CFDBFF1200EECF14F0F6
:101A1000EECF15F0EFCF16F0176A1200050EDBCFF0
:101A200014F0150EDB50D88014541200010EDBCFD9
:101A300016F0020EDBCF17F0186A1200E552E5CF60
:101A4000DAFFE7CFD9FF12000A0E14C0DBFF0B0E3E
:101A500015C0DBFF1200D9500A0FBFEF0DF0F36E77
:101A6000070EF3CFDBFF1200EECF14F0EFCF15F02F
:101A70001200010EDB2A020E1200FC0EDBCFE6FF85
:101A8000FD0EDBCFE6FF1200145E000E155AF70EB6
:101A900014C0DBFFF80E15C0DBFF14C0E9FF15C052
:101AA000EAFF1200DA20EA6EEF2AEECFF6FF000E10
:101AB000EF22EECFF7FFEF22EECFF8FF1200040E79
:101AC000DBCFE6FF130EDB50E552E75C9ADFDB501D
:101AD00004DF060EDB501200090EDB500A0DF35036
:101AE000DF24D00FE76E090EE7CFDBFF57EF0CF0D6
:101AF000DB50F36E050E85EF0CF0F70EDBCF14F024
:101B0000F80EDBCF15F01200DFCFE6FF61EF0CF02F
:101B100028DF030EECDE06EF0DF0B3EC07F0E55224
:101B2000E552E552E55200091200BDDEEE50EFCF5E
:101B3000EAFFE96E010E1200130EDB50F36E040E85
:101B400085EF0CF0040EDB50F36E090E85EF0CF000
:101B5000DBCFE6FF61EF0CF0E76E050EE7CFDBFFB2
:101B600012008BDF84EF0DF0DBCFE6FF86DF8DEF19
:101B70000DF0D950F90FE96EFF0E52EF0DF0E96E3E
:081B8000000EDA20EA6E1200EB
:081B88000D54686520657272BE
:101B90006F722062797465202D3E202562200A0034
:101BA0000D20746865207265635F6572726F7220C4
:101BB000697320256920616E6420746865207465EE
:101BC00063206572726F7220697320256920200A74
:101BD000000A005B25785D000D20777269747469D6
:101BE0006E672064617461200A000D727472203D7A
:101BF0003D20300A000D72747220213D20300A0011
:101C0000736F6D657468696E672068617320676FB4
:101C10006E652077726F6E6720696E20746865202C
:101C200072656769737465722073656C6563746946
:101C30006F6E207061727420616370656374206FD1
:101C400066205258202F6E000D205265676973740C
:101C5000657220736C656374696F6E206E6F74209B
:101C600056616C6964202D4C6F6164206D657373DF
:101C7000616765206661696C6564200A0025322E03
:101C8000327820202020000A0D2025342E346220B6
:101C90002D20200025342E3462202000202B2020EF
:101CA0002020000A0D5461626C652031312D3120F5
:101CB0006F6E2070616765203631206D6170730A28
:101CC000200D20000D52585F5374617475732069A4
:101CD000732025782C20696E665F737461745F6D64
:101CE000616368696E652025782C2043616E73748A
:101CF00061742025782C2063616E525830636F6EBA
:101D00007472202578202D2D2D3E307834303D20E2
:101D10002578200A000D746573740A000D206D6F1C
:101D20006420320A000D206D6F6431200A000D20FE
:101D300054686520496420697320202578200A00B2
:101D40000D5468657265206973206E6F206D657330
:101D50007361676520696E207468652062756666C8
:101D60006572200A000D2052585F73746174757398
:101D7000202D3E202562200A000D20536F6D6554F2
:101D800068696E672066756B6564207570200A004F
:101D90000D2077616974696E67200A000D207374E5
:101DA00061747573207761732073657420746F207C
:101DB000636F6E666967206D6F6465200A000D2091
:101DC0004572726F7220696E2073657474696E67F4
:101DD00020746F20636F6E666967206D6F64652085
:101DE00043414E53544154203D202562200A000DAA
:101DF0002073746174757320776173207365742028
:101E0000746F206C6F6F704261636B206D6F6465DF
:101E1000200A000D204572726F7220696E20736572
:101E20007474696E6720746F206C6F6F70426163A9
:101E30006B206D6F6465202043414E535441542004
:101E40003D202562200A000D207374617475732093
:101E50007761732073657420746F206C6973746587
:101E60006E206D6F6465200A000D204572726F72DE
:101E700020696E2073657474696E6720746F206CBE
:101E8000697374656E206D6F646520202043414E38
:101E900053544154203D202562200A000D205761F3
:101EA0006B65207570206661696C6564200A000DA1
:101EB0002073746174757320776173207365742067
:101EC000746F204177616B65206D6F6465200A0037
:101ED0000D2073746174757320776173207365745A
:101EE00020746F20736C656570206D6F6465200AC7
:101EF000000D204572726F7220696E2073657474D4
:101F0000696E6720746F20536C656570206D6F6417
:101F1000652020202043414E53544154203D202031
:101F20002562200A000D73746174757320776173E4
:101F30002073657420746F206E6F726D616C206DFC
:101F40006F64650A000D204572726F7220696E2001
:101F500073657474696E6720746F206E6F726D6143
:101F60006C206D6F646520202043414E53544154D2
:101F7000203D202562200A000D6765745F6D657342
:101F80007361676520646F6E650A000D2073696D6B
:101F9000706C6520626974206F7065726174696F1E
:101FA0006E7320776F726B207269676874200A0005
:101FB0000D204572726F72202D73696D706C6520F3
:101FC000626974207368696674206661696C732045
:101FD0000A000D2053504920666F72204D43505F18
:101FE00032353135206973206F70656E200A000D1F
:101FF0004661696C657220746F20696E6974204D4A
:10200000435020323531352C207265736574696E0A
:1020100067200A000A0D2053657269616C204F70B9
:05202000656E200A00BE
:0120250007B3
:0A202600060EF66E000EF76E000EB7
:10203000F86E00010900F550656F0900F550666FF4
:1020400003E1656701D03DD00900F550606F0900DC
:10205000F550616F0900F550626F09000900F550F5
:10206000E96E0900F550EA6E090009000900F55013
:10207000636F0900F550646F09000900F6CF67F03F
:10208000F7CF68F0F8CF69F060C0F6FF61C0F7FFE6
:1020900062C0F8FF0001635302E1645307E00900E6
:1020A000F550EE6E6307F8E26407F9D767C0F6FFF4
:1020B00068C0F7FF69C0F8FF00016507000E665BA6
:0420C000BFD7120074
:0C20C400D9CFE6FFDACFE6FFE1CFD9FF6D
:1020D000E2CFDAFFE652E652E652E652D950FB0F63
:1020E000146EFF0EDA20156E14C0DEFFDD6EDECF3B
:1020F000E6FFDDCFE6FFFB0EDBCFE6FFFC0EDBCF1E
:10210000E6FFFD0EDBCFE6FF6AC0E6FF6BC0E6FF31
:10211000C9EC07F0146E070EE15C02E2E16AE552D9
:10212000E16E1450020EF3CFDBFF030EF4CFDBFFA2
:10213000020EDBCF14F0030EDBCF15F014C0F3FF5B
:1021400015C0F4FF040EE15C02E2E16AE552E16EC3
:0C215000E552E5CFDAFFE7CFD9FF12001F
:04215C00D9CFE6FFF2
:10216000DACFE6FFE1CFD9FFE2CFDAFFAC6AAB6AA4
:10217000FD0EDBB0AC88DBA202D0AC8CAB8CDBB448
:10218000AC8EDBA602D0AB8801D0AB8ADBB8AC84C6
:102190009E98DBBAAB86DBAC02D09D8A01D09D9ABB
:1021A0009E9ADBAE02D09D8801D09D98FB0EDB503D
:1021B000AF6EFB0EFC0EDBCF15F015C014F0156AE8
:1021C0001450B06EAC8AAB8E949C948EAC50100BB5
:1021D00004E0AC50800B01E1948CE552E5CFDAFFCE
:0621E000E7CFD9FF120059
:0A21E600D9CFE6FFDACFE6FFE1CF24
:1021F000D9FFE2CFDAFFFB0EDBCF14F0FC0EDBCF12
:1022000015F00001800E15141AE1FB0EDBCFE9FF7B
:10221000FC0EDBCFEAFFEECFF3FFEDCFF4FFEE2AAB
:10222000000EEF22F3CFE9FFF4CFEAFFFD0EDBCF84
:10223000EFFFEF50156AF36E15C0F4FF10D0FB0EE0
:10224000DB50FE0806E1FD0EDBCFE6FF8AEC12F064
:1022500005D0FD0EDBCFE6FFBAEC12F0E552E552F9
:0A226000E5CFDAFFE7CFD9FF120047
:06226A0006500B02F3CF49
:1022700002F0F4CF03F00C02F3500326000EF4201A
:10228000046E06500D02F3500426000EF420056E75
:1022900006500E02F350052607500B02F35003269A
:1022A000F4500422000E052207500C02F3500426BD
:1022B000F450052207500D02F350052608500B027A
:1022C000F3500426F450052208500C02F350052662
:0A22D00009500B02F350052612001E
:0622DA00D9CFE6FFDACFC8
:1022E000E6FFE1CFD9FFE2CFDAFF3F0EC716C66A9D
:1022F000FD0EDB50C612FB0EDB50C712FC0EDB508E
:10230000030A09E0010A04E0020A06E1C78C04D0CE
:10231000C78CC68801D0C688FD0EDB50050A05E0D3
:10232000010A05E19486928A03D0948601D094969E
:102330009488949AC68AE552E5CFDAFFE7CFD9FFB1
:02234000120089
:0E234200FE0EE3CFE9FFFF0EE3CFEAFFF36AE2
:10235000F46AEE5203E0F34AF42AFBD71200FF0EB0
:10236000E3CFF8FFE552FF0EE3CFF7FFE552FF0E94
:10237000E3CFF6FFE552E66AE66AE66A0900F5523F
:1023800009E0FD0EE32A05E1FE0EE32A02E1FF0E5D
:10239000E32AF4D7FD0EE3CF07F0FE0EE3CF08F0FB
:0823A000FF0EE3CF09F012006B
:0823A80009C013F008C012F097
:1023B00008500D02F4CF07F0F3CF06F009500E02DB
:1023C000F4CF09F0F3CF08F00D02F3500726F450D4
:1023D0000822E86A092212500E02F3500726F45030
:1023E0000822E86A09220EAEFAEF11F01250085ED8
:1023F0001350095A13AE000C0D50085E0E50095AC6
:02240000000CCE
:0E240200056A046A036A026A200EE76ED8902B
:1024100006360736083609360236033604360536E0
:102420000B50025C0C5003580D5004580E500558C8
:1024300009E30B50025E0C50035A0D50045A0E5023
:0A244000055A062AE72EE4D7120021
:06244A00D9CFE6FFDACF56
:10245000E6FFE1CFD9FFE2CFDAFFE652C950DF6EE7
:102460009E96C69EFD0EDB50C96EC6AE02D0FF0E14
:1024700003D09EA6FED7000EE552E552E5CFDAFF67
:06248000E7CFD9FF1200B6
:0A248600D9CFE6FFDACFE6FFE1CF81
:10249000D9FFE2CFDAFFE652C950DF6E9E96C96AD5
:1024A0009EA6FED7C950E552E552E5CFDAFFE7CF49
:0424B000D9FF12003E
:0C24B400F36AF46AFF0EE124E96EFF0EEB
:1024C000E220EA6EED6607D02F0EEF6404D03A0EDC
:0824D000EF6001D0F32A1200B5
:0824D800000EF36E00EE00F0AF
:1024E000030E01D81200EA6002D0EE6AFCD7F35066
:0824F000E9601200EE6AFCD75E
:0824F80012EE00F022EE00F0EC
:10250000F86A019C13EC10F0BBEC12F010EC00F038
:04251000FBD71200E3
:0C251400FF0EE350ACBA04D0AF6AAB8EEF
:10252000AC8A949CACA2FED7AD6EF36EF46A120036
:10253000FF0EE3501B6E1B0E00D001D0200EE76E85
:0C254000E72EFED71B2EFAD700D01200A9
:04254C00FF0EE3504B
:10255000E84E1200000000D000D000D0E82EFAD7DC
:02256000120067
:0E2562003031323334353637383961626364D4
:032570006566009D
:02257400120053
:02257600120051
:02257800FEFF64
:020000040030CA
:0100010032CC
:01000200FFFE
:01000300FEFE
:01000600AB4E
:00000001FF
