:020000040000FA
:0600000099EF11F012005F
:0A0006000200AD2300006C000000B2
:1000100001000000B22300006A000000020000009E
:10002000D9CFE6FFE1CFD9FF060EE126470EE66EF7
:10003000E66A3C0EE66ECBEC0FF0E552E552E55277
:100040004F0E146E1E0E156E166A14C0E6FF15C014
:10005000E6FF16C0E6FF7FEC0FF0E552E552E552F1
:10006000800EE66EE66A010EE66E8AEC10F0E5524E
:10007000E552E552070EE66EF3DAE552F3CFDEFF06
:10008000F4CFDDFFD9CFE9FFDACFEAFFEE50ED1074
:1000900019E02A0E146E1E0E156E166A14C0E6FFC5
:1000A00015C0E6FF16C0E6FF7FEC0FF0E552E55203
:1000B000E5526CC0E6FFD4DAE552F3CFDEFFF4CFB1
:1000C000DDFFE0D70D0E146E1E0E156E166A14C0FD
:1000D000E6FF15C0E6FF16C0E6FF7FEC0FF0E55225
:1000E000E552E552060EE66EBF0EE66E55D8E552B5
:1000F000E552000911E0EB0E146E1D0E156E166A26
:1001000014C0E6FF15C0E6FF16C0E6FF7FEC0FF057
:10011000E552E552E55210D0C60E146E1D0E156E56
:10012000166A14C0E6FF15C0E6FF16C0E6FF7FECB6
:100130000FF0E552E552E552B8D84BDB030EDBCFAA
:10014000E6FF040EDBCFE6FF63DBE552E552E76E28
:10015000050EE7CFDBFFB30E146E1D0E156E166A8B
:1001600014C0E6FF15C0E6FF16C0E6FF7FEC0FF0F7
:10017000E552E552E552300EE66EC3EC11F0E55261
:10018000DDD778D7060EE15C02E2E16AE552E16E66
:10019000E552E7CFD9FF1200D9CFE6FFE1CFD9FF73
:1001A000FD0EDB50070802E2FF0E14D0FE0EDBCF7F
:1001B000E6FF010EF36EFD0EDB5004E0D890F3363F
:1001C000E806FCE1F350E552E71402E1000E01D02D
:1001D000010E00D0E552E7CFD9FF12008098010E42
:1001E000E66EC3EC11F0E55212008088010EE66E57
:1001F000C3EC11F0E5521200D9CFE6FFE1CFD9FFF1
:10020000E652ECDF030EE66E42EC11F0E552FE0E14
:10021000DBCFE6FF42EC11F0E55260EC11F0DF6E4F
:10022000E4DFDF5000D0E552E552E7CFD9FF1200FE
:10023000D9CFE6FFE1CFD9FFD1DF020EE66E42EC67
:1002400011F0E552FE0EDBCFE6FF42EC11F0E55275
:10025000FD0EDBCFE6FF42EC11F0E552C6DF00D029
:10026000E552E7CFD9FF1200D9CFE6FFE1CFD9FFA2
:10027000B5DF050EE66E42EC11F0E552FE0EDBCF67
:10028000E6FF42EC11F0E552FD0EDBCFE6FF42EC5B
:1002900011F0E552FC0EDBCFE6FF42EC11F0E55227
:1002A000A4DFE552E7CFD9FF1200D9CFE6FFE1CFB7
:1002B000D9FFE652E66AE00EE66E0F0EE66ED4DF78
:1002C000E552E552E5520F0EE66E96DFE552DF6E1F
:1002D000E00EDF141CE0DFCF14F0156A14BE1568C1
:1002E00014C0E6FF15C0E6FF800E166E1D0E176ED9
:1002F000186A16C0E6FF17C0E6FF18C0E6FF7FECDD
:100300000FF0196E050EE15E195012D011D0600E7B
:10031000146E1D0E156E166A14C0E6FF15C0E6FFBA
:1003200016C0E6FF7FEC0FF0E552E552E55200D033
:10033000E552E552E7CFD9FF1200D9CFE6FFE1CF72
:10034000D9FFE652200EE66EE00EE66E0F0EE66E68
:100350008BDFE552E552E5520F0EE66E4DDFE552BA
:10036000DF6EE00EDF1420081CE0DFCF14F0156A0A
:1003700014BE156814C0E6FF15C0E6FF2C0E166EFD
:100380001D0E176E186A16C0E6FF17C0E6FF18C0EC
:10039000E6FF7FEC0FF0196E050EE15E195012D0EA
:1003A00011D00B0E146E1D0E156E166A14C0E6FFEA
:1003B00015C0E6FF16C0E6FF7FEC0FF0E552E552F0
:1003C000E55200D0E552E552E7CFD9FF1200D9CF70
:1003D000E6FFE1CFD9FFE652400EE66EE66E2B0E49
:1003E000E66E42DFE552E552E552300EE66EC3ECB2
:1003F00011F0E5522B0EE66EFFDEE552DF6EDFAC4C
:1004000011D0EA0E146E1C0E156E166A14C0E6FFAB
:1004100015C0E6FF16C0E6FF7FEC0FF0E552E5528F
:10042000E55210D0D70E146E1C0E156E166A14C04D
:10043000E6FF15C0E6FF16C0E6FF7FEC0FF0E552C1
:10044000E552E55200D0E552E552E7CFD9FF120060
:10045000D9CFE6FFE1CFD9FFE652600EE66EE00E9F
:10046000E66E0F0EE66E00DFE552E552E5520F0E26
:10047000E66EC2DEE552DF6EE00EDF1460081CE0BF
:10048000DFCF14F0156A14BE156814C0E6FF15C05E
:10049000E6FFA40E166E1C0E176E186A16C0E6FF55
:1004A00017C0E6FF18C0E6FF7FEC0FF0196E050ECF
:1004B000E15E195012D011D0820E146E1C0E156E12
:1004C000166A14C0E6FF15C0E6FF16C0E6FF7FEC13
:1004D0000FF0E552E552E55200D0E552E552E7CF84
:1004E000D9FF1200D9CFE6FFE1CFD9FFE652400E87
:1004F000E66EE00EE66E0F0EE66EB6DEE552E552F3
:10050000E5520F0EE66E78DEE552DF6EE00EDF1488
:1005100040081CE0DFCF14F0156A14BE156814C043
:10052000E6FF15C0E6FF4E0E166E1C0E176E186A1B
:1005300016C0E6FF17C0E6FF18C0E6FF7FEC0FF01D
:10054000196E050EE15E195012D011D02A0E146EEC
:100550001C0E156E166A14C0E6FF15C0E6FF16C025
:10056000E6FF7FEC0FF0E552E552E55200D0E55290
:10057000E552E7CFD9FF1200D9CFE6FFE1CFD9FF8F
:10058000020EE126800EE66EE00EE66E0F0EE66EBF
:100590006BDEE552E552E5520F0EE66E2DDEE552BA
:1005A000DF6EE00EDF1480081BE0DFCF14F0156A69
:1005B00014BE156814C0E6FF15C0E6FFF90E166EEE
:1005C0001B0E176E186A16C0E6FF17C0E6FF18C0AC
:1005D000E6FF7FEC0FF0196E050EE15E195010D0AA
:1005E000D70E146E1B0E156E166A14C0E6FF15C0EA
:1005F000E6FF16C0E6FF7FEC0FF0E552E552E5524C
:100600000E0EE66EF9DDE552E76E010EE7CFDBFF79
:10061000010EDBA011D0CB0E146E1B0E156E166AE8
:1006200014C0E6FF15C0E6FF16C0E6FF7FEC0FF032
:10063000E552E552E552ECD7020EE15C02E2E16AD6
:10064000E552E16EE552E7CFD9FF1200C7DD080E93
:10065000E66E0F0EE66EECDDE552E552F5EF00F0CA
:10066000D9CFE6FFE1CFD9FF050EE1260F0E926E3E
:10067000DE52030EDD6E040EF36E020EF3CFDBFFCF
:10068000C60EF36E030EF3CFDBFF050EF36E040E02
:10069000F3CFDBFFA3DD010EE66EC3EC11F0E552F4
:1006A000C00EE66E42EC11F0E5529FDD300EE66EB4
:1006B000C3EC11F0E55292DD020EE66E42EC11F051
:1006C000E552280EE66E42EC11F0E552040EDBCF47
:1006D000E6FF42EC11F0E552030EDBCFE6FF42EC01
:1006E00011F0E552020EDBCFE6FF42EC11F0E552CD
:1006F000010EDBCFE6FF42EC11F0E552E66A0C0E8C
:10070000E66E96DDE552E552E66A0D0EE66E90DD88
:10071000E552E5526C0EE66E600EE66E89DDE5523E
:10072000E5526C0EE66E700EE66E82DDE552E55225
:10073000E66A0F0EE66E7CDDE552E55256DD2A0EC6
:10074000E66E5ADDE552DF6E010EE66EB5EC11F095
:10075000E552020EDB50DF5C13E0B40E146E1B0E8C
:10076000156E166A14C0E6FF15C0E6FF16C0E6FF58
:100770007FEC0FF0E552E552E552F368F46803D0E0
:10078000F36AF46A00D0050EE15C02E2E16AE55228
:10079000E16EE552E7CFD9FF1200D9CFE6FFE1CFF6
:1007A000D9FFE6521BDD030EE66E42EC11F0E55276
:1007B000FE0EDBCFE6FF42EC11F0E55260EC11F0EB
:1007C000DF6E13DDDF5000D0E552E552E7CFD9FFF1
:1007D0001200D2DE680EE66E600EE66E29DDE5528E
:1007E000E552680EE66E700EE66E22DDE552E552C9
:1007F0005CDD680EE66E600EE66E1ADDE552E552CF
:10080000680EE66E700EE66E13DDE552E5521200DC
:10081000D9CFE6FFE1CFD9FF0B0EE126B00EE66E91
:10082000BCDFE552DF6E2C0EE66EB7DFE552E76EF9
:10083000070EE7CFDBFF0E0EE66EAFDFE552E76E89
:10084000080EE7CFDBFF600EE66EA7DFE552E76E2E
:10085000090EE7CFDBFF400EF36E060EF3CFDBFF92
:10086000C00EE66EE66E2D0EE66EFEDCE552E5523B
:10087000E552060EDBCF14F0156A14BE156814C0DD
:10088000E6FF15C0E6FF090EDBCF16F0176A16BEAD
:10089000176816C0E6FF17C0E6FF080EDBCF18F09A
:1008A000196A18BE196818C0E6FF19C0E6FF070EDE
:1008B000DBCF1AF01B6A1ABE1B681AC0E6FF1BC00A
:1008C000E6FFDFCFE6FFE66A630E1C6E1B0E1D6EB1
:1008D0001E6A1CC0E6FF1DC0E6FF1EC0E6FF7FECDF
:1008E0000FF01F6E0D0EE15E1F50060EE66EDFCF9D
:1008F000E6FF52DCE552E552000904E0DE52900EBC
:10090000DD6E1FD0070EE66EDFCFE6FF45DCE55259
:10091000E552000904E0DE52940EDD6E12D03E0E68
:10092000146E1B0E156E166A14C0E6FF15C0E6FFA6
:1009300016C0E6FF7FEC0FF0E552E552E552000EDF
:1009400004D14CDC010EDBCFE6FF42EC11F0E552A6
:10095000030EE66E42EC11F0E55260EC11F0E76E2A
:10096000040EE7CFDBFF60EC11F0E76E050EE7CF7A
:10097000DBFF60EC11F0E76E030EE7CFDBFF60EC0E
:1009800011F0E76E030EE7CFDBFF60EC11F0E76ECE
:10099000040EE7CFDBFF60EC11F0E66EFD0EDBCF5F
:1009A000E9FFFE0EDBCFEAFF040EE926000EEA2285
:1009B000E552E750EF6E050EDBCF14F0156A14BE5A
:1009C000156814C0E6FF15C0E6FF040EDBCF16F075
:1009D000176A16BE176816C0E6FF17C0E6FF2D0E91
:1009E000186E1B0E196E1A6A18C0E6FF19C0E6FFD2
:1009F0001AC0E6FF7FEC0FF01B6E070EE15E1B5086
:100A0000030EDB6ADBCF14F0040EDB50E76E141824
:100A1000E8AE02D0E73402D0E750145C2DE260EC7F
:100A200011F0E76E0A0EE7CFDBFFDBCF14F0156A9B
:100A300014BE156814C0E6FF15C0E6FF030EDBCF39
:100A400016F0176A16BE176816C0E6FF17C0E6FF55
:100A5000140E186E1B0E196E1A6A18C0E6FF19C024
:100A6000E6FF1AC0E6FF7FEC0FF01B6E070EE15E9B
:100A70001B50030EDB2AC6D7F5EC00F0060EE66E1F
:100A8000DFCFE6FFCCEC00F0E552E55200091BE0B9
:100A9000E66A010EE66E2C0EE66E34EC01F0E552CD
:100AA000E552E5520B0E146E1B0E156E166A14C03D
:100AB000E6FF15C0E6FF16C0E6FF7FEC0FF0E5523B
:100AC000E552E5521AD0E66A020EE66E2C0EE66E8C
:100AD00034EC01F0E552E552E552020E146E1B0EA5
:100AE000156E166A14C0E6FF15C0E6FF16C0E6FFD5
:100AF0007FEC0FF0E552E552E552050EDBCF14F026
:100B0000156A14BE156814C0E6FF15C0E6FF040E92
:100B1000DBCF16F0176A16BE176816C0E6FF17C0BF
:100B2000E6FFF00E186E1A0E196E1A6A18C0E6FF6C
:100B300019C0E6FF1AC0E6FF7FEC0FF01B6E070E30
:100B4000E15E1B50010EDB5000D0146E0B0EE15C19
:100B500002E2E16AE552E16E1450E552E7CFD9FFB7
:100B60001200D9CFE6FFE1CFD9FF020EE126010E38
:100B7000DB6AFC0EDB501AE0FC0EDB0417E0FC0E17
:100B8000DB50020813E0BB0E146E1A0E156E166AC7
:100B900014C0E6FF15C0E6FF16C0E6FF7FEC0FF0BD
:100BA000E552E552E552FF0E30D129D0FC0EDB5064
:100BB000020806E1040EF36EFC0EF3CFDBFF1FD03C
:100BC000FC0EDB0406E1020EF36EFC0EF3CFDBFF3E
:100BD00016D0FC0EDB5003E1FC0EDB6A10D0730E66
:100BE000146E1A0E156E166A14C0E6FF15C0E6FFE5
:100BF00016C0E6FF7FEC0FF0E552E552E552EEEC51
:100C000000F0FC0EDB504009E66E42EC11F0E552BC
:100C1000FD0EDBCFE9FFFE0EDBCFEAFFEF50E84031
:100C2000E840E8401F0BE66E42EC11F0E552FD0E85
:100C3000DBCFE9FFFE0EDBCFEAFF010EE926000E57
:100C4000EA22EF50200DF350E66E42EC11F0E5522F
:100C5000E66A42EC11F0E552E66A42EC11F0E55228
:100C6000FD0EDBCFE9FFFE0EDBCFEAFF030EE92628
:100C7000000EEA22EF500F0BDF6EFD0EDBCFE9FF17
:100C8000FE0EDBCFEAFF040EE926000EEA22EF504B
:100C900017E0400EDF10E66E42EC11F0E552680EF0
:100CA000146E1A0E156E166A14C0E6FF15C0E6FF24
:100CB00016C0E6FF7FEC0FF0E552E552E55287D013
:100CC000DFCFE6FF42EC11F0E5525D0E146E1A0E16
:100CD000156E166A14C0E6FF15C0E6FF16C0E6FFE3
:100CE0007FEC0FF0E552E552E5524B0E146E1A0EF2
:100CF000156E166A14C0E6FF15C0E6FF16C0E6FFC3
:100D00007FEC0FF0E552E552E552010EDB6ADF5051
:100D1000F36E010EDBCFF4FFF350F45C48E2FD0EFE
:100D2000DBCFE9FFFE0EDBCFEAFF050EE926000E62
:100D3000EA22E9CF14F0EACF15F0010EDB500F01E3
:100D40001424E96E000E1520EA6EEF50E66EE66A96
:100D5000460E166E1A0E176E186A16C0E6FF17C0FA
:100D6000E6FF18C0E6FF7FEC0FF0196E050EE15E9E
:100D70001950FD0EDBCFE9FFFE0EDBCFEAFF050EBB
:100D8000E926000EEA22E9CF14F0EACF15F0010EB1
:100D9000DB500F011424E96E000E1520EA6EEF50AF
:100DA000E66E42EC11F0E552010EDB2AB0D7440E9C
:100DB000146E1A0E156E166A14C0E6FF15C0E6FF13
:100DC00016C0E6FF7FEC0FF0E552E552E552F5EC78
:100DD00000F0300EE66EC3EC11F0E552EEEC00F0E0
:100DE000FC0EDB5002E1010E02D0FC0EDB50E76E80
:100DF000FC0EE7CFDBFFDB508009E66E42EC11F022
:100E0000E552F5EC00F0010E00D0146E020EE15C2C
:100E100002E2E16AE552E16E1450E552E7CFD9FFF4
:020E20001200BE
:0E0E22004DEC0CF0FB0EDBCFF3FFDB06F350C4
:100E300000090AE09BEC0CF0FA0E06EC0DF0F3E171
:100E4000151CF1E1010E01D0000E7CEF0CF04DEC11
:100E50000CF03B0EE12402E3E168E652E16E010E84
:100E6000DB6A020EDB6AF90EDBCFF6FFFA0EDBCF90
:100E7000F7FFFB0EDBCFF8FF0800F550DF6EDF5009
:100E800002E1A0EF0BF0250EDF5C02E093EF0BF028
:100E9000030EDB6A040EDB6A050EDB6A060EDB6AF4
:100EA000070EDB6AB5EC0BF02D0EDF5C0CE02B0EB1
:100EB000DF5C09E0200EDF5C06E0230EDF5C03E070
:100EC000300EDF5C1AE1DF50300A14E0130A0FE045
:100ED000030A0AE00B0A05E0060AE4E1030EDB80E0
:100EE000E1D7030EDB82DED7030EDB84DBD7030EF4
:100EF000DB86D8D7030EDB88D5D72A0EDF5C1BE153
:100F0000B1EC0BF0FFEC0BF010E0030EDB80086897
:100F10000968130EDBCF0DF0140EDBCF0EF0F1ECF1
:100F200010F0040E06C0DBFF03D0130EE8EC0BF04C
:100F3000B5EC0BF00BD0090EDB6A56EC0CF003E0BD
:100F4000CAEC0CF0FAD7090EE8EC0BF0030EDBB09C
:100F5000DB982E0EDF5C1BE1B5EC0BF02A0EDF5C9C
:100F60000BE1B1EC0BF0FFEC0BF003E1130E3AECEC
:100F70000CF0B5EC0BF00BD0090EDB6A56EC0CF064
:100F800003E0CAEC0CF0FAD7090E3AEC0CF0680E4C
:100F9000DF5C07E1B5EC0BF0680EDF5C1DE1030ED2
:100FA00018D0740EDF5C17E07A0EDF5C14E0480E98
:100FB000DF5C06E0540EDF5C03E05A0EDF5C02E10A
:100FC000020E07D06C0EDF5C03E06A0EDF5C04E10A
:100FD000010E8DEC0CF0C9DBDF506E0A01E17FD30E
:100FE0001E0A01E192D1200A01E18FD13F0A01E1FD
:100FF00049D11A0A01E146D10D0A01E143D1200A83
:1010000001E140D13A0A01E13DD1200A01E13AD1A2
:10101000260A01E135D10D0A01E132D11A0A01E1B6
:10102000D9D0200A4AE0300A1FE0460A0EE0250A1D
:1010300001E083D3D950F90FE96EFF0EDA20EA6E92
:10104000010EEE5E000EEE5AEE5A9BEC0CF0250EF1
:10105000E66E95DB03E1151C01E169D397EC0CF01A
:1010600001E26BD3DB2A69D3080EDB6A040EDB5086
:10107000010806E2040EDB045FEC0CF0DB508BDBB6
:10108000080EDB5009E0030EDB50010B05E172DBBB
:1010900001E04DD3080EDB6A64DBEFCFDFFF0FEC1E
:1010A0000DF003E1151C01E142D397EC0CF001E3D4
:1010B000DB2A60DB01E141D33AD3070EDB500208A3
:1010C0000FE1DBEC0CF0030EA2EC0CF00E0EEECFF9
:1010D000DBFF0F0EEECFDBFF100EEECFDBFF20D0DD
:1010E000F70EDBCF17F0F80EDBCF18F0020E175E0D
:1010F000000E185AF70E17C0DBFFF80E18C0DBFF02
:1011000017C0E9FF18C0EAFF92EC0CF0166A0E0E49
:1011100014C0DBFF0F0E15C0DBFF100E16C0DBFF87
:101120000E0EDBCFE6FF0F0EDBCFE6FF100EDBCFA0
:10113000E6FFCCEC10F0E552E552E552130E07C085
:10114000DBFF140E08C0DBFF060EDB5005E0130EBC
:10115000D6EC0CF001E26ADBFAEC0CF002E2130EC2
:1011600037DBBDEC0CF006E0040ED6EC0CF002E22E
:10117000050E2EDB030EDBB005D0FCDA01E0D7D282
:10118000080EDB6A090EDB6A0E0EDBCFF6FF0F0ED0
:10119000DBCFF7FF100EDBCFF8FF0800F550DF6E56
:1011A000DF5014E000EC0DF011E20FEC0DF003E164
:1011B000151C01E1BCD2BBDB01E3DB2A090EDB2AF3
:1011C000D9500E0FE96E000ECBDBE7D7D3DA01E181
:1011D000B4D2ADD2C6DA110EEECFDBFF120EEDCFD8
:1011E000DBFF110EDBCFE6FF120EDBCFE6FFBEEC1E
:1011F00010F0E552E552130EF3CFDBFF140EF4CFDF
:10120000DBFF060EDB5004E0130ED0DB01E20EDB49
:10121000FAEC0CF002E2130EDBDAAFDB05E0040EB1
:10122000C5DB02E2050ED4DA030EDBB005D0A2DA8C
:1012300001E07DD2080EDB6A090EDB6A110EDBCFFE
:10124000E9FF120EDBCFEAFFEFCFDFFFDF5014E044
:10125000D7DB12E2E4DB03E1151C01E168D267DBB6
:1012600001E3DB2A090EDB2A110EDB2ADBCFE9FFC3
:10127000120EE8E3DB2AE6D77DDA01E15ED257D22F
:10128000030EDB8E070EDB0410E195DB040E5ADB48
:101290000A0EEECFDBFF0B0EEECFDBFF0C0EEECF18
:1012A000DBFF0D0EEECFDBFF6CD0070EDB5003082B
:1012B0002CE1030EDBAE0DD0B2DA020E76DAEFCF00
:1012C00014F0156A166A176A14AE39D015681668D4
:1012D00035D0F70EDBCF15F0F80EDBCF16F0020E8F
:1012E000155E000E165AF70E15C0DBFFF80E16C07D
:1012F000DBFF15C0E9FF16C0EAFFEFCF14F00A0EBE
:1013000014C0DBFF0B0EDB6A38D0070EDB5002087F
:1013100009E1030EDBAE04D059DB16AE10D00ED0BF
:1013200055DB0DD0030EDBAE12D079DA020E3DDABA
:10133000F9DA166A176A15AE02D016681768E2DA8B
:101340000C0E16C0DBFF0D0E17C0DBFF1AD0F70E18
:10135000DBCF16F0F80EDBCF17F0020E165E000E94
:10136000175AF70E16C0DBFFF80E17C0DBFF16C0CA
:10137000E9FF17C0EAFFD6DAC5DA0C0EDB6A0D0EFC
:10138000DB6A060EDB5005E1010EF36E050EF3CFAE
:10139000DBFF150EDB6A160EDB6AD950370F146EB1
:1013A000000EDA20156E390E14C0DBFF3A0E15C0A0
:1013B000DBFF380EDB6A080EDB6A0A0EAEDADF509E
:1013C000780A12E0200A10E0280A0CE0200A0AE05D
:1013D0003F0A06E00D0A02E0200A08E1020E05D0ED
:1013E000080E03D0080EDF26100E97DA030EDBBEC0
:1013F00002D0DB92DB94DB50800B24E08ADAD890B9
:10140000030EEB50000A08E6000EEE5C000EEE58EC
:10141000000EEE58000EEE5815E213DA0B680C6859
:101420000D680E6852EC10F00A0E02C0DBFF0B0EC6
:1014300003C0DBFF0C0E04C0DBFF0D0E05C0DBFF9D
:101440002D0E08D0030EDBA202D02B0E03D0DBA49E
:1014500008D0200EF36E170EF3CFDBFF150EDB2A3C
:1014600002D0170EDB6A050EDB5003E1B7D901E1AC
:1014700089D09C0E146E230E156E000E166E070E8C
:10148000DBCF17F0186A196A1A6A17C00BF018C078
:101490000CF019C00DF01AC00EF0D3D91EEC11F0EB
:1014A00014500224F36E15500320F46E16500420DD
:1014B000F86EF4CFF7FFF3CFF6FF0800090EF5CF73
:1014C000DBFF580EDF5C0FE1610EF36E090E7BD976
:1014D0000AE3200E146E090EDBCFE7FF1450E75E1F
:1014E000090EE7CFDBFF070EDBCF14F0156A166A93
:1014F000176A0FDA14C00BF015C00CF016C00DF00F
:1015000017C00EF0EECF06F0EECF07F0EECF08F0EA
:10151000EFCF09F01EEC11F009C0EDFF08C0EDFFA0
:1015200007C0EDFF06C0EFFF390EDBCFE9FFDB069A
:101530003A0EDBCFEAFF01E2DB06090EDBCFEFFF5D
:10154000150EDB2A4BD995E1030EDBA61DD06F0EDD
:10155000DF5C06E1C1D918E3150EDB285BDA14D095
:10156000780EDF5C09E0580EDF5C06E0620EDF5C9F
:1015700003E0420EDF5C08E1020EF36E160EF3CFBD
:10158000DBFF02D0150EDB6A030EDB50100B0EE002
:10159000040EDBCF14F0050EDB50D880145406E2A5
:1015A000060EDB5003E1040EDB5034DA95D90AE273
:1015B000050EDBCFE7FF150EDB50E75E050EE7CF2C
:1015C000DBFF02D0050EDB6A040EDBCF14F0160E33
:1015D00045D9D880145414E2160EDBCFE6FF150E61
:1015E000DBCFE6FF040EDBCFE6FF050EDB50E55256
:1015F000E75CE552D880E754E552D880E7545FD9DC
:10160000030EDB50010B0BE1080EDB5008E0B2D8F3
:1016100001E08DD0080EDB50BED8080EDB6A170E35
:10162000DB5007E088D9170EF1D903E1151C01E161
:101630007ED0160EDB5016E07ED9300EE66E9FD8B7
:1016400002E1151C74E077D9DFCFE6FF10EC10F053
:10165000E552E552E552F4CF15F00001F31C02E12A
:10166000151C65E0050EDBCF14F0160EDB50D8809C
:10167000145409E2050EDBCFE7FF160EDB50E75EE0
:10168000050EE7CFDBFF300EE66E050ECBD94FE13E
:10169000390EDB2ADBCFE9FF3A0E01E3DB2ADBCF91
:1016A000EAFF090EEFCFDBFFDB500EE044D9090E55
:1016B000ADD902E1151C3BE0390EDB2ADBCFE9FF97
:1016C0003A0EEDE3DB2AEBD755D831E1160EDBCF2E
:1016D000E6FF080EC3D8E552E7245DD82ED0070EEA
:1016E000DB50030A1CE0010A14E0030A07E07BD97F
:1016F000DBCFEEFF020EDBCFEDFF1FD0F5D8196A6E
:1017000017AE02D0186819682CD8BCD819C0EEFFE3
:1017100014D0EAD817BE186824D8B4D80ED063D92C
:10172000DBCFEFFF0AD07BD905E1151C03E1F3689D
:10173000F46810D0FCD801E3DB2A79D93CEF07F03C
:10174000010EDBCF14F0020EDBCF15F014C0F3FF57
:1017500015C0F4FF3B0EE15C02E2E16AE552E16E86
:10176000CBD029D9020EA2EF0CF061D90800F550B8
:10177000DF6E1200200EE66E080E12EF0DF010EC78
:1017800010F0E552E552E552F3CF14F0F4CF15F026
:101790000001F31C1200146E156AD950010F4DD9C7
:1017A0001450EE261550ED221200185E000E195A44
:1017B000F70E18C0DBFFF80E19C0DBFF18C0E9FFF9
:1017C00019C0EAFF1200DBCFF4FFF350F45C120003
:1017D000DB50E76E040EE7CFDBFF12000A0EDBCF13
:1017E00014F00B0EDBCF15F00C0EDBCF16F00D0E48
:1017F000DBCF17F014501510161017101200130E2F
:10180000EECFDBFF140EEDCFDBFF130EDBCF14F0BA
:10181000140EDBCF15F00001800E15141200F70E28
:10182000DBCF18F0F80EDBCF19F01200050EDB50FD
:10183000E66ED950130F01D9E552E750EE6EED6A0E
:1018400012000A0EDBCF06F00B0EDBCF07F00C0EFA
:10185000DBCF08F00D0EDBCF09F01200DBCFE6FF87
:10186000150EDBCFE6FF050EDB50E552E724E5520F
:10187000E7241200DB50CED8010EF36E060EF3CF34
:10188000DBFF1200EE50EFCFEAFFE96E16C0EEFF6D
:1018900017C0EEFF18C0EEFF1200D9CFE6FFDACF77
:1018A000E6FFE1CFD9FFE2CFDAFF1200DFCFE6FF9C
:1018B000E66A77EC11F0E552E552F3501200E76E5C
:1018C000080EE7CFDBFF1200EECF14F0EECF15F0DD
:1018D000EFCF16F0176A1200050EDBCF14F0150ECD
:1018E000DB50D88014541200010EDBCF16F0020E2C
:1018F000DBCF17F0186A1200E552E5CFDAFFE7CF29
:10190000D9FF12000A0E14C0DBFF0B0E15C0DBFF5F
:101910001200D9500A0F1DEF0DF0F36E070EF3CF32
:10192000DBFF1200EECF14F0EFCF15F01200010E26
:10193000DB2A020E1200FC0EDBCFE6FFFD0EDBCF32
:10194000E6FF1200145E000E155AF70E14C0DBFFFE
:10195000F80E15C0DBFF14C0E9FF15C0EAFF120046
:10196000DA20EA6EEF2AEECFF6FF000EEF22EECF7E
:10197000F7FFEF22EECFF8FF1200040EDBCFE6FFF9
:10198000130EDB50E552E75C9ADFDB5004DF060EF6
:10199000DB501200090EDB500A0DF350DF24D00F8C
:1019A000E76E090EE7CFDBFFB5EF0BF0DB50F36E10
:1019B000050EE3EF0BF0F70EDBCF14F0F80EDBCFE4
:1019C00015F01200DFCFE6FFBFEF0BF028DF030EAC
:1019D000ECDE64EF0CF011EC07F0E552E552E55255
:1019E000E55200091200BDDEEE50EFCFEAFFE96ECE
:1019F000010E1200130EDB50F36E040EE3EF0BF03A
:101A0000040EDB50F36E090EE3EF0BF0DBCFE6FFC5
:101A1000BFEF0BF0E76E050EE7CFDBFF12008BDFA9
:101A2000E2EF0CF0DBCFE6FF86DFEBEF0CF0D950F6
:101A3000F90FE96EFF0EB0EF0CF0E96E000EDA2040
:041A4000EA6E120038
:0C1A44000A005B25785D000D20777269B8
:101A50007474696E672064617461200A000D727489
:101A600072203D3D20300A000D72747220213D200D
:101A7000300A00736F6D657468696E672068617302
:101A800020676F6E652077726F6E6720696E2074B5
:101A900068652072656769737465722073656C652B
:101AA0006374696F6E207061727420616370656326
:101AB00074206F66205258202F6E000D20526567EB
:101AC000697374657220736C656374696F6E206EE0
:101AD0006F742056616C6964202D4C6F6164206DB9
:101AE000657373616765206661696C6564200A00CF
:101AF0000D43414E494E54462025782C2025782010
:101B00000A000D206D6F6420320A000D206D6F6495
:101B100031200A000D5468652064617461202578C5
:101B20002C206973206174202578200A000D6164DF
:101B30006472202578206E61642025780A000D5497
:101B400068657265206973206E6F206D65737361BF
:101B5000676520696E2074686520627566666572C7
:101B6000200A000D52585F537461747573206973B5
:101B70002025782C20696E665F737461745F6D61D7
:101B80006368696E652025782C2043616E737461EB
:101B9000742025782C2063616E525830636F6E7408
:101BA00072202578202D2D2D3E307834303D202593
:101BB00078200A000D20536F6D655468696E6720A8
:101BC00066756B6564207570200A000D2077616969
:101BD00074696E67200A000D207374617475732038
:101BE0007761732073657420746F20636F6E66690C
:101BF00067206D6F6465200A000D204572726F7258
:101C000020696E2073657474696E6720746F206339
:101C10006F6E666967206D6F64652043414E535453
:101C20004154203D202562200A000D207374617408
:101C30007573207761732073657420746F206C6FE7
:101C40006F704261636B206D6F6465200A000D2028
:101C50004572726F7220696E2073657474696E6765
:101C600020746F206C6F6F704261636B206D6F64C6
:101C700065202043414E53544154203D202562208D
:101C80000A000D207374617475732077617320737B
:101C9000657420746F206C697374656E206D6F6459
:101CA00065200A000D204572726F7220696E2073E4
:101CB000657474696E6720746F206C697374656EE7
:101CC000206D6F646520202043414E5354415420C1
:101CD0003D202562200A000D2057616B652075703C
:101CE000206661696C6564200A000D20737461745C
:101CF0007573207761732073657420746F2041774A
:101D0000616B65206D6F6465200A000D207374613E
:101D1000747573207761732073657420746F2073FA
:101D20006C656570206D6F6465200A000D2045723A
:101D3000726F7220696E2073657474696E672074A7
:101D40006F20536C656570206D6F646520202020C6
:101D500043414E53544154203D20202562200A0027
:101D60000D737461747573207761732073657420CB
:101D7000746F206E6F726D616C206D6F64650A0008
:101D80000D204572726F7220696E207365747469DC
:101D90006E6720746F206E6F726D616C206D6F6462
:101DA0006520202043414E53544154203D2025625C
:101DB000200A000D6765745F6D6573736167652048
:101DC000646F6E650A000D2073696D706C6520622A
:101DD0006974206F7065726174696F6E7320776FBC
:101DE000726B207269676874200A000D2045727258
:101DF0006F72202D73696D706C6520626974207339
:101E000068696674206661696C73200A000D20534E
:101E1000504920666F72204D43505F323531352076
:101E20006973206F70656E200A000D4661696C65EC
:101E30007220746F20696E6974204D4350203235D2
:101E400031352C207265736574696E67200A000A4B
:101E50000D2053657269616C204F70656E200A0019
:101E6000060EF66E000EF76E000EF86E0001090009
:101E7000F550656F0900F550666F03E1656701D0A5
:101E80003DD00900F550606F0900F550616F090001
:101E9000F550626F09000900F550E96E0900F55030
:101EA000EA6E090009000900F550636F0900F5505A
:101EB000646F09000900F6CF67F0F7CF68F0F8CF3C
:101EC00069F060C0F6FF61C0F7FF62C0F8FF000173
:101ED000635302E1645307E00900F550EE6E6307B7
:101EE000F8E26407F9D767C0F6FF68C0F7FF69C07A
:0E1EF000F8FF00016507000E665BBFD7120009
:021EFE00D9CF3A
:101F0000E6FFDACFE6FFE1CFD9FFE2CFDAFFE65214
:101F1000E652E652E652D950FB0F146EFF0EDA205D
:101F2000156E14C0DEFFDD6EDECFE6FFDDCFE6FF0F
:101F3000FB0EDBCFE6FFFC0EDBCFE6FFFD0EDBCFBB
:101F4000E6FF6AC0E6FF6BC0E6FF27EC07F0146E01
:101F5000070EE15C02E2E16AE552E16E1450020E06
:101F6000F3CFDBFF030EF4CFDBFF020EDBCF14F069
:101F7000030EDBCF15F014C0F3FF15C0F4FF040E01
:101F8000E15C02E2E16AE552E16EE552E5CFDAFF9B
:061F9000E7CFD9FF1200AB
:0A1F9600D9CFE6FFDACFE6FFE1CF76
:101FA000D9FFE2CFDAFFAC6AAB6AFD0EDBB0AC88DA
:101FB000DBA202D0AC8CAB8CDBB4AC8EDBA602D047
:101FC000AB8801D0AB8ADBB8AC849E98DBBAAB8619
:101FD000DBAC02D09D8A01D09D9A9E9ADBAE02D0E6
:101FE0009D8801D09D98FB0EDB50AF6EFB0EFC0E62
:101FF000DBCF15F015C014F0156A1450B06EAC8A22
:10200000AB8E949C948EAC50100B04E0AC50800BC3
:1020100001E1948CE552E5CFDAFFE7CFD9FF12005A
:10202000D9CFE6FFDACFE6FFE1CFD9FFE2CFDAFF83
:10203000FB0EDBCF14F0FC0EDBCF15F00001800EA1
:1020400015141AE1FB0EDBCFE9FFFC0EDBCFEAFF34
:10205000EECFF3FFEDCFF4FFEE2A000EEF22F3CF29
:10206000E9FFF4CFEAFFFD0EDBCFEFFFEF50156A7B
:10207000F36E15C0F4FF10D0FB0EDB50FE0806E136
:10208000FD0EDBCFE6FFA7EC11F005D0FD0EDBCF98
:10209000E6FFD7EC11F0E552E552E5CFDAFFE7CFE6
:0420A000D9FF120052
:0C20A40006500B02F3CF02F0F4CF03F063
:1020B0000C02F3500326000EF420046E06500D02AD
:1020C000F3500426000EF420056E06500E02F35065
:1020D000052607500B02F3500326F4500422000E8D
:1020E000052207500C02F3500426F4500522075035
:1020F0000D02F350052608500B02F3500426F4504D
:10210000052208500C02F350052609500B02F3502B
:04211000052612008E
:0C211400D9CFE6FFDACFE6FFE1CFD9FF1C
:10212000E2CFDAFF3F0EC716C66AFD0EDB50C612BD
:10213000FB0EDB50C712FC0EDB50030A09E0010A5C
:1021400004E0020A06E1C78C04D0C78CC68801D01F
:10215000C688FD0EDB50050A05E0010A05E19486FC
:10216000928A03D0948601D094969488949AC68AD1
:0C217000E552E5CFDAFFE7CFD9FF1200FF
:04217C00FE0EE3CFA1
:10218000E9FFFF0EE3CFEAFFF36AF46AEE5203E0E1
:10219000F34AF42AFBD71200FF0EE3CFF8FFE55213
:1021A000FF0EE3CFF7FFE552FF0EE3CFF6FFE55258
:1021B000E66AE66AE66A0900F55209E0FD0EE32ADE
:1021C00005E1FE0EE32A02E1FF0EE32AF4D7FD0E3D
:1021D000E3CF07F0FE0EE3CF08F0FF0EE3CF09F0E8
:0221E0001200EB
:0E21E20009C013F008C012F008500D02F4CF2F
:1021F00007F0F3CF06F009500E02F4CF09F0F3CF49
:1022000008F00D02F3500726F4500822E86A09226C
:1022100012500E02F3500726F4500822E86A0922F1
:102220000EAE17EF11F01250085E1350095A13AE9C
:0C223000000C0D50085E0E50095A000C06
:04223C00056A046AC1
:10224000036A026A200EE76ED89006360736083613
:10225000093602360336043605360B50025C0C5044
:1022600003580D5004580E50055809E30B50025EF8
:102270000C50035A0D50045A0E50055A062AE72EE8
:04228000E4D712008D
:0C228400D9CFE6FFDACFE6FFE1CFD9FFAB
:10229000E2CFDAFFE652C950DF6E9E96C69EFD0E73
:1022A000DB50C96EC6AE02D0FF0E03D09EA6FED78D
:1022B000000EE552E552E5CFDAFFE7CFD9FF120075
:1022C000D9CFE6FFDACFE6FFE1CFD9FFE2CFDAFFE1
:1022D000E652C950DF6E9E96C96A9EA6FED7C950C7
:0E22E000E552E552E5CFDAFFE7CFD9FF120055
:0222EE00F36A91
:1022F000F46AFF0EE124E96EFF0EE220EA6EED665D
:1023000007D02F0EEF6404D03A0EEF6001D0F32A0D
:022310001200B9
:0E231200000EF36E00EE00F0030E01D8120074
:10232000EA6002D0EE6AFCD7F350E9601200EE6A70
:02233000FCD7D8
:0E23320012EE00F022EE00F0F86A019C30EC92
:0E2340000FF0D8EC11F010EC00F0FBD71200FB
:02234E00FF0E80
:10235000E350ACBA04D0AF6AAB8EAC8A949CACA20A
:0A236000FED7AD6EF36EF46A1200B2
:06236A00FF0EE350206E9F
:102370001B0E00D001D0200EE76EE72EFED7202ED8
:06238000FAD700D01200A4
:0A238600FF0EE350E84E12000000C5
:0C23900000D000D000D0E82EFAD71200D8
:04239C003031323377
:0D23A0003435363738396162636465660094
:0123AD000728
:0223AE0012001B
:0223B000120019
:0223B200FEFF2C
:020000040030CA
:0100010032CC
:01000200FFFE
:01000300FEFE
:01000600AB4E
:00000001FF
