:020000040000FA
:06000000A2EF11F0120056
:0A0006000200711E00006C000000F3
:1000100001000000C42300006A000000020000008C
:10002000D9CFE6FFE1CFD9FF1D0EE126470EE66EE0
:10003000E66A3C0EE66ED4EC0FF0E552E552E5526E
:10004000600E146E1E0E156E166A14C0E6FF15C003
:10005000E6FF16C0E6FF88EC0FF0E552E552E552E8
:10006000800EE66EE66A010EE66E93EC10F0E55245
:10007000E552E552070EE66E01DBE552F3CFDEFFF7
:10008000F4CFDDFFD9CFE9FFDACFEAFFEE50ED1074
:1000900019E03B0E146E1E0E156E166A14C0E6FFB4
:1000A00015C0E6FF16C0E6FF88EC0FF0E552E552FA
:1000B000E5526CC0E6FFE2DAE552F3CFDEFFF4CFA3
:1000C000DDFFE0D71E0E146E1E0E156E166A14C0EC
:1000D000E6FF15C0E6FF16C0E6FF88EC0FF0E5521C
:1000E000E552E552060EE66EBF0EE66E66D8E552A4
:1000F000E552000911E0FC0E146E1D0E156E166A15
:1001000014C0E6FF15C0E6FF16C0E6FF88EC0FF04E
:10011000E552E552E55210D0D70E146E1D0E156E45
:10012000166A14C0E6FF15C0E6FF16C0E6FF88ECAD
:100130000FF0E552E552E552C9D8100EDB68550EB6
:10014000F36E110EF3CFDBFF400EF36E150EF3CFFF
:10015000DBFFAA0EF36E160EF3CFDBFF600EF36E1D
:10016000170EF3CFDBFF700EF36E180EF3CFDBFF2D
:10017000040EF36E130EF3CFDBFF140EDB6A020ED8
:10018000E66ED950100FE66E000EDA20E66E5CECDB
:1001900005F0E552E552E552300EE66ECCEC11F07A
:1001A000E552CBD767D71D0EE15C02E2E16AE5526A
:1001B000E16EE552E7CFD9FF1200D9CFE6FFE1CFDC
:1001C000D9FFFD0EDB50070802E2FF0E14D0FE0E31
:1001D000DBCFE6FF010EF36EFD0EDB5004E0D8909E
:1001E000F336E806FCE1F350E552E71402E1000EB5
:1001F00001D0010E00D0E552E7CFD9FF1200809860
:10020000010EE66ECCEC11F0E55212008088010E72
:10021000E66ECCEC11F0E5521200D9CFE6FFE1CF4B
:10022000D9FFE652ECDF030EE66E4BEC11F0E5521F
:10023000FE0EDBCFE6FF4BEC11F0E55269EC11F05E
:10024000DF6EE4DFDF5000D0E552E552E7CFD9FFA3
:100250001200D9CFE6FFE1CFD9FFD1DF020EE66E63
:100260004BEC11F0E552FE0EDBCFE6FF4BEC11F04C
:10027000E552FD0EDBCFE6FF4BEC11F0E552C6DF99
:1002800000D0E552E7CFD9FF1200D9CFE6FFE1CF8A
:10029000D9FFB5DF050EE66E4BEC11F0E552FE0E10
:1002A000DBCFE6FF4BEC11F0E552FD0EDBCFE6FFB6
:1002B0004BEC11F0E552FC0EDBCFE6FF4BEC11F0FE
:1002C000E552A4DFE552E7CFD9FF1200D9CFE6FF10
:1002D000E1CFD9FFE652E66A0F0EE66EBADFE552CD
:1002E000E5520F0EE66E99DFE552DF6EE00EDF1489
:1002F0001CE0DFCF14F0156A14BE156814C0E6FFC9
:1003000015C0E6FFA40E166E1D0E176E186A16C0F5
:10031000E6FF17C0E6FF18C0E6FF88EC0FF0196E85
:10032000050EE15E195012D011D0840E146E1D0E10
:10033000156E166A14C0E6FF15C0E6FF16C0E6FF8C
:1003400088EC0FF0E552E552E55200D0E552E55257
:10035000E7CFD9FF1200D9CFE6FFE1CFD9FFE652B0
:10036000200EE66EE00EE66E0F0EE66E8EDFE552B4
:10037000E552E5520F0EE66E50DFE552DF6EE00EFD
:10038000DF1420081CE0DFCF14F0156A14BE1568D6
:1003900014C0E6FF15C0E6FF500E166E1D0E176E58
:1003A000186A16C0E6FF17C0E6FF18C0E6FF88EC23
:1003B0000FF0196E050EE15E195012D011D02F0EFC
:1003C000146E1D0E156E166A14C0E6FF15C0E6FF0A
:1003D00016C0E6FF88EC0FF0E552E552E55200D07A
:1003E000E552E552E7CFD9FF1200D9CFE6FFE1CFC2
:1003F000D9FFE652400EE66EE66E2B0EE66E45DF46
:10040000E552E552E552300EE66ECCEC11F0E552C5
:100410002B0EE66E02DFE552DF6EDFAC11D00E0E62
:10042000146E1D0E156E166A14C0E6FF15C0E6FFA9
:1004300016C0E6FF88EC0FF0E552E552E55210D009
:10044000FB0E146E1C0E156E166A14C0E6FF15C066
:10045000E6FF16C0E6FF88EC0FF0E552E552E552E4
:1004600000D0E552E552E7CFD9FF1200D9CFE6FF21
:10047000E1CFD9FFE652600EE66EE00EE66E0F0E9B
:10048000E66E03DFE552E552E5520F0EE66EC5DE7D
:10049000E552DF6EE00EDF1460081CE0DFCF14F0E1
:1004A000156A14BE156814C0E6FF15C0E6FFC80E35
:1004B000166E1C0E176E186A16C0E6FF17C0E6FF10
:1004C00018C0E6FF88EC0FF0196E050EE15E1950BA
:1004D00012D011D0A60E146E1C0E156E166A14C022
:1004E000E6FF15C0E6FF16C0E6FF88EC0FF0E55208
:1004F000E552E55200D0E552E552E7CFD9FF1200B0
:10050000D9CFE6FFE1CFD9FFE652400EE66EE00E0E
:10051000E66E0F0EE66EB9DEE552E552E5520F0EBD
:10052000E66E7BDEE552DF6EE00EDF1440081CE075
:10053000DFCF14F0156A14BE156814C0E6FF15C0AD
:10054000E6FF720E166E1C0E176E186A16C0E6FFD6
:1005500017C0E6FF18C0E6FF88EC0FF0196E050E15
:10056000E15E195012D011D04E0E146E1C0E156E95
:10057000166A14C0E6FF15C0E6FF16C0E6FF88EC59
:100580000FF0E552E552E55200D0E552E552E7CFD3
:10059000D9FF1200D9CFE6FFE1CFD9FF020EE12645
:1005A000800EE66EE00EE66E0F0EE66E6EDEE55233
:1005B000E552E5520F0EE66E30DEE552DF6EE00EDC
:1005C000DF1480081BE0DFCF14F0156A14BE156835
:1005D00014C0E6FF15C0E6FF1D0E166E1C0E176E4A
:1005E000186A16C0E6FF17C0E6FF18C0E6FF88ECE1
:1005F0000FF0196E050EE15E195010D0FB0E146E4F
:100600001B0E156E166A14C0E6FF15C0E6FF16C075
:10061000E6FF88EC0FF0E552E552E5520E0EE66E6D
:10062000FCDDE552E76E010EE7CFDBFF010EDBA03C
:1006300011D0EF0E146E1B0E156E166A14C0E6FF75
:1006400015C0E6FF16C0E6FF88EC0FF0E552E55254
:10065000E552ECD7020EE15C02E2E16AE552E16E9E
:10066000E552E7CFD9FF1200CADD080EE66E0F0E85
:10067000E66EEFDDE552E55206EF01F0D9CFE6FF79
:10068000E1CFD9FF050EE1260F0E926EDE52030E6A
:10069000DD6E440EF36E020EF3CFDBFFF10EF36E50
:1006A000030EF3CFDBFF050EF36E040EF3CFDBFF7B
:1006B000A6DD010EE66ECCEC11F0E552C00EE66E42
:1006C0004BEC11F0E552A2DD300EE66ECCEC11F0F1
:1006D000E55295DD020EE66E4BEC11F0E552280E68
:1006E000E66E4BEC11F0E552040EDBCFE6FF4BEC6F
:1006F00011F0E552030EDBCFE6FF4BEC11F0E552B3
:10070000020EDBCFE6FF4BEC11F0E552010EDBCF22
:10071000E6FF4BEC11F0E55279DDE66A0C0EE66E71
:1007200098DDE552E552E66A0D0EE66E92DDE55281
:10073000E552600EE66EE66E8CDDE552E552600E27
:10074000E66E700EE66E85DDE552E552E66A0F0E46
:10075000E66E7FDDE552E5522A0EE66E5EDDE5527D
:10076000DF6E010EE66EBEEC11F0E552020EDB50BC
:10077000DF5C13E0D80E146E1B0E156E166A14C0E3
:10078000E6FF15C0E6FF16C0E6FF88EC0FF0E55265
:10079000E552E552F368F46803D0F36AF46A00D0D6
:1007A000050EE15C02E2E16AE552E16EE552E7CF57
:1007B000D9FF1200D9CFE6FFE1CFD9FFE6521FDD06
:1007C000FE0EDBCFE6FF4BEC11F0E55269EC11F0C9
:1007D000DF6E1CDDDF5000D0E552E552E7CFD9FFD8
:1007E0001200D8DE680EE66E600EE66E32DDE5526F
:1007F000E552680EE66E700EE66E2BDDE552E552B0
:1008000065DD680EE66E600EE66E23DDE552E552AC
:10081000680EE66E700EE66E1CDDE552E5521200C3
:10082000D9CFE6FFE1CFD9FF1A0EE126B00EE66E72
:10083000C1DFE552DF6EA0DADFCFE6FFE66AC40E65
:10084000146E1B0E156E166A14C0E6FF15C0E6FF87
:1008500016C0E6FF88EC0FF0176E050EE15E17502C
:10086000060EE66EDFCFE6FFA8DCE552E552000992
:1008700004E0DE52900EDD6E1FD0070EE66EDFCF75
:10088000E6FF9BDCE552E552000904E0DE52940EDF
:10089000DD6E12D09F0E146E1B0E156E166A14C0FC
:1008A000E6FF15C0E6FF16C0E6FF88EC0FF0E55244
:1008B000E552E552000EF4D0A2DC010EDBCFE6FFDC
:1008C0004BEC11F0E55269EC11F0080D020EF3CF7C
:1008D000DBFF69EC11F0E00BE838E840146E020E23
:1008E000DBCFE7FF1450E712020EE7CFDBFF69EC26
:1008F00011F0E76E030EE7CFDBFF69EC11F0E76E56
:10090000030EE7CFDBFF69EC11F0E76E040EE7CFD3
:10091000DBFF050EDB6A040EDB50F36E050EDBCF4A
:10092000F4FFF350F45C1AE269EC11F0E66ED95072
:10093000060F146EDACF15F0050EDB500F011424EC
:10094000E96E000E1520EA6EE552E750EF6E050ED7
:10095000DB28E76E050EE7CFDBFFDDD757DC020EA5
:10096000DBCFE6FFE66A8D0E146E1B0E156E166A5F
:1009700014C0E6FF15C0E6FF16C0E6FF88EC0FF0D6
:10098000176E050EE15E1750040EDBCFE6FFE66A38
:10099000680E146E1B0E156E166A14C0E6FF15C0A5
:1009A000E6FF16C0E6FF88EC0FF0176E050EE15E5D
:1009B0001750050EDB6A040EDB50F36E050EDBCF1D
:1009C000F4FFF350F45C2CE2D950060F146EDACF2A
:1009D00015F0050EDB500F011424E96E000E1520F2
:1009E000EA6EEF50E66EE66A050EDBCFE6FFE66ADA
:1009F0004E0E166E1B0E176E186A16C0E6FF17C055
:100A0000E6FF18C0E6FF88EC0FF0196E070EE15EF6
:100A10001950050EDB28E76E050EE7CFDBFFCBD7BD
:100A2000060EE66EDFCFE6FFDDEC00F0E552E552A4
:100A300000091AE0E66A010EE66E2C0EE66E25DC71
:100A4000E552E552E552450E146E1B0E156E166A00
:100A500014C0E6FF15C0E6FF16C0E6FF88EC0FF0F5
:100A6000E552E552E55219D0E66A020EE66E2C0E0A
:100A7000E66E0BDCE552E552E5523C0E146E1B0EA1
:100A8000156E166A14C0E6FF15C0E6FF16C0E6FF35
:100A900088EC0FF0E552E552E552010EDB5000D034
:100AA000146E1A0EE15C02E2E16AE552E16E145046
:100AB000E552E7CFD9FF1200D9CFE6FFE1CFD9FF4A
:100AC000020EE126010EDB6AFC0EDB501AE0FC0E82
:100AD000DB0417E0FC0EDB50020813E0070E146E77
:100AE0001B0E156E166A14C0E6FF15C0E6FF16C091
:100AF000E6FF88EC0FF0E552E552E552FF0E30D1EB
:100B000029D0FC0EDB50020806E1040EF36EFC0E49
:100B1000F3CFDBFF1FD0FC0EDB0406E1020EF36E09
:100B2000FC0EF3CFDBFF16D0FC0EDB5003E1FC0E16
:100B3000DB6A10D0BE0E146E1A0E156E166A14C043
:100B4000E6FF15C0E6FF16C0E6FF88EC0FF0E552A1
:100B5000E552E552FFEC00F0FC0EDB504009E66E7A
:100B60004BEC11F0E552FD0EDBCFE9FFFE0EDBCFC3
:100B7000EAFFEF50E840E840E8401F0BE66E4BEC20
:100B800011F0E552FD0EDBCFE9FFFE0EDBCFEAFFF1
:100B9000010EE926000EEA22EF50200DF350E66E1A
:100BA0004BEC11F0E552E66A4BEC11F0E552E66AC7
:100BB0004BEC11F0E552FD0EDBCFE9FFFE0EDBCF73
:100BC000EAFF030EE926000EEA22EF500F0BDF6E5C
:100BD000FD0EDBCFE9FFFE0EDBCFEAFF040EE926B8
:100BE000000EEA22EF5017E0400EDF10E66E4BECED
:100BF00011F0E552B30E146E1A0E156E166A14C07B
:100C0000E6FF15C0E6FF16C0E6FF88EC0FF0E552E0
:100C1000E552E55287D0DFCFE6FF4BEC11F0E5520D
:100C2000A80E146E1A0E156E166A14C0E6FF15C0D3
:100C3000E6FF16C0E6FF88EC0FF0E552E552E552FC
:100C4000960E146E1A0E156E166A14C0E6FF15C0C5
:100C5000E6FF16C0E6FF88EC0FF0E552E552E552DC
:100C6000010EDB6ADF50F36E010EDBCFF4FFF350B1
:100C7000F45C48E2FD0EDBCFE9FFFE0EDBCFEAFFBE
:100C8000050EE926000EEA22E9CF14F0EACF15F0AE
:100C9000010EDB500F011424E96E000E1520EA6EE0
:100CA000EF50E66EE66A910E166E1A0E176E186A0F
:100CB00016C0E6FF17C0E6FF18C0E6FF88EC0FF08D
:100CC000196E050EE15E1950FD0EDBCFE9FFFE0E39
:100CD000DBCFEAFF050EE926000EEA22E9CF14F089
:100CE000EACF15F0010EDB500F011424E96E000E5F
:100CF0001520EA6EEF50E66E4BEC11F0E552010E56
:100D0000DB2AB0D78F0E146E1A0E156E166A14C039
:100D1000E6FF15C0E6FF16C0E6FF88EC0FF0E552CF
:100D2000E552E55206EC01F0300EE66ECCEC11F027
:100D3000E552FFEC00F0FC0EDB5002E1010E02D0A8
:100D4000FC0EDB50E76EFC0EE7CFDBFFDB508009CB
:100D5000E66E4BEC11F0E55206EC01F0010E00D00E
:100D6000146E020EE15C02E2E16AE552E16E14509B
:100D7000E552E7CFD9FF1200D9CFE6FFE1CFD9FF87
:100D8000030EE1261D0EE66E0DEC01F0E552DF6E5E
:100D90001C0EE66E0DEC01F0E552E76E010EE7CF9A
:100DA000DBFF2D0EE66E0DEC01F0E552E76E020E54
:100DB000E7CFDBFF010EDBCFE6FFE66ADFCFE6FF22
:100DC000E66A5E0E146E1A0E156E166A14C0E6FF01
:100DD00015C0E6FF16C0E6FF88EC0FF0176E070E91
:100DE000E15E1750020EDBCFE6FFE66A460E146E98
:100DF0001A0E156E166A14C0E6FF15C0E6FF16C07F
:100E0000E6FF88EC0FF0176E050EE15E1750030E3B
:100E1000E15C03E200D0E16AE552E16EE552E7CF22
:040E2000D9FF1200E4
:0C0E24004EEC0CF0FB0EDBCFF3FFDB0606
:100E3000F35000090AE09CEC0CF0FA0E07EC0DF000
:100E4000F3E1151CF1E1010E01D0000E7DEF0CF075
:100E50004EEC0CF03B0EE12402E3E168E652E16E59
:100E6000010EDB6A020EDB6AF90EDBCFF6FFFA0E2B
:100E7000DBCFF7FFFB0EDBCFF8FF0800F550DF6E8E
:100E8000DF5002E1A1EF0BF0250EDF5C02E094EFF2
:100E90000BF0030EDB6A040EDB6A050EDB6A060E3E
:100EA000DB6A070EDB6AB6EC0BF02D0EDF5C0CE0A4
:100EB0002B0EDF5C09E0200EDF5C06E0230EDF5C1A
:100EC00003E0300EDF5C1AE1DF50300A14E0130A51
:100ED0000FE0030A0AE00B0A05E0060AE4E1030E4C
:100EE000DB80E1D7030EDB82DED7030EDB84DBD7AA
:100EF000030EDB86D8D7030EDB88D5D72A0EDF5C3E
:100F00001BE1B2EC0BF000EC0CF010E0030EDB8008
:100F100008680968130EDBCF0DF0140EDBCF0EF05E
:100F2000FAEC10F0040E06C0DBFF03D0130EE9EC60
:100F30000BF0B6EC0BF00BD0090EDB6A57EC0CF0A3
:100F400003E0CBEC0CF0FAD7090EE9EC0BF0030E42
:100F5000DBB0DB982E0EDF5C1BE1B6EC0BF02A0E4B
:100F6000DF5C0BE1B2EC0BF000EC0CF003E1130ED4
:100F70003BEC0CF0B6EC0BF00BD0090EDB6A57EC37
:100F80000CF003E0CBEC0CF0FAD7090E3BEC0CF0C4
:100F9000680EDF5C07E1B6EC0BF0680EDF5C1DE16C
:100FA000030E18D0740EDF5C17E07A0EDF5C14E0DD
:100FB000480EDF5C06E0540EDF5C03E05A0EDF5C97
:100FC00002E1020E07D06C0EDF5C03E06A0EDF5C0C
:100FD00004E1010E8EEC0CF0C9DBDF506E0A01E17A
:100FE0007FD31E0A01E192D1200A01E18FD13F0A8D
:100FF00001E149D11A0A01E146D10D0A01E143D1CB
:10100000200A01E140D13A0A01E13DD1200A01E183
:101010003AD1260A01E135D10D0A01E132D11A0A8D
:1010200001E1D9D0200A4AE0300A1FE0460A0EE06A
:10103000250A01E083D3D950F90FE96EFF0EDA20BB
:10104000EA6E010EEE5E000EEE5AEE5A9CEC0CF0CB
:10105000250EE66E95DB03E1151C01E169D398ECE2
:101060000CF001E26BD3DB2A69D3080EDB6A040EB5
:10107000DB50010806E2040EDB0460EC0CF0DB50F0
:101080008BDB080EDB5009E0030EDB50010B05E1A2
:1010900072DB01E04DD3080EDB6A64DBEFCFDFFFCC
:1010A00010EC0DF003E1151C01E142D398EC0CF0BB
:1010B00001E3DB2A60DB01E141D33AD3070EDB50C9
:1010C00002080FE1DCEC0CF0030EA3EC0CF00E0EAA
:1010D000EECFDBFF0F0EEECFDBFF100EEECFDBFF10
:1010E00020D0F70EDBCF17F0F80EDBCF18F0020E92
:1010F000175E000E185AF70E17C0DBFFF80E18C067
:10110000DBFF17C0E9FF18C0EAFF93EC0CF0166A8A
:101110000E0E14C0DBFF0F0E15C0DBFF100E16C045
:10112000DBFF0E0EDBCFE6FF0F0EDBCFE6FF100E70
:10113000DBCFE6FFD5EC10F0E552E552E552130E99
:1011400007C0DBFF140E08C0DBFF060EDB5005E016
:10115000130ED7EC0CF001E26ADBFBEC0CF002E2C0
:10116000130E37DBBEEC0CF006E0040ED7EC0CF0EF
:1011700002E2050E2EDB030EDBB005D0FCDA01E047
:10118000D7D2080EDB6A090EDB6A0E0EDBCFF6FF44
:101190000F0EDBCFF7FF100EDBCFF8FF0800F55086
:1011A000DF6EDF5014E001EC0DF011E210EC0DF0F9
:1011B00003E1151C01E1BCD2BBDB01E3DB2A090E14
:1011C000DB2AD9500E0FE96E000ECBDBE7D7D3DA5E
:1011D00001E1B4D2ADD2C6DA110EEECFDBFF120EB2
:1011E000EDCFDBFF110EDBCFE6FF120EDBCFE6FF0C
:1011F000C7EC10F0E552E552130EF3CFDBFF140EEF
:10120000F4CFDBFF060EDB5004E0130ED0DB01E26F
:101210000EDBFBEC0CF002E2130EDBDAAFDB05E0D9
:10122000040EC5DB02E2050ED4DA030EDBB005D0F6
:10123000A2DA01E07DD2080EDB6A090EDB6A110E2C
:10124000DBCFE9FF120EDBCFEAFFEFCFDFFFDF508E
:1012500014E0D7DB12E2E4DB03E1151C01E168D204
:1012600067DB01E3DB2A090EDB2A110EDB2ADBCF69
:10127000E9FF120EE8E3DB2AE6D77DDA01E15ED270
:1012800057D2030EDB8E070EDB0410E195DB040E54
:101290005ADB0A0EEECFDBFF0B0EEECFDBFF0C0EA0
:1012A000EECFDBFF0D0EEECFDBFF6CD0070EDB5079
:1012B00003082CE1030EDBAE0DD0B2DA020E76DAB3
:1012C000EFCF14F0156A166A176A14AE39D0156894
:1012D000166835D0F70EDBCF15F0F80EDBCF16F021
:1012E000020E155E000E165AF70E15C0DBFFF80E43
:1012F00016C0DBFF15C0E9FF16C0EAFFEFCF14F000
:101300000A0E14C0DBFF0B0EDB6A38D0070EDB5071
:10131000020809E1030EDBAE04D059DB16AE10D093
:101320000ED055DB0DD0030EDBAE12D079DA020EF3
:101330003DDAF9DA166A176A15AE02D01668176830
:10134000E2DA0C0E16C0DBFF0D0E17C0DBFF1AD061
:10135000F70EDBCF16F0F80EDBCF17F0020E165E9D
:10136000000E175AF70E16C0DBFFF80E17C0DBFF92
:1013700016C0E9FF17C0EAFFD6DAC5DA0C0EDB6A41
:101380000D0EDB6A060EDB5005E1010EF36E050E55
:10139000F3CFDBFF150EDB6A160EDB6AD950370F71
:1013A000146E000EDA20156E390E14C0DBFF3A0EF3
:1013B00015C0DBFF380EDB6A080EDB6A0A0EAEDAF8
:1013C000DF50780A12E0200A10E0280A0CE0200A18
:1013D0000AE03F0A06E00D0A02E0200A08E1020ED8
:1013E00005D0080E03D0080EDF26100E97DA030E84
:1013F000DBBE02D0DB92DB94DB50800B24E08ADA88
:10140000D890030EEB50000A08E6000EEE5C000ECA
:10141000EE58000EEE58000EEE5815E213DA0B6887
:101420000C680D680E685BEC10F00A0E02C0DBFF62
:101430000B0E03C0DBFF0C0E04C0DBFF0D0E05C05E
:10144000DBFF2D0E08D0030EDBA202D02B0E03D043
:10145000DBA408D0200EF36E170EF3CFDBFF150EC2
:10146000DB2A02D0170EDB6A050EDB5003E1B7D989
:1014700001E189D0AE0E146E230E156E000E166EAD
:10148000070EDBCF17F0186A196A1A6A17C00BF03B
:1014900018C00CF019C00DF01AC00EF0D3D927EC0B
:1014A00011F014500224F36E15500320F46E165000
:1014B0000420F86EF4CFF7FFF3CFF6FF0800090E13
:1014C000F5CFDBFF580EDF5C0FE1610EF36E090E06
:1014D0007BD90AE3200E146E090EDBCFE7FF145010
:1014E000E75E090EE7CFDBFF070EDBCF14F0156ACE
:1014F000166A176A0FDA14C00BF015C00CF016C08C
:101500000DF017C00EF0EECF06F0EECF07F0EECFE5
:1015100008F0EFCF09F027EC11F009C0EDFF08C08B
:10152000EDFF07C0EDFF06C0EFFF390EDBCFE9FF8F
:10153000DB063A0EDBCFEAFF01E2DB06090EDBCF6A
:10154000EFFF150EDB2A4BD995E1030EDBA61DD06C
:101550006F0EDF5C06E1C1D918E3150EDB285BDAFC
:1015600014D0780EDF5C09E0580EDF5C06E0620EF6
:10157000DF5C03E0420EDF5C08E1020EF36E160E44
:10158000F3CFDBFF02D0150EDB6A030EDB50100B2E
:101590000EE0040EDBCF14F0050EDB50D88014549F
:1015A00006E2060EDB5003E1040EDB5034DA95D977
:1015B0000AE2050EDBCFE7FF150EDB50E75E050EF6
:1015C000E7CFDBFF02D0050EDB6A040EDBCF14F0A1
:1015D000160E45D9D880145414E2160EDBCFE6FF60
:1015E000150EDBCFE6FF040EDBCFE6FF050EDB506A
:1015F000E552E75CE552D880E754E552D880E754DD
:101600005FD9030EDB50010B0BE1080EDB5008E045
:10161000B2D801E08DD0080EDB50BED8080EDB6AD0
:10162000170EDB5007E088D9170EF1D903E1151C1E
:1016300001E17ED0160EDB5016E07ED9300EE66E4C
:101640009FD802E1151C74E077D9DFCFE6FF19ECD3
:1016500010F0E552E552E552F4CF15F00001F31C0D
:1016600002E1151C65E0050EDBCF14F0160EDB5011
:10167000D880145409E2050EDBCFE7FF160EDB50CD
:10168000E75E050EE7CFDBFF300EE66E050ECBD929
:101690004FE1390EDB2ADBCFE9FF3A0E01E3DB2A0B
:1016A000DBCFEAFF090EEFCFDBFFDB500EE044D9C2
:1016B000090EADD902E1151C3BE0390EDB2ADBCF68
:1016C000E9FF3A0EEDE3DB2AEBD755D831E1160EF0
:1016D000DBCFE6FF080EC3D8E552E7245DD82ED055
:1016E000070EDB50030A1CE0010A14E0030A07E0BE
:1016F0007BD9DBCFEEFF020EDBCFEDFF1FD0F5D89D
:10170000196A17AE02D0186819682CD8BCD819C04D
:10171000EEFF14D0EAD817BE186824D8B4D80ED07B
:1017200063D9DBCFEFFF0AD07BD905E1151C03E1BC
:10173000F368F46810D0FCD801E3DB2A79D93DEFD7
:1017400007F0010EDBCF14F0020EDBCF15F014C052
:10175000F3FF15C0F4FF3B0EE15C02E2E16AE552E3
:10176000E16ECBD029D9020EA3EF0CF061D90800AD
:10177000F550DF6E1200200EE66E080E13EF0DF02E
:1017800019EC10F0E552E552E552F3CF14F0F4CF26
:1017900015F00001F31C1200146E156AD950010FE8
:1017A0004DD91450EE261550ED221200185E000E91
:1017B000195AF70E18C0DBFFF80E19C0DBFF18C06E
:1017C000E9FF19C0EAFF1200DBCFF4FFF350F45C2D
:1017D0001200DB50E76E040EE7CFDBFF12000A0EAB
:1017E000DBCF14F00B0EDBCF15F00C0EDBCF16F0B9
:1017F0000D0EDBCF17F01450151016101710120035
:10180000130EEECFDBFF140EEDCFDBFF130EDBCF9D
:1018100014F0140EDBCF15F00001800E1514120029
:10182000F70EDBCF18F0F80EDBCF19F01200050E23
:10183000DB50E66ED950130F01D9E552E750EE6E3A
:10184000ED6A12000A0EDBCF06F00B0EDBCF07F0BD
:101850000C0EDBCF08F00D0EDBCF09F01200DBCF52
:10186000E6FF150EDBCFE6FF050EDB50E552E72461
:10187000E552E7241200DB50CED8010EF36E060EBF
:10188000F3CFDBFF1200EE50EFCFEAFFE96E16C098
:10189000EEFF17C0EEFF18C0EEFF1200D9CFE6FF33
:1018A000DACFE6FFE1CFD9FFE2CFDAFF1200DFCFD8
:1018B000E6FFE66A80EC11F0E552E552F3501200C3
:1018C000E76E080EE7CFDBFF1200EECF14F0EECF8D
:1018D00015F0EFCF16F0176A1200050EDBCF14F0EB
:1018E000150EDB50D88014541200010EDBCF16F019
:1018F000020EDBCF17F0186A1200E552E5CFDAFFCF
:10190000E7CFD9FF12000A0E14C0DBFF0B0E15C083
:10191000DBFF1200D9500A0F1EEF0DF0F36E070E19
:10192000F3CFDBFF1200EECF14F0EFCF15F0120073
:10193000010EDB2A020E1200FC0EDBCFE6FFFD0ECD
:10194000DBCFE6FF1200145E000E155AF70E14C02E
:10195000DBFFF80E15C0DBFF14C0E9FF15C0EAFF7E
:101960001200DA20EA6EEF2AEECFF6FF000EEF2229
:10197000EECFF7FFEF22EECFF8FF1200040EDBCF21
:10198000E6FF130EDB50E552E75C9ADFDB5004DF25
:10199000060EDB501200090EDB500A0DF350DF2457
:1019A000D00FE76E090EE7CFDBFFB6EF0BF0DB5091
:1019B000F36E050EE4EF0BF0F70EDBCF14F0F80E2C
:1019C000DBCF15F01200DFCFE6FFC0EF0BF028DF12
:1019D000030EECDE65EF0CF012EC07F0E552E55279
:1019E000E552E55200091200BDDEEE50EFCFEAFFEE
:1019F000E96E010E1200130EDB50F36E040EE4EFDD
:101A00000BF0040EDB50F36E090EE4EF0BF0DBCFAE
:101A1000E6FFC0EF0BF0E76E050EE7CFDBFF12002D
:101A20008BDFE3EF0CF0DBCFE6FF86DFECEF0CF0B3
:101A3000D950F90FE96EFF0EB1EF0CF0E96E000E10
:061A4000DA20EA6E12003C
:0A1A46000D546865206572726F721E
:101A50002062797465202D3E202562200A000D2029
:101A6000746865207265635F6572726F7220697356
:101A700020256920616E6420746865207465632088
:101A80006572726F7220697320256920200A000A2E
:101A9000005B25785D000D207772697474696E674C
:101AA0002064617461200A000D727472203D3D2033
:101AB000300A000D72747220213D20300A000D732F
:101AC0006F6D657468696E672068617320676F6EFB
:101AD000652077726F6E6720696E2074686520726A
:101AE000656769737465722073656C656374696F8B
:101AF0006E207061727420616370656374206F661C
:101B0000205258202F6E000D20526567697374654E
:101B10007220736C656374696F6E206E6F742056EB
:101B2000616C6964202D4C6F6164206D6573736115
:101B30006765206661696C6564200A000D206D6F21
:101B40006420320A000D206D6F6431200A000D20E0
:101B5000546865206461746120617420256920697E
:101B60007320257820200A000D20546865206D65BB
:101B700073736167652068617320256920627974D9
:101B80006573206F662064617461200A000D205423
:101B9000686520496420697320202578200A000D9B
:101BA0005468657265206973206E6F206D6573736C
:101BB00061676520696E2074686520627566666578
:101BC00072200A000D2052585F737461747573207F
:101BD0002D3E202562200A000D20536F6D6554684C
:101BE000696E672066756B6564207570200A000D4C
:101BF0002077616974696E67200A000D2073746133
:101C0000747573207761732073657420746F20631B
:101C10006F6E666967206D6F6465200A000D204550
:101C200072726F7220696E2073657474696E6720BA
:101C3000746F20636F6E666967206D6F6465204303
:101C4000414E53544154203D202562200A000D206E
:101C50007374617475732077617320736574207475
:101C60006F206C6F6F704261636B206D6F646520D5
:101C70000A000D204572726F7220696E20736574C0
:101C800074696E6720746F206C6F6F704261636B54
:101C9000206D6F6465202043414E53544154203DD4
:101CA000202562200A000D207374617475732077FB
:101CB00061732073657420746F206C697374656E32
:101CC000206D6F6465200A000D204572726F7220CE
:101CD000696E2073657474696E6720746F206C6917
:101CE0007374656E206D6F646520202043414E53F0
:101CF000544154203D202562200A000D2057616B7D
:101D000065207570206661696C6564200A000D208D
:101D100073746174757320776173207365742074B4
:101D20006F204177616B65206D6F6465200A000D3F
:101D300020737461747573207761732073657420E8
:101D4000746F20736C656570206D6F6465200A0088
:101D50000D204572726F7220696E2073657474690C
:101D60006E6720746F20536C656570206D6F6465BD
:101D70002020202043414E53544154203D20202513
:101D800062200A000D73746174757320776173208B
:101D900073657420746F206E6F726D616C206D6F4F
:101DA00064650A000D204572726F7220696E20739F
:101DB000657474696E6720746F206E6F726D616CEC
:101DC000206D6F646520202043414E5354415420C0
:101DD0003D202562200A000D2073696D706C65201E
:101DE000626974206F7065726174696F6E732077B9
:101DF0006F726B207269676874200A000D2045724B
:101E0000726F72202D73696D706C65206269742029
:101E10007368696674206661696C73200A000D201E
:101E200053504920666F72204D43505F3235313533
:101E3000206973206F70656E200A000D4661696C21
:101E4000657220746F20696E6974204D4350203292
:101E50003531352C207265736574696E67200A0010
:101E60000A0D2053657269616C204F70656E200AFF
:011E70000071
:011E71000769
:0E1E7200060EF66E000EF76E000EF86E000102
:101E80000900F550656F0900F550666F03E165675D
:101E900001D03DD00900F550606F0900F550616F29
:101EA0000900F550626F09000900F550E96E09005C
:101EB000F550EA6E090009000900F550636F09004A
:101EC000F550646F09000900F6CF67F0F7CF68F0AE
:101ED000F8CF69F060C0F6FF61C0F7FF62C0F8FF9D
:101EE0000001635302E1645307E00900F550EE6E10
:101EF0006307F8E26407F9D767C0F6FF68C0F7FF29
:101F000069C0F8FF00016507000E665BBFD71200CD
:101F1000D9CFE6FFDACFE6FFE1CFD9FFE2CFDAFF94
:101F2000E652E652E652E652D950FB0F146EFF0E0F
:101F3000DA20156E14C0DEFFDD6EDECFE6FFDDCFEA
:101F4000E6FFFB0EDBCFE6FFFC0EDBCFE6FFFD0E70
:101F5000DBCFE6FF6AC0E6FF6BC0E6FF28EC07F0C8
:101F6000146E070EE15C02E2E16AE552E16E145084
:101F7000020EF3CFDBFF030EF4CFDBFF020EDBCF4D
:101F800014F0030EDBCF15F014C0F3FF15C0F4FFFF
:101F9000040EE15C02E2E16AE552E16EE552E5CF52
:081FA000DAFFE7CFD9FF1200C0
:081FA800D9CFE6FFDACFE6FF16
:101FB000E1CFD9FFE2CFDAFFAC6AAB6AFD0EDBB04E
:101FC000AC88DBA202D0AC8CAB8CDBB4AC8EDBA6D5
:101FD00002D0AB8801D0AB8ADBB8AC849E98DBBA68
:101FE000AB86DBAC02D09D8A01D09D9A9E9ADBAE77
:101FF00002D09D8801D09D98FB0EDB50AF6EFB0E8A
:10200000FC0EDBCF15F015C014F0156A1450B06E3D
:10201000AC8AAB8E949C948EAC50100B04E0AC5008
:10202000800B01E1948CE552E5CFDAFFE7CFD9FFD1
:0220300012009C
:0E203200D9CFE6FFDACFE6FFE1CFD9FFE2CF4C
:10204000DAFFFB0EDBCF14F0FC0EDBCF15F0000146
:10205000800E15141AE1FB0EDBCFE9FFFC0EDBCF7F
:10206000EAFFEECFF3FFEDCFF4FFEE2A000EEF22F2
:10207000F3CFE9FFF4CFEAFFFD0EDBCFEFFFEF5028
:10208000156AF36E15C0F4FF10D0FB0EDB50FE088E
:1020900006E1FD0EDBCFE6FFB0EC11F005D0FD0E42
:1020A000DBCFE6FFE0EC11F0E552E552E5CFDAFFD9
:0620B000E7CFD9FF12008A
:0A20B60006500B02F3CF02F0F4CF46
:1020C00003F00C02F3500326000EF420046E0650B9
:1020D0000D02F3500426000EF420056E06500E0289
:1020E000F350052607500B02F3500326F450042248
:1020F000000E052207500C02F3500426F45005226E
:1021000007500D02F350052608500B02F350042629
:10211000F450052208500C02F350052609500B021A
:06212000F3500526120039
:0A212600D9CFE6FFDACFE6FFE1CFE4
:10213000D9FFE2CFDAFF3F0EC716C66AFD0EDB50AD
:10214000C612FB0EDB50C712FC0EDB50030A09E07F
:10215000010A04E0020A06E1C78C04D0C78CC688D5
:1021600001D0C688FD0EDB50050A05E0010A05E135
:102170009486928A03D0948601D094969488949AF7
:0E218000C68AE552E5CFDAFFE7CFD9FF12009D
:02218E00FE0E43
:10219000E3CFE9FFFF0EE3CFEAFFF36AF46AEE5202
:1021A00003E0F34AF42AFBD71200FF0EE3CFF8FF57
:1021B000E552FF0EE3CFF7FFE552FF0EE3CFF6FF48
:1021C000E552E66AE66AE66A0900F55209E0FD0EA4
:1021D000E32A05E1FE0EE32A02E1FF0EE32AF4D72B
:1021E000FD0EE3CF07F0FE0EE3CF08F0FF0EE3CFC6
:0421F00009F01200E0
:0C21F40009C013F008C012F008500D02E2
:10220000F4CF07F0F3CF06F009500E02F4CF09F037
:10221000F3CF08F00D02F3500726F4500822E86AC5
:10222000092212500E02F3500726F4500822E86AE1
:1022300009220EAE20EF11F01250085E1350095A19
:0E22400013AE000C0D50085E0E50095A000C33
:02224E00056A1F
:10225000046A036A026A200EE76ED89006360736D3
:102260000836093602360336043605360B50025C52
:102270000C5003580D5004580E50055809E30B50EC
:10228000025E0C50035A0D50045A0E50055A062A8D
:06229000E72EE4D7120066
:0A229600D9CFE6FFDACFE6FFE1CF73
:1022A000D9FFE2CFDAFFE652C950DF6E9E96C69E96
:1022B000FD0EDB50C96EC6AE02D0FF0E03D09EA647
:1022C000FED7000EE552E552E5CFDAFFE7CFD9FFA2
:0222D0001200FA
:0E22D200D9CFE6FFDACFE6FFE1CFD9FFE2CFAA
:1022E000DAFFE652C950DF6E9E96C96A9EA6FED7F7
:1022F000C950E552E552E5CFDAFFE7CFD9FF12002A
:10230000F36AF46AFF0EE124E96EFF0EE220EA6E42
:10231000ED6607D02F0EEF6404D03A0EEF6001D0C7
:04232000F32A12008A
:0C232400000EF36E00EE00F0030E01D876
:102330001200EA6002D0EE6AFCD7F350E9601200A6
:04234000EE6AFCD76E
:0C23440012EE00F022EE00F0F86A019C9E
:1023500039EC0FF0E1EC11F010EC00F0FBD71200BB
:10236000FF0EE350ACBA04D0AF6AAB8EAC8A949C3B
:0C237000ACA2FED7AD6EF36EF46A120052
:04237C00FF0EE3501D
:102380001B6E1B0E00D001D0200EE76EE72EFED78D
:082390001B2EFAD700D0120049
:08239800FF0EE350E84E1200B5
:0E23A000000000D000D000D0E82EFAD71200C6
:0223AE003031CC
:0F23B0003233343536373839616263646566001D
:0223C000120009
:0223C200120007
:0223C400FEFF1A
:020000040030CA
:0100010032CC
:01000200FFFE
:01000300FEFE
:01000600AB4E
:00000001FF
