:020000040000FA
:060000005BEF1BF0120093
:0A0006000100363700006A00000018
:0400100002000000EA
:0C001400D9CFE6FFE1CFD9FFFD0EDB5095
:10002000070802E2FF0E14D0FE0EDBCFE6FF010E42
:10003000F36EFD0EDB5004E0D890F336E806FCE1E9
:10004000F350E552E71402E1000E01D0010E00D09A
:10005000E552E7CFD9FF1200D9CFE6FFE1CFD9FFB4
:10006000FE0EDB5002E18C901BD0FE0EDB0402E1A1
:100070008C9216D0FE0EDB50020802E18C9410D058
:10008000680E146E250E156E166A14C0E6FF15C0B4
:10009000E6FF16C0E6FF6EEC19F0E552E552E552B8
:1000A000010EE66E85EC1BF0E552E552E7CFD9FF75
:1000B0001200D9CFE6FFE1CFD9FFFE0EDB5002E1FF
:1000C0008C801BD0FE0EDB0402E18C8216D0FE0E6B
:1000D000DB50020802E18C8410D0680E146E250EED
:1000E000156E166A14C0E6FF15C0E6FF16C0E6FFDF
:1000F0006EEC19F0E552E552E552010EE66E85EC24
:100100001BF0E552E552E7CFD9FF1200D9CFE6FF49
:10011000E1CFD9FFE652FD0EDBCFE6FF9DDFE552D2
:10012000030EE66E04EC1BF0E552FE0EDBCFE6FF9D
:1001300004EC1BF0E55222EC1BF0DF6E010EE66EC4
:1001400085EC1BF0E552FD0EDBCFE6FFB2DFE5529A
:10015000DF5000D0E552E552E7CFD9FF1200D9CFEA
:10016000E6FFE1CFD9FFFC0EDBCFE6FF75DFE552FE
:10017000020EE66E04EC1BF0E552FE0EDBCFE6FF4E
:1001800004EC1BF0E552FD0EDBCFE6FF04EC1BF0A8
:10019000E552FC0EDBCFE6FF8CDFE55200D0E552E6
:1001A000E7CFD9FF1200D9CFE6FFE1CFD9FFFB0E91
:1001B000DBCFE6FF51DFE552050EE66E04EC1BF0E7
:1001C000E552FE0EDBCFE6FF04EC1BF0E552FD0E20
:1001D000DBCFE6FF04EC1BF0E552FC0EDBCFE6FFC5
:1001E00004EC1BF0E552FB0EDBCFE6FF62DFE552CD
:1001F00000D0E552E7CFD9FF1200D9CFE6FFE1CF1B
:10020000D9FFE652FE0EDBCFE6FFE66AE00EE66EB1
:100210000F0EE66EC8DFE552E552E552E552FE0EDE
:10022000DBCFE6FF0F0EE66E71DFE552E552DF6EC3
:10023000E00EDF141CE0DFCF14F0156A14BE156861
:1002400014C0E6FF15C0E6FF350E166E250E176EBC
:10025000186A16C0E6FF17C0E6FF18C0E6FF6EEC8E
:1002600019F0196E050EE15E195012D011D0150E5D
:10027000146E250E156E166A14C0E6FF15C0E6FF53
:1002800016C0E6FF6EEC19F0E552E552E55200D0DB
:10029000E552E552E7CFD9FF1200D9CFE6FFE1CF13
:1002A000D9FFE652FE0EDBCFE6FF200EE66EE00E33
:1002B000E66E0F0EE66E77DFE552E552E552E55247
:1002C000FE0EDBCFE6FF0F0EE66E20DFE552E552B5
:1002D000DF6EE00EDF1420081CE0DFCF14F0156A9B
:1002E00014BE156814C0E6FF15C0E6FFE10E166ED9
:1002F000240E176E186A16C0E6FF17C0E6FF18C076
:10030000E6FF6EEC19F0196E050EE15E195012D081
:1003100011D0C00E146E240E156E166A14C0E6FFBE
:1003200015C0E6FF16C0E6FF6EEC19F0E552E55287
:10033000E55200D0E552E552E7CFD9FF1200D9CF00
:10034000E6FFE1CFD9FFE652FE0EDBCFE6FF400E1F
:10035000E66EE66E2B0EE66E26DFE552E552E552BE
:10036000E552300EE66E85EC1BF0E552FE0EDBCF5B
:10037000E6FF2B0EE66ECADEE552E552DF6EDFAC1D
:1003800011D09F0E146E240E156E166A14C0E6FF6F
:1003900015C0E6FF16C0E6FF6EEC19F0E552E55217
:1003A000E55210D08C0E146E240E156E166A14C011
:1003B000E6FF15C0E6FF16C0E6FF6EEC19F0E55249
:1003C000E552E55200D0E552E552E7CFD9FF1200E1
:1003D000D9CFE6FFE1CFD9FFE652FE0EDBCFE6FF35
:1003E000600EE66EE00EE66E0F0EE66EDCDEE552A7
:1003F000E552E552E552FE0EDBCFE6FF0F0EE66E4C
:1004000085DEE552E552DF6EE00EDF14600802E1A2
:10041000000E01D0010EFE0EDB501CE0DFCF14F009
:10042000156A14BE156814C0E6FF15C0E6FF590E24
:10043000166E240E176E186A16C0E6FF17C0E6FF88
:1004400018C0E6FF6EEC19F0196E050EE15E19504A
:1004500012D011D0370E146E240E156E166A14C009
:10046000E6FF15C0E6FF16C0E6FF6EEC19F0E55298
:10047000E552E55200D0E552E552E7CFD9FF120030
:10048000D9CFE6FFE1CFD9FF020EE126FE0EDBCF8A
:10049000E6FF800EE66EE00EE66E0F0EE66E83DE81
:1004A000E552E552E552E552FE0EDBCFE6FF0F0EB8
:1004B000E66E2CDEE552E552DF6EE00EDF148008BA
:1004C0001BE0DFCF14F0156A14BE156814C0E6FFF8
:1004D00015C0E6FF060E166E240E176E186A16C0BB
:1004E000E6FF17C0E6FF18C0E6FF6EEC19F0196EC4
:1004F000050EE15E195010D0E40E146E230E156E39
:10050000166A14C0E6FF15C0E6FF16C0E6FF6EECE3
:1005100019F0E552E552E552FE0EDBCFE6FF0E0E76
:10052000E66EF4DDE552E552E76E010EE7CFDBFF44
:10053000010EDBA011D0D80E146E230E156E166AB4
:1005400014C0E6FF15C0E6FF16C0E6FF6EEC19F01A
:10055000E552E552E552ECD7020EE15C02E2E16AB7
:10056000E552E16EE552E7CFD9FF1200D9CFE6FFA1
:10057000E1CFD9FFFE0EDBCFE6FF6EDDE552FE0ECA
:10058000DBCFE6FF080EE66E0F0EE66EE8DDE55205
:10059000E552E552FE0EDBCFE6FF8BDDE552E5527C
:1005A000E7CFD9FF1200D9CFE6FFE1CFD9FF050E83
:1005B000E126FC0EDBCFE9FFFD0EDBCFEAFF010EEB
:1005C000EFCFDBFFE76EFC0EDBCFE9FFFD0EDBCFED
:1005D000EAFFE750E926000EEA22020EEFCFDBFF2A
:1005E000E76EFC0EDBCFE9FFFD0EDBCFEAFFE75045
:1005F000E926000EEA22030EEFCFDBFFE76EFC0ECA
:10060000DBCFE9FFFD0EDBCFEAFFE750E926000E66
:10061000EA22040EEFCFDBFFFE0EDBCFE6FF1CDD90
:10062000E552010EE66E85EC1BF0E552C00EE66E5B
:1006300004EC1BF0E552FE0EDBCFE6FF3ADDE5529F
:10064000300EE66E85EC1BF0E552FE0EDBCFE6FFCA
:1006500003DDE552020EE66E04EC1BF0E552280EB7
:10066000E66E04EC1BF0E552040EDBCFE6FF04EC73
:100670001BF0E552030EDBCFE6FF04EC1BF0E55266
:10068000020EDBCFE6FF04EC1BF0E552010EDBCFE0
:10069000E6FF04EC1BF0E552FE0EDBCFE6FF09DDC2
:1006A000E552FE0EDBCFE6FFE66A0C0EE66E57DD86
:1006B000E552E552E552FE0EDBCFE6FFE66A0D0E8F
:1006C000E66E4DDDE552E552E552FE0EDBCFE6FF6C
:1006D000600EE66EE66E43DDE552E552E552FE0E33
:1006E000DBCFE6FF600EE66E700EE66E38DDE5529B
:1006F000E552E552FE0EDBCFE6FFE66A0F0EE66E30
:100700002EDDE552E552E552FE0EDBCFE6FF2A0E66
:10071000E66EFCDCE552E552DF6E010EE66E77EC2C
:100720001BF0E552020EDB50DF5C14E0C10E146ECC
:10073000230E156E166A14C0E6FF15C0E6FF16C03C
:10074000E6FF6EEC19F0E552E552E552F368F46805
:1007500014D010D0AB0E146E230E156E166A14C092
:10076000E6FF15C0E6FF16C0E6FF6EEC19F0E55295
:10077000E552E552F36AF46A00D0050EE15C02E24C
:10078000E16AE552E16EE552E7CFD9FF1200D9CF19
:10079000E6FFE1CFD9FFE652FD0EDBCFE6FF5CDCE2
:1007A000E552FE0EDBCFE6FF04EC1BF0E55222EC37
:1007B0001BF0DF6E010EE66E85EC1BF0E552FD0EC0
:1007C000DBCFE6FF76DCE552DF5000D0E552E552A4
:1007D000E7CFD9FF1200D9CFE6FFE1CFD9FFFE0E58
:1007E000DBCFE6FF4DDEE552FE0EDBCFE6FF680E07
:1007F000E66E600EE66EB3DCE552E552E552FE0EA3
:10080000DBCFE6FF680EE66E700EE66EA8DCE55202
:10081000E552E552FE0EDBCFE6FFEFDCE55200D0FD
:10082000E552E7CFD9FF1200D9CFE6FFE1CFD9FFDC
:10083000FE0EDBCFE6FF24DEE552FE0EDBCFE6FF49
:10084000690EE66E600EE66E8ADCE552E552E55210
:10085000FE0EDBCFE6FFD1DCE552E552E7CFD9FF54
:100860001200D9CFE6FFE1CFD9FFFC0EDBCFE6FFC8
:10087000DBDFE552FC0EDBCFE6FF02DEE552FC0ECD
:10088000DBCFE6FFFD0EDBCFE9FFFE0EDBCFEAFF9D
:10089000EF50E66E040EE66E62DCE552E552E5527C
:1008A000FC0EDBCFE6FF010EE76EFD0EDBCFE9FFAE
:1008B000FE0EDBCFEAFFE750E926000EEA22EF50FA
:1008C000E66E050EE66E4BDCE552E552E552FC0E97
:1008D000DBCFE6FF92DCE552E552E7CFD9FF12000D
:1008E000D9CFE6FFE1CFD9FF1B0EE126FC0EDBCF0F
:1008F000E6FFB00EE66E4BDFE552E552DF6EFC0E12
:10090000DBCFE6FF52EC09F0E552DFCFE6FFE66A07
:10091000970E146E230E156E166A14C0E6FF15C0EE
:10092000E6FF16C0E6FF6EEC19F0176E050EE15EED
:100930001750060EE66EDFCFE6FF0AEC00F0E55238
:10094000E552000904E0DE52900EDD6E20D0070E65
:10095000E66EDFCFE6FF0AEC00F0E552E552000953
:1009600004E0DE52940EDD6E12D0720E146E230E71
:10097000156E166A14C0E6FF15C0E6FF16C0E6FF46
:100980006EEC19F0E552E552E552000EECD0FC0E8B
:10099000DBCFE6FF2CEC00F0E552010EDBCFE6FFEB
:1009A00004EC1BF0E552050EDB6A060EDB6A22EC56
:1009B0001BF0146E156A030ED89014361536E80431
:1009C000FBE1050E14C0DBFF060E15C0DBFF22ECB9
:1009D0001BF0146E156A050ED89015321432E80417
:1009E000FBE1D950050FE96EDACFEAFF1450EE12A1
:1009F0001550ED12FD0EDBCFE9FFFE0EDBCFEAFF57
:100A0000050EDBCFEEFF060EDBCFEDFF22EC1BF079
:100A1000E76E020EE7CFDBFF22EC1BF0E76E020E63
:100A2000E7CFDBFF22EC1BF0E76E030EE7CFDBFF27
:100A3000FD0EDBCFE9FFFE0EDBCFEAFF030EE9265A
:100A4000000EEA22030EDBCFEFFF040EDB6A030E7B
:100A5000DB50F36E040EDBCFF4FFF350F45C33E2B3
:100A600022EC1BF0E66ED950070F166EDACF17F0A6
:100A7000040EDB500F011624E96E000E1720EA6EFB
:100A8000E552E750EF6EE66EFD0EDBCFE9FFFE0E9E
:100A9000DBCFEAFF050EE926000EEA22E9CF14F0CB
:100AA000EACF15F0040EDB501424E96E000E152079
:100AB000EA6EE552E750EF6E040EDB28E76E040E97
:100AC000E7CFDBFFC4D7FC0EDBCFE6FF59EC00F02D
:100AD000E552060EE66EDFCFE6FF0AEC00F0E552C7
:100AE000E55200091FE0FC0EDBCFE6FFE66A010ECF
:100AF000E66E2C0EE66ED3EC00F0E552E552E552C0
:100B0000E552690E146E230E156E166A14C0E6FFC8
:100B100015C0E6FF16C0E6FF6EEC19F0E552E5528F
:100B2000E5521ED0FC0EDBCFE6FFE66A020EE66E53
:100B30002C0EE66ED3EC00F0E552E552E552E5529C
:100B4000600E146E230E156E166A14C0E6FF15C0F3
:100B5000E6FF16C0E6FF6EEC19F0E552E552E552ED
:100B6000010EDB5000D0146E1B0EE15C02E2E16A64
:100B7000E552E16E1450E552E7CFD9FF1200D9CF0C
:100B8000E6FFE1CFD9FF060EE126010EDB6AFC0E7F
:100B9000DB501AE0FC0EDB0417E0FC0EDB50020811
:100BA00013E02B0E146E230E156E166A14C0E6FFAA
:100BB00015C0E6FF16C0E6FF6EEC19F0E552E552EF
:100BC000E552FF0E99D129D0FC0EDB50020806E158
:100BD000040EF36EFC0EF3CFDBFF1FD0FC0EDB0424
:100BE00006E1020EF36EFC0EF3CFDBFF16D0FC0E17
:100BF000DB5003E1FC0EDB6A10D0E20E146E220E15
:100C0000156E166A14C0E6FF15C0E6FF16C0E6FFB3
:100C10006EEC19F0E552E552E552FD0EDBCFE9FF2F
:100C2000FE0EDBCFEAFFE9CF14F0EACF15F0040E99
:100C300014C0DBFF050E15C0DBFF040EDBCFE9FFA0
:100C4000050EDBCFEAFFEF50200D020EF3CFDBFFE6
:100C5000010EE76E040EDBCFE9FF050EDBCFEAFFE6
:100C6000E750E926000EEA22EF50200DF3CF14F0F2
:100C7000040EDBCFE9FF050EDBCFEAFFEF50E840C3
:100C8000E840E8401F0B1410E76E030EE7CFDBFFD0
:100C9000FD0EDBCFE9FFFE0EDBCFEAFF030EE926F8
:100CA000000EEA22EF50E66EE66AFD0EDBCFE9FFAA
:100CB000FE0EDBCFEAFFEECFE6FFEFCFE6FFFD0E45
:100CC000DBCFE9FFFE0EDBCFEAFFEECFE6FFEFCF93
:100CD000E6FFB80E146E220E156E166A14C0E6FFFB
:100CE00015C0E6FF16C0E6FF6EEC19F0176E090E90
:100CF000E15E1750FB0EDBCFE6FF2CEC00F0E55277
:100D0000FC0EDB504009E66E04EC1BF0E552030ECE
:100D1000DBCFE6FF04EC1BF0E552020EDBCFE6FF73
:100D200004EC1BF0E552E66A04EC1BF0E552E66ABF
:100D300004EC1BF0E552FD0EDBCFE9FFFE0EDBCF2E
:100D4000EAFF030EE926000EEA22EF500F0BDF6EDA
:100D5000FD0EDBCFE9FFFE0EDBCFEAFF040EE92636
:100D6000000EEA22EF5017E0400EDF10E66E04ECB2
:100D70001BF0E552AD0E146E220E156E166A14C0ED
:100D8000E6FF15C0E6FF16C0E6FF6EEC19F0E5526F
:100D9000E552E55287D0DFCFE6FF04EC1BF0E552C9
:100DA000A20E146E220E156E166A14C0E6FF15C050
:100DB000E6FF16C0E6FF6EEC19F0E552E552E5528B
:100DC000900E146E220E156E166A14C0E6FF15C042
:100DD000E6FF16C0E6FF6EEC19F0E552E552E5526B
:100DE000010EDB6ADF50F36E010EDBCFF4FFF35030
:100DF000F45C48E2FD0EDBCFE9FFFE0EDBCFEAFF3D
:100E0000050EE926000EEA22E9CF14F0EACF15F02C
:100E1000010EDB500F011424E96E000E1520EA6E5E
:100E2000EF50E66EE66A8B0E166E220E176E186A8B
:100E300016C0E6FF17C0E6FF18C0E6FF6EEC19F01B
:100E4000196E050EE15E1950FD0EDBCFE9FFFE0EB7
:100E5000DBCFEAFF050EE926000EEA22E9CF14F007
:100E6000EACF15F0010EDB500F011424E96E000EDD
:100E70001520EA6EEF50E66E04EC1BF0E552010E11
:100E8000DB2AB0D7890E146E220E156E166A14C0B6
:100E9000E6FF15C0E6FF16C0E6FF6EEC19F0E5525E
:100EA000E552E552FB0EDBCFE6FF59EC00F0E552D0
:100EB000300EE66E85EC1BF0E552FB0EDBCFE6FF55
:100EC0002CEC00F0E552FC0EDB5002E1010E02D0EA
:100ED000FC0EDB50E76EFC0EE7CFDBFFDB5080093A
:100EE000E66E04EC1BF0E552FB0EDBCFE6FF59EC9F
:100EF00000F0E552010E00D0146E060EE15C02E235
:100F0000E16AE552E16E1450E552E7CFD9FF1200D5
:100F1000D9CFE6FFE1CFD9FF060EE126010EDB6A4D
:100F2000FC0EDB501AE0FC0EDB0417E0FC0EDB507D
:100F3000020813E02B0E146E230E156E166A14C0F1
:100F4000E6FF15C0E6FF16C0E6FF6EEC19F0E552AD
:100F5000E552E552FF0E9AD129D0FC0EDB50020873
:100F600006E1040EF36EFC0EF3CFDBFF1FD0FC0E88
:100F7000DB0406E1020EF36EFC0EF3CFDBFF16D0AE
:100F8000FC0EDB5003E1FC0EDB6A10D0E20E146EA7
:100F9000220E156E166A14C0E6FF15C0E6FF16C0D5
:100FA000E6FF6EEC19F0E552E552E552FD0EDBCF9F
:100FB000E9FFFE0EDBCFEAFFE9CF14F0EACF15F030
:100FC000040E14C0DBFF050E15C0DBFF040EDBCFE3
:100FD000E9FF050EDBCFEAFFEF50200D020EF3CF45
:100FE000DBFF010EE76E040EDBCFE9FF050EDBCF62
:100FF000EAFFE750E926000EEA22EF50200DF3CF7A
:1010000014F0040EDBCFE9FF050EDBCFEAFFEF5053
:10101000E840E840E8401F0B1410E76E030EE7CFEE
:10102000DBFFFD0EDBCFE9FFFE0EDBCFEAFF030E99
:10103000E926000EEA22EF50E66EE66AFD0EDBCFEF
:10104000E9FFFE0EDBCFEAFFEECFE6FFEFCFE6FFD4
:10105000FD0EDBCFE9FFFE0EDBCFEAFFEECFE6FFB2
:10106000EFCFE6FFB80E146E220E156E166A14C08E
:10107000E6FF15C0E6FF16C0E6FF6EEC19F0176E2E
:10108000090EE15E1750FB0EDBCFE6FF2CEC00F003
:10109000E552FC0EDB504009E66E04EC1BF0E55215
:1010A000030EDBCFE6FF04EC1BF0E552020EDB5033
:1010B0000809E66E04EC1BF0E552E66A04EC1BF04E
:1010C000E552E66A04EC1BF0E552FD0EDBCFE9FFCA
:1010D000FE0EDBCFEAFF030EE926000EEA22EF50F8
:1010E0000F0BDF6EFD0EDBCFE9FFFE0EDBCFEAFF5D
:1010F000040EE926000EEA22EF5017E0400EDF1042
:10110000E66E04EC1BF0E552AD0E146E220E156E69
:10111000166A14C0E6FF15C0E6FF16C0E6FF6EECC7
:1011200019F0E552E552E55287D0DFCFE6FF04EC37
:101130001BF0E552A20E146E220E156E166A14C034
:10114000E6FF15C0E6FF16C0E6FF6EEC19F0E552AB
:10115000E552E552900E146E220E156E166A14C0FA
:10116000E6FF15C0E6FF16C0E6FF6EEC19F0E5528B
:10117000E552E552010EDB6ADF50F36E010EDBCF64
:10118000F4FFF350F45C48E2FD0EDBCFE9FFFE0E06
:10119000DBCFEAFF050EE926000EEA22E9CF14F0C4
:1011A000EACF15F0010EDB500F011424E96E000E9A
:1011B0001520EA6EEF50E66EE66A8B0E166E220E72
:1011C000176E186A16C0E6FF17C0E6FF18C0E6FFE4
:1011D0006EEC19F0196E050EE15E1950FD0EDBCFB5
:1011E000E9FFFE0EDBCFEAFF050EE926000EEA223C
:1011F000E9CF14F0EACF15F0010EDB500F011424F3
:10120000E96E000E1520EA6EEF50E66E04EC1BF05E
:10121000E552010EDB2AB0D7890E146E220E156E30
:10122000166A14C0E6FF15C0E6FF16C0E6FF6EECB6
:1012300019F0E552E552E552FB0EDBCFE6FF59EC23
:1012400000F0E552300EE66E85EC1BF0E552FB0E29
:10125000DBCFE6FF2CEC00F0E552FC0EDB5002E1A8
:10126000010E02D0FC0EDB50E76EFC0EE7CFDBFF79
:10127000DB508009E66E04EC1BF0E552FB0EDBCF81
:10128000E6FF59EC00F0E552010E00D0146E060E98
:10129000E15C02E2E16AE552E16E1450E552E7CF0B
:1012A000D9FF1200D9CFE6FFE1CFD9FF030EE12627
:1012B000FE0EDBCFE6FF1D0EE66E86EC00F0E5527B
:1012C000E552DF6EFE0EDBCFE6FF1C0EE66E86EC0F
:1012D00000F0E552E552E76E010EE7CFDBFFFE0EB0
:1012E000DBCFE6FF2D0EE66E86EC00F0E552E55210
:1012F000E76E020EE7CFDBFF010EDBCFE6FFE66A0B
:10130000DFCFE6FFE66A580E146E220E156E166ADF
:1013100014C0E6FF15C0E6FF16C0E6FF6EEC19F03C
:10132000176E070EE15E1750020EDBCFE6FFE66A8E
:10133000400E146E220E156E166A14C0E6FF15C01C
:10134000E6FF16C0E6FF6EEC19F0176E050EE15EC3
:101350001750030EE15C03E200D0E16AE552E16E52
:10136000E552E7CFD9FF1200D9CFE6FFE1CFD9FF91
:10137000020EE126DF6A010EDB6ADF50146E156A89
:10138000D890155004E6FE0E145C000E155813E2BA
:10139000010EDB50146E156AD890155004E6FE0E4F
:1013A000145C000E155803E2010EDB2AF1D7010E82
:1013B000DB6ADF2AE2D7020EE15C02E2E16AE55273
:1013C000E16EE552E7CFD9FF1200D9CFE6FFE1CFBA
:1013D000D9FFFD0EDBCFE9FFFE0EDBCFEAFF030EE8
:1013E000EF6E010EE76EFD0EDBCFE9FFFE0EDBCFE9
:1013F000EAFFE750E926000EEA22440EEF6E020EE5
:10140000E76EFD0EDBCFE9FFFE0EDBCFEAFFE75014
:10141000E926000EEA22F10EEF6E030EE76EFD0ED6
:10142000DBCFE9FFFE0EDBCFEAFFE750E926000E37
:10143000EA22050EEF6EE552E7CFD9FF1200D9CFB1
:10144000E6FFE1CFD9FFFD0EDBCFE9FFFE0EDBCFDC
:10145000EAFF030EEF6E010EE76EFD0EDBCFE9FF34
:10146000FE0EDBCFEAFFE750E926000EEA22800EEF
:10147000EF6E020EE76EFD0EDBCFE9FFFE0EDBCF57
:10148000EAFFE750E926000EEA229A0EEF6E030EFD
:10149000E76EFD0EDBCFE9FFFE0EDBCFEAFFE75084
:1014A000E926000EEA22010EEF6EE552E7CFD9FFE2
:1014B0001200956A020EB66E966AE66A59EC00F062
:1014C000E552010EE66E59EC00F0E552020EE66EB2
:0A14D00059EC00F0E55200D01200C4
:0614DA00A9EC0FF0FB0E6F
:1014E000DBCFF3FFDB06F35000090AE0F7EC0FF067
:1014F000FA0E62EC10F0F3E1151CF1E1010E01D0DF
:10150000000ED8EF0FF0A9EC0FF03B0EE12402E340
:10151000E168E652E16E010EDB6A020EDB6AF90E4B
:10152000DBCFF6FFFA0EDBCFF7FFFB0EDBCFF8FFCA
:101530000800F550DF6EDF5002E1FCEF0EF0250EE3
:10154000DF5C02E0EFEF0EF0030EDB6A040EDB6AF5
:10155000050EDB6A060EDB6A070EDB6A11EC0FF084
:101560002D0EDF5C0CE02B0EDF5C09E0200EDF5C53
:1015700006E0230EDF5C03E0300EDF5C1AE1DF5093
:10158000300A14E0130A0FE0030A0AE00B0A05E030
:10159000060AE4E1030EDB80E1D7030EDB82DED72F
:1015A000030EDB84DBD7030EDB86D8D7030EDB8884
:1015B000D5D72A0EDF5C1BE10DEC0FF05BEC0FF0D2
:1015C00010E0030EDB8006680768130EDBCF0BF01C
:1015D000140EDBCF0CF0AEEC16F0040E04C0DBFFF3
:1015E00003D0130E44EC0FF011EC0FF00BD0090EEA
:1015F000DB6AB2EC0FF003E026EC10F0FAD7090E2C
:1016000044EC0FF0030EDBB0DB982E0EDF5C1BE129
:1016100011EC0FF02A0EDF5C0BE10DEC0FF05BEC30
:101620000FF003E1130E96EC0FF011EC0FF00BD05E
:10163000090EDB6AB2EC0FF003E026EC10F0FAD7EB
:10164000090E96EC0FF0680EDF5C07E111EC0FF06D
:10165000680EDF5C1DE1030E18D0740EDF5C17E02E
:101660007A0EDF5C14E0480EDF5C06E0540EDF5CAF
:1016700003E05A0EDF5C02E1020E07D06C0EDF5C65
:1016800003E06A0EDF5C04E1010EE9EC0FF0C9DB58
:10169000DF506E0A01E17FD31E0A01E192D1200AD8
:1016A00001E18FD13F0A01E149D11A0A01E146D196
:1016B0000D0A01E143D1200A01E140D13A0A01E1DA
:1016C0003DD1200A01E13AD1260A01E135D10D0AC6
:1016D00001E132D11A0A01E1D9D0200A4AE0300AE8
:1016E0001FE0460A0EE0250A01E083D3D950F90F26
:1016F000E96EFF0EDA20EA6E010EEE5E000EEE5A83
:10170000EE5AF7EC0FF0250EE66E95DB03E1151CA3
:1017100001E169D3F3EC0FF001E26BD3DB2A69D36B
:10172000080EDB6A040EDB50010806E2040EDB043F
:10173000BBEC0FF0DB508BDB080EDB5009E0030E37
:10174000DB50010B05E172DB01E04DD3080EDB6AD3
:1017500064DBEFCFDFFF6BEC10F003E1151C01E160
:1017600042D3F3EC0FF001E3DB2A60DB01E141D36C
:101770003AD3070EDB5002080FE137EC10F0030EEE
:10178000FEEC0FF00E0EEECFDBFF0F0EEECFDBFF09
:10179000100EEECFDBFF20D0F70EDBCF17F0F80EE8
:1017A000DBCF18F0020E175E000E185AF70E17C0A6
:1017B000DBFFF80E18C0DBFF17C0E9FF18C0EAFF17
:1017C000EEEC0FF0166A0E0E14C0DBFF0F0E15C004
:1017D000DBFF100E16C0DBFF0E0EDBCFE6FF0F0E99
:1017E000DBCFE6FF100EDBCFE6FFBBEC1AF0E552D5
:1017F000E552E552130E05C0DBFF140E06C0DBFFF9
:10180000060EDB5005E0130E32EC10F001E26ADB4D
:1018100056EC10F002E2130E37DB19EC10F006E084
:10182000040E32EC10F002E2050E2EDB030EDBB0EC
:1018300005D0FCDA01E0D7D2080EDB6A090EDB6ABC
:101840000E0EDBCFF6FF0F0EDBCFF7FF100EDBCF58
:10185000F8FF0800F550DF6EDF5014E05CEC10F08C
:1018600011E26BEC10F003E1151C01E1BCD2BBDB13
:1018700001E3DB2A090EDB2AD9500E0FE96E000EB8
:10188000CBDBE7D7D3DA01E1B4D2ADD2C6DA110EA1
:10189000EECFDBFF120EEDCFDBFF110EDBCFE6FF4D
:1018A000120EDBCFE6FFADEC1AF0E552E552130E57
:1018B000F3CFDBFF140EF4CFDBFF060EDB5004E0AA
:1018C000130ED0DB01E20EDB56EC10F002E2130E39
:1018D000DBDAAFDB05E0040EC5DB02E2050ED4DA8D
:1018E000030EDBB005D0A2DA01E07DD2080EDB6A80
:1018F000090EDB6A110EDBCFE9FF120EDBCFEAFF28
:10190000EFCFDFFFDF5014E0D7DB12E2E4DB03E1CF
:10191000151C01E168D267DB01E3DB2A090EDB2A33
:10192000110EDB2ADBCFE9FF120EE8E3DB2AE6D754
:101930007DDA01E15ED257D2030EDB8E070EDB04A7
:1019400010E195DB040E5ADB0A0EEECFDBFF0B0E27
:10195000EECFDBFF0C0EEECFDBFF0D0EEECFDBFF8D
:101960006CD0070EDB5003082CE1030EDBAE0DD06C
:10197000B2DA020E76DAEFCF14F0156A166A176A39
:1019800014AE39D01568166835D0F70EDBCF15F0D8
:10199000F80EDBCF16F0020E155E000E165AF70E8B
:1019A00015C0DBFFF80E16C0DBFF15C0E9FF16C03F
:1019B000EAFFEFCF14F00A0E14C0DBFF0B0EDB6A58
:1019C00038D0070EDB50020809E1030EDBAE04D06D
:1019D00059DB16AE10D00ED055DB0DD0030EDBAEAA
:1019E00012D079DA020E3DDAF9DA166A176A15AE04
:1019F00002D016681768E2DA0C0E16C0DBFF0D0E77
:101A000017C0DBFF1AD0F70EDBCF16F0F80EDBCFD6
:101A100017F0020E165E000E175AF70E16C0DBFF07
:101A2000F80E17C0DBFF16C0E9FF17C0EAFFD6DAD1
:101A3000C5DA0C0EDB6A0D0EDB6A060EDB5005E123
:101A4000010EF36E050EF3CFDBFF150EDB6A160EEB
:101A5000DB6AD950370F146E000EDA20156E390E7E
:101A600014C0DBFF3A0E15C0DBFF380EDB6A080E30
:101A7000DB6A0A0EAEDADF50780A12E0200A10E0C4
:101A8000280A0CE0200A0AE03F0A06E00D0A02E0FC
:101A9000200A08E1020E05D0080E03D0080EDF264A
:101AA000100E97DA030EDBBE02D0DB92DB94DB5024
:101AB000800B24E08ADAD890030EEB50000A08E687
:101AC000000EEE5C000EEE58000EEE58000EEE58C2
:101AD00015E213DA09680A680B680C6841EC1AF021
:101AE0000A0E00C0DBFF0B0E01C0DBFF0C0E02C0B4
:101AF000DBFF0D0E03C0DBFF2D0E08D0030EDBA2B3
:101B000002D02B0E03D0DBA408D0200EF36E170EEC
:101B1000F3CFDBFF150EDB2A02D0170EDB6A050EB2
:101B2000DB5003E1B7D901E189D0200E146E370EE6
:101B3000156E000E166E070EDBCF17F0186A196AC5
:101B40001A6A17C009F018C00AF019C00BF01AC0C1
:101B50000CF0D3D9E0EC1AF014500024F36E1550B9
:101B60000120F46E16500220F86EF4CFF7FFF3CF89
:101B7000F6FF0800090EF5CFDBFF580EDF5C0FE122
:101B8000610EF36E090E7BD90AE3200E146E090E66
:101B9000DBCFE7FF1450E75E090EE7CFDBFF070E50
:101BA000DBCF14F0156A166A176A0FDA14C009F051
:101BB00015C00AF016C00BF017C00CF0EECF04F001
:101BC000EECF05F0EECF06F0EFCF07F0E0EC1AF025
:101BD00007C0EDFF06C0EDFF05C0EDFF04C0EFFF3D
:101BE000390EDBCFE9FFDB063A0EDBCFEAFF01E27D
:101BF000DB06090EDBCFEFFF150EDB2A4BD995E193
:101C0000030EDBA61DD06F0EDF5C06E1C1D918E321
:101C1000150EDB285BDA14D0780EDF5C09E0580E75
:101C2000DF5C06E0620EDF5C03E0420EDF5C08E191
:101C3000020EF36E160EF3CFDBFF02D0150EDB6A39
:101C4000030EDB50100B0EE0040EDBCF14F0050E7C
:101C5000DB50D880145406E2060EDB5003E1040E7C
:101C6000DB5034DA95D90AE2050EDBCFE7FF150E1B
:101C7000DB50E75E050EE7CFDBFF02D0050EDB6A27
:101C8000040EDBCF14F0160E45D9D880145414E29C
:101C9000160EDBCFE6FF150EDBCFE6FF040EDBCF23
:101CA000E6FF050EDB50E552E75CE552D880E754CD
:101CB000E552D880E7545FD9030EDB50010B0BE1EE
:101CC000080EDB5008E0B2D801E08DD0080EDB50E2
:101CD000BED8080EDB6A170EDB5007E088D9170E56
:101CE000F1D903E1151C01E17ED0160EDB5016E0A0
:101CF0007ED9300EE66E9FD802E1151C74E077D9CC
:101D0000DFCFE6FFFFEC19F0E552E552E552F4CFE4
:101D100015F00001F31C02E1151C65E0050EDBCF98
:101D200014F0160EDB50D880145409E2050EDBCFF8
:101D3000E7FF160EDB50E75E050EE7CFDBFF300E48
:101D4000E66E050ECBD94FE1390EDB2ADBCFE9FF7A
:101D50003A0E01E3DB2ADBCFEAFF090EEFCFDBFF10
:101D6000DB500EE044D9090EADD902E1151C3BE071
:101D7000390EDB2ADBCFE9FF3A0EEDE3DB2AEBD7A6
:101D800055D831E1160EDBCFE6FF080EC3D8E55279
:101D9000E7245DD82ED0070EDB50030A1CE0010AB1
:101DA00014E0030A07E07BD9DBCFEEFF020EDBCFA6
:101DB000EDFF1FD0F5D8196A17AE02D01868196860
:101DC0002CD8BCD819C0EEFF14D0EAD817BE1868BA
:101DD00024D8B4D80ED063D9DBCFEFFF0AD07BD99B
:101DE00005E1151C03E1F368F46810D0FCD801E3A9
:101DF000DB2A79D998EF0AF0010EDBCF14F0020E3E
:101E0000DBCF15F014C0F3FF15C0F4FF3B0EE15C0F
:101E100002E2E16AE552E16ECBD029D9020EFEEF73
:101E20000FF061D90800F550DF6E1200200EE66E4B
:101E3000080E6EEF10F0FFEC19F0E552E552E55296
:101E4000F3CF14F0F4CF15F00001F31C1200146E60
:101E5000156AD950010F4DD91450EE261550ED22B8
:101E60001200185E000E195AF70E18C0DBFFF80EAC
:101E700019C0DBFF18C0E9FF19C0EAFF1200DBCF71
:101E8000F4FFF350F45C1200DB50E76E040EE7CF72
:101E9000DBFF12000A0EDBCF14F00B0EDBCF15F0C8
:101EA0000C0EDBCF16F00D0EDBCF17F01450151013
:101EB000161017101200130EEECFDBFF140EEDCF2D
:101EC000DBFF130EDBCF14F0140EDBCF15F0000197
:101ED000800E15141200F70EDBCF18F0F80EDBCFD2
:101EE00019F01200050EDB50E66ED950130F01D920
:101EF000E552E750EE6EED6A12000A0EDBCF04F0F9
:101F00000B0EDBCF05F00C0EDBCF06F00D0EDBCF9A
:101F100007F01200DBCFE6FF150EDBCFE6FF050E64
:101F2000DB50E552E724E552E7241200DB50CED81F
:101F3000010EF36E060EF3CFDBFF1200EE50EFCF73
:101F4000EAFFE96E16C0EEFF17C0EEFF18C0EEFF05
:101F50001200D9CFE6FFDACFE6FFE1CFD9FFE2CF1B
:101F6000DAFF1200DFCFE6FFE66A39EC1BF0E5523C
:101F7000E552F3501200E76E080EE7CFDBFF1200C8
:101F8000EECF14F0EECF15F0EFCF16F0176A120077
:101F9000050EDBCF14F0150EDB50D8801454120060
:101FA000010EDBCF16F0020EDBCF17F0186A12001D
:101FB000E552E5CFDAFFE7CFD9FF12000A0E14C0D1
:101FC000DBFF0B0E15C0DBFF1200D9500A0F79EFB3
:101FD00010F0F36E070EF3CFDBFF1200EECF14F01C
:101FE000EFCF15F01200010EDB2A020E1200FC0EDC
:101FF000DBCFE6FFFD0EDBCFE6FF1200145E000E26
:10200000155AF70E14C0DBFFF80E15C0DBFF14C025
:10201000E9FF15C0EAFF1200DA20EA6EEF2AEECFE0
:10202000F6FF000EEF22EECFF7FFEF22EECFF8FF24
:102030001200040EDBCFE6FF130EDB50E552E75C27
:102040009ADFDB5004DF060EDB501200090EDB5076
:102050000A0DF350DF24D00FE76E090EE7CFDBFF48
:1020600011EF0FF0DB50F36E050E3FEF0FF0F70EA0
:10207000DBCF14F0F80EDBCF15F01200DFCFE6FF58
:102080001BEF0FF028DF030EECDEC0EF0FF06DEC5E
:102090000AF0E552E552E552E55200091200BDDEB4
:1020A000EE50EFCFEAFFE96E010E1200130EDB5087
:1020B000F36E040E3FEF0FF0040EDB50F36E090ECB
:1020C0003FEF0FF0DBCFE6FF1BEF0FF0E76E050EE3
:1020D000E7CFDBFF12008BDF3EEF10F0DBCFE6FF38
:1020E00086DF47EF10F0D950F90FE96EFF0E0CEFC5
:0C20F00010F0E96E000EDA20EA6E12001B
:0420FC000D204D4F17
:10210000544F5220434F4E524F4C4C4552200A00E0
:102110000D2020546865206461746120617420255D
:1021200069202069732020257820200A000D54683A
:10213000652061646472657373206973202578205B
:102140000A000D2073696D706C6520626974206FE0
:102150007065726174696F6E7320776F726B207235
:1021600069676874200A000D204572726F72202D15
:1021700073696D706C652062697420736869667438
:10218000206661696C73200A000D4D4F544F522038
:10219000434F4E54524F4C4C45522E205061737356
:1021A00020696E6974204D435020323531350A0064
:1021B0000D204D4F544F5220434F4E54524F4C4CD4
:1021C00045522E20204661696C657220746F20692B
:1021D0006E6974204D435020323531352C207265A4
:1021E000736574696E67200A000D4D5050542E209F
:1021F0005061737320696E6974204D4350203235ED
:1022000031350A000D4D5050542E204661696C65E1
:102210007220746F20696E6974204D4350203235EE
:1022200031352C207265736574696E67200A000A67
:102230000D2053657269616C204F70656E200A0035
:102240000D546865206572726F7220627974652022
:102250002D3E202562200A000D20746865207265DD
:10226000635F6572726F7220697320256920616EE9
:10227000642074686520746563206572726F7220D3
:10228000697320256920200A000A005B25785D001B
:102290000D207772697474696E67206461746120BF
:1022A0000A000D727472203D3D20300A000D7274D8
:1022B0007220213D20300A000D74657374696E67C9
:1022C0002069642025782C20616E64202562206DB1
:1022D000657373616765206C656E67746820256936
:1022E0000A000D736F6D657468696E6720686173AD
:1022F00020676F6E652077726F6E6720696E20743D
:1023000068652072656769737465722073656C65B2
:102310006374696F6E2070617274206163706563AD
:1023200074206F66205258202F6E000D2052656772
:10233000697374657220736C656374696F6E206E67
:102340006F742056616C6964202D4C6F6164206D40
:10235000657373616765206661696C6564200A0056
:102360000D206D6F6420320A000D206D6F643120E6
:102370000A000D5468657265206973206E6F206DC8
:1023800065737361676520696E2074686520627586
:1023900066666572200A000D2052585F737461747E
:1023A0007573202D3E202562200A000D496E697448
:1023B0002054696D696E6720697320736574200A03
:1023C000000D20536F6D655468696E672066756BEC
:1023D0006564207570200A000D2077616974696E4C
:1023E00067200A000D207374617475732077617320
:1023F0002073657420746F20636F6E666967206D4B
:102400006F6465200A000D204572726F7220696E3C
:102410002073657474696E6720746F20636F6E66D5
:102420006967206D6F64652043414E5354415420C9
:102430003D202562200A000D20737461747573209D
:102440007761732073657420746F206C6973746591
:102450006E206D6F6465200A000D204572726F72E8
:1024600020696E2073657474696E6720746F206CC8
:10247000697374656E206D6F646520202043414E42
:1024800053544154203D202562200A000D205761FD
:102490006B65207570206661696C6564200A000DAB
:1024A0002073746174757320776173207365742071
:1024B000746F204177616B65206D6F6465200A0041
:1024C0000D20737461747573207761732073657464
:1024D00020746F20736C656570206D6F6465200AD1
:1024E000000D204572726F7220696E2073657474DE
:1024F000696E6720746F20536C656570206D6F6422
:10250000652020202043414E53544154203D20203B
:102510002562200A000D73746174757320776173EE
:102520002073657420746F206E6F726D616C206D06
:102530006F64650A000D204572726F7220696E200B
:1025400073657474696E6720746F206E6F726D614D
:102550006C206D6F646520202043414E53544154DC
:10256000203D202562200A000A0D696E76616C69A3
:102570006465205350492064657669636520746FF3
:1025800020616374697661746520287768617420BE
:10259000746865206675636B2061726520796F755C
:1025A00020646F696E673F29000A0D7468652053C7
:1025B00070656564206973206973202569202C612A
:1025C0006E64207468652063757272656E7420692C
:1025D00073202569200A000A0D696E0A000A0D772A
:0725E0006F772025780A0047
:0825E800D9CFE6FFE1CFD9FFD6
:1025F000400EE126470EE66EE66A3C0EE66EBAEC49
:1026000019F0E552E552E5522F0E146E220E156EAA
:10261000166A14C0E6FF15C0E6FF16C0E6FF6EECB2
:1026200019F0E552E552E552800EE66EE66A010EBB
:10263000E66E79EC1AF0E552E552E552010EF36EC2
:10264000100EF3CFDBFF020EF36E110EF3CFDBFFA4
:1026500059EC0AF0D950120FE66E000EDA20E66E41
:10266000E5EC09F0E552E552D950120FE66E000E86
:10267000DA20E66E100EDBCFE6FFD3EC02F0E55277
:10268000E552E552F3CFDEFFF4CFDDFFD9CFE9FF0E
:10269000DACFEAFFEE50ED1023E0040E146E220EA6
:1026A000156E166A14C0E6FF15C0E6FF16C0E6FFF9
:1026B0006EEC19F0E552E552E552D950120FE66E74
:1026C000000EDA20E66E100EDBCFE6FFD3EC02F050
:1026D000E552E552E552F3CFDEFFF4CFDDFFD6D76A
:1026E000100EDBCFE6FFFDEC00F0E552E90E146EB4
:1026F000210E156E166A14C0E6FF15C0E6FF16C05F
:10270000E6FF6EEC19F0E552E552E552B4EC09F043
:10271000D950160FE66E000EDA20E66E1FEC0AF0B6
:10272000E552E552D950160FE66E000EDA20E66E3D
:10273000110EDBCFE6FFD3EC02F0E552E552E55295
:10274000F3CFDEFFF4CFDDFFD9CFE9FFDACFEAFF29
:10275000EE50ED1023E0B00E146E210E156E166AC9
:1027600014C0E6FF15C0E6FF16C0E6FF6EEC19F0D8
:10277000E552E552E552D950160FE66E000EDA200A
:10278000E66E110EDBCFE6FFD3EC02F0E552E55228
:10279000E552F3CFDEFFF4CFDDFFD6D7110EDBCF4E
:1027A000E6FFFDEC00F0E552890E146E210E156E69
:1027B000166A14C0E6FF15C0E6FF16C0E6FF6EEC11
:1027C00019F0E552E552E552B4EC09F0060EE66E5A
:1027D000BF0EE66E0AEC00F0E552E552000911E08A
:1027E000670E146E210E156E166A14C0E6FF15C032
:1027F000E6FF16C0E6FF6EEC19F0E552E552E55231
:1028000010D0420E146E210E156E166A14C0E6FF2B
:1028100015C0E6FF16C0E6FF6EEC19F0E552E55272
:10282000E5523D0EDB6A3E0EDB6A110EF36E220EA0
:10283000F3CFDBFF070EF36E230EF3CFDBFF250E86
:10284000DB6A260EDB6A100EDBCFE6FF020EE66EB9
:10285000D950220FE66E000EDA20E66EBFEC05F0CE
:10286000E552E552E552E552110EDBCFE6FFD950B5
:10287000220FE66E000EDA20E66E31EC04F0E5522F
:10288000E552E552300EE66E85EC1BF0E552100E77
:10289000DBCFE6FFD9502F0FE66E000EDA20E66E92
:1028A00070EC04F0E552E552E55200096EE02F0E9F
:1028B000DBCFE6FF300EDBCFE6FF2D0E146E210ED0
:1028C000156E166A14C0E6FF15C0E6FF16C0E6FFD7
:1028D0006EEC19F0176E050EE15E1750320EDB50EC
:1028E000F36E3E0EDBCFF4FFF350F45C2BE2D950D5
:1028F000340F146EDACF15F03E0EDB500F011424A6
:10290000E96E000E1520EA6E3F0EEFCFDBFFDBCF46
:10291000E6FFE66A3E0EDBCFE6FFE66A100E146EB7
:10292000210E156E166A14C0E6FF15C0E6FF16C02C
:10293000E6FF6EEC19F0176E070EE15E17503E0EC3
:10294000DB2ACCD7D9501A0FE96EDACFEAFFEECFE7
:10295000E6FFEECFE6FFEECFE6FFEECFE6FFEECFEF
:10296000E6FFEECFE6FFEECFE6FFEECFE6FFD95073
:10297000340FE66E000EDA20E66EDBEC16F0146E15
:102980000A0EE15E1450B4EC09F03D0EDB6A300E25
:10299000E66E85EC1BF0E552110EDBCFE6FFD95059
:1029A0002F0FE66E000EDA20E66E70EC04F0E552B2
:1029B000E552E55200093CE0FC0E146E200E156E47
:1029C000166A14C0E6FF15C0E6FF16C0E6FF6EECFF
:1029D00019F0E552E552E552D9501A0FE96EDACFF7
:1029E000EAFFEECFE6FFEECFE6FFEECFE6FFEECF5B
:1029F000E6FFEECFE6FFEECFE6FFEECFE6FFEECF4F
:102A0000E6FF2F0EDBCFE6FF300EDBCFE6FFD9501F
:102A1000340FE66E000EDA20E66E2FEC18F0146E1E
:102A20000C0EE15E14503D0EF3CFDBFFB4EC09F069
:102A3000F8D604D6400EE15C02E2E16AE552E16EAE
:082A4000E552E7CFD9FF1200B7
:082A48000F9E08D00F9E07AE9F
:102A500005D0066C071EE86A07220F8E07C001F03A
:102A600006C000F0136A126A8E0E026E036A44EF0B
:102A700016F00F6A80EC16F098EC16F00FB628EFFF
:102A800016F00FA205D00FBA28EF16F02FEF16F0B0
:102A90000FBA3BEF16F00FA005D00FB828EF16F0D5
:102AA0003BEF16F00FB82FEF16F0036A7F0E0824E5
:102AB000026EE86A03220D50025EE86A035A1A0E9B
:102AC000106E086A126A136A006A016A0A50055E8B
:102AD0000B50065A0C50075A000E085A09E70A50C4
:102AE00005260B5006220C500722000E082201D0AA
:102AF000128AD8900536063607360836D890123630
:102B0000133600360136102EE1D707500610051097
:102B1000D8A4128A44EF16F00F6A80EC16F098ECF5
:102B200016F00FB628EF16F00FA205D00FB828EF59
:102B300016F02FEF16F00FAA05D00FB028EF16F001
:102B40002FEF16F00FB002D00FA802D03BEF16F017
:102B5000036A0D500824026EE86A03227E0E025EAC
:102B6000E86A035A126A136A006A016A0C50070283
:102B7000F4CF01F0F3CF00F00B500702F35013260F
:102B8000F4500022000E01220C500602F3501326CE
:102B9000F4500022000E01220A500702F3501226C0
:102BA000F4501322000E002201220B500602F350B3
:102BB0001226F4501322000E002201220C500502AE
:102BC000F3501226F4501322000E002201220A5064
:102BD0000602F4501226000E1322002201220B508E
:102BE0000502F4501226000E13220022012244EFA7
:102BF00016F00F6A80EC16F00FB603EF16F00FA276
:102C00000ED00FB405D07F0E076EFF0E066E1FD0DC
:102C1000800E076E066A1BD0076A066A18D00FB0CE
:102C2000FBD78F0E0860EDD77E0E0864F5D78E0EA9
:102C3000085C05E0D89007320632082AF8D70FA4BE
:102C400006D0066C071EE86A072207AEE5D7120019
:102C50007F0E086EFF0E076E066E056E12007F0E69
:102C60000FBEFF0E086E02D07F0E086E800E076E3C
:102C7000066A056AF3D70FAE04D0800E086E076AA5
:102C8000F7D7086A076AF4D7015000101310121022
:102C9000F8E003BEF0D701BE0CD002500310EBE009
:102CA000D89012361336003601360206D8A0030635
:102CB000F2D70350D4E10228D2E012AE11D07F0E39
:102CC000121402E113A00CD0132AE86A0022012298
:102CD00007E3D880013200321332022A0228BFE013
:102CE0000250C9E013C005F000C006F00134076EC1
:102CF0000230086E0732089E0FBE088E2EEF16F0C7
:102D00000736083602E30F840F7E06E10F80086A5B
:102D1000076A066A056A1200082803E0D8800732AD
:102D20001200D890073202E10F8212000F861200C3
:102D30000C360D3602E30F8C0F7E06E10F880D6A0C
:102D40000C6A0B6A0A6A12000D2803E0D8800C3264
:102D50001200D8900C32EAE10F8A120007C013F07B
:102D600006C012F006500B02F4CF05F0F3CF04F0CA
:102D700007500C02F4CF07F0F3CF06F00B02F3502C
:102D80000526F4500622E86A072212500C02F3507E
:102D90000526F4500622E86A07220CAED4EF16F09E
:102DA0001250065E1350075A13AE000C0B50065E0D
:062DB0000C50075A000C54
:0A2DB600D9CFE6FFE1CFD9FF020EEE
:102DC000E126FD0EDBCFE9FFFE0EDBCFEAFFEF5081
:102DD000E66EFB0EDBCFE9FFFC0EDBCFEAFF070E52
:102DE000E926000EEA22E552E750EF6EFD0EDBCF3A
:102DF000E9FFFE0EDBCFEAFFEF50030B166E16C0A5
:102E000017F0166A010EE76EFD0EDBCFE9FFFE0E2E
:102E1000DBCFEAFFE750E926000EEA22EF5000017F
:102E20001610146E17C015F014C0DEFF15C0DDFFBC
:102E3000000EDFCF06F0010EDBCF07F024EC15F01B
:102E400005C01AF006C01BF007C01CF008C01DF03A
:102E50000A6A0B6AC80E0C6E420E0D6E1AC005F09F
:102E60001BC006F01CC007F01DC008F08CEC15F06C
:102E700005C016F006C017F007C018F008C019F01A
:102E8000DF0E0A6EE00E0B6ED10E0C6E400E0D6E54
:102E900016C005F017C006F018C007F019C008F0FA
:102EA00039EC15F0F9EC15F006C014F007C015F078
:102EB000FB0EDBCFE9FFFC0EDBCFEAFF020EE926BB
:102EC000000EEA2214C0EEFF15C0EDFF020EE76E01
:102ED000FD0EDBCFE9FFFE0EDBCFEAFFE750E92670
:102EE000000EEA22EF50030B166E16C017F0166A9A
:102EF000030EE76EFD0EDBCFE9FFFE0EDBCFEAFF30
:102F0000E750E926000EEA22EF5000011610146E79
:102F100017C015F0FB0EDBCFE9FFFC0EDBCFEAFF9D
:102F200014C0EEFF15C0EDFF040EE76EFD0EDBCF03
:102F3000E9FFFE0EDBCFEAFFE750E926000EEA22AA
:102F4000EF50030B166E16C017F0166A050EE76EEB
:102F5000FD0EDBCFE9FFFE0EDBCFEAFFE750E926EF
:102F6000000EEA22EF501610146E17C015F014C0B0
:102F7000DEFF15C0DDFF000EDFCF06F0010EDBCF58
:102F800007F024EC15F005C01AF006C01BF007C0CE
:102F90001CF008C01DF00A6A0B6AC80E0C6E420EC7
:102FA0000D6E1AC005F01BC006F01CC007F01DC056
:102FB00008F08CEC15F005C016F006C017F007C03D
:102FC00018F008C019F0050E0A6E340E0B6E970E3D
:102FD0000C6E400E0D6E16C005F017C006F018C03E
:102FE00007F019C008F039EC15F0F9EC15F006C03F
:102FF00014F007C015F0FB0EDBCFE9FFFC0EDBCFB2
:10300000EAFF040EE926000EEA2214C0EEFF15C006
:10301000EDFF060EE76EFD0EDBCFE9FFFE0EDBCF08
:10302000EAFFE750E926000EEA22EF50E66EFB0EBB
:10303000DBCFE9FFFC0EDBCFEAFF060EE926000E30
:10304000EA22E552E750EF6E020EE15C03E200D0A7
:0E305000E16AE552E16EE552E7CFD9FF1200CA
:02305E00D9CFC8
:10306000E6FFE1CFD9FF030EE126DF6AFB0EDBCFDF
:10307000E6FFFC0EDBCFE6FFDD0E146E250E156EAF
:10308000166A14C0E6FF15C0E6FF16C0E6FF6EEC38
:1030900019F0176E050EE15E1750D950FB0FE96E5F
:1030A000FF0EDA20EA6E030EEE1802E1040EED18B0
:1030B00001E0B7D0D70E146E250E156E166A14C037
:1030C000E6FF15C0E6FF16C0E6FF6EEC19F0E5520C
:1030D000E552E552FD0EDBCF06F0FE0EDBCF07F02A
:1030E000DE5206C0DEFF07C0DDFFDD52010EDBCF82
:1030F000E9FF020EDBCFEAFFEECF18F0EECF19F0BA
:10310000EECF1AF0EFCF1BF0060E0A6E2A0E0B6EF2
:103110000F0E0C6E400E0D6E18C005F019C006F0B3
:103120001AC007F01BC008F08CEC15F005C014F0B5
:1031300006C015F007C016F008C017F0F90EDBCF77
:10314000E9FFFA0EDBCFEAFF14C0EEFF15C0EEFF79
:1031500016C0EEFF17C0EEFF100EE76EFD0EDBCFC0
:1031600014F0FE0EDBCF15F0E7501426000E1522EA
:10317000010E14C0DBFF020E15C0DBFF010EDBCF1A
:10318000E9FF020EDBCFEAFFEECF14F0EECF15F031
:10319000EECF16F0EFCF17F0F90EDBCFE9FFFA0E06
:1031A000DBCFEAFF040EE926000EEA2214C0EEFF90
:1031B00015C0EEFF16C0EEFF17C0EEFFF90EDBCF15
:1031C000E9FFFA0EDBCFEAFF040EE926000EEA2241
:1031D000EECFE6FFEECFE6FFEECFE6FFEFCFE6FF66
:1031E000F90EDBCFE9FFFA0EDBCFEAFFEECFE6FF09
:1031F000EECFE6FFEECFE6FFEFCFE6FFA90E146EAF
:10320000250E156E166A14C0E6FF15C0E6FF16C03F
:10321000E6FF6EEC19F0176E0B0EE15E1750010E13
:10322000DF6EDF50146E030EE15C03E200D0E16A52
:0E323000E552E16E1450E552E7CFD9FF1200CF
:02323E00060E7A
:10324000F66E000EF76E000EF86E00010900F550E4
:10325000656F0900F550666F03E1656701D03DD0E9
:103260000900F550606F0900F550616F0900F550D5
:10327000626F09000900F550E96E0900F550EA6E29
:10328000090009000900F550636F0900F550646FEB
:1032900009000900F6CF67F0F7CF68F0F8CF69F0C2
:1032A00060C0F6FF61C0F7FF62C0F8FF0001635322
:1032B00002E1645307E00900F550EE6E6307F8E29F
:1032C0006407F9D767C0F6FF68C0F7FF69C0F8FF69
:0C32D00000016507000E665BBFD712000E
:0432DC00D9CFE6FF61
:1032E000DACFE6FFE1CFD9FFE2CFDAFFE652E652CE
:1032F000E652E652D950FB0F146EFF0EDA20156E1F
:1033000014C0DEFFDD6EDECFE6FFDDCFE6FFFB0E95
:10331000DBCFE6FFFC0EDBCFE6FFFD0EDBCFE6FFEB
:103320006AC0E6FF6BC0E6FF83EC0AF0146E070E7E
:10333000E15C02E2E16AE552E16E1450020EF3CF65
:10334000DBFF030EF4CFDBFF020EDBCF14F0030E26
:10335000DBCF15F014C0F3FF15C0F4FF040EE15CE1
:1033600002E2E16AE552E16EE552E5CFDAFFE7CF2E
:04337000D9FF12006F
:0C337400D9CFE6FFDACFE6FFE1CFD9FFAA
:10338000E2CFDAFFAC6AAB6AFD0EDBB0AC88DBA241
:1033900002D0AC8CAB8CDBB4AC8EDBA602D0AB889D
:1033A00001D0AB8ADBB8AC849E98DBBAAB86DBACD1
:1033B00002D09D8A01D09D9A9E9ADBAE02D09D8854
:1033C00001D09D98FB0EDB50AF6EFB0EFC0EDBCFE9
:1033D00015F015C014F0156A1450B06EAC8AAB8E9F
:1033E000949C948EAC50100B04E0AC50800B01E127
:0E33F000948CE552E5CFDAFFE7CFD9FF12004B
:0233FE00D9CF25
:10340000E6FFDACFE6FFE1CFD9FFE2CFDAFFFB0E2E
:10341000DBCF14F0FC0EDBCF15F00001800E15148D
:103420001AE1FB0EDBCFE9FFFC0EDBCFEAFFEECFAC
:10343000F3FFEDCFF4FFEE2A000EEF22F3CFE9FF0A
:10344000F4CFEAFFFD0EDBCFEFFFEF50156AF36E0E
:1034500015C0F4FF10D0FB0EDB50FE0806E1FD0E98
:10346000DBCFE6FF69EC1BF005D0FD0EDBCFE6FFFE
:1034700099EC1BF0E552E552E5CFDAFFE7CFD9FF33
:02348000120038
:0E34820004500902F3CF00F0F4CF01F00A026B
:10349000F3500126000EF420026E04500B02F3508C
:1034A0000226000EF420036E04500C02F350032693
:1034B00005500902F3500126F4500222000E0322A7
:1034C00005500A02F3500226F450032205500B0265
:1034D000F350032606500902F3500226F45003224B
:1034E00006500A02F350032607500902F350032640
:0234F0001200C8
:0E34F200D9CFE6FFDACFE6FFE1CFD9FFE2CF78
:10350000DAFF3F0EC716C66AFD0EDB50C612FB0E71
:10351000DB50C712FC0EDB50030A09E0010A04E08D
:10352000020A06E1C78C04D0C78CC68801D0C688C1
:10353000FD0EDB50050A05E0010A05E19486928A3A
:1035400003D0948601D094969488949AC68AE552C2
:0A355000E5CFDAFFE7CFD9FF120044
:06355A00FE0EE3CFE9FFC5
:10356000FF0EE3CFEAFFF36AF46AEE5203E0F34A98
:10357000F42AFBD71200FF0EE3CFF8FFE552FF0E4F
:10358000E3CFF7FFE552FF0EE3CFF6FFE552E66A21
:10359000E66AE66A0900F55209E0FD0EE32A05E154
:1035A000FE0EE32A02E1FF0EE32AF4D7FD0EE3CF7D
:1035B00005F0FE0EE3CF06F0FF0EE3CF07F012009A
:1035C000036A026A016A006A200EE76ED890043628
:1035D0000536063607360036013602360336095000
:1035E000005C0A5001580B5002580C50035809E374
:1035F0000950005E0A50015A0B50025A0C50035AEF
:08360000042AE72EE4D71200B2
:08360800D9CFE6FFDACFE6FF9F
:10361000E1CFD9FFE2CFDAFFE652C950DF6E9E96C6
:10362000C69EFD0EDB50C96EC6AE02D0FF0E03D0A3
:103630009EA6FED7000EE552E552E5CFDAFFE7CFB2
:04364000D9FF12009C
:0C364400D9CFE6FFDACFE6FFE1CFD9FFD7
:10365000E2CFDAFFE652C950DF6E9E96C96A9EA697
:10366000FED7C950E552E552E5CFDAFFE7CFD9FFE3
:02367000120046
:0E367200F36AF46AFF0EE124E96EFF0EE22017
:10368000EA6EED6607D02F0EEF6404D03A0EEF60BD
:0636900001D0F32A120034
:0A369600000EF36E00EE00F0030ECC
:1036A00001D81200EA6002D0EE6AFCD7F350E9605C
:0636B0001200EE6AFCD7D7
:0A36B60012EE00F022EE00F0F86AB8
:1036C0000F9C1FEC19F09AEC1BF0F4EC12F0FBD7F6
:0236D0001200E6
:0E36D200FF0EE350ACBA04D0AF6AAB8EAC8AE8
:0E36E000949CACA2FED7AD6EF36EF46A12009D
:0236EE00FF0ECD
:1036F000E3501E6E1B0E00D001D0200EE76EE72EA9
:0A370000FED71E2EFAD700D01200EB
:06370A00FF0EE350E84E43
:103710001200000000D000D000D0E82EFAD712002E
:103720003031323334353637383961626364656637
:013730000098
:02373200120083
:02373400120081
:02373600FEFF94
:020000040030CA
:0100010032CC
:01000200FFFE
:01000300FEFE
:01000600AB4E
:00000001FF
