:020000040000FA
:06000000E9EF16F012000A
:0A0006000200FF2800006C0000005B
:1000100001000000522E00006A00000002000000F3
:10002000D9CFE6FFE1CFD9FF080EE126F60E146E18
:10003000280E156E166A14C0E6FF15C0E6FF16C03E
:10004000E6FFCFEC14F0E552E552E552FD0EDBCFB2
:10005000E9FFFE0EDBCFEAFF070EEFCFDBFFFD0E61
:10006000DBCFE9FFFE0EDBCFEAFFEF50110B166E80
:1000700016C017F0166A010EE76EFD0EDBCFE9FF22
:10008000FE0EDBCFEAFFE750E926000EEA22EF5032
:1000900000011610146E17C015F0020E14C0DBFF1D
:1000A000030E15C0DBFF020EE76EFD0EDBCFE9FF8E
:1000B000FE0EDBCFEAFFE750E926000EEA22EF5002
:1000C000110B166E16C017F0166A030EE76EFD0EC2
:1000D000DBCFE9FFFE0EDBCFEAFFE750E926000E9B
:1000E000EA22EF501610146E17C015F014C0DEFF90
:1000F00015C0DDFF040EE76EFD0EDBCFE9FFFE0E3F
:10010000DBCFEAFFE750E926000EEA22EF50110BA1
:10011000166E16C017F0166A050EE76EFD0EDBCFE1
:10012000E9FFFE0EDBCFEAFFE750E926000EEA22E8
:10013000EF501610146E17C015F0040E14C0DBFF3C
:10014000050E15C0DBFF060EE76EFD0EDBCFE9FFE7
:10015000FE0EDBCFEAFFE750E926000EEA22060E8C
:10016000EFCFDBFF040EDBCFE6FF050EDBCFE6FFB4
:10017000DECFE6FFDDCFE6FF020EDBCFE6FF030EAC
:10018000DBCFE6FFAA0E146E280E156E166A14C099
:10019000E6FF15C0E6FF16C0E6FFCFEC14F0176EC1
:1001A000090EE15E1750D9CFE9FFDACFEAFFEECFB3
:1001B00014F0EECF15F0EECF16F0EECF17F0EECF35
:1001C00018F0EECF19F0EECF1AF0EFCF1BF0D9CF29
:1001D000E9FFDACFEAFFED50ED501BC0EDFF1AC08A
:1001E000EDFF19C0EDFF18C0EDFF17C0EDFF16C001
:1001F000EDFF15C0EDFF14C0EFFF080EE15C03E258
:1002000000D0E16AE552E16EE552E7CFD9FF120076
:10021000D9CFE6FFE1CFD9FF2E0EE126470EE66EDD
:10022000E66A3C0EE66E1BEC15F0E552E552E5522F
:10023000990E146E280E156E166A14C0E6FF15C0CE
:10024000E6FF16C0E6FFCFEC14F0E552E552E552AA
:10025000800EE66EE66A010EE66EDAEC15F0E55207
:10026000E552E552100EDB6ADBCFE6FF070EE66EC5
:100270006BEC05F0E552E552F3CFDEFFF4CFDDFF86
:10028000D9CFE9FFDACFEAFFEE50ED101EE0740E91
:10029000146E280E156E166A14C0E6FF15C0E6FF30
:1002A00016C0E6FFCFEC14F0E552E552E552100E11
:1002B000DBCFE6FF6CC0E6FF6BEC05F0E552E552E4
:1002C000F3CFDEFFF4CFDDFFDBD7570E146E280E21
:1002D000156E166A14C0E6FF15C0E6FF16C0E6FFED
:1002E000CFEC14F0E552E552E552060EE66EBF0E75
:1002F000E66ED5D8E552E552000911E0350E146ED0
:10030000280E156E166A14C0E6FF15C0E6FF16C06B
:10031000E6FFCFEC14F0E552E552E55210D0100E96
:10032000146E280E156E166A14C0E6FF15C0E6FF9F
:1003300016C0E6FFCFEC14F0E552E552E552100E80
:10034000DBCFE6FF9AD9E5522C0EDB6A110EF36E75
:10035000F3CFDBFF070EF36E120EF3CFDBFF140EAD
:10036000DB6A400EF36E160EF3CFDBFFAA0EF36EC0
:10037000170EF3CFDBFF600EF36E180EF3CFDBFF2B
:10038000700EF36E190EF3CFDBFF150EDB6A100E45
:10039000DBCFE6FF020EE66ED950110FE66E000EBF
:1003A000DA20E66ED7EC07F0E552E552E552E55269
:1003B000300EE66E13EC17F0E552100EDBCFE6FFC1
:1003C000D9501E0FE66E000EDA20E66E88EC06F0BD
:1003D000E552E552E552000956E01E0EDBCFE6FF7E
:1003E0001F0EDBCFE6FFFB0E146E270E156E166A8E
:1003F00014C0E6FF15C0E6FF16C0E6FFCFEC14F010
:10040000176E050EE15E1750210EDB50F36E2C0EB9
:10041000DBCFF4FFF350F45C2BE2D950230F146EC2
:10042000DACF15F02C0EDB500F011424E96E000E0C
:100430001520EA6E2D0EEFCFDBFFDBCFE6FFE66A7D
:100440002C0EDBCFE6FFE66ADD0E146E270E156E6E
:10045000166A14C0E6FF15C0E6FF16C0E6FFCFEC33
:1004600014F0176E070EE15E17502C0EDB2ACCD766
:10047000D950230FE66E000EDA20E66ED1DDE5528C
:10048000E552CCEC0BF060D7EDD62E0EE15C02E22B
:10049000E16AE552E16EE552E7CFD9FF1200D9CF0C
:1004A000E6FFE1CFD9FFFD0EDB50070802E2FF0EA9
:1004B00014D0FE0EDBCFE6FF010EF36EFD0EDB5017
:1004C00004E0D890F336E806FCE1F350E552E71477
:1004D00002E1000E01D0010E00D0E552E7CFD9FFB6
:1004E0001200D9CFE6FFE1CFD9FFFE0EDB5002E1CB
:1004F00083901BD0FE0EDB0402E1839216D0FE0E29
:10050000DB50020802E1839410D09C0E146E270E7B
:10051000156E166A14C0E6FF15C0E6FF16C0E6FFAA
:10052000CFEC14F0E552E552E552010EE66E13EC05
:1005300017F0E552E552E7CFD9FF1200D9CFE6FF19
:10054000E1CFD9FFFE0EDB5002E183801BD0FE0E0F
:10055000DB0402E1838216D0FE0EDB50020802E1CA
:10056000838410D09C0E146E270E156E166A14C06C
:10057000E6FF15C0E6FF16C0E6FFCFEC14F0E5522B
:10058000E552E552010EE66E13EC17F0E552E55226
:10059000E7CFD9FF1200D9CFE6FFE1CFD9FFE6526E
:1005A000FD0EDBCFE6FF9DDFE552030EE66E92EC1B
:1005B00016F0E552FE0EDBCFE6FF92EC16F0E552A8
:1005C000B0EC16F0DF6EFD0EDBCFE6FFB7DFE552D5
:1005D000DF5000D0E552E552E7CFD9FF1200D9CF66
:1005E000E6FFE1CFD9FFFC0EDBCFE6FF7ADFE55275
:1005F000020EE66E92EC16F0E552FE0EDBCFE6FF41
:1006000092EC16F0E552FD0EDBCFE6FF92EC16F011
:10061000E552FC0EDBCFE6FF91DFE55200D0E5525C
:10062000E7CFD9FF1200D9CFE6FFE1CFD9FFFB0E0C
:10063000DBCFE6FF56DFE552050EE66E92EC16F0D4
:10064000E552FE0EDBCFE6FF92EC16F0E552FD0E12
:10065000DBCFE6FF92EC16F0E552FC0EDBCFE6FFB7
:1006600092EC16F0E552FB0EDBCFE6FF67DFE552BA
:1006700000D0E552E7CFD9FF1200D9CFE6FFE1CF96
:10068000D9FFE652FE0EDBCFE6FFE66AE00EE66E2D
:100690000F0EE66EC8DFE552E552E552E552FE0E5A
:1006A000DBCFE6FF0F0EE66E76DFE552E552DF6E3A
:1006B000E00EDF141CE0DFCF14F0156A14BE1568DD
:1006C00014C0E6FF15C0E6FF690E166E270E176E02
:1006D000186A16C0E6FF17C0E6FF18C0E6FFCFECA9
:1006E00014F0196E050EE15E195012D011D0490EAA
:1006F000146E270E156E166A14C0E6FF15C0E6FFCD
:1007000016C0E6FFCFEC14F0E552E552E55200D0FA
:10071000E552E552E7CFD9FF1200D9CFE6FFE1CF8E
:10072000D9FFE652FE0EDBCFE6FF200EE66EE00EAE
:10073000E66E0F0EE66E77DFE552E552E552E552C2
:10074000FE0EDBCFE6FF0F0EE66E25DFE552E5522B
:10075000DF6EE00EDF1420081CE0DFCF14F0156A16
:1007600014BE156814C0E6FF15C0E6FF150E166E20
:10077000270E176E186A16C0E6FF17C0E6FF18C0EE
:10078000E6FFCFEC14F0196E050EE15E195012D0A1
:1007900011D0F40E146E260E156E166A14C0E6FF04
:1007A00015C0E6FF16C0E6FFCFEC14F0E552E552A7
:1007B000E55200D0E552E552E7CFD9FF1200D9CF7C
:1007C000E6FFE1CFD9FFE652FE0EDBCFE6FF400E9B
:1007D000E66EE66E2B0EE66E26DFE552E552E5523A
:1007E000E552300EE66E13EC17F0E552FE0EDBCF4D
:1007F000E6FF2B0EE66ECFDEE552E552DF6EDFAC94
:1008000011D0D30E146E260E156E166A14C0E6FFB4
:1008100015C0E6FF16C0E6FFCFEC14F0E552E55236
:10082000E55210D0C00E146E260E156E166A14C056
:10083000E6FF15C0E6FF16C0E6FFCFEC14F0E55268
:10084000E552E55200D0E552E552E7CFD9FF12005C
:10085000D9CFE6FFE1CFD9FFE652FE0EDBCFE6FFB0
:10086000600EE66EE00EE66E0F0EE66EDCDEE55222
:10087000E552E552E552FE0EDBCFE6FF0F0EE66EC7
:100880008ADEE552E552DF6EE00EDF14600802E119
:10089000000E01D0010EFE0EDB501CE0DFCF14F085
:1008A000156A14BE156814C0E6FF15C0E6FF8D0E6C
:1008B000166E260E176E186A16C0E6FF17C0E6FF02
:1008C00018C0E6FFCFEC14F0196E050EE15E19506A
:1008D00012D011D06B0E146E260E156E166A14C04F
:1008E000E6FF15C0E6FF16C0E6FFCFEC14F0E552B8
:1008F000E552E55200D0E552E552E7CFD9FF1200AC
:10090000D9CFE6FFE1CFD9FFE652FE0EDBCFE6FFFF
:10091000400EE66EE00EE66E0F0EE66E84DEE552E9
:10092000E552E552E552FE0EDBCFE6FF0F0EE66E16
:1009300032DEE552E552DF6EE00EDF14400802E1E0
:10094000000E01D0010EFE0EDB501CE0DFCF14F0D4
:10095000156A14BE156814C0E6FF15C0E6FF370E11
:10096000166E260E176E186A16C0E6FF17C0E6FF51
:1009700018C0E6FFCFEC14F0196E050EE15E1950B9
:1009800012D011D0130E146E260E156E166A14C0F6
:10099000E6FF15C0E6FF16C0E6FFCFEC14F0E55207
:1009A000E552E55200D0E552E552E7CFD9FF1200FB
:1009B000D9CFE6FFE1CFD9FF020EE126FE0EDBCF55
:1009C000E6FF800EE66EE00EE66E0F0EE66E2BDEA4
:1009D000E552E552E552E552FE0EDBCFE6FF0F0E83
:1009E000E66ED9DDE552E552DF6EE00EDF148008D9
:1009F0001BE0DFCF14F0156A14BE156814C0E6FFC3
:100A000015C0E6FFE20E166E250E176E186A16C0A8
:100A1000E6FF17C0E6FF18C0E6FFCFEC14F0196E32
:100A2000050EE15E195010D0C00E146E250E156E25
:100A3000166A14C0E6FF15C0E6FF16C0E6FFCFEC4D
:100A400014F0E552E552E552FE0EDBCFE6FF0E0E46
:100A5000E66EA1DDE552E552E76E010EE7CFDBFF62
:100A6000010EDBA011D0B40E146E250E156E166AA1
:100A700014C0E6FF15C0E6FF16C0E6FFCFEC14F089
:100A8000E552E552E552ECD7020EE15C02E2E16A82
:100A9000E552E16EE552E7CFD9FF1200D9CFE6FF6C
:100AA000E1CFD9FFFE0EDBCFE6FF1BDDE552FE0EE8
:100AB000DBCFE6FF080EE66E0F0EE66E90DDE55228
:100AC000E552E552FE0EDBCFE6FF38DDE552E5529A
:100AD000E7CFD9FF1200D9CFE6FFE1CFD9FF050E4E
:100AE000E126F80E956EDE52030EDD6E440EF36EB7
:100AF000020EF3CFDBFFF10EF36E030EF3CFDBFF3D
:100B0000050EF36E040EF3CFDBFFFD0EDBCFE6FF29
:100B1000E8DCE552010EE66E13EC17F0E552C00E6C
:100B2000E66E92EC16F0E552FD0EDBCFE6FF06DD39
:100B3000E552300EE66E13EC17F0E552FD0EDBCFFA
:100B4000E6FFCFDCE552020EE66E92EC16F0E552BF
:100B5000280EE66E92EC16F0E552040EDBCFE6FFAF
:100B600092EC16F0E552030EDBCFE6FF92EC16F0A6
:100B7000E552020EDBCFE6FF92EC16F0E552010ED5
:100B8000DBCFE6FF92EC16F0E552FD0EDBCFE6FF81
:100B9000D5DCE552FD0EDBCFE6FFE66A0C0EE66E15
:100BA0001EDDE552E552E552FD0EDBCFE6FFE66ABB
:100BB0000D0EE66E14DDE552E552E552FD0EDBCF7B
:100BC000E6FF600EE66EE66E0ADDE552E552E5529E
:100BD000FD0EDBCFE6FF600EE66E700EE66EFFDC0C
:100BE000E552E552E552FD0EDBCFE6FFE66A0F0E59
:100BF000E66EF5DCE552E552E552FD0EDBCFE6FF91
:100C00002A0EE66EC8DCE552E552DF6E010EE66E96
:100C100005EC17F0E552020EDB50DF5C14E09D0E90
:100C2000146E250E156E166A14C0E6FF15C0E6FF99
:100C300016C0E6FFCFEC14F0E552E552E552F3683A
:100C4000F46814D010D0870E146E250E156E166A37
:100C500014C0E6FF15C0E6FF16C0E6FFCFEC14F0A7
:100C6000E552E552E552F36AF46A00D0050EE15C04
:100C700002E2E16AE552E16EE552E7CFD9FF1200E8
:100C8000D9CFE6FFE1CFD9FFE652FD0EDBCFE6FF7D
:100C900028DCE552FE0EDBCFE6FF92EC16F0E552C3
:100CA000B0EC16F0DF6EFD0EDBCFE6FF47DCE55261
:100CB000DF5000D0E552E552E7CFD9FF1200D9CF7F
:100CC000E6FFE1CFD9FFFE0EDBCFE6FF71DEE55296
:100CD000FE0EDBCFE6FF680EE66E600EE66E7FDC92
:100CE000E552E552E552FE0EDBCFE6FF680EE66EFA
:100CF000700EE66E74DCE552E552E552FE0EDBCF77
:100D0000E6FFBBDCE55200D0E552E7CFD9FF120089
:100D1000D9CFE6FFE1CFD9FF1B0EE126FC0EDBCFDA
:100D2000E6FFB00EE66EACDFE552E552DF6EFC0E7C
:100D3000DBCFE6FF6AEC0BF0E552DFCFE6FFE66AB9
:100D4000730E146E250E156E166A14C0E6FF15C0DC
:100D5000E6FF16C0E6FFCFEC14F0176E050EE15E5D
:100D60001750060EE66EDFCFE6FF4FEC02F0E552BD
:100D7000E552000904E0DE52900EDD6E20D0070E31
:100D8000E66EDFCFE6FF4FEC02F0E552E5520009D8
:100D900004E0DE52940EDD6E12D04E0E146E250E5F
:100DA000156E166A14C0E6FF15C0E6FF16C0E6FF12
:100DB000CFEC14F0E552E552E552000EECD0FC0EFB
:100DC000DBCFE6FF71EC02F0E552010EDBCFE6FF70
:100DD00092EC16F0E552050EDB6A060EDB6AB0EC0B
:100DE00016F0146E156A030ED89014361536E80402
:100DF000FBE1050E14C0DBFF060E15C0DBFFB0ECF7
:100E000016F0146E156A050ED89015321432E804E7
:100E1000FBE1D950050FE96EDACFEAFF1450EE126C
:100E20001550ED12FD0EDBCFE9FFFE0EDBCFEAFF22
:100E3000050EDBCFEEFF060EDBCFEDFFB0EC16F0BC
:100E4000E76E020EE7CFDBFFB0EC16F0E76E020EA6
:100E5000E7CFDBFFB0EC16F0E76E030EE7CFDBFF6A
:100E6000FD0EDBCFE9FFFE0EDBCFEAFF030EE92626
:100E7000000EEA22030EDBCFEFFF040EDB6A030E47
:100E8000DB50F36E040EDBCFF4FFF350F45C33E27F
:100E9000B0EC16F0E66ED950070F166EDACF17F0E9
:100EA000040EDB500F011624E96E000E1720EA6EC7
:100EB000E552E750EF6EE66EFD0EDBCFE9FFFE0E6A
:100EC000DBCFEAFF050EE926000EEA22E9CF14F097
:100ED000EACF15F0040EDB501424E96E000E152045
:100EE000EA6EE552E750EF6E040EDB28E76E040E63
:100EF000E7CFDBFFC4D7FC0EDBCFE6FF9EEC02F0B2
:100F0000E552060EE66EDFCFE6FF4FEC02F0E5524B
:100F1000E55200091FE0FC0EDBCFE6FFE66A010E9A
:100F2000E66E2C0EE66E13EC03F0E552E552E55248
:100F3000E552450E146E250E156E166A14C0E6FFB6
:100F400015C0E6FF16C0E6FFCFEC14F0E552E552FF
:100F5000E5521ED0FC0EDBCFE6FFE66A020EE66E1F
:100F60002C0EE66E13EC03F0E552E552E552E55225
:100F70003C0E146E250E156E166A14C0E6FF15C0E1
:100F8000E6FF16C0E6FFCFEC14F0E552E552E5525D
:100F9000010EDB5000D0146E1B0EE15C02E2E16A30
:100FA000E552E16E1450E552E7CFD9FF1200D9CFD8
:100FB000E6FFE1CFD9FF060EE126010EDB6AFC0E4B
:100FC000DB501AE0FC0EDB0417E0FC0EDB500208DD
:100FD00013E0070E146E250E156E166A14C0E6FF98
:100FE00015C0E6FF16C0E6FFCFEC14F0E552E5525F
:100FF000E552FF0E99D129D0FC0EDB50020806E124
:10100000040EF36EFC0EF3CFDBFF1FD0FC0EDB04EF
:1010100006E1020EF36EFC0EF3CFDBFF16D0FC0EE2
:10102000DB5003E1FC0EDB6A10D0BE0E146E240E02
:10103000156E166A14C0E6FF15C0E6FF16C0E6FF7F
:10104000CFEC14F0E552E552E552FD0EDBCFE9FF9F
:10105000FE0EDBCFEAFFE9CF14F0EACF15F0040E65
:1010600014C0DBFF050E15C0DBFF040EDBCFE9FF6C
:10107000050EDBCFEAFFEF50200D020EF3CFDBFFB2
:10108000010EE76E040EDBCFE9FF050EDBCFEAFFB2
:10109000E750E926000EEA22EF50200DF3CF14F0BE
:1010A000040EDBCFE9FF050EDBCFEAFFEF50E8408F
:1010B000E840E8401F0B1410E76E030EE7CFDBFF9C
:1010C000FD0EDBCFE9FFFE0EDBCFEAFF030EE926C4
:1010D000000EEA22EF50E66EE66AFD0EDBCFE9FF76
:1010E000FE0EDBCFEAFFEECFE6FFEFCFE6FFFD0E11
:1010F000DBCFE9FFFE0EDBCFEAFFEECFE6FFEFCF5F
:10110000E6FF940E146E240E156E166A14C0E6FFE8
:1011100015C0E6FF16C0E6FFCFEC14F0176E090EFF
:10112000E15E1750FB0EDBCFE6FF71EC02F0E552FB
:10113000FC0EDB504009E66E92EC16F0E552030E11
:10114000DBCFE6FF92EC16F0E552020EDBCFE6FFB6
:1011500092EC16F0E552E66A92EC16F0E552E66A79
:1011600092EC16F0E552FD0EDBCFE9FFFE0EDBCF71
:10117000EAFF030EE926000EEA22EF500F0BDF6EA6
:10118000FD0EDBCFE9FFFE0EDBCFEAFF040EE92602
:10119000000EEA22EF5017E0400EDF10E66E92ECF0
:1011A00016F0E552890E146E240E156E166A14C0E0
:1011B000E6FF15C0E6FF16C0E6FFCFEC14F0E552DF
:1011C000E552E55287D0DFCFE6FF92EC16F0E5520C
:1011D0007E0E146E240E156E166A14C0E6FF15C03E
:1011E000E6FF16C0E6FFCFEC14F0E552E552E552FB
:1011F0006C0E146E240E156E166A14C0E6FF15C030
:10120000E6FF16C0E6FFCFEC14F0E552E552E552DA
:10121000010EDB6ADF50F36E010EDBCFF4FFF350FB
:10122000F45C48E2FD0EDBCFE9FFFE0EDBCFEAFF08
:10123000050EE926000EEA22E9CF14F0EACF15F0F8
:10124000010EDB500F011424E96E000E1520EA6E2A
:10125000EF50E66EE66A670E166E240E176E186A79
:1012600016C0E6FF17C0E6FF18C0E6FFCFEC14F08B
:10127000196E050EE15E1950FD0EDBCFE9FFFE0E83
:10128000DBCFEAFF050EE926000EEA22E9CF14F0D3
:10129000EACF15F0010EDB500F011424E96E000EA9
:1012A0001520EA6EEF50E66E92EC16F0E552010E54
:1012B000DB2AB0D7650E146E240E156E166A14C0A4
:1012C000E6FF15C0E6FF16C0E6FFCFEC14F0E552CE
:1012D000E552E552FB0EDBCFE6FF9EEC02F0E55255
:1012E000300EE66E13EC17F0E552FB0EDBCFE6FF97
:1012F00071EC02F0E552FC0EDB5002E1010E02D06F
:10130000FC0EDB50E76EFC0EE7CFDBFFDB50800905
:10131000E66E92EC16F0E552FB0EDBCFE6FF9EEC9C
:1013200002F0E552010E00D0146E060EE15C02E2FE
:10133000E16AE552E16E1450E552E7CFD9FF1200A1
:10134000D9CFE6FFE1CFD9FF060EE126010EDB6A19
:10135000FC0EDB501AE0FC0EDB0417E0FC0EDB5049
:10136000020813E0070E146E250E156E166A14C0DF
:10137000E6FF15C0E6FF16C0E6FFCFEC14F0E5521D
:10138000E552E552FF0E9AD129D0FC0EDB5002083F
:1013900006E1040EF36EFC0EF3CFDBFF1FD0FC0E54
:1013A000DB0406E1020EF36EFC0EF3CFDBFF16D07A
:1013B000FC0EDB5003E1FC0EDB6A10D0BE0E146E97
:1013C000240E156E166A14C0E6FF15C0E6FF16C09F
:1013D000E6FFCFEC14F0E552E552E552FD0EDBCF0F
:1013E000E9FFFE0EDBCFEAFFE9CF14F0EACF15F0FC
:1013F000040E14C0DBFF050E15C0DBFF040EDBCFAF
:10140000E9FF050EDBCFEAFFEF50200D020EF3CF10
:10141000DBFF010EE76E040EDBCFE9FF050EDBCF2D
:10142000EAFFE750E926000EEA22EF50200DF3CF45
:1014300014F0040EDBCFE9FF050EDBCFEAFFEF501F
:10144000E840E840E8401F0B1410E76E030EE7CFBA
:10145000DBFFFD0EDBCFE9FFFE0EDBCFEAFF030E65
:10146000E926000EEA22EF50E66EE66AFD0EDBCFBB
:10147000E9FFFE0EDBCFEAFFEECFE6FFEFCFE6FFA0
:10148000FD0EDBCFE9FFFE0EDBCFEAFFEECFE6FF7E
:10149000EFCFE6FF940E146E240E156E166A14C07C
:1014A000E6FF15C0E6FF16C0E6FFCFEC14F0176E9E
:1014B000090EE15E1750FB0EDBCFE6FF71EC02F088
:1014C000E552FC0EDB504009E66E92EC16F0E55258
:1014D000030EDBCFE6FF92EC16F0E552020EDB5076
:1014E0000809E66E92EC16F0E552E66A92EC16F008
:1014F000E552E66A92EC16F0E552FD0EDBCFE9FF0D
:10150000FE0EDBCFEAFF030EE926000EEA22EF50C3
:101510000F0BDF6EFD0EDBCFE9FFFE0EDBCFEAFF28
:10152000040EE926000EEA22EF5017E0400EDF100D
:10153000E66E92EC16F0E552890E146E240E156ECE
:10154000166A14C0E6FF15C0E6FF16C0E6FFCFEC32
:1015500014F0E552E552E55287D0DFCFE6FF92EC7A
:1015600016F0E5527E0E146E240E156E166A14C027
:10157000E6FF15C0E6FF16C0E6FFCFEC14F0E5521B
:10158000E552E5526C0E146E240E156E166A14C0E8
:10159000E6FF15C0E6FF16C0E6FFCFEC14F0E552FB
:1015A000E552E552010EDB6ADF50F36E010EDBCF30
:1015B000F4FFF350F45C48E2FD0EDBCFE9FFFE0ED2
:1015C000DBCFEAFF050EE926000EEA22E9CF14F090
:1015D000EACF15F0010EDB500F011424E96E000E66
:1015E0001520EA6EEF50E66EE66A670E166E240E60
:1015F000176E186A16C0E6FF17C0E6FF18C0E6FFB0
:10160000CFEC14F0196E050EE15E1950FD0EDBCF24
:10161000E9FFFE0EDBCFEAFF050EE926000EEA2207
:10162000E9CF14F0EACF15F0010EDB500F011424BE
:10163000E96E000E1520EA6EEF50E66E92EC16F0A1
:10164000E552010EDB2AB0D7650E146E240E156E1E
:10165000166A14C0E6FF15C0E6FF16C0E6FFCFEC21
:1016600014F0E552E552E552FB0EDBCFE6FF9EECAF
:1016700002F0E552300EE66E13EC17F0E552FB0E69
:10168000DBCFE6FF71EC02F0E552FC0EDB5002E12D
:10169000010E02D0FC0EDB50E76EFC0EE7CFDBFF45
:1016A000DB508009E66E92EC16F0E552FB0EDBCFC4
:1016B000E6FF9EEC02F0E552010E00D0146E060E1D
:1016C000E15C02E2E16AE552E16E1450E552E7CFD7
:1016D000D9FF1200D9CFE6FFE1CFD9FF030EE126F3
:1016E000FE0EDBCFE6FF1D0EE66ECBEC02F0E55200
:1016F000E552DF6EFE0EDBCFE6FF1C0EE66ECBEC96
:1017000002F0E552E552E76E010EE7CFDBFFFE0E79
:10171000DBCFE6FF2D0EE66ECBEC02F0E552E55294
:10172000E76E020EE7CFDBFF010EDBCFE6FFE66AD6
:10173000DFCFE6FFE66A340E146E240E156E166ACD
:1017400014C0E6FF15C0E6FF16C0E6FFCFEC14F0AC
:10175000176E070EE15E1750020EDBCFE6FFE66A5A
:101760001C0E146E240E156E166A14C0E6FF15C00A
:10177000E6FF16C0E6FFCFEC14F0176E050EE15E33
:101780001750030EE15C03E200D0E16AE552E16E1E
:10179000E552E7CFD9FF1200D9CFE6FFE1CFD9FF5D
:1017A000020EE126DF6A010EDB6ADF50146E156A55
:1017B000D890155004E6FE0E145C000E155813E286
:1017C000010EDB50146E156AD890155004E6FE0E1B
:1017D000145C000E155803E2010EDB2AF1D7010E4E
:1017E000DB6ADF2AE2D7020EE15C02E2E16AE5523F
:0A17F000E16EE552E7CFD9FF1200C9
:0617FA0039EC11F0FB0EBA
:10180000DBCFF3FFDB06F35000090AE087EC11F0B1
:10181000FA0EF2EC11F0F3E1151CF1E1010E01D02A
:10182000000E68EF11F039EC11F03B0EE12402E3F9
:10183000E168E652E16E010EDB6A020EDB6AF90E28
:10184000DBCFF6FFFA0EDBCFF7FFFB0EDBCFF8FFA7
:101850000800F550DF6EDF5002E18CEF10F0250E2E
:10186000DF5C02E07FEF10F0030EDB6A040EDB6A40
:10187000050EDB6A060EDB6A070EDB6AA1EC10F0D0
:101880002D0EDF5C0CE02B0EDF5C09E0200EDF5C30
:1018900006E0230EDF5C03E0300EDF5C1AE1DF5070
:1018A000300A14E0130A0FE0030A0AE00B0A05E00D
:1018B000060AE4E1030EDB80E1D7030EDB82DED70C
:1018C000030EDB84DBD7030EDB86D8D7030EDB8861
:1018D000D5D72A0EDF5C1BE19DEC10F0EBEC10F08D
:1018E00010E0030EDB8008680968130EDBCF0DF0F3
:1018F000140EDBCF0EF041EC16F0040E06C0DBFF39
:1019000003D0130ED4EC10F0A1EC10F00BD0090EA4
:10191000DB6A42EC11F003E0B6EC11F0FAD7090EE5
:10192000D4EC10F0030EDBB0DB982E0EDF5C1BE175
:10193000A1EC10F02A0EDF5C0BE19DEC10F0EBEC5B
:1019400010F003E1130E26EC11F0A1EC10F00BD017
:10195000090EDB6A42EC11F003E0B6EC11F0FAD7A5
:10196000090E26EC11F0680EDF5C07E1A1EC10F027
:10197000680EDF5C1DE1030E18D0740EDF5C17E00B
:101980007A0EDF5C14E0480EDF5C06E0540EDF5C8C
:1019900003E05A0EDF5C02E1020E07D06C0EDF5C42
:1019A00003E06A0EDF5C04E1010E79EC11F0C9DBA3
:1019B000DF506E0A01E17FD31E0A01E192D1200AB5
:1019C00001E18FD13F0A01E149D11A0A01E146D173
:1019D0000D0A01E143D1200A01E140D13A0A01E1B7
:1019E0003DD1200A01E13AD1260A01E135D10D0AA3
:1019F00001E132D11A0A01E1D9D0200A4AE0300AC5
:101A00001FE0460A0EE0250A01E083D3D950F90F02
:101A1000E96EFF0EDA20EA6E010EEE5E000EEE5A5F
:101A2000EE5A87EC11F0250EE66E95DB03E1151CEE
:101A300001E169D383EC11F001E26BD3DB2A69D3B6
:101A4000080EDB6A040EDB50010806E2040EDB041C
:101A50004BEC11F0DB508BDB080EDB5009E0030E82
:101A6000DB50010B05E172DB01E04DD3080EDB6AB0
:101A700064DBEFCFDFFFFBEC11F003E1151C01E1AC
:101A800042D383EC11F001E3DB2A60DB01E141D3B7
:101A90003AD3070EDB5002080FE1C7EC11F0030E3A
:101AA0008EEC11F00E0EEECFDBFF0F0EEECFDBFF54
:101AB000100EEECFDBFF20D0F70EDBCF17F0F80EC5
:101AC000DBCF18F0020E175E000E185AF70E17C083
:101AD000DBFFF80E18C0DBFF17C0E9FF18C0EAFFF4
:101AE0007EEC11F0166A0E0E14C0DBFF0F0E15C04F
:101AF000DBFF100E16C0DBFF0E0EDBCFE6FF0F0E76
:101B0000DBCFE6FF100EDBCFE6FF1CEC16F0E55254
:101B1000E552E552130E07C0DBFF140E08C0DBFFD1
:101B2000060EDB5005E0130EC2EC11F001E26ADB99
:101B3000E6EC11F002E2130E37DBA9EC11F006E03F
:101B4000040EC2EC11F002E2050E2EDB030EDBB038
:101B500005D0FCDA01E0D7D2080EDB6A090EDB6A99
:101B60000E0EDBCFF6FF0F0EDBCFF7FF100EDBCF35
:101B7000F8FF0800F550DF6EDF5014E0ECEC11F0D8
:101B800011E2FBEC11F003E1151C01E1BCD2BBDB5F
:101B900001E3DB2A090EDB2AD9500E0FE96E000E95
:101BA000CBDBE7D7D3DA01E1B4D2ADD2C6DA110E7E
:101BB000EECFDBFF120EEDCFDBFF110EDBCFE6FF2A
:101BC000120EDBCFE6FF0EEC16F0E552E552130ED7
:101BD000F3CFDBFF140EF4CFDBFF060EDB5004E087
:101BE000130ED0DB01E20EDBE6EC11F002E2130E85
:101BF000DBDAAFDB05E0040EC5DB02E2050ED4DA6A
:101C0000030EDBB005D0A2DA01E07DD2080EDB6A5C
:101C1000090EDB6A110EDBCFE9FF120EDBCFEAFF04
:101C2000EFCFDFFFDF5014E0D7DB12E2E4DB03E1AC
:101C3000151C01E168D267DB01E3DB2A090EDB2A10
:101C4000110EDB2ADBCFE9FF120EE8E3DB2AE6D731
:101C50007DDA01E15ED257D2030EDB8E070EDB0484
:101C600010E195DB040E5ADB0A0EEECFDBFF0B0E04
:101C7000EECFDBFF0C0EEECFDBFF0D0EEECFDBFF6A
:101C80006CD0070EDB5003082CE1030EDBAE0DD049
:101C9000B2DA020E76DAEFCF14F0156A166A176A16
:101CA00014AE39D01568166835D0F70EDBCF15F0B5
:101CB000F80EDBCF16F0020E155E000E165AF70E68
:101CC00015C0DBFFF80E16C0DBFF15C0E9FF16C01C
:101CD000EAFFEFCF14F00A0E14C0DBFF0B0EDB6A35
:101CE00038D0070EDB50020809E1030EDBAE04D04A
:101CF00059DB16AE10D00ED055DB0DD0030EDBAE87
:101D000012D079DA020E3DDAF9DA166A176A15AEE0
:101D100002D016681768E2DA0C0E16C0DBFF0D0E53
:101D200017C0DBFF1AD0F70EDBCF16F0F80EDBCFB3
:101D300017F0020E165E000E175AF70E16C0DBFFE4
:101D4000F80E17C0DBFF16C0E9FF17C0EAFFD6DAAE
:101D5000C5DA0C0EDB6A0D0EDB6A060EDB5005E100
:101D6000010EF36E050EF3CFDBFF150EDB6A160EC8
:101D7000DB6AD950370F146E000EDA20156E390E5B
:101D800014C0DBFF3A0E15C0DBFF380EDB6A080E0D
:101D9000DB6A0A0EAEDADF50780A12E0200A10E0A1
:101DA000280A0CE0200A0AE03F0A06E00D0A02E0D9
:101DB000200A08E1020E05D0080E03D0080EDF2627
:101DC000100E97DA030EDBBE02D0DB92DB94DB5001
:101DD000800B24E08ADAD890030EEB50000A08E664
:101DE000000EEE5C000EEE58000EEE58000EEE589F
:101DF00015E213DA0B680C680D680E68A2EC15F09A
:101E00000A0E02C0DBFF0B0E03C0DBFF0C0E04C08A
:101E1000DBFF0D0E05C0DBFF2D0E08D0030EDBA28D
:101E200002D02B0E03D0DBA408D0200EF36E170EC9
:101E3000F3CFDBFF150EDB2A02D0170EDB6A050E8F
:101E4000DB5003E1B7D901E189D03C0E146E2E0EB0
:101E5000156E000E166E070EDBCF17F0186A196AA2
:101E60001A6A17C00BF018C00CF019C00DF01AC098
:101E70000EF0D3D96EEC16F014500224F36E155008
:101E80000320F46E16500420F86EF4CFF7FFF3CF62
:101E9000F6FF0800090EF5CFDBFF580EDF5C0FE1FF
:101EA000610EF36E090E7BD90AE3200E146E090E43
:101EB000DBCFE7FF1450E75E090EE7CFDBFF070E2D
:101EC000DBCF14F0156A166A176A0FDA14C00BF02C
:101ED00015C00CF016C00DF017C00EF0EECF06F0D6
:101EE000EECF07F0EECF08F0EFCF09F06EEC16F072
:101EF00009C0EDFF08C0EDFF07C0EDFF06C0EFFF12
:101F0000390EDBCFE9FFDB063A0EDBCFEAFF01E259
:101F1000DB06090EDBCFEFFF150EDB2A4BD995E16F
:101F2000030EDBA61DD06F0EDF5C06E1C1D918E3FE
:101F3000150EDB285BDA14D0780EDF5C09E0580E52
:101F4000DF5C06E0620EDF5C03E0420EDF5C08E16E
:101F5000020EF36E160EF3CFDBFF02D0150EDB6A16
:101F6000030EDB50100B0EE0040EDBCF14F0050E59
:101F7000DB50D880145406E2060EDB5003E1040E59
:101F8000DB5034DA95D90AE2050EDBCFE7FF150EF8
:101F9000DB50E75E050EE7CFDBFF02D0050EDB6A04
:101FA000040EDBCF14F0160E45D9D880145414E279
:101FB000160EDBCFE6FF150EDBCFE6FF040EDBCF00
:101FC000E6FF050EDB50E552E75CE552D880E754AA
:101FD000E552D880E7545FD9030EDB50010B0BE1CB
:101FE000080EDB5008E0B2D801E08DD0080EDB50BF
:101FF000BED8080EDB6A170EDB5007E088D9170E33
:10200000F1D903E1151C01E17ED0160EDB5016E07C
:102010007ED9300EE66E9FD802E1151C74E077D9A8
:10202000DFCFE6FF60EC15F0E552E552E552F4CF64
:1020300015F00001F31C02E1151C65E0050EDBCF75
:1020400014F0160EDB50D880145409E2050EDBCFD5
:10205000E7FF160EDB50E75E050EE7CFDBFF300E25
:10206000E66E050ECBD94FE1390EDB2ADBCFE9FF57
:102070003A0E01E3DB2ADBCFEAFF090EEFCFDBFFED
:10208000DB500EE044D9090EADD902E1151C3BE04E
:10209000390EDB2ADBCFE9FF3A0EEDE3DB2AEBD783
:1020A00055D831E1160EDBCFE6FF080EC3D8E55256
:1020B000E7245DD82ED0070EDB50030A1CE0010A8E
:1020C00014E0030A07E07BD9DBCFEEFF020EDBCF83
:1020D000EDFF1FD0F5D8196A17AE02D0186819683D
:1020E0002CD8BCD819C0EEFF14D0EAD817BE186897
:1020F00024D8B4D80ED063D9DBCFEFFF0AD07BD978
:1021000005E1151C03E1F368F46810D0FCD801E385
:10211000DB2A79D928EF0CF0010EDBCF14F0020E88
:10212000DBCF15F014C0F3FF15C0F4FF3B0EE15CEC
:1021300002E2E16AE552E16ECBD029D9020E8EEFC0
:1021400011F061D90800F550DF6E1200200EE66E26
:10215000080EFEEF11F060EC15F0E552E552E55285
:10216000F3CF14F0F4CF15F00001F31C1200146E3D
:10217000156AD950010F4DD91450EE261550ED2295
:102180001200185E000E195AF70E18C0DBFFF80E89
:1021900019C0DBFF18C0E9FF19C0EAFF1200DBCF4E
:1021A000F4FFF350F45C1200DB50E76E040EE7CF4F
:1021B000DBFF12000A0EDBCF14F00B0EDBCF15F0A5
:1021C0000C0EDBCF16F00D0EDBCF17F014501510F0
:1021D000161017101200130EEECFDBFF140EEDCF0A
:1021E000DBFF130EDBCF14F0140EDBCF15F0000174
:1021F000800E15141200F70EDBCF18F0F80EDBCFAF
:1022000019F01200050EDB50E66ED950130F01D9FC
:10221000E552E750EE6EED6A12000A0EDBCF06F0D3
:102220000B0EDBCF07F00C0EDBCF08F00D0EDBCF73
:1022300009F01200DBCFE6FF150EDBCFE6FF050E3F
:10224000DB50E552E724E552E7241200DB50CED8FC
:10225000010EF36E060EF3CFDBFF1200EE50EFCF50
:10226000EAFFE96E16C0EEFF17C0EEFF18C0EEFFE2
:102270001200D9CFE6FFDACFE6FFE1CFD9FFE2CFF8
:10228000DAFF1200DFCFE6FFE66AC7EC16F0E55290
:10229000E552F3501200E76E080EE7CFDBFF1200A5
:1022A000EECF14F0EECF15F0EFCF16F0176A120054
:1022B000050EDBCF14F0150EDB50D880145412003D
:1022C000010EDBCF16F0020EDBCF17F0186A1200FA
:1022D000E552E5CFDAFFE7CFD9FF12000A0E14C0AE
:1022E000DBFF0B0E15C0DBFF1200D9500A0F09EF00
:1022F00012F0F36E070EF3CFDBFF1200EECF14F0F7
:10230000EFCF15F01200010EDB2A020E1200FC0EB8
:10231000DBCFE6FFFD0EDBCFE6FF1200145E000E02
:10232000155AF70E14C0DBFFF80E15C0DBFF14C002
:10233000E9FF15C0EAFF1200DA20EA6EEF2AEECFBD
:10234000F6FF000EEF22EECFF7FFEF22EECFF8FF01
:102350001200040EDBCFE6FF130EDB50E552E75C04
:102360009ADFDB5004DF060EDB501200090EDB5053
:102370000A0DF350DF24D00FE76E090EE7CFDBFF25
:10238000A1EF10F0DB50F36E050ECFEF10F0F70E5B
:10239000DBCF14F0F80EDBCF15F01200DFCFE6FF35
:1023A000ABEF10F028DF030EECDE50EF11F0FDEC88
:1023B0000BF0E552E552E552E55200091200BDDE90
:1023C000EE50EFCFEAFFE96E010E1200130EDB5064
:1023D000F36E040ECFEF10F0040EDB50F36E090E17
:1023E000CFEF10F0DBCFE6FFABEF10F0E76E050E9E
:1023F000E7CFDBFF12008BDFCEEF11F0DBCFE6FF84
:1024000086DFD7EF11F0D950F90FE96EFF0E9CEF80
:0C24100011F0E96E000EDA20EA6E1200F6
:04241C000D5468658E
:10242000206572726F722062797465202D3E2025BE
:1024300062200A000D20746865207265635F657212
:10244000726F7220697320256920616E6420746840
:102450006520746563206572726F72206973202530
:102460006920200A000A005B25785D000D20777244
:10247000697474696E672064617461200A000D726A
:102480007472203D3D20300A000D72747220213D8F
:1024900020300A000D74657374696E6720696420CA
:1024A00025782C20616E64202562206D6573736130
:1024B0006765206C656E6774682025690A000D7376
:1024C0006F6D657468696E672068617320676F6EF1
:1024D000652077726F6E6720696E20746865207260
:1024E000656769737465722073656C656374696F81
:1024F0006E207061727420616370656374206F6612
:10250000205258202F6E000D205265676973746544
:102510007220736C656374696F6E206E6F742056E1
:10252000616C6964202D4C6F6164206D657373610B
:102530006765206661696C6564200A000D206D6F17
:102540006420320A000D206D6F6431200A000D54A2
:1025500068657265206973206E6F206D65737361A5
:10256000676520696E2074686520627566666572AD
:10257000200A000D2052585F737461747573202D0A
:102580003E202562200A000D496E69742054696D51
:10259000696E6720697320736574200A000D2053EB
:1025A0006F6D655468696E672066756B656420752C
:1025B00070200A000D2077616974696E67200A0037
:1025C0000D20737461747573207761732073657463
:1025D00020746F20636F6E666967206D6F6465207D
:1025E0000A000D204572726F7220696E2073657447
:1025F00074696E6720746F20636F6E666967206D03
:102600006F64652043414E53544154203D20256260
:10261000200A000D20737461747573207761732034
:1026200073657420746F206C6F6F704261636B20F0
:102630006D6F6465200A000D204572726F7220690B
:102640006E2073657474696E6720746F206C6F6F91
:10265000704261636B206D6F6465202043414E536F
:10266000544154203D202562200A000D20737461DE
:10267000747573207761732073657420746F206C98
:10268000697374656E206D6F6465200A000D2045C6
:1026900072726F7220696E2073657474696E672040
:1026A000746F206C697374656E206D6F6465202093
:1026B0002043414E53544154203D202562200A00BE
:1026C0000D2057616B65207570206661696C6564CB
:1026D000200A000D20737461747573207761732074
:1026E00073657420746F204177616B65206D6F6432
:1026F00065200A000D20737461747573207761730F
:102700002073657420746F20736C656570206D6F25
:102710006465200A000D204572726F7220696E2078
:1027200073657474696E6720746F20536C6565708F
:10273000206D6F64652020202043414E5354415446
:10274000203D20202562200A000D7374617475738A
:10275000207761732073657420746F206E6F726DC3
:10276000616C206D6F64650A000D204572726F7296
:1027700020696E2073657474696E6720746F206EB3
:102780006F726D616C206D6F646520202043414E37
:1027900053544154203D202562200A000A0D696EE1
:1027A00076616C696465205350492064657669637D
:1027B0006520746F20616374697661746520287781
:1027C00068617420746865206675636B206172654A
:1027D00020796F7520646F696E673F29000D202096
:1027E00054686520646174612061747420256920D7
:1027F0002069732020257820200A000D5468652068
:1028000061646472657373206973202578200A00FF
:102810000D2073696D706C6520626974206F70653E
:10282000726174696F6E7320776F726B2072696763
:102830006874200A000D204572726F72202D736932
:102840006D706C65206269742073686966742066B7
:1028500061696C73200A000D2053504920666F7225
:10286000204D43505F32353135206973206F7065DC
:102870006E200A000D4661696C657220746F2069D4
:102880006E6974204D435020323531352C207265ED
:10289000736574696E67200A000A0D2053657269BA
:1028A000616C204F70656E200A000A0D7468652007
:1028B000696E566F6C7461676520697320256920A5
:1028C0002C616E6420746865206F75742063757266
:1028D00072656E742069732025692020616E642002
:1028E000746865206F7574566F6C746167652069D4
:0F28F000732025690A000D0A68656C6C6F0A0079
:0128FF0007D1
:10290000060EF66E000EF76E000EF86E000109005E
:10291000F550656F0900F550666F03E1656701D0FA
:102920003DD00900F550606F0900F550616F090056
:10293000F550626F09000900F550E96E0900F55085
:10294000EA6E090009000900F550636F0900F550AF
:10295000646F09000900F6CF67F0F7CF68F0F8CF91
:1029600069F060C0F6FF61C0F7FF62C0F8FF0001C8
:10297000635302E1645307E00900F550EE6E63070C
:10298000F8E26407F9D767C0F6FF68C0F7FF69C0CF
:0E299000F8FF00016507000E665BBFD712005E
:02299E00D9CF8F
:1029A000E6FFDACFE6FFE1CFD9FFE2CFDAFFE6526A
:1029B000E652E652E652D950FB0F146EFF0EDA20B3
:1029C000156E14C0DEFFDD6EDECFE6FFDDCFE6FF65
:1029D000FB0EDBCFE6FFFC0EDBCFE6FFFD0EDBCF11
:1029E000E6FF6AC0E6FF6BC0E6FF13EC0CF0146E66
:1029F000070EE15C02E2E16AE552E16E1450020E5C
:102A0000F3CFDBFF030EF4CFDBFF020EDBCF14F0BE
:102A1000030EDBCF15F014C0F3FF15C0F4FF040E56
:102A2000E15C02E2E16AE552E16EE552E5CFDAFFF0
:062A3000E7CFD9FF120000
:0A2A3600D9CFE6FFDACFE6FFE1CFCB
:102A4000D9FFE2CFDAFFAC6AAB6AFD0EDBB0AC882F
:102A5000DBA202D0AC8CAB8CDBB4AC8EDBA602D09C
:102A6000AB8801D0AB8ADBB8AC849E98DBBAAB866E
:102A7000DBAC02D09D8A01D09D9A9E9ADBAE02D03B
:102A80009D8801D09D98FB0EDB50AF6EFB0EFC0EB7
:102A9000DBCF15F015C014F0156A1450B06EAC8A77
:102AA000AB8E949C948EAC50100B04E0AC50800B19
:102AB00001E1948CE552E5CFDAFFE7CFD9FF1200B0
:102AC000D9CFE6FFDACFE6FFE1CFD9FFE2CFDAFFD9
:102AD000FB0EDBCF14F0FC0EDBCF15F00001800EF7
:102AE00015141AE1FB0EDBCFE9FFFC0EDBCFEAFF8A
:102AF000EECFF3FFEDCFF4FFEE2A000EEF22F3CF7F
:102B0000E9FFF4CFEAFFFD0EDBCFEFFFEF50156AD0
:102B1000F36E15C0F4FF10D0FB0EDB50FE0806E18B
:102B2000FD0EDBCFE6FFF7EC16F005D0FD0EDBCF98
:102B3000E6FF27EC17F0E552E552E5CFDAFFE7CFE5
:042B4000D9FF1200A7
:0C2B440006500B02F3CF02F0F4CF03F0B8
:102B50000C02F3500326000EF420046E06500D0202
:102B6000F3500426000EF420056E06500E02F350BA
:102B7000052607500B02F3500326F4500422000EE2
:102B8000052207500C02F3500426F450052207508A
:102B90000D02F350052608500B02F3500426F450A2
:102BA000052208500C02F350052609500B02F35081
:042BB00005261200E4
:0C2BB400D9CFE6FFDACFE6FFE1CFD9FF72
:102BC000E2CFDAFF3F0EC716C66AFD0EDB50C61213
:102BD000FB0EDB50C712FC0EDB50030A09E0010AB2
:102BE00004E0020A06E1C78C04D0C78CC68801D075
:102BF000C688FD0EDB50050A05E0010A05E1948652
:102C0000928A03D0948601D094969488949AC68A26
:0C2C1000E552E5CFDAFFE7CFD9FF120054
:042C1C00FE0EE3CFF6
:102C2000E9FFFF0EE3CFEAFFF36AF46AEE5203E036
:102C3000F34AF42AFBD71200FF0EE3CFF8FFE55268
:102C4000FF0EE3CFF7FFE552FF0EE3CFF6FFE552AD
:102C5000E66AE66AE66A0900F55209E0FD0EE32A33
:102C600005E1FE0EE32A02E1FF0EE32AF4D7FD0E92
:102C7000E3CF07F0FE0EE3CF08F0FF0EE3CF09F03D
:022C8000120040
:0E2C820009C013F008C012F008500D02F4CF84
:102C900007F0F3CF06F009500E02F4CF09F0F3CF9E
:102CA00008F00D02F3500726F4500822E86A0922C2
:102CB00012500E02F3500726F4500822E86A092247
:102CC0000EAE67EF16F01250085E1350095A13AE9D
:0C2CD000000C0D50085E0E50095A000C5C
:042CDC00056A046A17
:102CE000036A026A200EE76ED89006360736083669
:102CF000093602360336043605360B50025C0C509A
:102D000003580D5004580E50055809E30B50025E4D
:102D10000C50035A0D50045A0E50055A062AE72E3D
:042D2000E4D71200E2
:0C2D2400D9CFE6FFDACFE6FFE1CFD9FF00
:102D3000E2CFDAFFE652C950DF6E9E96C69EFD0EC8
:102D4000DB50C96EC6AE02D0FF0E03D09EA6FED7E2
:102D5000000EE552E552E5CFDAFFE7CFD9FF1200CA
:102D6000D9CFE6FFDACFE6FFE1CFD9FFE2CFDAFF36
:102D7000E652C950DF6E9E96C96A9EA6FED7C9501C
:0E2D8000E552E552E5CFDAFFE7CFD9FF1200AA
:022D8E00F36AE6
:102D9000F46AFF0EE124E96EFF0EE220EA6EED66B2
:102DA00007D02F0EEF6404D03A0EEF6001D0F32A63
:022DB00012000F
:0E2DB200000EF36E00EE00F0030E01D81200CA
:102DC000EA6002D0EE6AFCD7F350E9601200EE6AC6
:022DD000FCD72E
:0E2DD20012EE00F022EE00F0F86A019C80EC98
:0E2DE00014F028EC17F008EC01F0FBD71200FD
:022DEE00FF0ED6
:102DF000E350ACBA04D0AF6AAB8EAC8A949CACA260
:0A2E0000FED7AD6EF36EF46A120007
:062E0A00FF0EE3501C6EF8
:102E10001B0E00D001D0200EE76EE72EFED71C2E31
:062E2000FAD700D01200F9
:0A2E2600FF0EE350E84E120000001A
:0C2E300000D000D000D0E82EFAD712002D
:042E3C0030313233CC
:0D2E400034353637383961626364656600E9
:022E4E00120070
:022E500012006E
:022E5200FEFF81
:020000040030CA
:0100010032CC
:01000200FFFE
:01000300FEFE
:01000600AB4E
:00000001FF
