:020000040000FA
:0600000024EF1BF01200CA
:0A0006000100C83600006A00000087
:0400100002000000EA
:0C001400D9CFE6FFE1CFD9FFFD0EDB5095
:10002000070802E2FF0E14D0FE0EDBCFE6FF010E42
:10003000F36EFD0EDB5004E0D890F336E806FCE1E9
:10004000F350E552E71402E1000E01D0010E00D09A
:10005000E552E7CFD9FF1200D9CFE6FFE1CFD9FFB4
:10006000FE0EDB5002E183901BD0FE0EDB0402E1AA
:10007000839216D0FE0EDB50020802E1839410D06A
:10008000120E146E260E156E166A14C0E6FF15C009
:10009000E6FF16C0E6FF37EC19F0E552E552E552EF
:1000A000010EE66E4EEC1BF0E552E552E7CFD9FFAC
:1000B0001200D9CFE6FFE1CFD9FFFE0EDB5002E1FF
:1000C00083801BD0FE0EDB0402E1838216D0FE0E7D
:1000D000DB50020802E1838410D0120E146E260E4B
:1000E000156E166A14C0E6FF15C0E6FF16C0E6FFDF
:1000F00037EC19F0E552E552E552010EE66E4EEC92
:100100001BF0E552E552E7CFD9FF1200D9CFE6FF49
:10011000E1CFD9FFE652FD0EDBCFE6FF9DDFE552D2
:10012000030EE66ECDEC1AF0E552FE0EDBCFE6FFD5
:10013000CDEC1AF0E552EBEC1AF0DF6EFD0EDBCFE2
:10014000E6FFB7DFE552DF5000D0E552E552E7CFDA
:10015000D9FF1200D9CFE6FFE1CFD9FFFC0EDBCFEC
:10016000E6FF7ADFE552020EE66ECDEC1AF0E552BC
:10017000FE0EDBCFE6FFCDEC1AF0E552FD0EDBCF35
:10018000E6FFCDEC1AF0E552FC0EDBCFE6FF91DF87
:10019000E55200D0E552E7CFD9FF1200D9CFE6FFF4
:1001A000E1CFD9FFFB0EDBCFE6FF56DFE552050EB0
:1001B000E66ECDEC1AF0E552FE0EDBCFE6FFCDEC9D
:1001C0001AF0E552FD0EDBCFE6FFCDEC1AF0E5525A
:1001D000FC0EDBCFE6FFCDEC1AF0E552FB0EDBCFD9
:1001E000E6FF67DFE55200D0E552E7CFD9FF120006
:1001F000D9CFE6FFE1CFD9FFE652FE0EDBCFE6FF17
:10020000E66AE00EE66E0F0EE66EC8DFE552E552D6
:10021000E552E552FE0EDBCFE6FF0F0EE66E76DF0F
:10022000E552E552DF6EE00EDF141CE0DFCF14F084
:10023000156A14BE156814C0E6FF15C0E6FFDF0E90
:10024000166E250E176E186A16C0E6FF17C0E6FF79
:1002500018C0E6FF37EC19F0196E050EE15E195073
:1002600012D011D0BF0E146E250E156E166A14C072
:10027000E6FF15C0E6FF16C0E6FF37EC19F0E552C1
:10028000E552E55200D0E552E552E7CFD9FF120022
:10029000D9CFE6FFE1CFD9FFE652FE0EDBCFE6FF76
:1002A000200EE66EE00EE66E0F0EE66E77DFE5528C
:1002B000E552E552E552FE0EDBCFE6FF0F0EE66E8D
:1002C00025DFE552E552DF6EE00EDF1420081CE06A
:1002D000DFCF14F0156A14BE156814C0E6FF15C010
:1002E000E6FF8B0E166E250E176E186A16C0E6FF17
:1002F00017C0E6FF18C0E6FF37EC19F0196E050EBF
:10030000E15E195012D011D06A0E146E250E156ED2
:10031000166A14C0E6FF15C0E6FF16C0E6FF37EC0C
:1003200019F0E552E552E55200D0E552E552E7CF2B
:10033000D9FF1200D9CFE6FFE1CFD9FFE652FE0E7A
:10034000DBCFE6FF400EE66EE66E2B0EE66E26DF96
:10035000E552E552E552E552300EE66E4EEC1BF0EA
:10036000E552FE0EDBCFE6FF2B0EE66ECFDEE5524A
:10037000E552DF6EDFAC11D0490E146E250E156EFE
:10038000166A14C0E6FF15C0E6FF16C0E6FF37EC9C
:1003900019F0E552E552E55210D0360E146E250ED6
:1003A000156E166A14C0E6FF15C0E6FF16C0E6FF1C
:1003B00037EC19F0E552E552E55200D0E552E5522E
:1003C000E7CFD9FF1200D9CFE6FFE1CFD9FFE65240
:1003D000FE0EDBCFE6FF600EE66EE00EE66E0F0E61
:1003E000E66EDCDEE552E552E552E552FE0EDBCF6D
:1003F000E6FF0F0EE66E8ADEE552E552DF6EE00E96
:10040000DF14600802E1000E01D0010EFE0EDB5089
:100410001CE0DFCF14F0156A14BE156814C0E6FFA7
:1004200015C0E6FF030E166E250E176E186A16C06D
:10043000E6FF17C0E6FF18C0E6FF37EC19F0196EAB
:10044000050EE15E195012D011D0E10E146E240E8B
:10045000156E166A14C0E6FF15C0E6FF16C0E6FF6B
:1004600037EC19F0E552E552E55200D0E552E5527D
:10047000E7CFD9FF1200D9CFE6FFE1CFD9FFE6528F
:10048000FE0EDBCFE6FF400EE66EE00EE66E0F0ED0
:10049000E66E84DEE552E552E552E552FE0EDBCF14
:1004A000E6FF0F0EE66E32DEE552E552DF6EE00E3D
:1004B000DF14400802E1000E01D0010EFE0EDB50F9
:1004C0001CE0DFCF14F0156A14BE156814C0E6FFF7
:1004D00015C0E6FFAD0E166E240E176E186A16C014
:1004E000E6FF17C0E6FF18C0E6FF37EC19F0196EFB
:1004F000050EE15E195012D011D0890E146E240E33
:10050000156E166A14C0E6FF15C0E6FF16C0E6FFBA
:1005100037EC19F0E552E552E55200D0E552E552CC
:10052000E7CFD9FF1200D9CFE6FFE1CFD9FF020E06
:10053000E126FE0EDBCFE6FF800EE66EE00EE66EF5
:100540000F0EE66E2BDEE552E552E552E552FE0E49
:10055000DBCFE6FF0F0EE66ED9DDE552E552DF6E2A
:10056000E00EDF1480081BE0DFCF14F0156A14BE24
:10057000156814C0E6FF15C0E6FF580E166E240E6F
:10058000176E186A16C0E6FF17C0E6FF18C0E6FF30
:1005900037EC19F0196E050EE15E195010D0360EC9
:1005A000146E240E156E166A14C0E6FF15C0E6FF21
:1005B00016C0E6FF37EC19F0E552E552E552FE0EA3
:1005C000DBCFE6FF0E0EE66EA1DDE552E552E76EEB
:1005D000010EE7CFDBFF010EDBA011D02A0E146E57
:1005E000240E156E166A14C0E6FF15C0E6FF16C08D
:1005F000E6FF37EC19F0E552E552E552ECD7020E72
:10060000E15C02E2E16AE552E16EE552E7CFD9FF33
:100610001200D9CFE6FFE1CFD9FFFE0EDBCFE6FF18
:100620001BDDE552FE0EDBCFE6FF080EE66E0F0E79
:10063000E66E90DDE552E552E552FE0EDBCFE6FFB9
:1006400038DDE552E552E7CFD9FF1200D9CFE6FFFA
:10065000E1CFD9FF050EE126FC0EDBCFE9FFFD0E51
:10066000DBCFEAFF010EEFCFDBFFE76EFC0EDBCF47
:10067000E9FFFD0EDBCFEAFFE750E926000EEA2294
:10068000020EEFCFDBFFE76EFC0EDBCFE9FFFD0EC6
:10069000DBCFEAFFE750E926000EEA22030EEFCF98
:1006A000DBFFE76EFC0EDBCFE9FFFD0EDBCFEAFFE1
:1006B000E750E926000EEA22040EEFCFDBFFF80E2A
:1006C000956EFE0EDBCFE6FFC7DCE552010EE66E4F
:1006D0004EEC1BF0E552C00EE66ECDEC1AF0E55282
:1006E000FE0EDBCFE6FFE5DCE552300EE66E4EECAB
:1006F0001BF0E552FE0EDBCFE6FFAEDCE552020E4C
:10070000E66ECDEC1AF0E552280EE66ECDEC1AF04E
:10071000E552040EDBCFE6FFCDEC1AF0E552030EF6
:10072000DBCFE6FFCDEC1AF0E552020EDBCFE6FFA1
:10073000CDEC1AF0E552010EDBCFE6FFCDEC1AF05E
:10074000E552FE0EDBCFE6FFB4DCE552FE0EDBCF5A
:10075000E6FFE66A0C0EE66EFDDCE552E552E55278
:10076000FE0EDBCFE6FFE66A0D0EE66EF3DCE55229
:10077000E552E552FE0EDBCFE6FF600EE66EE66E5A
:10078000E9DCE552E552E552FE0EDBCFE6FF600EF6
:10079000E66E700EE66EDEDCE552E552E552FE0EC8
:1007A000DBCFE6FFE66A0F0EE66ED4DCE552E552DB
:1007B000E552FE0EDBCFE6FF2A0EE66EA7DCE55221
:1007C000E552DF6E010EE66E40EC1BF0E552020EC4
:1007D000DB50DF5C14E0130E146E240E156E166AE7
:1007E00014C0E6FF15C0E6FF16C0E6FF37EC19F0AF
:1007F000E552E552E552F368F46814D010D0FD0ECE
:10080000146E230E156E166A14C0E6FF15C0E6FFBF
:1008100016C0E6FF37EC19F0E552E552E552F36AEF
:10082000F46A00D0050EE15C02E2E16AE552E16E95
:10083000E552E7CFD9FF1200D9CFE6FFE1CFD9FFCC
:10084000E652FD0EDBCFE6FF07DCE552FE0EDBCF06
:10085000E6FFCDEC1AF0E552EBEC1AF0DF6EFD0E80
:10086000DBCFE6FF26DCE552DF5000D0E552E55253
:10087000E7CFD9FF1200D9CFE6FFE1CFD9FFFE0EB7
:10088000DBCFE6FF50DEE552FE0EDBCFE6FF680E63
:10089000E66E600EE66E5EDCE552E552E552FE0E57
:1008A000DBCFE6FF680EE66E700EE66E53DCE552B7
:1008B000E552E552FE0EDBCFE6FF9ADCE55200D0B2
:1008C000E552E7CFD9FF1200D9CFE6FFE1CFD9FF3C
:1008D0001B0EE126FC0EDBCFE6FFB00EE66EACDFB2
:1008E000E552E552DF6EFC0EDBCFE6FF46EC09F089
:1008F000E552DFCFE6FFE66AE90E146E230E156EB1
:10090000166A14C0E6FF15C0E6FF16C0E6FF37EC16
:1009100019F0176E050EE15E1750060EE66EDFCF7A
:10092000E6FF0AEC00F0E552E552000904E0DE5271
:10093000900EDD6E20D0070EE66EDFCFE6FF0AECEC
:1009400000F0E552E552000904E0DE52940EDD6E3F
:1009500012D0C40E146E230E156E166A14C0E6FF74
:1009600015C0E6FF16C0E6FF37EC19F0E552E55278
:10097000E552000EECD0FC0EDBCFE6FF2CEC00F0D5
:10098000E552010EDBCFE6FFCDEC1AF0E552050E85
:10099000DB6A060EDB6AEBEC1AF0146E156A030EC6
:1009A000D89014361536E804FBE1050E14C0DBFFC1
:1009B000060E15C0DBFFEBEC1AF0146E156A050E7F
:1009C000D89015321432E804FBE1D950050FE96ED6
:1009D000DACFEAFF1450EE121550ED12FD0EDBCF08
:1009E000E9FFFE0EDBCFEAFF050EDBCFEEFF060EC2
:1009F000DBCFEDFFEBEC1AF0E76E020EE7CFDBFF8B
:100A0000EBEC1AF0E76E020EE7CFDBFFEBEC1AF02F
:100A1000E76E030EE7CFDBFFFD0EDBCFE9FFFE0E37
:100A2000DBCFEAFF030EE926000EEA22030EDBCF3E
:100A3000EFFF040EDB6A030EDB50F36E040EDBCF18
:100A4000F4FFF350F45C33E2EBEC1AF0E66ED950AD
:100A5000070F166EDACF17F0040EDB500F011624C5
:100A6000E96E000E1720EA6EE552E750EF6EE66E73
:100A7000FD0EDBCFE9FFFE0EDBCFEAFF050EE92618
:100A8000000EEA22E9CF14F0EACF15F0040EDB5095
:100A90001424E96E000E1520EA6EE552E750EF6E61
:100AA000040EDB28E76E040EE7CFDBFFC4D7FC0E95
:100AB000DBCFE6FF59EC00F0E552060EE66EDFCF25
:100AC000E6FF0AEC00F0E552E55200091FE0FC0EDB
:100AD000DBCFE6FFE66A010EE66E2C0EE66ECEEC8C
:100AE00000F0E552E552E552E552BB0E146E230EBE
:100AF000156E166A14C0E6FF15C0E6FF16C0E6FFC5
:100B000037EC19F0E552E552E5521ED0FC0EDBCF72
:100B1000E6FFE66A020EE66E2C0EE66ECEEC00F004
:100B2000E552E552E552E552B20E146E230E156EF3
:100B3000166A14C0E6FF15C0E6FF16C0E6FF37ECE4
:100B400019F0E552E552E552010EDB5000D0146E6B
:100B50001B0EE15C02E2E16AE552E16E1450E552DF
:100B6000E7CFD9FF1200D9CFE6FFE1CFD9FF060EBC
:100B7000E126010EDB6AFC0EDB501AE0FC0EDB0402
:100B800017E0FC0EDB50020813E07D0E146E230EFE
:100B9000156E166A14C0E6FF15C0E6FF16C0E6FF24
:100BA00037EC19F0E552E552E552FF0E99D129D004
:100BB000FC0EDB50020806E1040EF36EFC0EF3CFD0
:100BC000DBFF1FD0FC0EDB0406E1020EF36EFC0E11
:100BD000F3CFDBFF16D0FC0EDB5003E1FC0EDB6A2B
:100BE00010D0340E146E230E156E166A14C0E6FF74
:100BF00015C0E6FF16C0E6FF37EC19F0E552E552E6
:100C0000E552FD0EDBCFE9FFFE0EDBCFEAFFE9CFB9
:100C100014F0EACF15F0040E14C0DBFF050E15C06A
:100C2000DBFF040EDBCFE9FF050EDBCFEAFFEF5061
:100C3000200D020EF3CFDBFF010EE76E040EDBCFBB
:100C4000E9FF050EDBCFEAFFE750E926000EEA22B6
:100C5000EF50200DF3CF14F0040EDBCFE9FF050EAB
:100C6000DBCFEAFFEF50E840E840E8401F0B1410EC
:100C7000E76E030EE7CFDBFFFD0EDBCFE9FFFE0ED5
:100C8000DBCFEAFF030EE926000EEA22EF50E66E04
:100C9000E66AFD0EDBCFE9FFFE0EDBCFEAFFEECF0B
:100CA000E6FFEFCFE6FFFD0EDBCFE9FFFE0EDBCF69
:100CB000EAFFEECFE6FFEFCFE6FF0A0E146E230E3B
:100CC000156E166A14C0E6FF15C0E6FF16C0E6FFF3
:100CD00037EC19F0176E090EE15E1750FB0EDBCFF3
:100CE000E6FF2CEC00F0E552FC0EDB504009E66E0E
:100CF000CDEC1AF0E552030EDBCFE6FFCDEC1AF097
:100D0000E552020EDBCFE6FFCDEC1AF0E552E66AC3
:100D1000CDEC1AF0E552E66ACDEC1AF0E552FD0E84
:100D2000DBCFE9FFFE0EDBCFEAFF030EE926000E64
:100D3000EA22EF500F0BDF6EFD0EDBCFE9FFFE0E58
:100D4000DBCFEAFF040EE926000EEA22EF5017E09F
:100D5000400EDF10E66ECDEC1AF0E552FF0E146E79
:100D6000220E156E166A14C0E6FF15C0E6FF16C007
:100D7000E6FF37EC19F0E552E552E55287D0DFCFB8
:100D8000E6FFCDEC1AF0E552F40E146E220E156E4D
:100D9000166A14C0E6FF15C0E6FF16C0E6FF37EC82
:100DA00019F0E552E552E552E20E146E220E156E70
:100DB000166A14C0E6FF15C0E6FF16C0E6FF37EC62
:100DC00019F0E552E552E552010EDB6ADF50F36E91
:100DD000010EDBCFF4FFF350F45C48E2FD0EDBCFF5
:100DE000E9FFFE0EDBCFEAFF050EE926000EEA2240
:100DF000E9CF14F0EACF15F0010EDB500F011424F7
:100E0000E96E000E1520EA6EEF50E66EE66ADD0E22
:100E1000166E220E176E186A16C0E6FF17C0E6FFA0
:100E200018C0E6FF37EC19F0196E050EE15E195097
:100E3000FD0EDBCFE9FFFE0EDBCFEAFF050EE92654
:100E4000000EEA22E9CF14F0EACF15F0010EDB50D4
:100E50000F011424E96E000E1520EA6EEF50E66EC5
:100E6000CDEC1AF0E552010EDB2AB0D7DB0E146E82
:100E7000220E156E166A14C0E6FF15C0E6FF16C0F6
:100E8000E6FF37EC19F0E552E552E552FB0EDBCFF9
:100E9000E6FF59EC00F0E552300EE66E4EEC1BF02A
:100EA000E552FB0EDBCFE6FF2CEC00F0E552FC0E2A
:100EB000DB5002E1010E02D0FC0EDB50E76EFC0EAF
:100EC000E7CFDBFFDB508009E66ECDEC1AF0E55290
:100ED000FB0EDBCFE6FF59EC00F0E552010E00D02F
:100EE000146E060EE15C02E2E16AE552E16E145016
:100EF000E552E7CFD9FF1200D9CFE6FFE1CFD9FF06
:100F0000060EE126010EDB6AFC0EDB501AE0FC0E39
:100F1000DB0417E0FC0EDB50020813E07D0E146EBC
:100F2000230E156E166A14C0E6FF15C0E6FF16C044
:100F3000E6FF37EC19F0E552E552E552FF0E9AD183
:100F400029D0FC0EDB50020806E1040EF36EFC0E05
:100F5000F3CFDBFF1FD0FC0EDB0406E1020EF36EC5
:100F6000FC0EF3CFDBFF16D0FC0EDB5003E1FC0ED2
:100F7000DB6A10D0340E146E230E156E166A14C080
:100F8000E6FF15C0E6FF16C0E6FF37EC19F0E552A4
:100F9000E552E552FD0EDBCFE9FFFE0EDBCFEAFFA7
:100FA000E9CF14F0EACF15F0040E14C0DBFF050EF4
:100FB00015C0DBFF040EDBCFE9FF050EDBCFEAFF38
:100FC000EF50200D020EF3CFDBFF010EE76E040E93
:100FD000DBCFE9FF050EDBCFEAFFE750E926000E85
:100FE000EA22EF50200DF3CF14F0040EDBCFE9FF1F
:100FF000050EDBCFEAFFEF50E840E840E8401F0B6A
:101000001410E76E030EE7CFDBFFFD0EDBCFE9FF29
:10101000FE0EDBCFEAFF030EE926000EEA22EF50B8
:10102000E66EE66AFD0EDBCFE9FFFE0EDBCFEAFFE0
:10103000EECFE6FFEFCFE6FFFD0EDBCFE9FFFE0EC2
:10104000DBCFEAFFEECFE6FFEFCFE6FF0A0E146E2E
:10105000230E156E166A14C0E6FF15C0E6FF16C013
:10106000E6FF37EC19F0176E090EE15E1750FB0E24
:10107000DBCFE6FF2CEC00F0E552FC0EDB50400924
:10108000E66ECDEC1AF0E552030EDBCFE6FFCDECB9
:101090001AF0E552020EDB500809E66ECDEC1AF0AC
:1010A000E552E66ACDEC1AF0E552E66ACDEC1AF0AC
:1010B000E552FD0EDBCFE9FFFE0EDBCFEAFF030EAC
:1010C000E926000EEA22EF500F0BDF6EFD0EDBCF9C
:1010D000E9FFFE0EDBCFEAFF040EE926000EEA224E
:1010E000EF5017E0400EDF10E66ECDEC1AF0E5523F
:1010F000FF0E146E220E156E166A14C0E6FF15C0A0
:10110000E6FF16C0E6FF37EC19F0E552E552E5526E
:1011100087D0DFCFE6FFCDEC1AF0E552F40E146E67
:10112000220E156E166A14C0E6FF15C0E6FF16C043
:10113000E6FF37EC19F0E552E552E552E20E146E87
:10114000220E156E166A14C0E6FF15C0E6FF16C023
:10115000E6FF37EC19F0E552E552E552010EDB6A85
:10116000DF50F36E010EDBCFF4FFF350F45C48E286
:10117000FD0EDBCFE9FFFE0EDBCFEAFF050EE92611
:10118000000EEA22E9CF14F0EACF15F0010EDB5091
:101190000F011424E96E000E1520EA6EEF50E66E82
:1011A000E66ADD0E166E220E176E186A16C0E6FF8E
:1011B00017C0E6FF18C0E6FF37EC19F0196E050EF0
:1011C000E15E1950FD0EDBCFE9FFFE0EDBCFEAFF3B
:1011D000050EE926000EEA22E9CF14F0EACF15F059
:1011E000010EDB500F011424E96E000E1520EA6E8B
:1011F000EF50E66ECDEC1AF0E552010EDB2AB0D7C7
:10120000DB0E146E220E156E166A14C0E6FF15C0B2
:10121000E6FF16C0E6FF37EC19F0E552E552E5525D
:10122000FB0EDBCFE6FF59EC00F0E552300EE66E28
:101230004EEC1BF0E552FB0EDBCFE6FF2CEC00F092
:10124000E552FC0EDB5002E1010E02D0FC0EDB5039
:10125000E76EFC0EE7CFDBFFDB508009E66ECDECDE
:101260001AF0E552FB0EDBCFE6FF59EC00F0E55239
:10127000010E00D0146E060EE15C02E2E16AE55256
:10128000E16E1450E552E7CFD9FF1200D9CFE6FF47
:10129000E1CFD9FF030EE126FE0EDBCFE6FF1D0EE8
:1012A000E66E86EC00F0E552E552DF6EFE0EDBCF17
:1012B000E6FF1C0EE66E86EC00F0E552E552E76EA6
:1012C000010EE7CFDBFFFE0EDBCFE6FF2D0EE66E55
:1012D00086EC00F0E552E552E76E020EE7CFDBFF49
:1012E000010EDBCFE6FFE66ADFCFE6FFE66AAA0E75
:1012F000146E220E156E166A14C0E6FF15C0E6FFC6
:1013000016C0E6FF37EC19F0176E070EE15E1750B6
:10131000020EDBCFE6FFE66A920E146E220E156E09
:10132000166A14C0E6FF15C0E6FF16C0E6FF37ECEC
:1013300019F0176E050EE15E1750030EE15C03E233
:1013400000D0E16AE552E16EE552E7CFD9FF120025
:10135000D9CFE6FFE1CFD9FF020EE126DF6A010E09
:10136000DB6ADF50146E156AD890155004E6FE0E45
:10137000145C000E155813E2010EDB50146E156A52
:10138000D890155004E6FE0E145C000E155803E2CA
:10139000010EDB2AF1D7010EDB6ADF2AE2D7020E4B
:1013A000E15C02E2E16AE552E16EE552E7CFD9FF86
:1013B0001200D9CFE6FFE1CFD9FFFD0EDBCFE9FF69
:1013C000FE0EDBCFEAFF030EEF6E010EE76EFD0EA1
:1013D000DBCFE9FFFE0EDBCFEAFFE750E926000E88
:1013E000EA22440EEF6E020EE76EFD0EDBCFE9FF40
:1013F000FE0EDBCFEAFFE750E926000EEA22F10EEF
:10140000EF6E030EE76EFD0EDBCFE9FFFE0EDBCFC6
:10141000EAFFE750E926000EEA22050EEF6EE552DC
:10142000E7CFD9FF1200D9CFE6FFE1CFD9FFFD0EFC
:10143000DBCFE9FFFE0EDBCFEAFF030EEF6E010EFE
:10144000E76EFD0EDBCFE9FFFE0EDBCFEAFFE750D4
:10145000E926000EEA22EF6A020EE76EFD0EDBCFF0
:10146000E9FFFE0EDBCFEAFFE750E926000EEA2295
:10147000C30EEF6E030EE76EFD0EDBCFE9FFFE0E2F
:10148000DBCFEAFFE750E926000EEA22040EEF6EFA
:08149000E552E7CFD9FF12007D
:0814980088EC0FF0FB0EDBCF26
:1014A000F3FFDB06F35000090AE0D6EC0FF0FA0E6A
:1014B00041EC10F0F3E1151CF1E1010E01D0000E3A
:1014C000B7EF0FF088EC0FF03B0EE12402E3E16888
:1014D000E652E16E010EDB6A020EDB6AF90EDBCF2B
:1014E000F6FFFA0EDBCFF7FFFB0EDBCFF8FF0800AD
:1014F000F550DF6EDF5002E1DBEF0EF0250EDF5C12
:1015000002E0CEEF0EF0030EDB6A040EDB6A050E7E
:10151000DB6A060EDB6A070EDB6AF0EC0EF02D0EBE
:10152000DF5C0CE02B0EDF5C09E0200EDF5C06E0E8
:10153000230EDF5C03E0300EDF5C1AE1DF50300A7F
:1015400014E0130A0FE0030A0AE00B0A05E0060A9A
:10155000E4E1030EDB80E1D7030EDB82DED7030E6E
:10156000DB84DBD7030EDB86D8D7030EDB88D5D729
:101570002A0EDF5C1BE1ECEC0EF03AEC0FF010E011
:10158000030EDB8006680768130EDBCF0BF0140E2A
:10159000DBCF0CF0BBEC18F0040E04C0DBFF03D073
:1015A000130E23EC0FF0F0EC0EF00BD0090EDB6AFB
:1015B00091EC0FF003E005EC10F0FAD7090E23ECE4
:1015C0000FF0030EDBB0DB982E0EDF5C1BE1F0ECBE
:1015D0000EF02A0EDF5C0BE1ECEC0EF03AEC0FF0B3
:1015E00003E1130E75EC0FF0F0EC0EF00BD0090ECA
:1015F000DB6A91EC0FF003E005EC10F0FAD7090E6E
:1016000075EC0FF0680EDF5C07E1F0EC0EF0680E91
:10161000DF5C1DE1030E18D0740EDF5C17E07A0E5C
:10162000DF5C14E0480EDF5C06E0540EDF5C03E094
:101630005A0EDF5C02E1020E07D06C0EDF5C03E0A5
:101640006A0EDF5C04E1010EC8EC0FF0C9DBDF506D
:101650006E0A01E17FD31E0A01E192D1200A01E165
:101660008FD13F0A01E149D11A0A01E146D10D0AA1
:1016700001E143D1200A01E140D13A0A01E13DD123
:10168000200A01E13AD1260A01E135D10D0A01E132
:1016900032D11A0A01E1D9D0200A4AE0300A1FE00B
:1016A000460A0EE0250A01E083D3D950F90FE96E0E
:1016B000FF0EDA20EA6E010EEE5E000EEE5AEE5AD2
:1016C000D6EC0FF0250EE66E95DB03E1151C01E16B
:1016D00069D3D2EC0FF001E26BD3DB2A69D3080E99
:1016E000DB6A040EDB50010806E2040EDB049AEC10
:1016F0000FF0DB508BDB080EDB5009E0030EDB50F4
:10170000010B05E172DB01E04DD3080EDB6A64DBFF
:10171000EFCFDFFF4AEC10F003E1151C01E142D3EB
:10172000D2EC0FF001E3DB2A60DB01E141D33AD3D5
:10173000070EDB5002080FE116EC10F0030EDDEC93
:101740000FF00E0EEECFDBFF0F0EEECFDBFF100E15
:10175000EECFDBFF20D0F70EDBCF17F0F80EDBCF9C
:1017600018F0020E175E000E185AF70E17C0DBFFB6
:10177000F80E18C0DBFF17C0E9FF18C0EAFFCDEC78
:101780000FF0166A0E0E14C0DBFF0F0E15C0DBFF44
:10179000100E16C0DBFF0E0EDBCFE6FF0F0EDBCF09
:1017A000E6FF100EDBCFE6FF84EC1AF0E552E552BF
:1017B000E552130E05C0DBFF140E06C0DBFF060E5C
:1017C000DB5005E0130E11EC10F001E26ADB35ECA2
:1017D00010F002E2130E37DBF8EC0FF006E0040E17
:1017E00011EC10F002E2050E2EDB030EDBB005D08B
:1017F000FCDA01E0D7D2080EDB6A090EDB6A0E0EB6
:10180000DBCFF6FF0F0EDBCFF7FF100EDBCFF8FFBD
:101810000800F550DF6EDF5014E03BEC10F011E2F1
:101820004AEC10F003E1151C01E1BCD2BBDB01E383
:10183000DB2A090EDB2AD9500E0FE96E000ECBDB36
:10184000E7D7D3DA01E1B4D2ADD2C6DA110EEECFCA
:10185000DBFF120EEDCFDBFF110EDBCFE6FF120E2A
:10186000DBCFE6FF76EC1AF0E552E552130EF3CF2C
:10187000DBFF140EF4CFDBFF060EDB5004E0130E8B
:10188000D0DB01E20EDB35EC10F002E2130EDBDA06
:10189000AFDB05E0040EC5DB02E2050ED4DA030E71
:1018A000DBB005D0A2DA01E07DD2080EDB6A090EBA
:1018B000DB6A110EDBCFE9FF120EDBCFEAFFEFCFC1
:1018C000DFFFDF5014E0D7DB12E2E4DB03E1151C9D
:1018D00001E168D267DB01E3DB2A090EDB2A110E86
:1018E000DB2ADBCFE9FF120EE8E3DB2AE6D77DDA5D
:1018F00001E15ED257D2030EDB8E070EDB0410E14E
:1019000095DB040E5ADB0A0EEECFDBFF0B0EEECF9B
:10191000DBFF0C0EEECFDBFF0D0EEECFDBFF6CD04E
:10192000070EDB5003082CE1030EDBAE0DD0B2DA5C
:10193000020E76DAEFCF14F0156A166A176A14AE43
:1019400039D01568166835D0F70EDBCF15F0F80ED4
:10195000DBCF16F0020E155E000E165AF70E15C0FC
:10196000DBFFF80E16C0DBFF15C0E9FF16C0EAFF6B
:10197000EFCF14F00A0E14C0DBFF0B0EDB6A38D079
:10198000070EDB50020809E1030EDBAE04D059DB81
:1019900016AE10D00ED055DB0DD0030EDBAE12D03C
:1019A00079DA020E3DDAF9DA166A176A15AE02D054
:1019B00016681768E2DA0C0E16C0DBFF0D0E17C0B2
:1019C000DBFF1AD0F70EDBCF16F0F80EDBCF17F0E7
:1019D000020E165E000E175AF70E16C0DBFFF80E49
:1019E00017C0DBFF16C0E9FF17C0EAFFD6DAC5DA79
:1019F0000C0EDB6A0D0EDB6A060EDB5005E1010EF4
:101A0000F36E050EF3CFDBFF150EDB6A160EDB6AF5
:101A1000D950370F146E000EDA20156E390E14C02F
:101A2000DBFF3A0E15C0DBFF380EDB6A080EDB6AFF
:101A30000A0EAEDADF50780A12E0200A10E0280A17
:101A40000CE0200A0AE03F0A06E00D0A02E0200A44
:101A500008E1020E05D0080E03D0080EDF26100E96
:101A600097DA030EDBBE02D0DB92DB94DB50800BF7
:101A700024E08ADAD890030EEB50000A08E6000E44
:101A8000EE5C000EEE58000EEE58000EEE5815E219
:101A900013DA09680A680B680C680AEC1AF00A0E77
:101AA00000C0DBFF0B0E01C0DBFF0C0E02C0DBFF32
:101AB0000D0E03C0DBFF2D0E08D0030EDBA202D0FB
:101AC0002B0E03D0DBA408D0200EF36E170EF3CF3D
:101AD000DBFF150EDB2A02D0170EDB6A050EDB508A
:101AE00003E1B7D901E189D0B20E146E360E156E3E
:101AF000000E166E070EDBCF17F0186A196A1A6A05
:101B000017C009F018C00AF019C00BF01AC00CF089
:101B1000D3D9A9EC1AF014500024F36E155001200B
:101B2000F46E16500220F86EF4CFF7FFF3CFF6FFF5
:101B30000800090EF5CFDBFF580EDF5C0FE1610EE8
:101B4000F36E090E7BD90AE3200E146E090EDBCF6B
:101B5000E7FF1450E75E090EE7CFDBFF070EDBCF90
:101B600014F0156A166A176A0FDA14C009F015C066
:101B70000AF016C00BF017C00CF0EECF04F0EECF59
:101B800005F0EECF06F0EFCF07F0A9EC1AF007C092
:101B9000EDFF06C0EDFF05C0EDFF04C0EFFF390EFD
:101BA000DBCFE9FFDB063A0EDBCFEAFF01E2DB0623
:101BB000090EDBCFEFFF150EDB2A4BD995E1030EA3
:101BC000DBA61DD06F0EDF5C06E1C1D918E3150E50
:101BD000DB285BDA14D0780EDF5C09E0580EDF5C9E
:101BE00006E0620EDF5C03E0420EDF5C08E1020EFD
:101BF000F36E160EF3CFDBFF02D0150EDB6A030E79
:101C0000DB50100B0EE0040EDBCF14F0050EDB50A2
:101C1000D880145406E2060EDB5003E1040EDB50BC
:101C200034DA95D90AE2050EDBCFE7FF150EDB505B
:101C3000E75E050EE7CFDBFF02D0050EDB6A040E80
:101C4000DBCF14F0160E45D9D880145414E2160ECA
:101C5000DBCFE6FF150EDBCFE6FF040EDBCFE6FFA2
:101C6000050EDB50E552E75CE552D880E754E552BB
:101C7000D880E7545FD9030EDB50010B0BE1080E4F
:101C8000DB5008E0B2D801E08DD0080EDB50BED8A2
:101C9000080EDB6A170EDB5007E088D9170EF1D962
:101CA00003E1151C01E17ED0160EDB5016E07ED953
:101CB000300EE66E9FD802E1151C74E077D9DFCFB5
:101CC000E6FFC8EC19F0E552E552E552F4CF15F005
:101CD0000001F31C02E1151C65E0050EDBCF14F0DA
:101CE000160EDB50D880145409E2050EDBCFE7FF57
:101CF000160EDB50E75E050EE7CFDBFF300EE66E1B
:101D0000050ECBD94FE1390EDB2ADBCFE9FF3A0EC6
:101D100001E3DB2ADBCFEAFF090EEFCFDBFFDB506D
:101D20000EE044D9090EADD902E1151C3BE0390E95
:101D3000DB2ADBCFE9FF3A0EEDE3DB2AEBD755D800
:101D400031E1160EDBCFE6FF080EC3D8E552E724DB
:101D50005DD82ED0070EDB50030A1CE0010A14E008
:101D6000030A07E07BD9DBCFEEFF020EDBCFEDFFEE
:101D70001FD0F5D8196A17AE02D0186819682CD888
:101D8000BCD819C0EEFF14D0EAD817BE186824D802
:101D9000B4D80ED063D9DBCFEFFF0AD07BD905E1F1
:101DA000151C03E1F368F46810D0FCD801E3DB2ACA
:101DB00079D977EF0AF0010EDBCF14F0020EDBCFFA
:101DC00015F014C0F3FF15C0F4FF3B0EE15C02E216
:101DD000E16AE552E16ECBD029D9020EDDEF0FF0BA
:101DE00061D90800F550DF6E1200200EE66E080E75
:101DF0004DEF10F0C8EC19F0E552E552E552F3CF83
:101E000014F0F4CF15F00001F31C1200146E156AE3
:101E1000D950010F4DD91450EE261550ED22120065
:101E2000185E000E195AF70E18C0DBFFF80E19C025
:101E3000DBFF18C0E9FF19C0EAFF1200DBCFF4FF97
:101E4000F350F45C1200DB50E76E040EE7CFDBFFCB
:101E500012000A0EDBCF14F00B0EDBCF15F00C0EC8
:101E6000DBCF16F00D0EDBCF17F014501510161047
:101E700017101200130EEECFDBFF140EEDCFDBFFB9
:101E8000130EDBCF14F0140EDBCF15F00001800E23
:101E900015141200F70EDBCF18F0F80EDBCF19F097
:101EA0001200050EDB50E66ED950130F01D9E55232
:101EB000E750EE6EED6A12000A0EDBCF04F00B0E57
:101EC000DBCF05F00C0EDBCF06F00D0EDBCF07F0FD
:101ED0001200DBCFE6FF150EDBCFE6FF050EDB5071
:101EE000E552E724E552E7241200DB50CED8010E7C
:101EF000F36E060EF3CFDBFF1200EE50EFCFEAFFDA
:101F0000E96E16C0EEFF17C0EEFF18C0EEFF12001C
:101F1000D9CFE6FFDACFE6FFE1CFD9FFE2CFDAFF94
:101F20001200DFCFE6FFE66A02EC1BF0E552E55255
:101F3000F3501200E76E080EE7CFDBFF1200EECF82
:101F400014F0EECF15F0EFCF16F0176A1200050E61
:101F5000DBCF14F0150EDB50D88014541200010EA4
:101F6000DBCF16F0020EDBCF17F0186A1200E55235
:101F7000E5CFDAFFE7CFD9FF12000A0E14C0DBFF6E
:101F80000B0E15C0DBFF1200D9500A0F58EF10F0EE
:101F9000F36E070EF3CFDBFF1200EECF14F0EFCF9E
:101FA00015F01200010EDB2A020E1200FC0EDBCF30
:101FB000E6FFFD0EDBCFE6FF1200145E000E155AA1
:101FC000F70E14C0DBFFF80E15C0DBFF14C0E9FFED
:101FD00015C0EAFF1200DA20EA6EEF2AEECFF6FF14
:101FE000000EEF22EECFF7FFEF22EECFF8FF120048
:101FF000040EDBCFE6FF130EDB50E552E75C9ADF01
:10200000DB5004DF060EDB501200090EDB500A0D18
:10201000F350DF24D00FE76E090EE7CFDBFFF0EFC0
:102020000EF0DB50F36E050E1EEF0FF0F70EDBCF58
:1020300014F0F80EDBCF15F01200DFCFE6FFFAEF59
:102040000EF028DF030EECDE9FEF0FF04CEC0AF0F1
:10205000E552E552E552E55200091200BDDEEE50B0
:10206000EFCFEAFFE96E010E1200130EDB50F36EA4
:10207000040E1EEF0FF0040EDB50F36E090E1EEF80
:102080000FF0DBCFE6FFFAEF0EF0E76E050EE7CFBD
:10209000DBFF12008BDF1DEF10F0DBCFE6FF86DFEA
:1020A00026EF10F0D950F90FE96EFF0EEBEF0FF0AD
:0A20B000E96E000EDA20EA6E12005D
:0620BA000D546865206C66
:1020C000656E676874206973202569200A000D20F9
:1020D0004D4F544F5220434F4E524F4C4C4552207F
:1020E0000A000D20205468652064617461206174C9
:1020F00074202569202069732020257820200A007B
:102100000D5468652061646472657373206973207F
:102110002578200A000D2073696D706C6520626956
:1021200074206F7065726174696F6E7320776F725F
:102130006B207269676874200A000D204572726F07
:1021400072202D73696D706C6520626974207368EC
:10215000696674206661696C73200A000D20535013
:102160004920666F72204D43505F3235313520690A
:1021700073206F70656E200A000D4D505054202E54
:10218000204661696C657220746F20696E697420E5
:102190004D435020323531352C207265736574699A
:1021A0006E67200A000D204D4F544F5220434F4E72
:1021B00054524F4C4C45522E20204661696C65723A
:1021C00020746F20696E6974204D43502032353180
:1021D000352C207265736574696E67200A000A0DDC
:1021E0002053657269616C204F70656E200A000A89
:1021F0000D74686520696E566F6C7461676520693F
:1022000073202569202C616E6420746865206F75C9
:10221000742063757272656E74206973202569205D
:1022200020616E6420746865206F7574566F6C74DD
:102230006167652069732025690A0A000A0D206814
:10224000656C6C6F3F3F3F3F000D0A68656C6C6FBB
:102250002D2D2D2D2D2D2D2D2D2D2D2D2D2D2D2DAE
:102260002D2D2D2D2D2D2D2D2D2D2D2D2D2D2D2D9E
:102270002D2D2D2D2D2D2D2D2D2D2D2D2D2D2D2D8E
:102280002D2D2D2D2D2D2D2D2D2D2D2D2D2D2D2D7E
:102290000A000D546865206572726F72206279744D
:1022A00065202D3E202562200A000D2074686520DF
:1022B0007265635F6572726F722069732025692091
:1022C000616E642074686520746563206572726F46
:1022D0007220697320256920200A000A005B257896
:1022E0005D000D207772697474696E672064617493
:1022F00061200A000D727472203D3D20300A000DED
:1023000072747220213D20300A000D746573746967
:102310006E672069642025782C20616E6420256218
:10232000206D657373616765206C656E67746820E6
:1023300025690A000D736F6D657468696E672068A2
:10234000617320676F6E652077726F6E6720696EAC
:10235000207468652072656769737465722073659F
:102360006C656374696F6E20706172742061637054
:10237000656374206F66205258202F6E000D205226
:102380006567697374657220736C656374696F6ED9
:10239000206E6F742056616C6964202D4C6F6164EF
:1023A000206D657373616765206661696C65642083
:1023B0000A000D206D6F6420320A000D206D6F64DD
:1023C00031200A000D5468657265206973206E6FB4
:1023D000206D65737361676520696E207468652080
:1023E000627566666572200A000D2052585F73742C
:1023F00061747573202D3E202562200A000D496E00
:1024000069742054696D696E6720697320736574FF
:10241000200A000D20536F6D655468696E67206651
:10242000756B6564207570200A000D2077616974F2
:10243000696E67200A000D207374617475732077CC
:1024400061732073657420746F20636F6E666967B3
:10245000206D6F6465200A000D204572726F722036
:10246000696E2073657474696E6720746F20636F82
:102470006E666967206D6F64652043414E53544119
:1024800054203D202562200A000D2073746174756C
:1024900073207761732073657420746F206C6F6F85
:1024A000704261636B206D6F6465200A000D2045EA
:1024B00072726F7220696E2073657474696E672022
:1024C000746F206C6F6F704261636B206D6F646519
:1024D000202043414E53544154203D202562200A80
:1024E000000D2073746174757320776173207365B8
:1024F0007420746F206C697374656E206D6F6465F1
:10250000200A000D204572726F7220696E2073657B
:102510007474696E6720746F206C697374656E20C3
:102520006D6F646520202043414E53544154203D3B
:10253000202562200A000D2057616B6520757020F0
:102540006661696C6564200A000D2073746174759E
:1025500073207761732073657420746F20417761F5
:102560006B65206D6F6465200A000D2073746174C3
:102570007573207761732073657420746F20736C9A
:10258000656570206D6F6465200A000D20457272CC
:102590006F7220696E2073657474696E6720746F42
:1025A00020536C656570206D6F646520202020438A
:1025B000414E53544154203D20202562200A000DF5
:1025C00073746174757320776173207365742074FC
:1025D0006F206E6F726D616C206D6F64650A000D07
:1025E000204572726F7220696E2073657474696E13
:1025F0006720746F206E6F726D616C206D6F646503
:1026000020202043414E53544154203D2025622038
:102610000A000A0D696E76616C6964652053504941
:102620002064657669636520746F206163746976E0
:102630006174652028776861742074686520667508
:10264000636B2061726520796F7520646F696E67B6
:032650003F29001F
:0C265400D9CFE6FFE1CFD9FF3F0EE12611
:10266000470EE66EE66A3C0EE66E83EC19F0E55224
:10267000E552E552DE0E146E210E156E166A14C078
:10268000E6FF15C0E6FF16C0E6FF37EC19F0E5528D
:10269000E552E552800EE66EE66A010EE66E42EC09
:1026A0001AF0E552E552E552020EF36E100EF3CF2A
:1026B000DBFF010EF36E110EF3CFDBFFD950160FC7
:1026C000E66E000EDA20E66E13EC0AF0E552E552F3
:1026D000D950160FE66E000EDA20E66E110EDBCF33
:1026E000E6FF26EC03F0E552E552E552F3CFDEFFBC
:1026F000F4CFDDFFD9CFE9FFDACFEAFFEE50ED10DE
:1027000023E0A50E146E210E156E166A14C0E6FFA6
:1027100015C0E6FF16C0E6FF37EC19F0E552E552AA
:10272000E552D950160FE66E000EDA20E66E110E55
:10273000DBCFE6FF26EC03F0E552E552E552F3CF9E
:10274000DEFFF4CFDDFFD6D7110EDBCFE6FFF8ECCE
:1027500000F0E552D950120FE66E000EDA20E66E58
:10276000D9EC09F0E552E552D950120FE66E000E91
:10277000DA20E66E100EDBCFE6FF26EC03F0E55222
:10278000E552E552F3CFDEFFF4CFDDFFD9CFE9FF0D
:10279000DACFEAFFEE50ED1023E0790E146E210E31
:1027A000156E166A14C0E6FF15C0E6FF16C0E6FFF8
:1027B00037EC19F0E552E552E552D950120FE66EAA
:1027C000000EDA20E66E100EDBCFE6FF26EC03F0FB
:1027D000E552E552E552F3CFDEFFF4CFDDFFD6D769
:1027E0005C0E146E210E156E166A14C0E6FF15C03D
:1027F000E6FF16C0E6FF37EC19F0E552E552E55268
:10280000100EDBCFE6FFF8EC00F0E552060EE66EA8
:10281000BF0EE66E0AEC00F0E552E552000911E049
:102820003A0E146E210E156E166A14C0E6FF15C01E
:10283000E6FF16C0E6FF37EC19F0E552E552E55227
:1028400010D0150E146E210E156E166A14C0E6FF18
:1028500015C0E6FF16C0E6FF37EC19F0E552E55269
:10286000E5523D0EDB6A110EF36E220EF3CFDBFF55
:10287000070EF36E230EF3CFDBFF250EDB6A400E4F
:10288000F36E270EF3CFDBFFAA0EF36E280EF3CF05
:10289000DBFF600EF36E290EF3CFDBFF700EF36EDD
:1028A0002A0EF3CFDBFF260EDB6A100EDBCFE6FF2E
:1028B000020EE66ED950220FE66E000EDA20E66EAA
:1028C000B3EC05F0E552E552E552E552300EE66E06
:1028D0004EEC1BF0E552100EDBCFE6FFD9502F0F68
:1028E000E66E000EDA20E66E64EC04F0E552E55286
:1028F000E55200096EE02F0EDBCFE6FF300EDBCF96
:10290000E6FF000E146E210E156E166A14C0E6FF67
:1029100015C0E6FF16C0E6FF37EC19F0176E050E7E
:10292000E15E1750320EDB50F36E3D0EDBCFF4FF4D
:10293000F350F45C2BE2D950340F146EDACF15F05B
:102940003D0EDB500F011424E96E000E1520EA6ED7
:102950003E0EEFCFDBFFDBCFE6FFE66A3D0EDBCFBF
:10296000E6FFE66AE20E146E200E156E166A14C0BB
:10297000E6FF15C0E6FF16C0E6FF37EC19F0176E4C
:10298000070EE15E17503D0EDB2ACCD7D9501A0F47
:10299000E96EDACFEAFFEECFE6FFEECFE6FFEECF4D
:1029A000E6FFEECFE6FFEECFE6FFEECFE6FFEECF9F
:1029B000E6FFEECFE6FFD950340FE66E000EDA20C8
:1029C000E66E79EC15F0146E0A0EE15E1450A8EC78
:1029D00009F0110EDBCFE6FFD9502F0FE66E000E87
:1029E000DA20E66E64EC04F0E552E552E5520009A7
:1029F00074E0CE0E146E200E156E166A14C0E6FF3B
:102A000015C0E6FF16C0E6FF37EC19F0E552E552B7
:102A1000E5522F0EDBCFE6FF300EDBCFE6FF000ED8
:102A2000146E210E156E166A14C0E6FF15C0E6FF7F
:102A300016C0E6FF37EC19F0176E050EE15E175071
:102A4000320EDBCFE6FFE66ABA0E146E200E156E6C
:102A5000166A14C0E6FF15C0E6FF16C0E6FF37ECA5
:102A600019F0176E050EE15E17503D0EDB6A320E4F
:102A7000DB50F36E3D0EDBCFF4FFF350F45C2BE242
:102A8000D950340F146EDACF15F03D0EDB500F0124
:102A90001424E96E000E1520EA6E3E0EEFCFDBFF28
:102AA000DBCFE6FFE66A3D0EDBCFE6FFE66AE20E2D
:102AB000146E200E156E166A14C0E6FF15C0E6FFF0
:102AC00016C0E6FF37EC19F0176E070EE15E1750DF
:102AD0003D0EDB2ACCD7A8EC09F0C3D6E5D53F0ED6
:102AE000E15C02E2E16AE552E16EE552E7CFD9FF2F
:022AF0001200D2
:0E2AF200D9CFE6FFE1CFD9FF020EE126490E53
:102B0000146E220E156E166A14C0E6FF15C0E6FF9D
:102B100016C0E6FF37EC19F0E552E552E552FD0E1E
:102B2000DBCFE9FFFE0EDBCFEAFFEF50E66EFB0ED8
:102B3000DBCFE9FFFC0EDBCFEAFF070EE926000E34
:102B4000EA22E552E750EF6EFD0EDBCFE9FFFE0E05
:102B5000DBCFEAFFEF50030B166E16C017F0166AB4
:102B6000010EE76EFD0EDBCFE9FFFE0EDBCFEAFFC5
:102B7000E750E926000EEA22EF5000011610146E0D
:102B800017C015F014C0DEFF15C0DDFFFB0EDBCF54
:102B9000E9FFFC0EDBCFEAFF020EE926000EEA2277
:102BA00014C0EEFF15C0EDFFDFCF06F0010EDBCF46
:102BB00007F031EC17F005C01AF006C01BF007C093
:102BC0001CF008C01DF00A6A0B6AC80E0C6E420E9B
:102BD0000D6E1AC005F01BC006F01CC007F01DC02A
:102BE00008F099EC17F005C016F006C017F007C002
:102BF00018F008C019F0DF0E0A6EE00E0B6ED10E51
:102C00000C6E400E0D6E16C005F017C006F018C011
:102C100007F019C008F046EC17F006EC18F006C0F3
:102C200014F007C015F0FB0EDBCFE9FFFC0EDBCF85
:102C3000EAFF020EE926000EEA2214C0EEFF15C0DC
:102C4000EDFF020EE76EFD0EDBCFE9FFFE0EDBCFE0
:102C5000EAFFE750E926000EEA22EF50030B166E5A
:102C600016C017F0166A030EE76EFD0EDBCFE9FF04
:102C7000FE0EDBCFEAFFE750E926000EEA22EF5016
:102C800000011610146E17C015F0FB0EDBCFE9FF24
:102C9000FC0EDBCFEAFF14C0EEFF15C0EDFF040E03
:102CA000E76EFD0EDBCFE9FFFE0EDBCFEAFFE7505C
:102CB000E926000EEA22EF50030B166E16C017F03D
:102CC000166A050EE76EFD0EDBCFE9FFFE0EDBCFC9
:102CD000EAFFE750E926000EEA22EF501610146EC4
:102CE00017C015F014C0DEFF15C0DDFF000EDFCFEA
:102CF00006F0010EDBCF07F031EC17F005C01AF03B
:102D000006C01BF007C01CF008C01DF00A6A0B6A61
:102D1000C80E0C6E420E0D6E1AC005F01BC006F0F8
:102D20001CC007F01DC008F099EC17F005C016F0A4
:102D300006C017F007C018F008C019F0050E0A6E9B
:102D4000340E0B6E970E0C6E400E0D6E16C005F015
:102D500017C006F018C007F019C008F046EC17F0CD
:102D600006EC18F006C014F007C015F0FB0EDBCF20
:102D7000E9FFFC0EDBCFEAFF040EE926000EEA2293
:102D800014C0EEFF15C0EDFF060EE76EFD0EDBCFA3
:102D9000E9FFFE0EDBCFEAFFE750E926000EEA224C
:102DA000EF50E66EFB0EDBCFE9FFFC0EDBCFEAFF58
:102DB000060EE926000EEA22E552E750EF6E3C0EC1
:102DC000146E220E156E166A14C0E6FF15C0E6FFDB
:102DD00016C0E6FF37EC19F0E552E552E552FB0E5E
:102DE000DBCFE9FFFC0EDBCFEAFF040EE926000E85
:102DF000EA22EECFE6FFEFCFE6FFFB0EDBCFE9FFE7
:102E0000FC0EDBCFEAFFEECFE6FFEFCFE6FFFB0ED7
:102E1000DBCFE9FFFC0EDBCFEAFF020EE926000E56
:102E2000EA22EECFE6FFEFCFE6FFEF0E146E210EA3
:102E3000156E166A14C0E6FF15C0E6FF16C0E6FF61
:102E400037EC19F0176E090EE15E1750020EE15CC7
:102E500003E200D0E16AE552E16EE552E7CFD9FF27
:022E600012005E
:0E2E62000F9E08D00F9E07AE05D0066C071E0F
:102E7000E86A07220F8E07C001F006C000F0136A4F
:102E8000126A8E0E026E036A51EF18F00F6A8DEC13
:102E900018F0A5EC18F00FB635EF18F00FA205D01A
:102EA0000FBA35EF18F03CEF18F00FBA48EF18F0F2
:102EB0000FA005D00FB835EF18F048EF18F00FB895
:102EC0003CEF18F0036A7F0E0824026EE86A0322C2
:102ED0000D50025EE86A035A1A0E106E086A126AF2
:102EE000136A006A016A0A50055E0B50065A0C50BC
:102EF000075A000E085A09E70A5005260B50062209
:102F00000C500722000E082201D0128AD8900536F4
:102F1000063607360836D890123613360036013694
:102F2000102EE1D7075006100510D8A4128A51EFD1
:102F300018F00F6A8DEC18F0A5EC18F00FB635EF0D
:102F400018F00FA205D00FB835EF18F03CEF18F0CD
:102F50000FAA05D00FB035EF18F03CEF18F00FB006
:102F600002D00FA802D048EF18F0036A0D500824D1
:102F7000026EE86A03227E0E025EE86A035A126A53
:102F8000136A006A016A0C500702F4CF01F0F3CF14
:102F900000F00B500702F3501326F4500022000EED
:102FA00001220C500602F3501326F4500022000EAA
:102FB00001220A500702F3501226F4501322000E89
:102FC000002201220B500602F3501226F450132265
:102FD000000E002201220C500502F3501226F4507C
:102FE0001322000E002201220A500602F45012267B
:102FF000000E1322002201220B500502F45012266B
:10300000000E13220022012251EF18F00F6A8DECFE
:1030100018F00FB610EF18F00FA20ED00FB405D0B5
:103020007F0E076EFF0E066E1FD0800E076E066ABB
:103030001BD0076A066A18D00FB0FBD78F0E086046
:10304000EDD77E0E0864F5D78E0E085C05E0D890AB
:1030500007320632082AF8D70FA406D0066C071EDE
:10306000E86A072207AEE5D712007F0E086EFF0E52
:10307000076E066E056E12007F0E0FBEFF0E086E05
:1030800002D07F0E086E800E076E066A056AF3D7BF
:103090000FAE04D0800E086E076AF7D7086A076A79
:1030A000F4D70150001013101210F8E003BEF0D74F
:1030B00001BE0CD002500310EBE0D890123613364C
:1030C000003601360206D8A00306F2D70350D4E139
:1030D0000228D2E012AE11D07F0E121402E113A02A
:1030E0000CD0132AE86A0022012207E3D8800132BB
:1030F00000321332022A0228BFE00250C9E013C096
:1031000005F000C006F00134076E0230086E073289
:10311000089E0FBE088E3BEF18F00736083602E314
:103120000F840F7E06E10F80086A076A066A056A47
:103130001200082803E0D88007321200D890073226
:1031400002E10F8212000F8612000C360D3602E3E8
:103150000F8C0F7E06E10F880D6A0C6A0B6A0A6AF3
:1031600012000D2803E0D8800C321200D8900C32E7
:10317000EAE10F8A120007C013F006C012F00650F1
:103180000B02F4CF05F0F3CF04F007500C02F4CF9C
:1031900007F0F3CF06F00B02F3500526F450062299
:1031A000E86A072212500C02F3500526F45006225A
:1031B000E86A07220CAEE1EF18F01250065E1350D9
:1031C000075A13AE000C0B50065E0C50075A000C49
:1031D000060EF66E000EF76E000EF86E0001090086
:1031E000F550656F0900F550666F03E1656701D022
:1031F0003DD00900F550606F0900F550616F09007E
:10320000F550626F09000900F550E96E0900F550AC
:10321000EA6E090009000900F550636F0900F550D6
:10322000646F09000900F6CF67F0F7CF68F0F8CFB8
:1032300069F060C0F6FF61C0F7FF62C0F8FF0001EF
:10324000635302E1645307E00900F550EE6E630733
:10325000F8E26407F9D767C0F6FF68C0F7FF69C0F6
:0E326000F8FF00016507000E665BBFD7120085
:02326E00D9CFB6
:10327000E6FFDACFE6FFE1CFD9FFE2CFDAFFE65291
:10328000E652E652E652D950FB0F146EFF0EDA20DA
:10329000156E14C0DEFFDD6EDECFE6FFDDCFE6FF8C
:1032A000FB0EDBCFE6FFFC0EDBCFE6FFFD0EDBCF38
:1032B000E6FF6AC0E6FF6BC0E6FF62EC0AF0146E40
:1032C000070EE15C02E2E16AE552E16E1450020E83
:1032D000F3CFDBFF030EF4CFDBFF020EDBCF14F0E6
:1032E000030EDBCF15F014C0F3FF15C0F4FF040E7E
:1032F000E15C02E2E16AE552E16EE552E5CFDAFF18
:06330000E7CFD9FF120027
:0A330600D9CFE6FFDACFE6FFE1CFF2
:10331000D9FFE2CFDAFFAC6AAB6AFD0EDBB0AC8856
:10332000DBA202D0AC8CAB8CDBB4AC8EDBA602D0C3
:10333000AB8801D0AB8ADBB8AC849E98DBBAAB8695
:10334000DBAC02D09D8A01D09D9A9E9ADBAE02D062
:103350009D8801D09D98FB0EDB50AF6EFB0EFC0EDE
:10336000DBCF15F015C014F0156A1450B06EAC8A9E
:10337000AB8E949C948EAC50100B04E0AC50800B40
:1033800001E1948CE552E5CFDAFFE7CFD9FF1200D7
:10339000D9CFE6FFDACFE6FFE1CFD9FFE2CFDAFF00
:1033A000FB0EDBCF14F0FC0EDBCF15F00001800E1E
:1033B00015141AE1FB0EDBCFE9FFFC0EDBCFEAFFB1
:1033C000EECFF3FFEDCFF4FFEE2A000EEF22F3CFA6
:1033D000E9FFF4CFEAFFFD0EDBCFEFFFEF50156AF8
:1033E000F36E15C0F4FF10D0FB0EDB50FE0806E1B3
:1033F000FD0EDBCFE6FF32EC1BF005D0FD0EDBCF80
:10340000E6FF62EC1BF0E552E552E5CFDAFFE7CFCD
:04341000D9FF1200CE
:0C34140004500902F3CF00F0F4CF01F0E7
:103420000A02F3500126000EF420026E04500B0233
:10343000F3500226000EF420036E04500C02F350E9
:10344000032605500902F3500126F4500222000E13
:10345000032205500A02F3500226F45003220550BD
:103460000B02F350032606500902F3500226F450D3
:10347000032206500A02F350032607500902F350B4
:04348000032612000D
:0C348400D9CFE6FFDACFE6FFE1CFD9FF99
:10349000E2CFDAFF3F0EC716C66AFD0EDB50C6123A
:1034A000FB0EDB50C712FC0EDB50030A09E0010AD9
:1034B00004E0020A06E1C78C04D0C78CC68801D09C
:1034C000C688FD0EDB50050A05E0010A05E1948679
:1034D000928A03D0948601D094969488949AC68A4E
:0C34E000E552E5CFDAFFE7CFD9FF12007C
:0434EC00FE0EE3CF1E
:1034F000E9FFFF0EE3CFEAFFF36AF46AEE5203E05E
:10350000F34AF42AFBD71200FF0EE3CFF8FFE5528F
:10351000FF0EE3CFF7FFE552FF0EE3CFF6FFE552D4
:10352000E66AE66AE66A0900F55209E0FD0EE32A5A
:1035300005E1FE0EE32A02E1FF0EE32AF4D7FD0EB9
:10354000E3CF05F0FE0EE3CF06F0FF0EE3CF07F06A
:02355000120067
:0E355200036A026A016A006A200EE76ED890D2
:10356000043605360636073600360136023603368F
:103570000950005C0A5001580B5002580C50035877
:1035800009E30950005E0A50015A0B50025A0C50D0
:0A359000035A042AE72EE4D71200C4
:06359A00D9CFE6FFDACFF5
:1035A000E6FFE1CFD9FFE2CFDAFFE652C950DF6E86
:1035B0009E96C69EFD0EDB50C96EC6AE02D0FF0EB3
:1035C00003D09EA6FED7000EE552E552E5CFDAFF06
:0635D000E7CFD9FF120055
:0A35D600D9CFE6FFDACFE6FFE1CF20
:1035E000D9FFE2CFDAFFE652C950DF6E9E96C96A74
:1035F0009EA6FED7C950E552E552E5CFDAFFE7CFE8
:04360000D9FF1200DC
:0C360400F36AF46AFF0EE124E96EFF0E89
:10361000E220EA6EED6607D02F0EEF6404D03A0E7A
:08362000EF6001D0F32A120053
:08362800000EF36E00EE00F04D
:10363000030E01D81200EA6002D0EE6AFCD7F35004
:08364000E9601200EE6AFCD7FC
:0836480012EE00F022EE00F08A
:10365000F86A0F9CE8EC18F063EC1BF02AEC13F00E
:04366000FBD7120082
:0C366400FF0EE350ACBA04D0AF6AAB8E8E
:10367000AC8A949CACA2FED7AD6EF36EF46A1200D5
:10368000FF0EE3501E6E1B0E00D001D0200EE76E21
:0C369000E72EFED71E2EFAD700D0120045
:04369C00FF0EE350EA
:1036A000E84E1200000000D000D000D0E82EFAD77B
:0236B000120006
:0E36B200303132333435363738396162636473
:0336C0006566003C
:0236C4001200F2
:0236C6001200F0
:0236C800FEFF03
:020000040030CA
:0100010032CC
:01000200FFFE
:01000300FEFE
:01000600AB4E
:00000001FF
